:03000000028CDA95
:0800F800FFFF4457494E543547
:108CDA00759401759502758E0075930075C8707547
:108CEA00C96075F80075F90175A80075B800759A1C
:108CFA000075A90075B90053D0E7787FE4F6D8FD6E
:108D0A009080007F007E80E4F0A3DFFCDEFA7581AC
:048D1A0027028D5946
:1069580090C78AEEF0A3EFF0A3EBF0A3EAF0A3E967
:01696800F03E
:10696900E490C791F0A3F0A3F0A3F0A3F0A3F0A3E0
:10697900F0A3F090C78FE0FAA3E0FB4A7003026B23
:106989001790C78AE0FEA3E0FFC3E49FFFE49EFEE1
:10699900E4FCFD90C799122DDAAF03AE02E4FCFDC9
:1069A90090C799E0F8A3E0F9A3E0FAA3E0FBC312CA
:1069B9002DB6501190C799A3A3E0FFA3E090C78F0C
:1069C900CFF0A3EFF090C78AE0FCA3E0FDECC3137E
:1069D900FFED1390C791CFF0A3EFF0ED5401FFA3A2
:1069E900E4F0A3EFF0C2AFE4F5F190C791E0FCA3A6
:1069F900E0FDECF5F28DF375F40175F8AF30FCFDAF
:106A090090C793E07002A3E0603DD2FE20FEFD90A6
:106A1900C78CE0FBA3E475F001122BE9A9F0FAE5B4
:106A2900FC122B0290C78CE0FBA3E475F001122B3A
:106A3900E9A9F0FAE5FD122B0290C790E024FFF0D6
:106A490090C78FE034FFF090C78FE0FCA3E0FDEC26
:106A5900C313FFED1390C795CFF0A3EFF0ED5401E9
:106A6900FFA3E4F0A3EFF090C79574FFF5F0122BA4
:106A7900E945F0605BD2FE20FEFD90C78CE0FBA3E8
:106A8900E475F001122BE9A9F0FAE5FA122B02904C
:106A9900C78CE0FBA3E475F001122BE9A9F0FAE534
:106AA900FB122B0290C78CE0FBA3E475F001122BBB
:106AB900E9A9F0FAE5FC122B0290C78CE0FBA3E4EC
:106AC90075F001122BE9A9F0FAE5FD122B02809766
:106AD90090C797E07002A3E0602FD2FE20FEFD90E0
:106AE900C78CE0FBA3E475F001122BE9A9F0FAE5E4
:106AF900FA122B0290C78CE0FBA3E475F001122B6C
:0E6B0900E9A9F0FAE5FB122B02E4F5F8D2AF91
:016B1700225B
:106FFA0090C78BEEF0A3EFF0A3EBF0A3EAF0A3E9BE
:01700A00F095
:10700B00E490C792F0A3F0A3F0A3F0A3F0A3F09049
:10701B00C790E07002A3E0700302718C90C78BE005
:10702B00FEA3E0FFC3E49FFFE49EFED390C791E075
:10703B009F90C790E09E4005EEF0A3EFF090C78BBA
:10704B00E0FAA3E0FBEAC313FCEB13FDEB5401FFE7
:10705B0090C792E4F0A3EFF0C2AFE4F5F1ECF5F2D8
:10706B00AF058FF375F40175F88330FCFD90C79273
:10707B00E07002A3E0603D90C78DE0FBA3E475F0E8
:10708B0001122BE9A9F0FA122ABCF5FC90C78DE08E
:10709B00FBA3E475F001122BE9A9F0FA122ABCF557
:1070AB00FDD2FE20FEFD90C791E024FFF090C7902B
:1070BB00E034FFF090C790E0FCA3E0FDECC313FFBE
:1070CB00ED1390C794CFF0A3EFF0ED5401FFA3E4C1
:1070DB00F0A3EFF075F88F90C79474FFF5F0122BB7
:1070EB00E945F0605B90C78DE0FBA3E475F00112FE
:1070FB002BE9A9F0FA122ABCF5FA90C78DE0FBA395
:10710B00E475F001122BE9A9F0FA122ABCF5FB90F9
:10711B00C78DE0FBA3E475F001122BE9A9F0FA127D
:10712B002ABCF5FC90C78DE0FBA3E475F001122B94
:10713B00E9A9F0FA122ABCF5FDD2FE30FE9980FBCC
:10714B0090C796E07002A3E0603275F88C90C78D03
:10715B00E0FBA3E475F001122BE9A9F0FA122ABCAB
:10716B00F5FA90C78DE0FBA3E475F001122BE9A9AA
:10717B00F0FA122ABCF5FBD2FE20FEFDE4F5F8D2A4
:01718B00AF54
:01718C0022E0
:10A54E00EF4E6010E4FD0DEDC3943240F9EF1F7035
:04A55E00EF1E80EC80
:01A5620022D6
:0894EE0090C5B1EEF0A3EFF010
:1094F600A3745AF0A37401F090C5B1E0FCA3E0FD9B
:10950600EC90C5B5F0A3EDF07B017AC579B390C7B1
:1095160090E4F0A37402F07F847E00126FFA7FF469
:109526007E0112A54E7B017AC579B390C78FE4F010
:10953600A37402F07F147E0012695890C5B1E0FE54
:10954600A3E0FFA3E0B506D6A3E0B507D1E490C536
:10955600B3F0A3F0A3F0A3F07B017AC579B390C76B
:0D95660090F0A37402F07F167E00026FFAF1
:089E970090C5BAEEF0A3EFF054
:109E9F00E4A3F0A3F090C5BAE0FEA3E0FFC390C522
:109EAF00BDE09F90C5BCE09E5025E4FBFA7F017E8C
:109EBF000012A54E0BBB00010ABA01F1BB2CEE90AC
:0F9ECF00C5BDE004F070CE90C5BCE004F080C6C5
:019EDE002261
:109EDF00EF14601814602314602E24037039A80542
:109EEF007401088002C333D8FC42B722A80574015D
:109EFF00088002C333D8FC42BC22A8057401088035
:109F0F0002C333D8FC42BD22AF05A80774010880F5
:089F1F0002C333D8FC42BE224C
:109DB700EF1460191460251460312403703DA80561
:109DC7007401088002C333D8FCF452B722A8057483
:109DD70001088002C333D8FCF452BC22A8057401E1
:109DE700088002C333D8FCF452BD22AF05A807741C
:0C9DF70001088002C333D8FCF452BE22E5
:10919A00EF14602D14604A1460672403600302927E
:1091AA002CEB600EA8057401088002C333D8FC4278
:1091BA008022A8057401088002C333D8FCF45280C7
:1091CA0022EB600EA8057401088002C333D8FC4262
:1091DA009022A8057401088002C333D8FCF4529087
:1091EA0022EB600EA8057401088002C333D8FC4242
:1091FA00A022A8057401088002C333D8FCF452A047
:10920A0022EB600EA8057401088002C333D8FC4221
:10921A00B022AF05A8077401088002C333D8FCF452
:03922A0052B0221D
:109C1F00EF14601A14602714603424037042A805EF
:109C2F007401088002C333D8FC5580FE8034A80528
:109C3F007401088002C333D8FC5590FE8024A80518
:109C4F007401088002C333D8FC55A0FE8014AF0501
:109C5F00A8077401088002C333D8FC55B0FE8002F8
:049C6F00E4FEAF065A
:019C730022CE
:10A41400758911E4F58CF58AC28CF518F51A43890F
:0CA4240001758CBC758ACDD2A9D28C22A7
:03000B00029670EA
:0D967000C0E0C0D075D000C000C006C0072B
:10967D00C2AF758CBC758ACD05197527007E007437
:10968D0001A827088005C333CE33CED8F9FFEF5597
:10969D001A602DE52725E02408F808E61618700154
:1096AD0016E52725E02408F8E6FE08E64E7011AF12
:1096BD0027A80704088002C333D8FC4218F4521AB5
:0996CD000527E527B408B6D2AF69
:0B96D600D007D006D000D0D0D0E0328A
:10A53600758911E4F58DF58BC28E438910758DBC36
:08A54600758BCDD2ABD28E2241
:03001B0002A5FC3F
:0DA5FC00C2AF758DBC758BCDB290D2AF3261
:10A58D0075C8F075CD58E4F5CC75CB58F5CA43C8F0
:04A59D0001D2AD2218
:03002B0002A61317
:09A61300C2AFC2C6B291D2AF324F
:10A33700C2AFA8077401088002C333D8FCFE421AD3
:10A34700EF25E02408F8A60408A605EEF45218D273
:02A35700AF2233
:10A56300C2AFA8077401088002C333D8FCF4521A9F
:05A573005218D2AF22D6
:10A5B500C2AFA8077401088002C333D8FC5518FF41
:02A5C500D2AF13
:01A5C7002271
:109D1C00AB07AA06A905A8047F007E387D317C001C
:109D2C00122D0EC3E49F90C587F074049E90C586D7
:109D3C00F043C9407D04E4FF129EDF7D05E4FF1271
:109D4C009DB743803075D88075985090C586E0FCDF
:0D9D5C00A3E0FDECF5BA8DAA43A810D2AC2F
:019D690022D7
:109E4E00AB07AA06A905A8047F007E707D627C0080
:109E5E00122D0EC3E49F90C587F074049E90C586A4
:109E6E00F043C9207D06E4FF129EDF7D07E4FF125A
:109E7E009DB74380C0759B9090C586E0FCA3E0FD26
:089E8E00ECF5BB8D9D439A0128
:019E960022A9
:10A23B007596C07597C0AB07AA06A905A8047F0041
:10A24B007EC07D897C01122D0EAD07AC06ECF5D9D5
:0FA25B00AF058FE743B80CE4FDFF129EDFC28012
:01A26A0022D1
:10A2C30075A78075AB80AB07AA06A905A8047F0014
:10A2D3007EC07D897C01122D0EAD07AC06ECF5AE78
:07A2E300AF058FAF43B83057
:01A2EA002251
:109CC900EF14601B1460291460372403704490C595
:109CD90082E0FCA3E0FDA3E0FEA3E0FF029D1C904F
:109CE900C582E0FCA3E0FDA3E0FEA3E0FF029E4ED7
:109CF90090C582E0FCA3E0FDA3E0FEA3E0FF02A281
:109D09003B90C582E0FCA3E0FDA3E0FEA3E0FF12C7
:039D1900A2C322C0
:1067970090C782EFF0A3ECF0A3EDF0A3EBF0A3EA30
:0467A700F0A3E9F082
:1067AB00C2AFE4A3F0A3F090C783E0FEA3E0FFC366
:1067BB0090C789E09F90C788E09E400302686F9066
:1067CB00C785E0FBA3E475F001122BE9A9F0FA12DF
:1067DB002ABCFF90C782E0FE75F009A42400F58265
:1067EB00E5F03488F583EE75F008A42583F583E096
:1067FB00FCA3E0FD75F009EEA42400F582E5F0346E
:10680B0080F583EE75F008A42583F583E5822DF5DD
:10681B0082E5833CF583EFF075F009EEA42400F5D7
:10682B0082E5F03488F583EE75F008A42583F583B3
:10683B00E475F001122BD375F009EEA42400F58258
:10684B00E5F03488F583EE75F008A42583F583E035
:10685B005403F090C789E004F0700690C788E004F9
:10686B00F00267B290C782E014604214607014703B
:10687B000302692524036003026955908808E060D0
:10688B000302695504F0908802E0FEA3E02400F5B2
:10689B008274803EF583E0F599908803E004F070F4
:1068AB0006908802E004F0908802026951909011E2
:1068BB00E0600302695504F090900BE0FEA3E02426
:1068CB0009F58274883EF583E0F59C90900CE0040A
:1068DB00F0700690900BE004F090900B806890980D
:1068EB001AE07066D28004F0909814E0FEA3E024C6
:1068FB0012F58274903EF583E0FF30D0055396DF9E
:10690B0080034396208F9E909815E004F0700690BC
:10691B009814E004F0909814802C90A023E0702A37
:10692B0004F090A01DE0FEA3E0241BF58274983EBA
:10693B00F583E0F5AC90A01EE004F0700690A01D6E
:0C694B00E004F090A01DE05403F0D2AF77
:01695700221D
:0300230002934DF8
:10934D00C0E0C083C082C0D075D000C006C007C2C7
:10935D00AF30982AC298908804E0FEA3E02400F56F
:10936D008274843EF583E599F0908805E004F070F1
:10937D0006908804E004F0908804E05403F03099DE
:10938D003FC299908802E0FEA3E0FF908800E06E56
:10939D007003A3E06F602474002FF58274803EF596
:1093AD0083E0F599908803E004F07006908802E060
:1093BD0004F0908802E05403F08005908808E4F0F2
:0F93CD00D2AFD007D006D0D0D082D083D0E0323C
:030053000297C150
:1097C100C0E0C083C082C0D075D000C006C007C24F
:1097D100AF5396FE909814E0FEA3E0FF909812E03C
:1097E1006E7003A3E06F603074122FF58274903EA7
:1097F100F583E0FF30D0055396DF80034396208F39
:109801009E909815E004F07006909814E004F09092
:109811009814E05403F0800790981AE4F0C280D2C3
:0E982100AFD007D006D0D0D082D083D0E032B6
:03005B00029AA165
:109AA100C0E0C083C082C0D075D000C006C007C26C
:109AB100AF5397FEE59FE59770047F0180027F0019
:109AC100EF5420FFA2D0E433B50728909816E0FEAA
:109AD100A3E02412F58274943EF583E59FF09098FB
:109AE10017E004F07006909816E004F0909816E0E4
:109AF1005403F0D2AFD007D006D0D0D082D083D0DB
:029B0100E03250
:03006300029B03FA
:109B0300C0E0C083C082C0D075D000C006C007C209
:109B1300AF53A7FE90A01DE0FEA3E0FF90A01BE0C3
:109B23006E7003A3E06F6024741B2FF58274983E5C
:109B3300F583E0F5AC90A01EE004F0700690A01D44
:109B4300E004F090A01DE05403F0800590A023E40E
:109B5300F0D2AFD007D006D0D0D082D083D0E032BD
:03006B00029F6F82
:109F6F00C0E0C083C082C0D075D000C006C2AF535E
:109F7F00ABFE90A01FE0FEA3E0241BF582749C3E75
:109F8F00F583E5ADF090A020E004F0700690A01FDF
:109F9F00E004F090A01FE05403F0D2AFD006D0D071
:079FAF00D082D083D0E03224
:030083000290FFE9
:1090FF00C0E0C083C082C0D075D000C006C007C218
:10910F00AFE59B30E02E759B90539BFE90900DE04A
:10911F00FEA3E02409F582748C3EF583E59CF09064
:10912F00900EE004F0700690900DE004F090900D1A
:10913F00E05403F0E59B30E143759B90539BFD900A
:10914F00900BE0FEA3E0FF909009E06E7003A3E0A8
:10915F006F602474092FF58274883EF583E0F59CC7
:10916F0090900CE004F0700690900BE004F090905B
:10917F000BE05403F08005909011E4F0D2AFD007CC
:0B918F00D006D0D0D082D083D0E032D8
:10A2090090C5817403F0A374C8F043C9207D06E4A6
:10A21900FF129EDF7D07E4FF129DB74380C0759B47
:10A229009090C581E0FCA3E0FDECF5BB8D9D759C8C
:01A239000D17
:01A23A002201
:10A49E0090C623EFF07B017AC679237D017C00E420
:0AA4AE00FF12679790C623E0FF221B
:10A5A100900001122AD5FE54F0C4540FFFEE540F4F
:04A5B100FD029EDF2A
:08A4D200EBF0A3EAF0A3E9F0AE
:10A4DA00122ABCFE54F0C4540FFFEE540FFD029D25
:01A4EA00B7BA
:08A4EB00E0FBA3E0FAA3E0F995
:10A4F300122ABCFE54F0C4540FFFEE540FFD029E0B
:01A50300DF78
:08A50400E0FBA3E0FAA3E0F97B
:10A50C00122ABCFE54F0C4540FFFEE540FFD029CF3
:01A51C001F1F
:08A46800E0FBA3E0FAA3E0F918
:10A47000122ABCFE54F0C4540FFFEE540FFD7B01B2
:03A4800002919AAC
:08A48300E0FBA3E0FAA3E0F9FD
:10A48B00122ABCFE54F0C4540FFFEE540FFDE4FB34
:03A49B0002919A91
:08A3D800E0FBA3E0FAA3E0F9A9
:10A3E000900001122AD5FE54F0C4540FFFEE540F12
:06A3F000FD7B0102919AC1
:08A3F600E0FBA3E0FAA3E0F98B
:10A3FE00900001122AD5FE54F0C4540FFFEE540FF4
:06A40E00FDE4FB02919A3F
:10A0C00090C5A7EBF0A3EAF0A3E9F090C5A712A40E
:10A0D000EB90C5A712A46890C5A712A3D87F0F7EE6
:10A0E0000012A54E90C5A712A4837F0F7E0012A573
:0EA0F0004E90C5A712A3F67F0F7E0002A54E6C
:10A0810090C5A7EBF0A3EAF0A3E9F090C5A712A44D
:10A09100EB90C5A712A48390C5A712A3D87F0F7E0A
:10A0A1000012A54E90C5A712A4687F0F7E0012A5CD
:0FA0B1004E90C5A7E0FBA3E0FAA3E0F902A4DA02
:10A0FE0090C5A7EBF0A3EAF0A3E9F090C5A712A4D0
:10A10E00EB90C5A712A4837F057E0012A54E90C5C5
:10A11E00A712A3D87F057E0012A54E90C5A712A345
:08A12E00F67F057E0002A54E3C
:10A1360090C5A7EBF0A3EAF0A3E9F090C5A712A497
:10A14600EB90C5A712A4687F057E0012A54E90C5A8
:10A15600A712A3D87F057E0012A54E90C5A712A30D
:08A16600F67F057E0002A54E04
:039BC30090C5AC9E
:109BC60012A4D290C5AC12A4687F057E0012A54EE1
:109BD60090C5AC12A3D87F057E0012A54EE490C5B1
:109BE600AFF090C5AC12A504EF60137F057E00129E
:109BF600A54E90C5AFE004F0E0C3943240E490C5B2
:109C0600AC12A3F67F057E0012A54E90C5ACE0FB14
:099C1600A3E0FAA3E0F902A4F3B3
:0E99D80090C5A7EFF0A3EBF0A3EAF0A3E9F02F
:1099E60012A4F3E490C5ABF090C5A7E030E706A358
:1099F60012A468800690C5A812A48390C5A7E02586
:109A0600E0F07F057E0012A54E90C5A812A3D87F70
:109A1600057E0012A54E90C5A812A3F690C5ABE030
:109A260004F0E0C36480948840BE90C5A8E0FBA320
:089A3600E0FAA3E0F9029BC372
:039C740090C5A7F1
:109C770012A4D2E490C5AAF07F057E0012A54E90EB
:109C8700C5A712A3D87F057E0012A54E90C5ABE0ED
:109C9700FF25E0F090C5A712A504EF90C5AB6006BD
:109CA700E04401F08004E054FEF090C5A712A3F64B
:109CB70090C5AAE004F0E0C3940840BC90C5ABE0AF
:019CC700FF9D
:019CC8002279
:10A37B006D6F646275734E756D203D202564200AE8
:0FA38B000053797374656D2073746172740A00E6
:1095730012A4141252DA12A20990C582122DE60027
:109583000025807F02129CC990C582122DE600013E
:10959300C200E4FF129CC9D2AF12579C1201007B98
:1095A300FF7AA3797B90C169E0FF90C5FEE4F0A345
:1095B300EFF012472912989D7DC87C00E4FF12A3A7
:1095C300377BFF7AA3798C12472912922D12A29925
:1095D300E4FF12A5B5EF601212799612A61C124A87
:0F95E300237DC87C00E4FF12A337124D8480DB88
:10010000E490C595F0A3F090C595E0FEA3E0FF90C4
:10011000BDA875F00F122E17EE75F00FA42583F50C
:10012000837461F090BDA975F00FEF122E17EE7574
:10013000F00FA42583F583E4F090BDAA75F00FEFCE
:10014000122E17EE75F00FA42583F583E4F090BD11
:10015000AB75F00FEF122E17EE75F00FA42583F597
:10016000837403F090BDAC75F00FEF122E17EE758F
:10017000F00FA42583F5837412F090BDAD75F00FD8
:10018000EF122E17EE75F00FA42583F583E4F0909F
:10019000BDAE75F00FEF122E17EE75F00FA425838C
:1001A000F5837403F0A374E8F090BDB075F00FEF21
:1001B000122E17EE75F00FA42583F583E4F0A3F05B
:1001C00090BDB275F00FEF122E17EE75F00FA4254B
:1001D00083F583E4F0A3F090BDB475F00FEF122E19
:1001E00017EE75F00FA42583F5837401F0A374C195
:1001F000F0A374B3F090C596E004F0700690C59536
:03020000E004F027
:10020300E490C597F0A3F090C8C3E0FEA3E0FF908D
:10021300C597E0FCA3E0FDC39FEC9E40030203A847
:1002230090C595E0FEA3E0FFC39440EE9400400325
:10023300020397ED4C701890BDA875F00FEF122EC6
:1002430017EE75F00FA42583F5837460F08028C33F
:10025300ED9401EC9400401FED2461FF90C595E0FF
:10026300FCA3E090BDA875F00F122E17EC75F00FEC
:10027300A42583F583EFF090C595E0FEA3E0FF90FE
:10028300BDA975F00F122E17EE75F00FA42583F597
:1002930083E4F090BDAA75F00FEF122E17EE75F000
:1002A3000FA42583F583E4F090BDAB75F00FEF1237
:1002B3002E17EE75F00FA42583F5837403F090BD1C
:1002C300AC75F00FEF122E17EE75F00FA42583F522
:1002D300837421F090BDAD75F00FEF122E17EE75FC
:1002E300F00FA42583F583E4F090BDAE75F00FEF16
:1002F300122E17EE75F00FA42583F5837403F0A374
:1003030074E8F090C597E0FAA3E0FB7C007D23FF3F
:10031300AE02122B36EF2430FFE43EFE90C595E08B
:10032300FCA3E0FD90BDB075F00F122E17EC75F035
:100333000FA42583F583EEF0A3EFF090BDB275F023
:100343000FED122E17EC75F00FA42583F583E4F05F
:10035300A3F0FC7D42AF03AE02122B3674DB2FF900
:1003630074C13EFA90C595E0FEA3E090BDB475F06C
:100373000F122E17EE75F00FA42583F5837401F089
:10038300A3EAF0A3E9F090C596E004F0700690C5E7
:1003930095E004F090C598E004F0700690C597E0EE
:0503A30004F002020A53
:1003A800E490C597F0A3F090C86DE0FCA3E0FD9041
:1003B800C597E0FEA3E0FFC39DEE9C40030205182D
:1003C800C390C596E0944090C595E0940040030220
:1003D8000507EF24A0FDE0FAA3E0FB90BDA875F0A7
:1003E8000F122E17EA75F00FA42583F583EDF09010
:1003F800BDA975F00FEB122E17EA75F00FA425832F
:10040800F583E4F090BDAA75F00FEB122E17EA758C
:10041800F00FA42583F583E4F090BDAB75F00FEBE6
:10042800122E17EA75F00FA42583F5837403F09054
:10043800BDAC75F00FEB122E17EA75F00FA42583EB
:10044800F5837403F090BDAD75F00FEB122E17EA2B
:1004580075F00FA42583F583E4F090BDAE75F00F19
:10046800EB122E17EA75F00FA42583F5837403F0B9
:10047800A374E8F07C007D05122B36E42FFFEE34E0
:1004880002FE90C595E0FCA3E0FD90BDB075F00FAD
:10049800122E17EC75F00FA42583F583EEF0A3EF69
:1004A800F090BDB275F00FED122E17EC75F00FA499
:1004B8002583F583E4F0A3F090C597E0FEA3E0FF61
:1004C8007C007D06122B36749B2FF974C13EFA907E
:1004D800C595E0FEA3E090BDB475F00F122E17EE9F
:1004E80075F00FA42583F5837401F0A3EAF0A3E95E
:1004F800F090C596E004F0700690C595E004F09081
:10050800C598E004F0700690C597E004F00203AFC8
:0D05180090C7FDE07002A3E06003020694AE
:1005250090C597F0A3F090C81DE0FCA3E0FD90C531
:1005350097E0FEA3E0FFC39DEE9C4003020812C3B3
:1005450090C596E0944090C595E09400400302065E
:1005550083EF2470FDE0FAA3E0FB90BDA875F00FD2
:10056500122E17EA75F00FA42583F583EDF090BDE3
:10057500A975F00FEB122E17EA75F00FA42583F578
:1005850083E4F090BDAA75F00FEB122E17EA75F013
:100595000FA42583F583E4F090BDAB75F00FEB1246
:1005A5002E17EA75F00FA42583F5837403F090BD2B
:1005B500AC75F00FEB122E17EA75F00FA42583F535
:1005C500837419F090BDAD75F00FEB122E17EA7517
:1005D500F00FA42583F583E4F090BDAE75F00FEB25
:1005E500122E17EA75F00FA42583F5837403F0A383
:1005F50074E8F07C007D19122B36E42FFFEE3403EE
:10060500FE90C595E0FCA3E0FD90BDB075F00F121E
:100615002E17EC75F00FA42583F583EEF0A3EFF00C
:1006250090BDB275F00FED122E17EC75F00FA425E5
:1006350083F583E4F0A3F090C597E0FEA3E0FF7C8B
:10064500007D32122B36745F2FF974C23EFA90C5C5
:1006550095E0FEA3E090BDB475F00F122E17EE7570
:10066500F00FA42583F5837401F0A3EAF0A3E9F064
:1006750090C596E004F0700690C595E004F090C52D
:0F06850098E004F0700690C597E004F002052B92
:0F06940090C7FDE07004A3E06401600302081248
:1006A30090C597F0A3F090C83DE0FCA3E0FD90C592
:1006B30097E0FEA3E0FFC39DEE9C4003020812C334
:1006C30090C596E0944090C595E0940040030208DD
:1006D30001EF2470FDE0FAA3E0FB90BDA875F00FD5
:1006E300122E17EA75F00FA42583F583EDF090BD64
:1006F300A975F00FEB122E17EA75F00FA42583F5F9
:1007030083E4F090BDAA75F00FEB122E17EA75F093
:100713000FA42583F583E4F090BDAB75F00FEB12C6
:100723002E17EA75F00FA42583F5837403F090BDAB
:10073300AC75F00FEB122E17EA75F00FA42583F5B5
:10074300837437F090BDAD75F00FEB122E17EA7579
:10075300F00FA42583F583E4F090BDAE75F00FEBA5
:10076300122E17EA75F00FA42583F5837403F0A303
:1007730074E8F07C007D37122B36E42FFFEE34044F
:10078300FE90C595E0FCA3E0FD90BDB075F00F129F
:100793002E17EC75F00FA42583F583EEF0A3EFF08D
:1007A30090BDB275F00FED122E17EC75F00FA42566
:1007B30083F583E4F0A3F090C597E0FEA3E0FF7C0C
:1007C300007D6E122B3674592FF974C33EFA90C50F
:1007D30095E0FEA3E090BDB475F00F122E17EE75F1
:1007E300F00FA42583F5837401F0A3EAF0A3E9F0E5
:1007F30090C596E004F0700690C595E004F090C5AE
:0F08030098E004F0700690C597E004F00206A993
:10081200E490C597F0A3F090C897E0FCA3E0FD90A8
:10082200C597E0FEA3E0FFC39DEE9C400302098151
:10083200C390C596E0944090C595E09400400302B1
:100842000970EF2490FDE0FAA3E0FB90BDA875F0DB
:100852000F122E17EA75F00FA42583F583EDF090A1
:10086200BDA975F00FEB122E17EA75F00FA42583C0
:10087200F583E4F090BDAA75F00FEB122E17EA751E
:10088200F00FA42583F583E4F090BDAB75F00FEB78
:10089200122E17EA75F00FA42583F5837403F090E6
:1008A200BDAC75F00FEB122E17EA75F00FA425837D
:1008B200F5837407F090BDAD75F00FEB122E17EAB9
:1008C20075F00FA42583F583E4F090BDAE75F00FAB
:1008D200EB122E17EA75F00FA42583F5837403F04B
:1008E200A374E8F07C007D03122B36E42FFFEE3474
:1008F20006FE90C595E0FCA3E0FD90BDB075F00F3B
:10090200122E17EC75F00FA42583F583EEF0A3EFFA
:10091200F090BDB275F00FED122E17EC75F00FA42A
:100922002583F583E4F0A3F090C598E0C4F8540F52
:10093200C868FF90C597E0C454F048FE74352FF99B
:1009420074C43EFA90BDB475F00FED122E17EC751B
:10095200F00FA42583F5837401F0A3EAF0A3E9F074
:1009620090C596E004F0700690C595E004F090C53D
:0F09720098E004F0700690C597E004F0020819B1
:10098100E490C597F0A3F090C853E0FCA3E0FD907C
:10099100C597E0FEA3E0FFC39DEE9C4003020C3E21
:1009A100C390C596E0944090C595E0940040030241
:1009B1000C2D90C851E07002A3E06003020AEDEF34
:1009C10024D0FD90C595E0FAA3E0FB90BDA875F099
:1009D1000F122E17EA75F00FA42583F583EDF09021
:1009E100BDA975F00FEB122E17EA75F00FA4258340
:1009F100F583E4F090BDAA75F00FEB122E17EA759E
:100A0100F00FA42583F583E4F090BDAB75F00FEBF7
:100A1100122E17EA75F00FA42583F5837403F09065
:100A2100BDAC75F00FEB122E17EA75F00FA42583FC
:100A3100F5837401F090BDAD75F00FEB122E17EA3E
:100A410075F00FA42583F583E4F090BDAE75F00F2A
:100A5100EB122E17EA75F00FA42583F5837403F0CA
:100A6100A374E8F07C007D0A122B36E42FFFEE34EC
:100A710007FE90C595E0FCA3E0FD90BDB075F00FB9
:100A8100122E17EC75F00FA42583F583EEF0A3EF7A
:100A9100F090BDB275F00FED122E17EC75F00FA4AA
:100AA1002583F583E4F0A37402F090C598E025E076
:100AB100FF90C597E033FE74D72FF974C13EFA90C9
:100AC100BDB475F00FED122E17EC75F00FA4258350
:100AD100F5837401F0A3EAF0A3E9F090C596E00470
:100AE100F0700690C595E004F0020C2D90C851E01D
:100AF1007004A3E064016003020C2D90C597E0FE31
:100B0100A3E0FF24D0FD90C595E0FAA3E0FB90BDE2
:100B1100A875F00F122E17EA75F00FA42583F5833F
:100B2100EDF090BDA975F00FEB122E17EA75F00FDD
:100B3100A42583F583E4F090BDAA75F00FEB122E86
:100B410017EA75F00FA42583F583E4F090BDAB752A
:100B5100F00FEB122E17EA75F00FA42583F58374BD
:100B610003F090BDAC75F00FEB122E17EA75F00F84
:100B7100A42583F5837402F090BDAD75F00FEB12DF
:100B81002E17EA75F00FA42583F583E4F090BDAE2E
:100B910075F00FEB122E17EA75F00FA42583F5837C
:100BA1007403F0A374E8F07C007D0A122B36E42F65
:100BB100FFEE3407FE90C595E0FCA3E0FD90BDB0CB
:100BC10075F00F122E17EC75F00FA42583F583EE47
:100BD100F0A3EFF090BDB275F00FED122E17EC758A
:100BE100F00FA42583F583E4F0A3F090C597E0FE10
:100BF100A3E07802C333CE33CED8F92479F974C592
:100C01003EFA90BDB475F00FED122E17EC75F00F92
:100C1100A42583F5837401F0A3EAF0A3E9F090C55C
:100C210096E004F0700690C595E004F090C598E058
:0D0C310004F0700690C597E004F0020988F9
:100C3E00E490C597F0A3F090C79FE0FEA3E0FF906D
:100C4E00C597E0FAA3E0FBC39FEA9E4003020DA7FF
:100C5E0090C595E0FCA3E0FDC39440EC94004003E6
:100C6E00020D96EB04FF90BDA875F00FED122E1736
:100C7E00EC75F00FA42583F583EFF090BDA975F008
:100C8E000FED122E17EC75F00FA42583F583E4F00B
:100C9E0090BDAA75F00FED122E17EC75F00FA4256E
:100CAE0083F583E4F090BDAB75F00FED122E17ECCB
:100CBE0075F00FA42583F5837403F090BDAC75F029
:100CCE000FED122E17EC75F00FA42583F583740823
:100CDE00F090BDAD75F00FED122E17EC75F00FA460
:100CEE002583F583E4F090BDAE75F00FED122E174F
:100CFE00EC75F00FA42583F5837403F0A374E8F06C
:100D0E00AE02EB7803C333CE33CED8F92400FFEE18
:100D1E003408FE90BDB075F00FED122E17EC75F085
:100D2E000FA42583F583EEF0A3EFF090BDB275F01E
:100D3E000FED122E17EC75F00FA42583F583E4F05A
:100D4E00A3F090C598E0C4F8540FC868FF90C597FB
:100D5E00E0C454F048FE74C92FF974C43EFA90BD35
:100D6E00B475F00FED122E17EC75F00FA42583F568
:100D7E00837401F0A3EAF0A3E9F090C596E004F0C5
:100D8E00700690C595E004F090C598E004F07006EA
:090D9E0090C597E004F0020C4539
:100DA700E490C597F0A3F090C89FE0FCA3E0FD9006
:100DB700C597E0FEA3E0FFC39DEE9C4003020F171B
:100DC700C390C596E0944090C595E0940040030217
:100DD7000F06EF241AFDE0FAA3E0FB90BDA875F01B
:100DE7000F122E17EA75F00FA42583F583EDF09007
:100DF700BDA975F00FEB122E17EA75F00FA4258326
:100E0700F583E4F090BDAA75F00FEB122E17EA7583
:100E1700F00FA42583F583E4F090BDAB75F00FEBDD
:100E2700122E17EA75F00FA42583F5837403F0904B
:100E3700BDAC75F00FEB122E17EA75F00FA42583E2
:100E4700F583740BF090BDAD75F00FEB122E17EA1A
:100E570075F00FA42583F583E4F090BDAE75F00F10
:100E6700EB122E17EA75F00FA42583F5837403F0B0
:100E7700A374E8F07C007D1E122B36E42FFFEE34BE
:100E870009FE90C595E0FCA3E0FD90BDB075F00F9D
:100E9700122E17EC75F00FA42583F583EEF0A3EF60
:100EA700F090BDB275F00FED122E17EC75F00FA490
:100EB7002583F583E4F0A3F090C597E0FEA3E0FF58
:100EC7007C007D18122B3674492FF974C53EFA90B1
:100ED700C595E0FEA3E090BDB475F00F122E17EE96
:100EE70075F00FA42583F5837401F0A3EAF0A3E955
:100EF700F090C596E004F0700690C595E004F09078
:100F0700C598E004F0700690C597E004F0020DAEB6
:100F1700E490C597F0A3F090C89FE0FCA3E0FD9094
:100F2700C597E0FEA3E0FFC39DEE9C400302108936
:100F3700C390C596E0944090C595E09400400302A5
:100F47001078EF241AFDE0FAA3E0FB90BDA875F036
:100F57000F122E17EA75F00FA42583F583EDF09095
:100F6700BDA975F00FEB122E17EA75F00FA42583B4
:100F7700F583E4F090BDAA75F00FEB122E17EA7512
:100F8700F00FA42583F583E4F090BDAB75F00FEB6C
:100F9700122E17EA75F00FA42583F5837402F090DB
:100FA700BDAC75F00FEB122E17EA75F00FA4258371
:100FB700F5837410F090BDAD75F00FEB122E17EAA4
:100FC70075F00FA42583F583E4F090BDAE75F00F9F
:100FD700EB122E17EA75F00FA42583F5837403F03F
:100FE700A374E8F07C007D14122B36E42FFFEE3457
:100FF7000AFE90C595E0FCA3E0FD90BDB075F00F2B
:10100700122E17EC75F00FA42583F583EEF0A3EFEE
:10101700F090BDB275F00FED122E17EC75F00FA41E
:101027002583F5837403F0A3E4F090C597E0FEA34E
:10103700E0FF7C007D18122B36745F2FF974C53ED4
:10104700FA90C595E0FEA3E090BDB475F00F122E9F
:1010570017EE75F00FA42583F5837401F0A3EAF06A
:10106700A3E9F090C596E004F0700690C595E004FA
:10107700F090C598E004F0700690C597E004F00280
:021087000F1E3A
:10108900E490C597F0A3F090C8A1E0FCA3E0FD901F
:10109900C597E0FEA3E0FFC39DEE9C40030211FA51
:1010A900C390C596E0944090C595E0940040030232
:1010B90011E9EF2480FDE0FAA3E0FB90BDA875F0EB
:1010C9000F122E17EA75F00FA42583F583EDF09022
:1010D900BDA975F00FEB122E17EA75F00FA4258341
:1010E900F583E4F090BDAA75F00FEB122E17EA759F
:1010F900F00FA42583F583E4F090BDAB75F00FEBF9
:10110900122E17EA75F00FA42583F5837403F09066
:10111900BDAC75F00FEB122E17EA75F00FA42583FD
:10112900F5837415F090BDAD75F00FEB122E17EA2B
:1011390075F00FA42583F583E4F090BDAE75F00F2B
:10114900EB122E17EA75F00FA42583F5837403F0CB
:10115900A374E8F07C007D1E122B36E42FFFEE34D9
:101169000BFE90C595E0FCA3E0FD90BDB075F00FB6
:10117900122E17EC75F00FA42583F583EEF0A3EF7B
:10118900F090BDB275F00FED122E17EC75F00FA4AB
:101199002583F583E4F0A304F090C597E0FEA3E06E
:1011A900FF7C007D2A122B3674752FF974C43EFA20
:1011B90090C595E0FEA3E090BDB475F00F122E170F
:1011C900EE75F00FA42583F5837401F0A3EAF0A36B
:1011D900E9F090C596E004F0700690C595E004F03A
:1011E90090C598E004F0700690C597E004F00210ED
:0111F9009065
:0911FA0090C595A3E090C169F0D5
:0112030022C8
:10718D0055AA5AA500FF5E28000000FF62430000CB
:10719D0000000000000000000000000000000000E2
:1071AD00000000000000FF87F9FF84990000000037
:1071BD000000000000000000000000FF505F000014
:1071CD0000000000000000FF7F0000000000000034
:1071DD00000000FF8001000000000000FF8571002D
:1071ED000000000000000000FF8101000000FF8A88
:1071FD007A000000000000000000FF369100000042
:10720D00000000FF8649000000FF88CF000000004D
:10721D000000000000FF6E66000000FF87210000E7
:10722D0000FF82DF000000000000000000000000F1
:10723D00000000000000FF5BFB00000000000000EC
:10724D000000000000000000000000000000000031
:10725D0000FF784B000000FF22C1000000FF640B0F
:10726D00000000000000FF1B6DFF7ADCFF7BE5FFD7
:10727D007CEEFF7DF7FF9908000000FF8F0B0000EB
:10728D0000000000FF95F2FF6B18FF59CEFF65D18E
:10729D00000000000000000000000000000000FFE2
:1072AD00744B000000000000000000000000000012
:1072BD0000FF6CBF000000FF603800000000000000
:1072CD0000000000000000000000000000000000B1
:1072DD000000000000000000FF72EE000000000042
:0172ED0000A0
:1030C10041B942004FB95401000005010003E895E0
:1030D1004000060000004FB9630200000501000333
:1030E100E8954100060000004FB972030000050198
:1030F1000003E8954200060000004FB9810400007A
:1031010005010003E8954300060000004FB9900552
:10311100000005010003E8954400060000004FB9D6
:103121009F06000005010003E89545000600000028
:103131004FB9AE07000005010003E89546000600FF
:1031410000004FB9BD08000005010003E8954700E4
:103151000600000042BD8C000044BD9D000000003F
:0531610042BDA10000C9
:10A51D0090C9FEECF0A3EDF07B017AC979FE90C7EE
:09A52D0090E4F0A304F0026FFABF
:10A43000E4F5F175F208F5F375F40175F8AF30FC49
:0BA44000FDD2FE20FEFDAFFBE4F5F8AE
:01A44B0022EE
:10A39A00E4F5F175F208F5F375F40175F88C30FC03
:0FA3AA00FDE4F5FAF5FBD2FE20FEFDE4F5F82206
:105E28007B017AC5798390C78FE4F0A37402F07F71
:105E3800007E0F12695890C583E0645A60030260BF
:015E48002732
:105E4900A3E0FEA3E0FF7B017AC57987A3E0FC33D9
:105E590095E090C78FF0A3CCF012695890C584E003
:105E6900FEA3E08EF0122E795E9580005EB9800166
:105E79005EE380065F0980075F5E80085F7D800AB8
:105E89005F9C800B5FBB800C00005FE190C587E0E1
:105E99007004A3E064016003025FE190C94BE07004
:105EA9000690C8F7E060057F02025FDC7F0280226E
:105EB90090C587E07004A3E064016003025FE1908C
:105EC900C94BE0700690C8F7E060057F16025FDCF9
:105ED9007F167E0012A313025FE190C587E070046C
:105EE900A3E064016003025FE1D390C7A0E09400DE
:105EF90090C79FE094005003025FE17F46025FDC98
:105F090090C587E07004A3E064016003025FE1903B
:105F1900C7FDE07002A3E07017D390C81EE094009B
:105F290090C81DE094005003025FE17F5E025FDCD0
:105F390090C7FDE07004A3E064016003025FE1D350
:105F490090C83EE0940090C83DE094005003025F81
:105F5900E17F5E807E90C587E07004A3E0640170F4
:105F690077D390C86EE0940090C86DE094004068C3
:105F79007F48805F90C587E07004A3E06401705892
:105F8900D390C8A0E0940090C89FE0940040497F56
:105F990052804090C587E07004A3E064017039D352
:105FA90090C898E0940090C897E09400402A7F56E2
:105FB900802190C587E07004A3E06401701AD39032
:105FC900C8C4E0940090C8C3E0940040047F57809F
:105FD900027F3F7E001294EE7E007F057D007B01EB
:105FE9007AC57987122EAC90C584E0FEA3E0FF7BC9
:105FF900017AC57987A3E0FC3395E090C790F0A3B7
:10600900CCF0126FFAE490C583F07B017AC57983ED
:0E60190090C790F0A304F07F007E0F126FFA84
:1060270090C94BE06002E4F090C8F7E06002E4F04A
:016037002246
:106243007B017AC5798390C78FE4F0A37402F07F52
:10625300007E0F12695890C583E0645A600302649C
:016263000A30
:10626400A3E0FEA3E0FF7B017AC57987A3E0FC33BA
:1062740095E090C78FF0A3CCF012695890C584E0E4
:10628400FEA3E08EF0122E7962B0802062D58021C8
:1062940062FA8022631F8023634280246362802524
:1062A4006382802663A68027000063C490C587E0CC
:1062B4007004A3E0640160030263C490C94BE070FE
:1062C4000690C8F7E060057F0B02639C7F0B0263B6
:1062D400A290C587E07004A3E0640160030263C474
:1062E40090C94BE0700690C8F7E060057F23026315
:1062F4009C7F230263A290C587E07004A3E064013D
:1063040060030263C490C94BE0700690C8F7E06074
:10631400057F2702639C7F270263A290C587E070F4
:1063240004A3E0640160030263C490C94BE07006F7
:1063340090C8F7E060047F2A805E7F2A806090C561
:1063440087E07004A3E06401707690C94BE07006A6
:1063540090C8F7E060047F2C803E7F2C804090C57D
:1063640087E07004A3E06401705690C94BE07006A6
:1063740090C8F7E060047F30801E7F30802090C595
:1063840087E07004A3E06401703690C94BE07006A6
:1063940090C8F7E060067F327E00801C7F327E006A
:1063A400801B90C587E07004A3E06401701290C85C
:1063B400F7E07F347E0060051294EE800312A3138D
:1063C4007E007F057D007B017AC57987122EAC9013
:1063D400C584E0FEA3E0FF7B017AC57987A3E0FCD6
:1063E4003395E090C790F0A3CCF0126FFAE490C517
:1063F40083F07B017AC5798390C790F0A304F07F82
:06640400007E0F126FFA8A
:01640A00226F
:1087F9007B017AC5798390C78FE4F0A37402F07F77
:10880900007E0F12695890C583E0645A600302889C
:01881900CE90
:10881A00A3E0FEA3E0FF7B017AC57987A3E0FC33DE
:10882A0095E090C78FF0A3CCF012695890C584E008
:10883A00FEA3E08EF0122E79884A804100008888D3
:10884A0090C587E07004A3E0640170327B017AC7A7
:10885A0079BD90C78FF0A3740CF07F007E901269E7
:10886A005890C5997490F0A3E4F0A3F0A3740CF0A7
:10887A007F007E017D007C0012905A1201007E006A
:10888A007F057D007B017AC57987122EAC90C5845D
:10889A00E0FEA3E0FF7B017AC57987A3E0FC33956C
:1088AA00E090C790F0A3CCF0126FFAE490C583F081
:1088BA007B017AC5798390C790F0A304F07F007E8C
:0488CA000F126FFA20
:0188CE002287
:108499007B017AC5798390C78FE4F0A37402F07FDA
:1084A900007E0F12695890C583E0645A6003028503
:0184B9007052
:1084BA00A3E0FEA3E0FF7B017AC57987A3E0FC3342
:1084CA0095E090C78FF0A3CCF012695890C584E06C
:1084DA00FEA3E08EF0122E7984EA80600000852ADD
:1084EA0090C587E07004A3E0640170347B017AC709
:1084FA0079D990C78FF0A37406F07F507E901269E5
:10850A005890C5997490F0A37450F0A3E4F0A37442
:10851A0006F07F507E017D007C0012905A12010005
:10852A007E007F057D007B017AC57987122EAC908B
:10853A00C584E0FEA3E0FF7B017AC57987A3E0FC4E
:10854A003395E090C790F0A3CCF0126FFAE490C58F
:10855A0083F07B017AC5798390C790F0A304F07FFA
:06856A00007E0F126FFA03
:0185700022E8
:10505F007B017AC5798390C78FE4F0A37402F07F48
:10506F00007E0F12695890C583E0645A60030251A5
:01507F00DF51
:10508000A3E0FEA3E0FF7B017AC57987A3E0FC33B0
:1050900095E090C78FF0A3CCF012695890C584E0DA
:1050A000FEA3E08EF0122E7950C08060510690B1C0
:1050B000512A90B2514E90B3517290B40000519960
:1050C00090C587E07004A3E0640160030251997BFE
:1050D000017AC779E590C78FF0A3740CF07FA07EAA
:1050E0009012695890C5997490F0A374A0F0A3E44D
:1050F000F0A3740CF07FA07E017D007C0012905A1A
:1051000012010002519990C7C1E07002A3E07B0137
:105110007AC5798790C7907008F0A304F07FA180CA
:1051200073E4F0A304F07FA5806A90C7C1E0700229
:10513000A3E07B017AC5798790C7907008F0A3043B
:10514000F07FA28007E4F0A304F07FA6804690C71A
:10515000C1E07002A3E07B017AC5798790C79070A7
:1051600008F0A304F07FA38007E4F0A304F07FA776
:10517000802290C7C1E07002A3E07B017AC57987E5
:1051800090C7907008F0A304F07FA48007E4F0A318
:1051900004F07FA87E90126FFA7E007F057D007B71
:1051A000017AC57987122EAC90C584E0FEA3E0FF9A
:1051B0007B017AC57987A3E0FC3395E090C790F036
:1051C000A3CCF0126FFAE490C583F07B017AC57925
:0F51D0008390C790F0A304F07F007E0F126FFA58
:0A51DF0090C7BDE07002A3E0706805
:1051E90090C5877490F0A374A1F07B017AC5798783
:1051F90090C790E4F0A304F07F007E50126FFA90FC
:10520900C5877490F0A374A2F07B017AC579879061
:10521900C790E4F0A304F07F207E50126FFA90C586
:10522900877490F0A374A3F07B017AC5798790C73E
:1052390090E4F0A304F07F407E50126FFA90C58786
:065249007490F0A374A4B0
:0E524F00807290C7BDE07004A3E06401707C23
:10525D0090C5877490F0A374A5F07B017AC579870A
:10526D0090C790E4F0A304F07F007E50126FFA9087
:10527D00C5877490F0A374A6F07B017AC5798790E9
:10528D00C790E4F0A304F07F207E50126FFA90C512
:10529D00877490F0A374A7F07B017AC5798790C7C6
:1052AD0090E4F0A304F07F407E50126FFA90C58712
:1052BD007490F0A374A8F07B017AC5798790C7909C
:0C52CD00E4F0A304F07F607E50126FFA42
:0152D90022B2
:107F00007B017AC5798390C78FE4F0A37402F07F78
:107F1000007E0F12695890C583E0645A60030280A6
:017F20000060
:107F2100A3E0FEA3E0FF7B017AC57987A3E0FC33E0
:107F310095E090C78FF0A3CCF012695890C584E00A
:107F4100FEA3E08EF0122E797F5980807F999120D7
:107F51007FA8912100007FBA90C587E07004A3E05B
:107F6100640170557B017AC8798390C78FF0A3743F
:107F710028F07F007E9112695890C5997491F0A301
:107F8100E4F0A3F0A37428F07F007E027D007C0062
:107F910012905A120100802190C587E07004A3E07D
:107FA10064017015FF800E90C587E07004A3E06442
:107FB1000170067F01FE1293DC7E007F057D007B50
:107FC100017AC57987122EAC90C584E0FEA3E0FF4B
:107FD1007B017AC57987A3E0FC3395E090C790F0E7
:107FE100A3CCF0126FFAE490C583F07B017AC579D6
:0F7FF1008390C790F0A304F07F007E0F126FFA09
:01800000225D
:108001007B017AC5798390C78FE4F0A37402F07F76
:10801100007E0F12695890C583E0645A60030280A4
:01802100C49A
:10802200A3E0FEA3E0FF7B017AC57987A3E0FC33DE
:1080320095E090C78FF0A3CCF012695890C584E008
:10804200FEA3E08EF0122E7980569150806A9152F2
:108052000000807E90C587E07004A3E06401701C7C
:108062007F1AFE12A313801490C587E07004A3E068
:108072006401700890C94BF090C8F7F07E007F054C
:108082007D007B017AC57987122EAC90C584E0FE13
:10809200A3E0FF7B017AC57987A3E0FC3395E090EA
:1080A200C790F0A3CCF0126FFAE490C583F07B0185
:1080B2007AC5798390C790F0A304F07F007E0F12F7
:0280C2006FFA53
:1080C40090C8F7E0600B90C587E4F0A37402F080D9
:1080D4001790C94BE0600A90C587E4F0A304F080D0
:1080E40007E490C587F0A3F07B017AC5798790C730
:0D80F40090E4F0A304F07F607E91026FFA2B
:108571007B017AC5798390C78FE4F0A37402F07F01
:10858100007E0F12695890C583E0645A6003028629
:0185910048A1
:10859200A3E0FEA3E0FF7B017AC57987A3E0FC3369
:1085A20095E090C78FF0A3CCF012695890C584E093
:1085B200FEA3E08EF0122E7985C280C000008602F2
:1085C20090C587E07004A3E0640170347B017AC730
:1085D20079A590C78FF0A3740CF07FA07E911269E9
:1085E2005890C5997491F0A374A0F0A3E4F0A37419
:1085F2000CF07F507E027D007C0012905A12010026
:108602007E007F057D007B017AC57987122EAC90B2
:10861200C584E0FEA3E0FF7B017AC57987A3E0FC75
:108622003395E090C790F0A3CCF0126FFAE490C5B6
:1086320083F07B017AC5798390C790F0A304F07F21
:06864200007E0F126FFA2A
:01864800220F
:108101007B017AC5798390C78FE4F0A37402F07F75
:10811100007E0F12695890C583E0645A60030281A2
:01812100F964
:10812200A3E0FEA3E0FF7B017AC57987A3E0FC33DD
:1081320095E090C78FF0A3CCF012695890C584E007
:10814200FEA3E08EF0122E79815E009D815E009E7C
:10815200815E009F816680E0000081E090B94274F8
:1081620001F0807A90C587E07004A3E06401706E2C
:0781720090B942E0B40124C2
:108179007B017AC5799190C78FE4F0A37404F07FED
:108189009D7E001269587B017AC579911289A5E40F
:0481990090B942F067
:10819D007B017AC779D590C78FE4F0A304F07FF007
:1081AD007E911269587B017AC779D590C5B8E4F0F4
:1081BD00A37402F07FA0FE7D007C00128E5B7B011C
:1081CD007AC779D590C790E4F0A304F07F837E0041
:1081DD00126FFAE490C583F07B017AC5798390C75D
:0C81ED0090F0A304F07F007E0F126FFAE8
:0181F9002263
:108A7A007B017AC5798390C78FE4F0A37402F07FF3
:108A8A00007E0F12695890C583E0645A6003028B16
:018A9A004992
:108A9B00A3E0FEA3E0FF7B017AC57987A3E0FC335B
:108AAB0095E090C78FF0A3CCF012695890C584E085
:108ABB00FEA3E07043EE247F703E90C587E0700408
:108ACB00A3E0640170327B017AC8794D90C78FF0B7
:108ADB00A3741AF07F007E9212695890C599749214
:108AEB00F0A3E4F0A3F0A3741AF07F007E037D00E3
:108AFB007C0012905A1201007E007F057D007B01E5
:108B0B007AC57987122EAC90C584E0FEA3E0FF7B7B
:108B1B00017AC57987A3E0FC3395E090C790F0A369
:108B2B00CCF0126FFAE490C583F07B017AC57983A0
:0E8B3B0090C790F0A304F07F007E0F126FFA37
:018B49002209
:103691007B017AC5798390C78FE4F0A37402F07F30
:1036A100007E0F12695890C583E0645A6003023AA4
:0136B1006AAE
:1036B200A3E0FEA3E0FF7B017AC57987A3E0FC3398
:1036C20095E090C78FF0A3CCF012695890C584E0C2
:1036D200FEA3E08EF0122E793702812037489250F5
:1036E20037609280385F928139289282396592835D
:1036F20039A2928439DE92853A16928600003A51B6
:1037020090C587E07004A3E064016003023A517B34
:10371200017AC779FD90C78FF0A37428F07F507E9D
:103722009212695890C5997492F0A37450F0A3E470
:10373200F0A37428F07F507E037D007C0012905A23
:10374200120100023A517B017AC779FD90C78FE4DA
:10375200F0A304F07F507E92126958023A5190C74A
:10376200FDE07002A3E0707390C587E0FEA3E0FF66
:10377200C3EE94005003023A51D3EF9405EE940045
:053782004003023A5172
:1037870090C591EEF0A3EFF07B017AC5799190C7D0
:1037970090E4F0A304F07F607E92126FFA7B017AC7
:1037A700C5799390C78FE4F0A304F07F617E9212EE
:1037B700695890C591E0FEA3E0FF7C007D18122BAD
:1037C70036D390C594E09F90C593E09E4005EEF0F8
:0337D700A3EFF06D
:1037DA000238AE90C7FDE07004A3E0640160030202
:1037EA003A5190C587E0FEA3E0FFC3EE9400500370
:0F37FA00023A51D3EF9402EE94004003023A5189
:1038090090C591EEF0A3EFF07B017AC5799190C74D
:1038190090E4F0A304F07F707E92126FFA7B017A34
:10382900C5799390C78FE4F0A304F07F717E92125B
:10383900695890C591E0FEA3E0FF7C007D37122B0B
:1038490036D390C594E09F90C593E09E4005EEF075
:03385900A3EFF0EA
:0D385C0002391590C7FDE07002A3E070581E
:1038690090C587E0FFA3E090C593CFF0A3EFF07B6D
:10387900017AC5799190C78FE4F0A304F07F607E47
:103889009212695890C591E0FEA3E0FF7C007D1873
:10389900122B36D390C594E09F90C593E09E4005C6
:1038A900EEF0A3EFF07B017AC5799390C790E4F02D
:0538B900A304F07F6193
:1038BE00023A4C90C7FDE07004A3E064016003027D
:0238CE003A516D
:1038D00090C587E0FFA3E090C593CFF0A3EFF07B06
:1038E000017AC5799190C78FE4F0A304F07F707ED0
:1038F0009212695890C591E0FEA3E0FF7C007D37ED
:10390000122B36D390C594E09F90C593E09E40055E
:10391000EEF0A3EFF07B017AC5799390C790E4F0C5
:05392000A304F07F711B
:10392500023A4C90C7FDE07002A3E070127B017A69
:10393500C5798790C790F0A304F07F62023A4C9056
:10394500C7FDE07004A3E064016003023A517B0106
:103955007AC5798790C790F0A304F07F72023A4C3C
:1039650090C7FDE07002A3E070127B017AC57987EC
:1039750090C790F0A304F07F63023A4C90C7FDE036
:103985007004A3E064016003023A517B017AC579B2
:103995008790C790F0A304F07F73023A4C90C7FD5F
:1039A500E07002A3E070127B017AC5798790C79019
:1039B500F0A304F07F64023A4C90C7FDE07004A3C5
:1039C500E064016003023A517B017AC5798790C7AB
:1039D50090F0A304F07F74806E90C7FDE07002A3A1
:1039E500E070117B017AC5798790C790F0A304F048
:1039F5007F65805390C7FDE07004A3E06401704CBF
:103A05007B017AC5798790C790F0A304F07F758014
:103A15003690C7FDE07002A3E070117B017AC5798D
:103A25008790C790F0A304F07F66801B90C7FDE0E8
:103A35007004A3E0640170147B017AC5798790C78F
:103A450090F0A304F07F767E92126FFAE490C5831E
:103A5500F07B017AC5798390C790F0A304F07F00CD
:053A65007E0F126FFA54
:0D3A6A0090C7FDE07002A3E06003023B3D49
:103A770090C5877492F0A37460F07B017AC579874B
:103A870090C790E4F0A304F07F007E52126FFA9083
:103A9700C5877492F0A37461F07B017AC57987902A
:103AA700C790E4F0A304F07F207E52126FFA90C50E
:103AB700877492F0A37462F07B017AC5798790C707
:103AC70090E4F0A304F07F407E52126FFA90C5870E
:103AD7007492F0A37463F07B017AC5798790C790DD
:103AE700E4F0A304F07F607E52126FFA90C58774EA
:103AF70092F0A37464F07B017AC5798790C790E44C
:103B0700F0A304F07F807E52126FFA90C5877492FB
:103B1700F0A37465F07B017AC5798790C790E4F0CC
:103B2700A304F07FA07E52126FFA90C5877492F0BB
:033B3700A374660E
:103B3A00023C0F90C7FDE07004A3E0640160030239
:023B4A003C2518
:103B4C0090C5877492F0A37470F07B017AC5798765
:103B5C0090C790E4F0A304F07F007E52126FFA90AD
:103B6C00C5877492F0A37471F07B017AC579879044
:103B7C00C790E4F0A304F07F207E52126FFA90C538
:103B8C00877492F0A37472F07B017AC5798790C721
:103B9C0090E4F0A304F07F407E52126FFA90C58738
:103BAC007492F0A37473F07B017AC5798790C790F7
:103BBC00E4F0A304F07F607E52126FFA90C5877414
:103BCC0092F0A37474F07B017AC5798790C790E466
:103BDC00F0A304F07F807E52126FFA90C587749226
:103BEC00F0A37475F07B017AC5798790C790E4F0E7
:103BFC00A304F07FA07E52126FFA90C5877492F0E6
:103C0C00A37476F07B017AC5798790C790E4F0A312
:093C1C0004F07FC07E52126FFA21
:013C2500227C
:108649007B017AC5798390C78FE4F0A37402F07F28
:10865900007E0F12695890C583E0645A600302874F
:0186690020F0
:10866A00A3E0FEA3E0FF7B017AC57987A3E0FC3390
:10867A0095E090C78FF0A3CCF012695890C584E0BA
:10868A00FEA3E08EF0122E79869A8140000086DAE7
:10869A0090C587E07004A3E0640170347B017AC856
:1086AA0079A390C78FF0A37416F07FA07E92126907
:1086BA005890C5997492F0A374A0F0A3E4F0A3743F
:1086CA0016F07FA07E037D007C0012905A120100F2
:1086DA007E007F057D007B017AC57987122EAC90DA
:1086EA00C584E0FEA3E0FF7B017AC57987A3E0FC9D
:1086FA003395E090C790F0A3CCF0126FFAE490C5DE
:10870A0083F07B017AC5798390C790F0A304F07F48
:06871A00007E0F126FFA51
:018720002236
:1088CF007B017AC5798390C78FE4F0A37402F07FA0
:1088DF00007E0F12695890C583E0645A60030289C5
:0188EF00A4E4
:1088F000A3E0FEA3E0FF7B017AC57987A3E0FC3308
:1089000095E090C78FF0A3CCF012695890C584E031
:10891000FEA3E08EF0122E79892081600000895E2E
:1089200090C587E07004A3E0640170327B017AC7D0
:10893000799D90C78FF0A37406F07F007E93126933
:108940005890C5997493F0A3E4F0A3F0A37406F0D3
:108950007F007E047D007C0012905A1201007E0090
:108960007F057D007B017AC57987122EAC90C58486
:10897000E0FEA3E0FF7B017AC57987A3E0FC339595
:10898000E090C790F0A3CCF0126FFAE490C583F0AA
:108990007B017AC5798390C790F0A304F07F007EB5
:0489A0000F126FFA49
:0189A40022B0
:106E66007B017AC5798390C78FE4F0A37402F07F23
:106E7600007E0F12695890C583E0645A6003026F62
:016E8600CE3D
:106E8700A3E0FEA3E0FF7B017AC57987A3E0FC338B
:106E970095E090C78FF0A3CCF012695890C584E0B5
:106EA700FEA3E08EF0122E796EBB81806F00936097
:106EB70000006F8890C587E07004A3E06401600359
:106EC700026F887B017AC8799790C78FF0A3740403
:106ED700F07F507E9312695890C5997493F0A3740C
:106EE70050F0A3E4F0A37404F07F50FE7D007C0013
:106EF70012905A120100026F8890C587E07004A3B0
:106F0700E06401707CD390C898E0940090C897E043
:046F17009400406D35
:106F1B0090C43FE0FEA3E0FF20E0047D0180027DF2
:106F2B0000ED5401FDEF54FEFFEF4DFF90C43FEE1B
:106F3B00F0A3EFF05401FF90B952E4F0A3EFF090FF
:106F4B00B94374FEF0E4A3F0A3F0A37406F0A374AA
:106F5B0001F0E4A3F0A37403F0A374E8F0E4A3F04E
:106F6B00A3F0A3F0A37405F0A37401F0A374B9F01C
:0D6F7B00A37452F07B017AB9794312A26B26
:106F88007E007F057D007B017AC57987122EAC9043
:106F9800C584E0FEA3E0FF7B017AC57987A3E0FC06
:106FA8003395E090C790F0A3CCF0126FFAE490C547
:106FB80083F07B017AC5798390C790F0A304F07FB2
:066FC800007E0F126FFABB
:106FCE0090C440E07E0030E0047F0180027F00909C
:106FDE00C587EEF0A3EFF07B017AC5798790C79055
:0C6FEE00E4F0A304F07F617E93026FFAD0
:108721007B017AC5798390C78FE4F0A37402F07F4F
:10873100007E0F12695890C583E0645A6003028776
:01874100F83F
:10874200A3E0FEA3E0FF7B017AC57987A3E0FC33B7
:1087520095E090C78FF0A3CCF012695890C584E0E1
:10876200FEA3E08EF0122E79877281A0000087B2FC
:1087720090C587E07004A3E0640170347B017AC87D
:10878200799F90C78FF0A37402F07FA07E93126945
:108792005890C5997493F0A374A0F0A3E4F0A37465
:1087A20002F07FA07E047D007C0012905A1201002C
:1087B2007E007F057D007B017AC57987122EAC9001
:1087C200C584E0FEA3E0FF7B017AC57987A3E0FCC4
:1087D2003395E090C790F0A3CCF0126FFAE490C505
:1087E20083F07B017AC5798390C790F0A304F07F70
:0687F200007E0F126FFA79
:0187F800225E
:1083BD0090C7D9E4F0A304F0A37411F0A37494F062
:1083CD00A3740CF0A3749EF090C7E1740AF0A3742B
:1083DD00F0F0A37407F0A3744EF07B017AC779D93E
:1083ED0090C5B8E4F0A37406F07F507E017D007C4B
:1083FD0000128E5B7B017AC779D990C790E4F0A308
:10840D007406F07F507E90126FFA90C7E7740AF0F1
:10841D00A37428F0A37407F0A374D0F0A37409F02B
:10842D00A37474F0A37407F0A374D0F0A37405F0D3
:10843D00A37414F0A37403F0A374E8F0A37404F010
:10844D00A374B0F0A37403F0A374E8F0A37403F065
:10845D00A374E8F0A37403F0A374E8F07B017AC76A
:10846D0079E590C5B8E4F0A3740CF07FA07E017D92
:10847D00007C00128E5B7B017AC779E590C790E492
:0C848D00F0A3740CF07FA07E90026FFA48
:1082DF007B017AC5798390C78FE4F0A37402F07F96
:1082EF00007E0F12695890C583E0645A60030283C1
:0182FF00BCC2
:10830000A3E0FEA3E0FF7B017AC57987A3E0FC33FD
:1083100095E090C78FF0A3CCF012695890C584E027
:10832000FEA3E08EF0122E798338940083499401E5
:10833000835594020000837690C587E07004A3E023
:10834000640170321283BD802D90C587E07027A331
:10835000E06401802190C587E07004A3E0640170AF
:10836000157BFF7A71798D90C790F0A37402F07F2E
:10837000047E00126FFA7E007F057D007B017AC5C6
:108380007987122EAC90C584E0FEA3E0FF7B017AD2
:10839000C57987A3E0FC3395E090C790F0A3CCF0BB
:1083A000126FFAE490C583F07B017AC5798390C798
:0C83B00090F0A304F07F007E0F126FFA23
:0183BC00229E
:0D784B0090C7DFE07002A3E060030278E860
:1078580090C5837494F0A374A0F07B017AC57983F2
:1078680090C790E4F0A304F07F007E54126FFA9062
:10787800C5837494F0A374A1F07B017AC5798390D1
:10788800C790E4F0A304F07F407E54126FFA90C5CD
:10789800837494F0A374A3F07B017AC5798390C7AD
:1078A80090E4F0A304F07F607E54126FFA90C583D1
:1078B8007494F0A374A5F07B017AC5798390C7907E
:1078C800E4F0A304F07FA07E54126FFA7B017AC122
:0D78D80079BF90C790E4F0A37406F07FA084
:1078E50002799090C7DFE07004A3E06401600302B1
:0278F500799583
:1078F70074FF90C583F0A3F07B017AC5798390C7A5
:1079070090E4F0A304F07F007E54126FFA74FF90A6
:10791700C583F0A3F07B017AC5798390C790E4F023
:10792700A304F07F407E54126FFA74FF90C583F072
:10793700A3F07B017AC5798390C790E4F0A304F0A4
:107947007F607E54126FFA74FF90C583F0A3F07BBB
:10795700017AC5798390C790E4F0A304F07FA07EF5
:1079670054126FFA7B017AC179BF90C790E4F0A3F4
:1079770004F07FA17E94126FFA7B017AC179BF90E0
:0E798700C790E4F0A304F07FA47E94126FFA80
:0179950022CF
:1022C1007B017AC5798390C78FE4F0A37402F07F14
:1022D100007E0F12695890C583E0645A600302269C
:0122E1008577
:1022E200A3E0FEA3E0FF7B017AC57987A3E0FC337C
:1022F20095E090C78FF0A3CCF012695890C584E0A6
:10230200FEA3E08EF0122E79232E95302391953183
:1023120023F495322457953324BA9534251D9535E7
:102322002580953625E295370000263F90C587E047
:102332007004A3E06401600302263FC390C7A0E0DB
:0D234200940190C79FE09400500302263FD5
:10234F0090C4D3E0FEA3E0FF20E0047D0180027D76
:10235F0000ED5401FDEF54FEFFEF4DFF90C4D3EE9F
:10236F00F0A3EFF07B017AC479D390C790E4F0A388
:0F237F0004F07F407E95126FFA7B017AB9795492
:10238E0002263C90C587E07004A3E064016003025E
:10239E00263FC390C7A0E0940290C79FE0940050E0
:0423AE000302263FC1
:1023B20090C4E3E0FEA3E0FF20E0047D0180027D03
:1023C20000ED5401FDEF54FEFFEF4DFF90C4E3EE2C
:1023D200F0A3EFF07B017AC479E390C790E4F0A315
:0F23E20004F07F417E95126FFA7B017AB979631F
:1023F10002263C90C587E07004A3E06401600302FB
:10240100263FC390C7A0E0940390C79FE09400507B
:042411000302263F5D
:1024150090C4F3E0FEA3E0FF20E0047D0180027D8F
:1024250000ED5401FDEF54FEFFEF4DFF90C4F3EEB8
:10243500F0A3EFF07B017AC479F390C790E4F0A3A1
:0F24450004F07F427E95126FFA7B017AB97972AB
:1024540002263C90C587E07004A3E0640160030297
:10246400263FC390C7A0E0940490C79FE094005017
:042474000302263FFA
:1024780090C503E0FEA3E0FF20E0047D0180027D1B
:1024880000ED5401FDEF54FEFFEF4DFF90C503EE44
:10249800F0A3EFF07B017AC5790390C790E4F0A32D
:0F24A80004F07F437E95126FFA7B017AB9798138
:1024B70002263C90C587E07004A3E0640160030234
:1024C700263FC390C7A0E0940590C79FE0940050B3
:0424D7000302263F97
:1024DB0090C513E0FEA3E0FF20E0047D0180027DA8
:1024EB0000ED5401FDEF54FEFFEF4DFF90C513EED1
:1024FB00F0A3EFF07B017AC5791390C790E4F0A3BA
:0F250B0004F07F447E95126FFA7B017AB97990C4
:10251A0002263C90C587E07004A3E06401600302D0
:10252A00263FC390C7A0E0940690C79FE09400504E
:04253A000302263F33
:10253E0090C523E0FEA3E0FF20E0047D0180027D34
:10254E0000ED5401FDEF54FEFFEF4DFF90C523EE5D
:10255E00F0A3EFF07B017AC5792390C790E4F0A346
:0F256E0004F07F457E95126FFA7B017AB9799F51
:10257D0002263C90C587E07004A3E064016003026D
:10258D00263FC390C7A0E0940790C79FE0940050EA
:04259D000302263FD0
:1025A10090C533E0FEA3E0FF20E0047D0180027DC1
:1025B10000ED5401FDEF54FEFFEF4DFF90C533EEEA
:1025C100F0A3EFF07B017AC5793390C790E4F0A3D3
:0F25D10004F07F467E95126FFA7B017AB979AEDE
:1025E000805A90C587E07004A3E064017051C390E5
:0D25F000C7A0E0940890C79FE0940040420F
:1025FD0090C543E0FEA3E0FF20E0047D0180027D55
:10260D0000ED5401FDEF54FEFFEF4DFF90C543EE7D
:10261D00F0A3EFF07B017AC5794390C790E4F0A366
:10262D0004F07F477E95126FFA7B017AB979BD125E
:02263D00A26B8E
:10263F007E007F057D007B017AC57987122EAC90D5
:10264F00C584E0FEA3E0FF7B017AC57987A3E0FC98
:10265F003395E090C790F0A3CCF0126FFAE490C5D9
:10266F0083F07B017AC5798390C790F0A304F07F44
:06267F00007E0F126FFA4D
:10268500C390C7A0E0940190C79FE09400403D7BB4
:10269500017AC479C990C790E4F0A37403F07F0070
:1026A5007E95126FFA7B017AC479D390C790E4F0D6
:0A26B500A304F07F037E95126FFA74
:1026BF00E490C583F0A3F07B017AC5798390C7902E
:0226CF00801178
:1026D10090C583E4F0A304F0FB7AC5798390C79099
:0C26E100E4F0A304F07F207E95126FFA55
:1026ED00C390C7A0E0940290C79FE09400403D7B4B
:1026FD00017AC479D990C790E4F0A37403F07F04F4
:10270D007E95126FFA7B017AC479E390C790E4F05D
:0A271D00A304F07F077E95126FFA07
:10272700E490C583F0A3F07B017AC5798390C790C5
:0227370080110F
:1027390090C583E4F0A304F0FB7AC5798390C79030
:0C274900E4F0A304F07F217E95126FFAEB
:10275500C390C7A0E0940390C79FE09400403D7BE1
:10276500017AC479E990C790E4F0A37403F07F0877
:102775007E95126FFA7B017AC479F390C790E4F0E5
:0A278500A304F07F0B7E95126FFA9B
:10278F00E490C583F0A3F07B017AC5798390C7905D
:02279F008011A7
:1027A10090C583E4F0A304F0FB7AC5798390C790C8
:0C27B100E4F0A304F07F227E95126FFA82
:1027BD00C390C7A0E0940490C79FE09400403D7B78
:1027CD00017AC479F990C790E4F0A37403F07F0CFB
:1027DD007E95126FFA7B017AC5790390C790E4F06C
:0A27ED00A304F07F0F7E95126FFA2F
:1027F700E490C583F0A3F07B017AC5798390C790F5
:0228070080113E
:1028090090C583E4F0A304F0FB7AC5798390C7905F
:0C281900E4F0A304F07F237E95126FFA18
:10282500C390C7A0E0940590C79FE09400403D7B0E
:10283500017AC5790990C790E4F0A37403F07F107D
:102845007E95126FFA7B017AC5791390C790E4F0F3
:0A285500A304F07F137E95126FFAC2
:10285F00E490C583F0A3F07B017AC5798390C7908C
:02286F008011D6
:1028710090C583E4F0A304F0FB7AC5798390C790F7
:0C288100E4F0A304F07F247E95126FFAAF
:10288D00C390C7A0E0940690C79FE09400403D7BA5
:10289D00017AC5791990C790E4F0A37403F07F1401
:1028AD007E95126FFA7B017AC5792390C790E4F07B
:0A28BD00A304F07F177E95126FFA56
:1028C700E490C583F0A3F07B017AC5798390C79024
:0228D70080116E
:1028D90090C583E4F0A304F0FB7AC5798390C7908F
:0C28E900E4F0A304F07F257E95126FFA46
:1028F500C390C7A0E0940790C79FE09400403D7B3C
:10290500017AC5792990C790E4F0A37403F07F1884
:102915007E95126FFA7B017AC5793390C790E4F002
:0A292500A304F07F1B7E95126FFAE9
:10292F00E490C583F0A3F07B017AC5798390C790BB
:02293F00801105
:1029410090C583E4F0A304F0FB7AC5798390C79026
:0C295100E4F0A304F07F267E95126FFADC
:10295D00C390C7A0E0940890C79FE09400403D7BD2
:10296D00017AC5793990C790E4F0A37403F07F1C08
:10297D007E95126FFA7B017AC5794390C790E4F08A
:0A298D00A304F07F1F7E95126FFA7D
:10299700E490C583F0A3F07B017AC5798390C79053
:0229A70080119D
:1029A90090C583E4F0A304F0FB7AC5798390C790BE
:0C29B900E4F0A304F07F277E95126FFA73
:0129C50022EF
:10640B00E490C585F0A3F090C84FE0FEA3E0FF90A9
:10641B00C585E0FCA3E0FDC39FEC9E5067AF0590E4
:10642B00C1D3E0FEA3E0A807088005CEC313CE13AB
:10643B00D8F95401FF90C84DE0B40010A3E0B507A4
:10644B000B90C583E4F0A37402F0800990C583E43C
:10645B00F0A37403F090C586E024A0FF90C585E0FF
:10646B003495FE7B017AC5798390C790E4F0A30441
:10647B00F0126FFA90C586E004F0708B90C585E042
:10648B0004F0808390C585E0FEA3E0FFC3940CEE7F
:10649B009400505690C1D3E0FEA3E0A807088005F6
:1064AB00CEC313CE13D8F930E00A90C583E4F0A322
:1064BB0004F08007E490C583F0A3F090C586E02438
:1064CB00A0FF90C585E03495FE7B017AC57983905A
:1064DB00C790E4F0A304F0126FFA90C586E004F0C5
:1064EB0070A290C585E004F0809A90C585E0FEA36C
:1064FB00E0FFC3940DEE9400506590C1D3E0FEA372
:10650B00E0A807088005CEC313CE13D8F95401FFBA
:10651B0090C84DE0B40010A3E0B5070B90C583E421
:10652B00F0A37402F0800990C583E4F0A37403F028
:10653B0090C586E024A0FF90C585E03495FE7B01D5
:10654B007AC5798390C790E4F0A304F0126FFA90A8
:10655B00C586E004F0709390C585E004F0808B90C5
:10656B00C585E0FEA3E0FFC3940FEE940050569058
:10657B00C1D3E0FEA3E0A807088005CEC313CE135A
:10658B00D8F930E00A90C583E4F0A304F08007E467
:10659B0090C583F0A3F090C586E024A0FF90C5853D
:1065AB00E03495FE7B017AC5798390C790E4F0A324
:1065BB0004F0126FFA90C586E004F070A290C585C6
:0565CB00E004F0809ADD
:0165D00022A8
:0A1B6D0090C851E07002A3E070651B
:061B770090C583F0A3F00D
:101B7D0090C583E0FCA3E0FDFF90C1D7E0FEA3E09C
:101B8D00A807088005CEC313CE13D8F95401FF90D2
:101B9D00C585E4F0A3EFF0ED2450FFEC3497FE7B08
:101BAD00017AC5798590C790E4F0A304F0126FFA1D
:101BBD0090C584E004F0700690C583E004F0C390F6
:0F1BCD00C584E0941090C583E0940040A3806F1E
:0C1BDC0090C851E07004A3E06401706345
:061BE80090C583F0A3F09C
:101BEE0090C583E0FCA3E0FDFF90C57BE0FEA3E083
:101BFE00A807088005CEC313CE13D8F95401FF9061
:101C0E00C585E4F0A3EFF0ED2450FFEC3497FE7B96
:101C1E00017AC5798590C790E4F0A304F0126FFAAB
:101C2E0090C584E004F0700690C583E004F0C39084
:0D1C3E00C584E0941090C583E0940040A39D
:101C4B007B017AC5798390C78FE4F0A37402F07F90
:101C5B00007E0F12695890C583E0645A600302221C
:011C6B00C0B8
:101C6C00A3E0FEA3E0FF7B017AC57987A3E0FC33F8
:101C7C0095E090C78FF0A3CCF012695890C584E022
:101C8C00FEA3E08EF0122E791CD897601CD89761B9
:101C9C001CD897621CD897631CD897641CD897657E
:101CAC001CD897661CD897671CD897681CD897695E
:101CBC001CD8976A1CD8976B1CD8976C1CD8976D3E
:101CCC001CD8976E1CD8976F0000227A90C851E0F0
:101CDC007002A3E06003021FBF90C587E07002A3EF
:061CEC00E06003021E533C
:101CF20090C585E024A0FF90C584E0346890C5912A
:101D0200F0FCA3EFF0FD7E007401A807088005C374
:101D120033CE33CED8F9F4FFEEF4FE90C1D7E05EB5
:101D2200F0A3E05FF090B9CC75F00FED122E17EC36
:101D320075F00FA42583F58374D0F090C591E0FE71
:101D4200A3E0FF90B9CD75F00F122E17EE75F00FCC
:101D5200A42583F583E4F090B9CE75F00FEF122E2F
:101D620017EE75F00FA42583F583E4F090B9CF75D3
:101D7200F00FEF122E17EE75F00FA42583F5837482
:101D820006F090B9D075F00FEF122E17EE75F00F26
:101D9200A42583F5837401F090B9D175F00FEF1289
:101DA2002E17EE75F00FA42583F583E4F090B9D2D7
:101DB20075F00FEF122E17EE75F00FA42583F58341
:101DC2007403F0A374E8F0EF2480FFEE3497FE90E2
:101DD200C591E0FCA3E0FD90B9D475F00F122E1767
:101DE200EC75F00FA42583F583EEF0A3EFF090B924
:101DF200D675F00FED122E17EC75F00FA42583F5B2
:101E020083E4F0A37402F090B9D875F00FED122EAE
:101E120017EC75F00FA42583F583E4F0A3F0A3F08B
:101E2200ED2480FFEC3497FE7B017AC179D790C70D
:101E320090E4F0A304F0126FFA90C591E0FEA3E0E3
:0E1E4200FF7C007D0F122B3674CC2FF974B983
:101E500002227390C587E07004A3E064016003026E
:021E6000227AE4
:101E620090C585E024A0FF90C584E0346890C591B8
:101E7200F0FCA3EFF0FD7E007401A807088005C303
:101E820033CE33CED8F9FF90C1D7E04EF0A3E04F66
:101E9200F090BABC75F00FED122E17EC75F00FA48E
:101EA2002583F58374D0F090C591E0FEA3E0FF9006
:101EB200BABD75F00F122E17EE75F00FA42583F53B
:101EC20083E4F090BABE75F00FEF122E17EE75F0A4
:101ED2000FA42583F583E4F090BABF75F00FEF12DB
:101EE2002E17EE75F00FA42583F5837406F090BAD1
:101EF200C075F00FEF122E17EE75F00FA42583F5C3
:101F0200837401F090BAC175F00FEF122E17EE75BF
:101F1200F00FA42583F583E4F090BAC275F00FEFB9
:101F2200122E17EE75F00FA42583F5837403F0A328
:101F320074E8F0EF2480FFEE3497FE90C591E0FC48
:101F4200A3E0FD90BAC475F00F122E17EC75F00FD6
:101F5200A42583F583EEF0A3EFF090BAC675F00FD7
:101F6200ED122E17EC75F00FA42583F583E4F0A390
:101F72007402F090BAC875F00FED122E17EC75F0DE
:101F82000FA42583F583E4F0A3F0A3F0ED2480FFF2
:101F9200EC3497FE7B017AC179D790C790E4F0A325
:101FA20004F0126FFA90C591E0FEA3E0FF7C007D81
:0A1FB2000F122B3674BC2FF974BA1D
:101FBC0002227390C851E07004A3E0640160030234
:0F1FCC00227A90C587E07002A3E0600302212013
:101FDB0090C591F0A3F090C585E024A0FF90C58437
:101FEB00E03468FE90C593F0A3EFF090BBAC75F0B6
:101FFB000F122E17EE75F00FA42583F58374D0F016
:10200B0090BBAD75F00FEF122E17EE75F00FA425E8
:10201B0083F583E4F090BBAE75F00FEF122E17EE45
:10202B0075F00FA42583F583E4F090BBAF75F00F2B
:10203B00EF122E17EE75F00FA42583F5837406F0BF
:10204B0090BBB075F00FEF122E17EE75F00FA425A5
:10205B0083F5837401F090BBB175F00FEF122E175F
:10206B00EE75F00FA42583F583E4F090BBB275F009
:10207B000FEF122E17EE75F00FA42583F583740363
:10208B00F0A374E8F0EF2480FFEE3497FE90C59335
:10209B00E0FCA3E0FD90BBB475F00F122E17EC75AE
:1020AB00F00FA42583F583EEF0A3EFF0ED2402FFF0
:1020BB00E43CFE90BBB675F00FED122E17EC75F0ED
:1020CB000FA42583F583EEF0A3EFF090BBB875F06A
:1020DB000FED122E17EC75F00FA42583F583E4F0AA
:1020EB00A3F0A3F0ED2480FFEC3497FE7B017AC5BF
:1020FB00799190C790E4F0A304F0126FFA90C59316
:10210B00E0FEA3E0FF7C007D0F122B3674AC2FF9A1
:02211B0074BB93
:10211D0002227390C587E07004A3E064016003029E
:02212D00227A14
:10212F0074FF90C591F0A3F090C585E024A0FF90B7
:10213F00C584E03468FE90C593F0A3EFF090BC9C8B
:10214F0075F00F122E17EE75F00FA42583F583741B
:10215F00D0F090BC9D75F00FEF122E17EE75F00FAB
:10216F00A42583F583E4F090BC9E75F00FEF122E3B
:10217F0017EE75F00FA42583F583E4F090BC9F75DF
:10218F00F00FEF122E17EE75F00FA42583F5837461
:10219F0006F090BCA075F00FEF122E17EE75F00F32
:1021AF00A42583F5837401F090BCA175F00FEF1295
:1021BF002E17EE75F00FA42583F583E4F090BCA2E3
:1021CF0075F00FEF122E17EE75F00FA42583F58320
:1021DF007403F0A374E8F0EF2480FFEE3497FE90C1
:1021EF00C593E0FCA3E0FD90BCA475F00F122E1771
:1021FF00EC75F00FA42583F583EEF0A3EFF0ED243B
:10220F0002FFE43CFE90BCA675F00FED122E17EC0A
:10221F0075F00FA42583F583EEF0A3EFF090BCA823
:10222F0075F00FED122E17EC75F00FA42583F583C3
:10223F00E4F0A3F0A3F0ED2480FFEC3497FE7B01D4
:10224F007AC5799190C790E4F0A304F0126FFA90D9
:10225F00C593E0FEA3E0FF7C007D0F122B36749C2C
:0B226F002FF974BC3EFA7B0112A26B39
:10227A007E007F057D007B017AC57987122EAC909E
:10228A00C584E0FEA3E0FF7B017AC57987A3E0FC61
:10229A003395E090C790F0A3CCF0126FFAE490C5A2
:1022AA0083F07B017AC5798390C790F0A304F07F0D
:0622BA00007E0F126FFA16
:0122C00022FB
:107ADC00E490C585F0A3F090C585E0FEA3E0FFC35C
:107AEC00941EEE94004003027BE490C877E0FCA364
:107AFC00E0FDC3EF9DEE9C506090C585E0FCA3E0DB
:107B0C00FDECC4F854F0C868FEEDC4540F4825E0F1
:107B1C00FFEE33FE749B2FF58274C13EF583E0FEBD
:107B2C00A3E0FFED540FFDEFA805088005CEC313AD
:107B3C00CE13D8F95401FF90C86FE0B40010A3E045
:107B4C00B5070B90C583E4F0A37402F0805A90C57E
:107B5C0083E4F0A37403F0804F90C585E0FCA3E0B0
:107B6C00FDECC4F854F0C868FEEDC4540F4825E091
:107B7C00FFEE33FE749B2FF58274C13EF583E0FE5D
:107B8C00A3E0FFED540FFDEFA805088005CEC3134D
:107B9C00CE13D8F930E00A90C583E4F0A304F0804A
:107BAC0007E490C583F0A3F090C586E02400FF9015
:107BBC00C585E03496FE7B017AC5798390C790E445
:107BCC00F0A304F0126FFA90C586E004F0700690F2
:087BDC00C585E004F0027AE324
:017BE400227E
:107BE500E490C585F0A3F090C585E0FEA3E0FFC352
:107BF500941EEE94004003027CED90C879E0FCA34E
:107C0500E0FDC3EF9DEE9C506090C585E0FCA3E0D0
:107C1500FDECC4F854F0C868FEEDC4540F4825E0E7
:107C2500FFEE33FE74A12FF58274C13EF583E0FEAD
:107C3500A3E0FFED540FFDEFA805088005CEC313A3
:107C4500CE13D8F95401FF90C871E0B40010A3E039
:107C5500B5070B90C583E4F0A37402F0805A90C574
:107C650083E4F0A37403F0804F90C585E0FCA3E0A6
:107C7500FDECC4F854F0C868FEEDC4540F4825E087
:107C8500FFEE33FE74A12FF58274C13EF583E0FE4D
:107C9500A3E0FFED540FFDEFA805088005CEC31343
:107CA500CE13D8F930E00A90C583E4F0A304F08040
:107CB50007E490C583F0A3F090C586E02450FF90BB
:107CC500C585E03496FE7B017AC5798390C790E43B
:107CD500F0A304F0126FFA90C586E004F0700690E8
:087CE500C585E004F0027BEC10
:017CED002274
:107CEE00E490C585F0A3F090C585E0FEA3E0FFC348
:107CFE00941EEE94004003027DF690C87BE0FCA338
:107D0E00E0FDC3EF9DEE9C506090C585E0FCA3E0C6
:107D1E00FDECC4F854F0C868FEEDC4540F4825E0DD
:107D2E00FFEE33FE74A72FF58274C13EF583E0FE9D
:107D3E00A3E0FFED540FFDEFA805088005CEC31399
:107D4E00CE13D8F95401FF90C873E0B40010A3E02D
:107D5E00B5070B90C583E4F0A37402F0805A90C56A
:107D6E0083E4F0A37403F0804F90C585E0FCA3E09C
:107D7E00FDECC4F854F0C868FEEDC4540F4825E07D
:107D8E00FFEE33FE74A72FF58274C13EF583E0FE3D
:107D9E00A3E0FFED540FFDEFA805088005CEC31339
:107DAE00CE13D8F930E00A90C583E4F0A304F08036
:107DBE0007E490C583F0A3F090C586E024A0FF9061
:107DCE00C585E03496FE7B017AC5798390C790E431
:107DDE00F0A304F0126FFA90C586E004F0700690DE
:087DEE00C585E004F0027CF5FC
:017DF600226A
:107DF700E490C585F0A3F090C585E0FEA3E0FFC33E
:107E0700941EEE94004003027EFF90C87DE0FCA321
:107E1700E0FDC3EF9DEE9C506090C585E0FCA3E0BC
:107E2700FDECC4F854F0C868FEEDC4540F4825E0D3
:107E3700FFEE33FE74AD2FF58274C13EF583E0FE8D
:107E4700A3E0FFED540FFDEFA805088005CEC3138F
:107E5700CE13D8F95401FF90C875E0B40010A3E021
:107E6700B5070B90C583E4F0A37402F0805A90C560
:107E770083E4F0A37403F0804F90C585E0FCA3E092
:107E8700FDECC4F854F0C868FEEDC4540F4825E073
:107E9700FFEE33FE74AD2FF58274C13EF583E0FE2D
:107EA700A3E0FFED540FFDEFA805088005CEC3132F
:107EB700CE13D8F930E00A90C583E4F0A304F0802C
:107EC70007E490C583F0A3F090C586E02400FF90F7
:107ED700C585E03497FE7B017AC5798390C790E426
:107EE700F0A304F0126FFA90C586E004F0700690D4
:087EF700C585E004F0027DFEE8
:017EFF002260
:109908007B017AC179B390C790E4F0A304F07F009B
:109918007E98126FFA7B017AC179B590C790E4F00E
:10992800A304F0FF7E98126FFA7B017AC179BB908D
:10993800C790E4F0A304F07F027E98126FFA7B01CF
:109948007AC179B990C790E4F0A304F07F037E98B8
:10995800126FFA7B017AC179BD90C790E4F0A30435
:08996800F07F047E98026FFA03
:108F0B00C390C8A0E0940190C89FE09400402B7BD5
:108F1B00017AC5794990C790E4F0A3740BF07F50A8
:108F2B007E98126FFA7B017AC5795F90C790E4F057
:108F3B00A304F07F5B7E98126FFAC390C8A0E094F5
:108F4B000290C89FE09400402B7B017AC579619019
:108F5B00C790E4F0A3740BF07F607E98126FFA7BDE
:108F6B00017AC5797790C790E4F0A304F07F6B7E0C
:048F7B0098126FFADF
:108F7F00C390C8A0E0940290C89FE094007E005078
:108F8F00047F0180027F0090C583EEF0A3EFF07B9A
:108F9F00017AC5798390C790E4F0A304F07F807EB7
:048FAF0098026FFABB
:1095F200C390C8A2E0940190C8A1E0940040167BF9
:10960200017AC4797590C790E4F0A37415F07FA035
:109612007E98126FFAC390C8A2E0940290C8A1E0AB
:10962200940040167B017AC4799F90C790E4F0A31E
:0A9632007415F07FC07E98126FFAE5
:10963C00C390C8A2E0940290C8A1E094007E0050B0
:10964C00047F0180027F0090C583EEF0A3EFF07BD6
:10965C00017AC5798390C790E4F0A304F07FE07E93
:04966C0098026FFAF7
:106B1800E490C583F0A3F090C897E0FEA3E0FFC31C
:0F6B280090C584E09F90C583E09E4003026C59A6
:106B3700E0FCA3E0FD2400FFEC3499FEC006C0078B
:106B4700EDC4F8540FC868FFECC454F048FE743520
:106B57002FF974C43EFA7B0190C790E4F0A304F0C8
:106B6700D007D006126FFA90C583E0FCA3E0FD249E
:106B770010FFEC3499FEC006C007EDC4F8540FC8E7
:106B870068FFECC454F048FE74372FF974C43EFA1A
:106B97007B0190C790E4F0A304F0D007D006126FF2
:106BA700FA90C583E0FCA3E0FDC4F8540FC868FF62
:106BB700ECC454F048FE743F2FF58274C43EF5834D
:106BC700E0FEA3E07803CEC313CE13D8F95401FF38
:106BD70090C585E4F0A3EFF0ED2420FFEC3499FE97
:106BE7007B017AC5798590C790E4F0A304F0126F12
:106BF700FA90C583E0FCA3E0FDC4F8540FC868FF12
:106C0700ECC454F048FE743F2FF58274C43EF583FC
:106C1700E0FEA3E07802CEC313CE13D8F95401FFE8
:106C270090C587E4F0A3EFF0ED2430FFEC3499FE34
:106C37007B017AC5798790C790E4F0A304F0126FBF
:016C4700FA52
:106C480090C584E004F0700690C583E004F0026B00
:106C58001FE490C583F0A3F090C583E0FEA3E0FF96
:086C6800C39404EE9400504EA9
:106C700090C897E0FCA3E0FDC3EF9DEE9C7E004032
:106C8000047F0180027F0090C585EEF0A3EFF090B5
:106C9000C584E02440FF90C583E03499FE7B017AEF
:0E6CA000C5798590C790E4F0A304F0126FFA56
:106CAE0090C584E004F070AA90C583E004F080A241
:016CBE0022B3
:0759CE00E490C583F0A3F093
:1059D50090C583E0FCA3E0FD25E0FFEC33FE74E118
:1059E5002FF58274C13EF583E0FFA3E090C585CF16
:1059F500F0A3EFF090C8C9E0FEA3E0FFC3ED9FEC74
:105A05009E50067E037FE880047E007F0090C58659
:105A1500E02FF090C585E03EF090C584E02450FF6E
:105A250090C583E03499FE7B017AC5798590C7904E
:085A3500E4F0A304F0126FFA83
:105A3D0090C584E004F0700690C583E004F0C39037
:105A4D00C584E0941E90C583E0940050030259D59F
:0C5A5D0090C7C1E07004A3E06401705425
:105A690090C1DFE0FEA3E0FFC390C1DCE09FFF909F
:105A7900C1DBE09E90C585F0A3EFF07B017AC57983
:105A89008590C790E4F0A304F07F707E99126FFAB5
:105A990090C1DFE0FEA3E0FFC390C1DEE09FFF906D
:105AA900C1DDE09E90C585F0A3EFF07B017AC57951
:015AB9008567
:105ABA00025BD790C7C1E07002A3E06003025BE615
:105ACA007B017AC5798590C78FF0A304F07F207E89
:105ADA00B012695890C589122DE600000000E490C2
:105AEA00C58FF0A3F090C79FE0FEA3E0FF90C58F9B
:105AFA00E0FCA3E0FDC39FEC9E5071EDC4F8540F87
:105B0A00C868FFECC454F048FE74C92FF58274C407
:105B1A003EF583E0FEA3E0FFE4FCFD90C589E0F8D2
:105B2A00A3E0F9A3E0FAA3E0FBC3122DA0502C9046
:105B3A00C590E0C4F8540FC868FF90C58FE0C454FC
:105B4A00F048FE74C92FF58274C43EF583E0FEA3C3
:105B5A00E0FFE4FCFD90C589122DDA90C590E004BF
:105B6A00F0708290C58FE004F0025AEF90C589E088
:105B7A00FCA3E0FDA3E0FEA3E0FF90C585E0F8A347
:105B8A00E0F9A3E0FAA3E0FBC3122DA0400590C5FB
:105B9A0085800390C589A3A3E0FEA3E0FF90C1DD41
:105BAA00E0FCA3E0FDC3EF9DFFEE9C90C58DF0A342
:105BBA00EFF07B017AC5798D90C790E4F0A304F0E9
:105BCA007F707E99126FFA7B017AC5798D90C790A2
:0C5BDA00E4F0A304F07F717E99126FFAD2
:105BE6007B017AC179B790C790E4F0A304F07F7285
:055BF6007E99026FFA28
:0765D100E490C583F0A3F084
:1065D80090C583E0FCA3E0FD25E0FFEC33FE7423C7
:1065E8002FF58274C23EF583E0FFA3E090C585CF06
:1065F800F0A3EFF090C8CBE0FEA3E0FFC3ED9FEC63
:106608009E50067E037FE880047E007F0090C5864A
:10661800E02FF090C585E03EF090C584E024A0FF0F
:1066280090C583E03499FE7B017AC5798590C7903F
:08663800E4F0A304F0126FFA74
:1066400090C584E004F0700690C583E004F0C39028
:10665000C584E0941E90C583E0940050030265D881
:0C66600090C7C1E07004A3E06401703238
:10666C00E4FE90C585F0A3CEF07B017AC5798590C8
:10667C00C790F0A304F07F707E99126FFAE4FE903D
:0F668C00C585F0A3CEF07B017AC5798590C790C4
:10669B0002677790C7C1E07002A3E06003026782D4
:1066AB007B017AC5798590C78FF0A304F07F207E9C
:1066BB00B0126958E490C587F0A3F090C58BF0A396
:1066CB00F090C79FE0FEA3E0FF90C58BE0FCA3E03A
:1066DB00FDC39FEC9E503FEDC4F8540FC868FFEC10
:1066EB00C454F048FE74C92FF58274C43EF583E0A0
