:0300000002A2B5A4
:0800F800FFFF4457494E543547
:10A2B500759401759502758E0075930075C8707556
:10A2C500C96075F80075F90175A80075B800759A2B
:10A2D5000075A90075B90053D0E7787FE4F6D8FD7D
:10A2E5009080007F007E80E4F0A3DFFCDEFA7581BC
:04A2F5002702A33465
:10788F0090B2C4122B6290B2C8EBF0A3EAF0A3E956
:01789F00F0F8
:1078A000E490B2CDF0A3F0A3F0A3F0A3F0A3F0A373
:1078B000F0A3F090B2CBE07002A3E07003027A680C
:1078C00090B2C4E0F8A3E0F9A3E0FAA3E0FBC3E4BC
:1078D0009BFFE49AFE740299FDE498FC90B2D512E5
:1078E0002B6290B2CBE0FEA3E0FFE4FCFD90B2D5AA
:1078F000E0F8A3E0F9A3E0FAA3E0FBC3122AEA5000
:107900001190B2D5A3A3E0FFA3E090B2CBCFF0A338
:10791000EFF090B2C4E0FCA3E0FDA3E0FEA3E0FF23
:107920007801122AFB90B2CDEEF0A3EFF090B2C432
:10793000A3A3A3E05401FEE490B2CFF0A3CEF0C223
:10794000AFE4F5F190B2CDE0FCA3E0FDECF5F28DF3
:10795000F375F40175F8AF30FCFD90B2CFE0700222
:10796000A3E0603DD2FE20FEFD90B2C8E0FBA3E4A0
:1079700075F00112291DA9F0FAE5FC12286C90B2ED
:10798000C8E0FBA3E475F00112291DA9F0FAE5FD9A
:1079900012286C90B2CCE024FFF090B2CBE034FF20
:1079A000F090B2CBE0FCA3E0FDECC313FFED13902D
:1079B000B2D1CFF0A3EFF0ED5401FFA3E4F0A3EFB9
:1079C000F090B2D174FFF5F012291D45F0605BD242
:1079D000FE20FEFD90B2C8E0FBA3E475F001122981
:1079E0001DA9F0FAE5FA12286C90B2C8E0FBA3E4F6
:1079F00075F00112291DA9F0FAE5FB12286C90B26E
:107A0000C8E0FBA3E475F00112291DA9F0FAE5FC1A
:107A100012286C90B2C8E0FBA3E475F00112291D96
:107A2000A9F0FAE5FD12286C809790B2D3E07002BD
:107A3000A3E0602FD2FE20FEFD90B2C8E0FBA3E4DD
:107A400075F00112291DA9F0FAE5FA12286C90B21E
:107A5000C8E0FBA3E475F00112291DA9F0FAE5FBCB
:087A600012286CE4F5F8D2AF26
:017A680022FB
:1074D30090B2C5122B6290B2C9EBF0A3EAF0A3E914
:0174E300F0B8
:1074E400E490B2CEF0A3F0A3F0A3F0A3F0A3F0A332
:1074F400F0A3F090B2CCE07002A3E070030276B285
:1075040090B2C5E0F8A3E0F9A3E0FAA3E0FBC3E47A
:107514009BFFE49AFE740299FDE498FC90B2D612A3
:107524002B6290B2CCE0FEA3E0FFE4FCFD90B2D667
:10753400E0F8A3E0F9A3E0FAA3E0FBC3122AEA50BF
:107544001190B2D6A3A3E0FFA3E090B2CCCFF0A3F6
:10755400EFF090B2C5E0FCA3E0FDA3E0FEA3E0FFE2
:107564007801122AFB90B2CEEEF0A3EFF090B2C5F0
:10757400A3A3A3E05401FEE490B2D0F0A3CEF0C2E2
:10758400AFE4F5F190B2CEE0FCA3E0FDECF5F28DB2
:10759400F375F40175F88330FCFD90B2D0E070020D
:1075A400A3E0603D90B2C9E0FBA3E475F0011229A9
:1075B4001DA9F0FA122826F5FC90B2C9E0FBA3E459
:1075C40075F00112291DA9F0FA122826F5FDD2FE44
:1075D40020FEFD90B2CDE024FFF090B2CCE034FF69
:1075E400F090B2CCE0FCA3E0FDECC313FFED1390EC
:1075F400B2D2CFF0A3EFF0ED5401FFA3E4F0A3EF78
:10760400F075F88F90B2D274FFF5F012291D45F091
:10761400605B90B2C9E0FBA3E475F00112291DA9D7
:10762400F0FA122826F5FA90B2C9E0FBA3E475F04B
:107634000112291DA9F0FA122826F5FB90B2C9E01F
:10764400FBA3E475F00112291DA9F0FA122826F50E
:10765400FC90B2C9E0FBA3E475F00112291DA9F066
:10766400FA122826F5FDD2FE30FE9980FB90B2D4A2
:10767400E07002A3E0603275F88C90B2C9E0FBA31D
:10768400E475F00112291DA9F0FA122826F5FA90E2
:10769400B2C9E0FBA3E475F00112291DA9F0FA12A6
:0E76A4002826F5FBD2FE20FEFDE4F5F8D2AF5D
:0176B20022B5
:10BF9F00EF4E6010E4FD0DEDC3943240F9EF1F70CA
:04BFAF00EF1E80EC15
:01BFB300226B
:08AA5C0090B0EBEEF0A3EFF067
:10AA6400A3745AF0A37401F090B0EBE0FCA3E0FDF2
:10AA7400EC90B0EFF0A3EDF07B017AB079ED90B2F9
:10AA8400CCE4F0A37402F07F847E007D007C00128D
:10AA940074D37FF47E0112BF9F7B017AB079ED906D
:10AAA400B2CBE4F0A37402F07F147E007D007C003E
:10AAB40012788F90B0EBE0FEA3E0FFA3E0B506D2DE
:10AAC400A3E0B507CDE490B0EDF0A3F0A3F0A3F0BC
:10AAD4007B017AB079ED90B2CCF0A37402F07F16CA
:09AAE4007E007D007C000274D3A9
:08B9060090B1B0EEF0A3EFF0E8
:10B90E00E4A3F0A3F090B1B0E0FEA3E0FFC390B1CA
:10B91E00B3E09F90B1B2E09E5025E4FBFA7F017E2A
:10B92E000012BF9F0BBB00010ABA01F1BB2CEE90B7
:0FB93E00B1B3E004F070CE90B1B2E004F080C677
:01B94D0022D7
:10B94E00EF14601814602314602E24037039A805B8
:10B95E007401088002C333D8FC42B722A8057401D3
:10B96E00088002C333D8FC42BC22A80574010880AB
:10B97E0002C333D8FC42BD22AF05A807740108806C
:08B98E0002C333D8FC42BE22C3
:10B82600EF1460191460251460312403703DA805D7
:10B836007401088002C333D8FCF452B722A80574F9
:10B8460001088002C333D8FCF452BC22A805740157
:10B85600088002C333D8FCF452BD22AF05A8077492
:0CB8660001088002C333D8FCF452BE225B
:10A9C900EF14602D14604A1460672403600302AA1F
:10A9D9005BEB600EA8057401088002C333D8FC4202
:10A9E9008022A8057401088002C333D8FCF4528080
:10A9F90022EB600EA8057401088002C333D8FC421B
:10AA09009022A8057401088002C333D8FCF452903F
:10AA190022EB600EA8057401088002C333D8FC42FA
:10AA2900A022A8057401088002C333D8FCF452A0FF
:10AA390022EB600EA8057401088002C333D8FC42DA
:10AA4900B022AF05A8077401088002C333D8FCF40B
:03AA590052B022D6
:10B63D00EF14601A14602714603424037042A805B7
:10B64D007401088002C333D8FC5580FE8034A805F0
:10B65D007401088002C333D8FC5590FE8024A805E0
:10B66D007401088002C333D8FC55A0FE8014AF05C9
:10B67D00A8077401088002C333D8FC55B0FE8002C0
:04B68D00E4FEAF0622
:01B691002296
:10BE4A00758911E4F58CF58AC28CF518F51A4389BF
:0CBE5A0001758CBC758ACDD2A9D28C2257
:03000B0002B0B090
:0DB0B000C0E0C0D075D000C000C006C007D1
:10B0BD00C2AF758CBC758ACD05197527007E0074DD
:10B0CD0001A827088005C333CE33CED8F9FFEF553D
:10B0DD001A602DE52725E02408F808E616187001FA
:10B0ED0016E52725E02408F8E6FE08E64E7011AFB8
:10B0FD0027A80704088002C333D8FC4218F4521A5B
:09B10D000527E527B408B6D2AF0E
:0BB11600D007D006D000D0D0D0E0322F
:10BF8700758911E4F58DF58BC28E438910758DBCCB
:08BF9700758BCDD2ABD28E22D6
:03001B0002C038E8
:0DC03800C2AF758DBC758BCDB290D2AF320A
:10BFC90075C8F075CD58E4F5CC75CB58F5CA43C89A
:04BFD90001D2AD22C2
:03002B0002C04FC1
:09C04F00C2AFC2C6B291D2AF32F9
:10BD9000C2AFA8077401088002C333D8FCFE421A60
:10BDA000EF25E02408F8A60408A605EEF45218D200
:02BDB000AF22C0
:10BFB400C2AFA8077401088002C333D8FCF4521A34
:05BFC4005218D2AF226B
:10BFF100C2AFA8077401088002C333D8FC5518FFEB
:02C00100D2AFBC
:01C00300221A
:10B78B00AB07AA06A905A8047F007E387D317C0093
:10B79B00122A42C3E49F90B0C1F074049E90B0C0D3
:10B7AB00F043C9407D04E4FF12B94E7D05E4FF125E
:10B7BB00B82643803075D88075985090B0C0E0FCA7
:0DB7CB00A3E0FDECF5BA8DAA43A810D2ACA6
:01B7D800224E
:10B8BD00AB07AA06A905A8047F007E707D627C00F7
:10B8CD00122A42C3E49F90B0C1F074049E90B0C0A0
:10B8DD00F043C9207D06E4FF12B94E7D07E4FF1247
:10B8ED00B8264380C0759B9090B0C0E0FCA3E0FDEE
:08B8FD00ECF5BB8D9D439A019F
:01B90500221F
:10BC6A007596C07597C0AB07AA06A905A8047F00F8
:10BC7A007EC07D897C01122A42AD07AC06ECF5D95B
:0FBC8A00AF058FE743B80CE4FDFF12B94EC2803F
:01BC99002288
:10BCF20075A78075AB80AB07AA06A905A8047F00CB
:10BD02007EC07D897C01122A42AD07AC06ECF5AEFD
:07BD1200AF058FAF43B8300D
:01BD19002207
:10B6E700EF14601B1460291460372403704490B072
:10B6F700BCE0FCA3E0FDA3E0FEA3E0FF02B78B9054
:10B70700B0BCE0FCA3E0FDA3E0FEA3E0FF02B8BDF0
:10B7170090B0BCE0FCA3E0FDA3E0FEA3E0FF02BC09
:10B727006A90B0BCE0FCA3E0FDA3E0FEA3E0FF123B
:03B73700BCF2223F
:107E110090B2BCEFF0A3ECF0A3EDF0A3EBF0A3EA7A
:047E2100F0A3E9F0F1
:107E2500C2AFE4A3F0A3F090B2BDE0FEA3E0FFC3B0
:107E350090B2C3E09F90B2C2E09E4003027EE990FB
:107E4500B2BFE0FBA3E475F00112291DA9F0FA12F7
:107E55002826FF90B2BCE0FE75F009A42400F58247
:107E6500E5F03488F583EE75F008A42583F583E005
:107E7500FCA3E0FD75F009EEA42400F582E5F034DD
:107E850080F583EE75F008A42583F583E5822DF54D
:107E950082E5833CF583EFF075F009EEA42400F547
:107EA50082E5F03488F583EE75F008A42583F58323
:107EB500E475F00112290775F009EEA42400F58296
:107EC500E5F03488F583EE75F008A42583F583E0A5
:107ED5005403F090B2C3E004F0700690B2C2E0041F
:107EE500F0027E2C90B2BCE01460421460701470F5
:107EF50003027F9F24036003027FCF908808E06020
:107F050003027FCF04F0908802E0FEA3E02400F591
:107F15008274803EF583E0F599908803E004F07063
:107F250006908802E004F0908802027FCB909011C1
:107F3500E06003027FCF04F090900BE0FEA3E02405
:107F450009F58274883EF583E0F59C90900CE00479
:107F5500F0700690900BE004F090900B806890987C
:107F65001AE07066D28004F0909814E0FEA3E02435
:107F750012F58274903EF583E0FF30D0055396DF0D
:107F850080034396208F9E909815E004F07006902C
:107F95009814E004F0909814802C90A023E0702AA7
:107FA50004F090A01DE0FEA3E0241BF58274983E2A
:107FB500F583E0F5AC90A01EE004F0700690A01DDE
:0C7FC500E004F090A01DE05403F0D2AFE7
:017FD100228D
:0300230002AC0D1F
:10AC0D00C0E0C083C082C0D075D000C006C007C2EE
:10AC1D00AF30982AC298908804E0FEA3E02400F596
:10AC2D008274843EF583E599F0908805E004F07018
:10AC3D0006908804E004F0908804E05403F0309905
:10AC4D003FC299908802E0FEA3E0FF908800E06E7D
:10AC5D007003A3E06F602474002FF58274803EF5BD
:10AC6D0083E0F599908803E004F07006908802E087
:10AC7D0004F0908802E05403F08005908808E4F019
:0FAC8D00D2AFD007D006D0D0D082D083D0E03263
:0300530002B201F5
:10B20100C0E0C083C082C0D075D000C006C007C2F4
:10B21100AF5396FE909814E0FEA3E0FF909812E0E1
:10B221006E7003A3E06F603074122FF58274903E4C
:10B23100F583E0FF30D0055396DF80034396208FDE
:10B241009E909815E004F07006909814E004F09038
:10B251009814E05403F0800790981AE4F0C280D269
:0EB26100AFD007D006D0D0D082D083D0E0325C
:03005B0002B40EDE
:10B40E00C0E0C083C082C0D075D000C006C007C2E5
:10B41E00AF5397FEE59FE59770047F0180027F0092
:10B42E00EF5420FFA2D0E433B50728909816E0FE23
:10B43E00A3E02412F58274943EF583E59FF0909874
:10B44E0017E004F07006909816E004F0909816E05D
:10B45E005403F0D2AFD007D006D0D0D082D083D054
:02B46E00E032CA
:0300630002B47074
:10B47000C0E0C083C082C0D075D000C006C007C283
:10B48000AF53A7FE90A01DE0FEA3E0FF90A01BE03D
:10B490006E7003A3E06F6024741B2FF58274983ED6
:10B4A000F583E0F5AC90A01EE004F0700690A01DBE
:10B4B000E004F090A01DE05403F0800590A023E488
:10B4C000F0D2AFD007D006D0D0D082D083D0E03237
:03006B0002B9DEF9
:10B9DE00C0E0C083C082C0D075D000C006C2AF53D5
:10B9EE00ABFE90A01FE0FEA3E0241BF582749C3EEC
:10B9FE00F583E5ADF090A020E004F0700690A01F56
:10BA0E00E004F090A01FE05403F0D2AFD006D0D0E7
:07BA1E00D082D083D0E0329A
:0300830002A92EA1
:10A92E00C0E0C083C082C0D075D000C006C007C2D0
:10A93E00AFE59B30E02E759B90539BFE90900DE003
:10A94E00FEA3E02409F582748C3EF583E59CF0901D
:10A95E00900EE004F0700690900DE004F090900DD3
:10A96E00E05403F0E59B30E143759B90539BFD90C3
:10A97E00900BE0FEA3E0FF909009E06E7003A3E061
:10A98E006F602474092FF58274883EF583E0F59C80
:10A99E0090900CE004F0700690900BE004F0909014
:10A9AE000BE05403F08005909011E4F0D2AFD00785
:0BA9BE00D006D0D0D082D083D0E03291
:10BC380090B0BB7403F0A374C8F043C9207D06E438
:10BC4800FF12B94E7D07E4FF12B8264380C0759BEA
:10BC58009090B0BBE0FCA3E0FDECF5BB8D9D759C1E
:01BC68000DCE
:01BC690022B8
:10BEEF0090B1E3EFF07B017AB179E37D017C00E45F
:0ABEFF00FF127E1190B1E3E0FF2274
:10BFDD0090000112283FFE54F0C4540FFFEE540F91
:04BFED00FD02B94E4A
:08BF2300EBF0A3EAF0A3E9F042
:10BF2B00122826FE54F0C4540FFFEE540FFD02B836
:01BF3B0026DF
:08BF3C00E0FBA3E0FAA3E0F929
:10BF4400122826FE54F0C4540FFFEE540FFD02B91C
:01BF54004E9E
:08BF5500E0FBA3E0FAA3E0F910
:10BF5D00122826FE54F0C4540FFFEE540FFD02B606
:01BF6D003D96
:08BE9E00E0FBA3E0FAA3E0F9C8
:10BEA600122826FE54F0C4540FFFEE540FFD7B01FA
:03BEB60002A9C915
:08BEB900E0FBA3E0FAA3E0F9AD
:10BEC100122826FE54F0C4540FFFEE540FFDE4FB7C
:03BED10002A9C9FA
:08BDF000E0FBA3E0FAA3E0F977
:10BDF80090000112283FFE54F0C4540FFFEE540F78
:06BE0800FD7B0102A9C947
:08BE0E00E0FBA3E0FAA3E0F958
:10BE160090000112283FFE54F0C4540FFFEE540F59
:06BE2600FDE4FB02A9C9C6
:10BAEF0090B0E1EBF0A3EAF0A3E9F090B0E112BF60
:10BAFF003C90B0E112BE9E90B0E112BDF07F0F7E80
:10BB0F000012BF9F90B0E112BEB97F0F7E0012BF2F
:0EBB1F009F90B0E112BE0E7F0F7E0002BF9F0E
:10BAB00090B0E1EBF0A3EAF0A3E9F090B0E112BF9F
:10BAC0003C90B0E112BEB990B0E112BDF07F0F7EA4
:10BAD0000012BF9F90B0E112BE9E7F0F7E0012BF8A
:0FBAE0009F90B0E1E0FBA3E0FAA3E0F902BF2BD7
:10BB2D0090B0E1EBF0A3EAF0A3E9F090B0E112BF21
:10BB3D003C90B0E112BEB97F057E0012BF9F90B060
:10BB4D00E112BDF07F057E0012BF9F90B0E112BEE5
:08BB5D000E7F057E0002BF9F70
:10BB650090B0E1EBF0A3EAF0A3E9F090B0E112BFE9
:10BB75003C90B0E112BE9E7F057E0012BF9F90B043
:10BB8500E112BDF07F057E0012BF9F90B0E112BEAD
:08BB95000E7F057E0002BF9F38
:03B5300090B0E6F2
:10B5330012BF2390B0E612BE9E7F057E0012BF9F0E
:10B5430090B0E612BDF07F057E0012BF9FE490B07D
:10B55300E9F090B0E612BF55EF60137F057E00124D
:10B56300BF9F90B0E9E004F0E0C3943240E490B0B0
:10B57300E612BE0E7F057E0012BF9F90B0E6E0FB91
:09B58300A3E0FAA3E0F902BF44C1
:0EB3450090B0E1EFF0A3EBF0A3EAF0A3E9F083
:10B3530012BF44E490B0E5F090B0E1E030E706A31B
:10B3630012BE9E800690B0E212BEB990B0E1E02515
:10B37300E0F07F057E0012BF9F90B0E212BDF07F28
:10B38300057E0012BF9F90B0E212BE0E90B0E5E0C2
:10B3930004F0E0C36480948840BE90B0E2E0FBA375
:08B3A300E0FAA3E0F902B53065
:03B6920090B0E194
:10B6950012BF23E490B0E4F07F057E0012BF9F90B7
:10B6A500B0E112BDF07F057E0012BF9F90B0E5E0CE
:10B6B500FF25E0F090B0E112BF55EF90B0E56006D0
:10B6C500E04401F08004E054FEF090B0E112BE0EBB
:10B6D50090B0E4E004F0E0C3940840BC90B0E5E02D
:01B6E500FF65
:01B6E6002241
:10BE2C006D6F6462757343656E65726174650A004B
:0EBE3C0053797374656D2073746172740A001B
:10B03B0012BE4A1262E412BC3890B0BC122B6E00E6
:10B04B000025807F0212B6E790B0BC122B6E000178
:10B05B00C200E4FF12B6E7D2AF12655D1201007BAE
:10B06B00FF7ABE792C125A501272D612AFC07DC81D
:10B07B007C00E4FF12BD907BFF7ABE793C125A50E4
:10B08B0012AAED12BCC8E4FF12BFF1EF6012128DD1
:10B09B005612C058122E9D7DC87C00E4FF12BD9045
:05B0AB00125D4A80DB8C
:10010000E490B0CFF0A3F090B0CFE0FEA3E0FF907A
:10011000A8E275F00F122B9FEE75F00FA42583F562
:10012000837461F090A8E375F00FEF122B9FEE75CA
:10013000F00FA42583F583E4F090A8E475F00FEFA9
:10014000122B9FEE75F00FA42583F583E4F090A8A1
:10015000E575F00FEF122B9FEE75F00FA42583F5D8
:10016000837403F090A8E675F00FEF122B9FEE75E5
:10017000F00FA42583F5837412F090A8E775F00FB3
:10018000EF122B9FEE75F00FA42583F583E4F0901A
:10019000A8E875F00FEF122B9FEE75F00FA42583E2
:1001A000F5837403F0A374E8F090A8EA75F00FEFFC
:1001B000122B9FEE75F00FA42583F583E4F0A3F0D6
:1001C00090A8EC75F00FEF122B9FEE75F00FA425A1
:1001D00083F583E4F0A3F090A8EE75F00FEF122BF7
:1001E0009FEE75F00FA42583F5837401F0A374AC22
:1001F000F0A374EDF090B0D0E004F0700690B0CFB2
:03020000E004F027
:10020300E490B0D1F0A3F090B3FAE0FEA3E0FF9046
:10021300B0D1E0FCA3E0FDC39FEC9E400302038C3E
:1002230090B0CFE0FEA3E0FFC39440EE9400400300
:1002330002037BED4C701890A8E275F00FEF122BC0
:100243009FEE75F00FA42583F5837460F08028C3B7
:10025300ED9401EC9400401FED2461FF90B0CFE0DA
:10026300FCA3E090A8E275F00F122B9FEC75F00F42
:10027300A42583F583EFF090B0CFE0FEA3E0FF90D9
:10028300A8E375F00F122B9FEE75F00FA42583F5ED
:1002930083E4F090A8E475F00FEF122B9FEE75F056
:1002A3000FA42583F583E4F090A8E575F00FEF1212
:1002B3002B9FEE75F00FA42583F5837403F090A8AC
:1002C300E675F00FEF122B9FEE75F00FA42583F563
:1002D300837421F090A8E775F00FEF122B9FEE7552
:1002E300F00FA42583F583E4F090A8E875F00FEFF1
:1002F300122B9FEE75F00FA42583F5837403F0A3EF
:1003030074E8F090A8EA75F00FEF122B9FEE75F0EA
:100313000FA42583F583E4F0A3F090A8EC75F00F08
:10032300EF122B9FEE75F00FA42583F583E4F0A362
:10033300F090B0D1E0FEA3E0FF7C007D421228A044
:1003430074152FF974AD3EFA90B0CFE0FEA3E090A0
:10035300A8EE75F00F122B9FEE75F00FA42583F511
:10036300837401F0A3EAF0A3E9F090B0D0E004F0C5
:10037300700690B0CFE004F090B0D2E004F07006C5
:0903830090B0D1E004F002020A7E
:10038C00E490B0D1F0A3F090B3A6E0FCA3E0FD9014
:10039C00B0D1E0FEA3E0FFC39DEE9C40030204DA63
:1003AC0090B0CFE0FCA3E0FDC39440EC940040037C
:1003BC000204C9EF24A0FB90A8E275F00FED122BFC
:1003CC009FEC75F00FA42583F583EBF090A8E375F3
:1003DC00F00FED122B9FEC75F00FA42583F583E441
:1003EC00F090A8E475F00FED122B9FEC75F00FA4B4
:1003FC002583F583E4F090A8E575F00FED122B9FA3
:10040C00EC75F00FA42583F5837403F090A8E675C2
:10041C00F00FED122B9FEC75F00FA42583F5837470
:10042C0003F090A8E775F00FED122B9FEC75F00F11
:10043C00A42583F583E4F090A8E875F00FED122B5A
:10044C009FEC75F00FA42583F5837403F0A374E877
:10045C00F090A8EA75F00FED122B9FEC75F00FA43D
:10046C002583F583E4F0A3F090A8EC75F00FED1262
:10047C002B9FEC75F00FA42583F583E4F0A3F0FC1F
:10048C007D061228A074D52FF974AC3EFA90B0CF2B
:10049C00E0FEA3E090A8EE75F00F122B9FEE75F026
:1004AC000FA42583F5837401F0A3EAF0A3E9F0907F
:1004BC00B0D0E004F0700690B0CFE004F090B0D271
:0E04CC00E004F0700690B0D1E004F00203935B
:0D04DA0090B336E07002A3E0600302063428
:1004E70090B0D1F0A3F090B356E0FCA3E0FD90B03C
:1004F700D1E0FEA3E0FFC39DEE9C4003020790906E
:10050700B0CFE0FCA3E0FDC39440EC9400400302AD
:100517000623EF2470FB90A8E275F00FED122B9FD6
:10052700EC75F00FA42583F583EBF090A8E375F045
:100537000FED122B9FEC75F00FA42583F583E4F0E4
:1005470090A8E475F00FED122B9FEC75F00FA42522
:1005570083F583E4F090A8E575F00FED122B9FEC7F
:1005670075F00FA42583F5837403F090A8E675F062
:100577000FED122B9FEC75F00FA42583F5837419EB
:10058700F090A8E775F00FED122B9FEC75F00FA414
:100597002583F583E4F090A8E875F00FED122B9F03
:1005A700EC75F00FA42583F5837403F0A374E8F0CA
:1005B70090A8EA75F00FED122B9FEC75F00FA425AC
:1005C70083F583E4F0A3F090A8EC75F00FED122B00
:1005D7009FEC75F00FA42583F583E4F0A3F0FC7D71
:1005E700321228A074992FF974AD3EFA90B0CFE07B
:1005F700FEA3E090A8EE75F00F122B9FEE75F00F9B
:10060700A42583F5837401F0A3EAF0A3E9F090B081
:10061700D0E004F0700690B0CFE004F090B0D2E0E4
:0D06270004F0700690B0D1E004F00204ED84
:0F06340090B336E07004A3E06401600302079006
:1006430090B0D1F0A3F090B376E0FCA3E0FD90B0BE
:10065300D1E0FEA3E0FFC39DEE9C40030207909010
:10066300B0CFE0FCA3E0FDC39440EC940040030250
:10067300077FEF2470FB90A8E275F00FED122B9F1C
:10068300EC75F00FA42583F583EBF090A8E375F0E8
:100693000FED122B9FEC75F00FA42583F583E4F087
:1006A30090A8E475F00FED122B9FEC75F00FA425C5
:1006B30083F583E4F090A8E575F00FED122B9FEC22
:1006C30075F00FA42583F5837403F090A8E675F005
:1006D3000FED122B9FEC75F00FA42583F583743770
:1006E300F090A8E775F00FED122B9FEC75F00FA4B7
:1006F3002583F583E4F090A8E875F00FED122B9FA6
:10070300EC75F00FA42583F5837403F0A374E8F06C
:1007130090A8EA75F00FED122B9FEC75F00FA4254E
:1007230083F583E4F0A3F090A8EC75F00FED122BA2
:100733009FEC75F00FA42583F583E4F0A3F0FC7D13
:100743006E1228A074932FF974AE3EFA90B0CFE0E6
:10075300FEA3E090A8EE75F00F122B9FEE75F00F3D
:10076300A42583F5837401F0A3EAF0A3E9F090B024
:10077300D0E004F0700690B0CFE004F090B0D2E087
:0D07830004F0700690B0D1E004F0020649C9
:10079000E490B0D1F0A3F090B3CEE0FEA3E0FF90E0
:1007A000B0D1E0FAA3E0FBC39FEA9E40030208E059
:1007B00090B0CFE0FCA3E0FDC39440EC9400400374
:1007C0000208CFEB2490FF90A8E275F00FED122BFA
:1007D0009FEC75F00FA42583F583EFF090A8E375E7
:1007E000F00FED122B9FEC75F00FA42583F583E439
:1007F000F090A8E475F00FED122B9FEC75F00FA4AC
:100800002583F583E4F090A8E575F00FED122B9F9A
:10081000EC75F00FA42583F5837403F090A8E675BA
:10082000F00FED122B9FEC75F00FA42583F5837468
:1008300007F090A8E775F00FED122B9FEC75F00F05
:10084000A42583F583E4F090A8E875F00FED122B52
:100850009FEC75F00FA42583F5837403F0A374E86F
:10086000F090A8EA75F00FED122B9FEC75F00FA435
:100870002583F583E4F0A3F090A8EC75F00FED125A
:100880002B9FEC75F00FA42583F583E4F0A3F0EB28
:10089000C4F8540FC868FFEAC454F048FE746F2FC0
:1008A000F974AF3EFA90A8EE75F00FED122B9FECA5
:1008B00075F00FA42583F5837401F0A3EAF0A3E992
:1008C000F090B0D0E004F0700690B0CFE004F0906B
:1008D000B0D2E004F0700690B0D1E004F0020797C7
:1008E000E490B0D1F0A3F090B38CE0FEA3E0FF90D1
:1008F000B0D1E0FAA3E0FBC39FEA9E4003020B6085
:1009000090B0CFE0FCA3E0FDC39440EC9400400322
:10091000020B4F90B38AE07002A3E06003020A2A40
:10092000EB24D0FF90A8E275F00FED122B9FEC7531
:10093000F00FA42583F583EFF090A8E375F00FED99
:10094000122B9FEC75F00FA42583F583E4F090A89B
:10095000E475F00FED122B9FEC75F00FA42583F5D5
:1009600083E4F090A8E575F00FED122B9FEC75F085
:100970000FA42583F5837403F090A8E675F00FEDBE
:10098000122B9FEC75F00FA42583F5837401F09072
:10099000A8E775F00FED122B9FEC75F00FA42583DF
:1009A000F583E4F090A8E875F00FED122B9FEC753D
:1009B000F00FA42583F5837403F0A374E8F090A8E6
:1009C000EA75F00FED122B9FEC75F00FA42583F55F
:1009D00083E4F0A3F090A8EC75F00FED122B9FECE0
:1009E00075F00FA42583F583E4F0A37402F0EB25E2
:1009F000E0FFEA33FE74112FF974AD3EFA90A8EED1
:100A000075F00FED122B9FEC75F00FA42583F58385
:100A10007401F0A3EAF0A3E9F090B0D0E004F07024
:100A20000690B0CFE004F0020B4F90B38AE0700460
:100A3000A3E064016003020B4F90B0D1E0FEA3E09D
:100A4000FF24D0FB90B0CFE0FCA3E0FD90A8E275BE
:100A5000F00F122B9FEC75F00FA42583F583EBF0BC
:100A600090A8E375F00FED122B9FEC75F00FA42505
:100A700083F583E4F090A8E475F00FED122B9FEC62
:100A800075F00FA42583F583E4F090A8E575F00FC9
:100A9000ED122B9FEC75F00FA42583F5837403F002
:100AA00090A8E675F00FED122B9FEC75F00FA425C2
:100AB00083F5837402F090A8E775F00FED122B9F79
:100AC000EC75F00FA42583F583E4F090A8E875F0A9
:100AD0000FED122B9FEC75F00FA42583F5837403A3
:100AE000F0A374E8F090A8EA75F00FED122B9FECDC
:100AF00075F00FA42583F583E4F0A3F090A8EC75BE
:100B0000F00FED122B9FEC75F00FA42583F583E415
:100B1000F0A3F0EF7802C333CE33CED8F924B3F983
:100B200074B03EFA7B0190A8EE75F00FED122B9F8A
:100B3000EC75F00FA42583F583EBF0A3EAF0A3E9AD
:100B4000F090B0D0E004F0700690B0CFE004F090E8
:100B5000B0D2E004F0700690B0D1E004F00208E7F3
:100B6000E490B0D1F0A3F090B2DCE0FEA3E0FF90FF
:100B7000B0D1E0FAA3E0FBC39FEA9E4003020CAFB2
:100B800090B0CFE0FCA3E0FDC39440EC94004003A0
:100B9000020C9EEB04FF90A8E275F00FED122B9F64
:100BA000EC75F00FA42583F583EFF090A8E375F0C2
:100BB0000FED122B9FEC75F00FA42583F583E4F065
:100BC00090A8E475F00FED122B9FEC75F00FA425A3
:100BD00083F583E4F090A8E575F00FED122B9FEC00
:100BE00075F00FA42583F5837403F090A8E675F0E3
:100BF0000FED122B9FEC75F00FA42583F58374087D
:100C0000F090A8E775F00FED122B9FEC75F00FA494
:100C10002583F583E4F090A8E875F00FED122B9F83
:100C2000EC75F00FA42583F5837403F0A374E8F04A
:100C300090A8EA75F00FED122B9FEC75F00FA4252C
:100C400083F583E4F0A3F090A8EC75F00FED122B80
:100C50009FEC75F00FA42583F583E4F0A3F0EBC4BB
:100C6000F8540FC868FFEAC454F048FE74032FF923
:100C700074B03EFA90A8EE75F00FED122B9FEC7554
:100C8000F00FA42583F5837401F0A3EAF0A3E9F043
:100C900090B0D0E004F0700690B0CFE004F090B0D7
:0F0CA000D2E004F0700690B0D1E004F0020B67D0
:100CAF00E490B0D1F0A3F090B3D6E0FCA3E0FD90B8
:100CBF00B0D1E0FEA3E0FFC39DEE9C4003020DFD0B
:100CCF0090B0CFE0FCA3E0FDC39440EC9400400350
:100CDF00020DECEF241AFB90A8E275F00FED122B2A
:100CEF009FEC75F00FA42583F583EBF090A8E375C7
:100CFF00F00FED122B9FEC75F00FA42583F583E415
:100D0F00F090A8E475F00FED122B9FEC75F00FA487
:100D1F002583F583E4F090A8E575F00FED122B9F76
:100D2F00EC75F00FA42583F5837403F090A8E67596
:100D3F00F00FED122B9FEC75F00FA42583F5837444
:100D4F000BF090A8E775F00FED122B9FEC75F00FDD
:100D5F00A42583F583E4F090A8E875F00FED122B2E
:100D6F009FEC75F00FA42583F5837403F0A374E84B
:100D7F00F090A8EA75F00FED122B9FEC75F00FA411
:100D8F002583F583E4F0A3F090A8EC75F00FED1236
:100D9F002B9FEC75F00FA42583F583E4F0A3F0FCF3
:100DAF007D181228A074832FF974B03EFA90B0CF3B
:100DBF00E0FEA3E090A8EE75F00F122B9FEE75F0FA
:100DCF000FA42583F5837401F0A3EAF0A3E9F09053
:100DDF00B0D0E004F0700690B0CFE004F090B0D245
:0E0DEF00E004F0700690B0D1E004F0020CB603
:100DFD00E490B0D1F0A3F090B3D6E0FCA3E0FD9069
:100E0D00B0D1E0FEA3E0FFC39DEE9C4003020F4D69
:100E1D0090B0CFE0FCA3E0FDC39440EC9400400300
:100E2D00020F3CEF241AFB90A8E275F00FED122B88
:100E3D009FEC75F00FA42583F583EBF090A8E37577
:100E4D00F00FED122B9FEC75F00FA42583F583E4C5
:100E5D00F090A8E475F00FED122B9FEC75F00FA438
:100E6D002583F583E4F090A8E575F00FED122B9F27
:100E7D00EC75F00FA42583F5837402F090A8E67548
:100E8D00F00FED122B9FEC75F00FA42583F58374F5
:100E9D0010F090A8E775F00FED122B9FEC75F00F89
:100EAD00A42583F583E4F090A8E875F00FED122BDF
:100EBD009FEC75F00FA42583F5837403F0A374E8FC
:100ECD00F090A8EA75F00FED122B9FEC75F00FA4C2
:100EDD002583F583E4F0A3F090A8EC75F00FED12E7
:100EED002B9FEC75F00FA42583F5837403F0A3E419
:100EFD00F0FC7D181228A074992FF974B03EFA9069
:100F0D00B0CFE0FEA3E090A8EE75F00F122B9FEE90
:100F1D0075F00FA42583F5837401F0A3EAF0A3E91E
:100F2D00F090B0D0E004F0700690B0CFE004F090F7
:100F3D00B0D2E004F0700690B0D1E004F0020E04DF
:100F4D00E490B0D1F0A3F090B3D8E0FCA3E0FD9015
:100F5D00B0D1E0FEA3E0FFC39DEE9C400302109DC7
:100F6D0090B0CFE0FCA3E0FDC39440EC94004003AF
:100F7D0002108CEF2480FB90A8E275F00FED122B80
:100F8D009FEC75F00FA42583F583EBF090A8E37526
:100F9D00F00FED122B9FEC75F00FA42583F583E474
:100FAD00F090A8E475F00FED122B9FEC75F00FA4E7
:100FBD002583F583E4F090A8E575F00FED122B9FD6
:100FCD00EC75F00FA42583F5837403F090A8E675F6
:100FDD00F00FED122B9FEC75F00FA42583F58374A4
:100FED0015F090A8E775F00FED122B9FEC75F00F33
:100FFD00A42583F583E4F090A8E875F00FED122B8E
:10100D009FEC75F00FA42583F5837403F0A374E8AA
:10101D00F090A8EA75F00FED122B9FEC75F00FA470
:10102D002583F583E4F0A3F090A8EC75F00FED1295
:10103D002B9FEC75F00FA42583F583E4F0A304F04A
:10104D007C007D2A1228A074AF2FF974AF3EFA9060
:10105D00B0CFE0FEA3E090A8EE75F00F122B9FEE3F
:10106D0075F00FA42583F5837401F0A3EAF0A3E9CD
:10107D00F090B0D0E004F0700690B0CFE004F090A6
:10108D00B0D2E004F0700690B0D1E004F0020F543D
:09109D0090B0CFA3E090ACA3F0E9
:0110A6002227
:108A9B0055AA5AA500FF6E95000000FF7A690000E9
:108AAB0000000000000000000000000000000000BB
:108ABB00000000000000FF9810FF9900000000006C
:108ACB000000000000000000000000FF602D00000F
:108ADB0000000000000000FF8EA00000000000005E
:108AEB00000000FF8FBB000000000000FF55A1003D
:108AFB000000000000000000FF90D1000000FF9C70
:108B0B00C0000000000000000000FF34D80000008F
:108B1B00000000FF99F0000000FF9AE00000000049
:108B2B000000000000FF8346000000FF9BD0000008
:108B3B0000FF971C00000000000000000000000078
:108B4B00000000000000FF6A0B000000FF40C300A4
:108B5B00000000000000000000000000000000000A
:108B6B0000FF84F6000000FF10A7000000FF7C430D
:108B7B00000000000000FF183EFF92F0FF93FBFF88
:108B8B009506FF9611FFAF44000000FFA5BA000049
:108B9B0000000000FFAD27FF8191FF6C52FF76B301
:108BAB00000000000000000000000000000000FFBB
:108BBB0089380000000000000000000000000000E9
:108BCB0000FF7FD2000000FF70B700000000000024
:108BDB00000000000000000000000000000000008A
:108BEB000000000000000000FF87D1FF1FB700004E
:018BFB000079
:103AD40041A0BA004FA0CC01000005010003E89505
:103AE4004000060000004FA0DB02000005010003B7
:103AF400E8954100060000004FA0EA03000005011C
:103B04000003E8954200060000004FA0F9040000FD
:103B140005010003E8954300060000004FA10805D5
:103B2400000005010003E8954400060000004FA1D1
:103B34001706000005010003E89545000600000093
:103B44004FA12607000005010003E8954600060082
:103B540000004FA13508000005010003E895470067
:103B64000600000042A8C4000044A8D500000000DC
:053B740042A8D9000089
:10BED40090B58BECF0A3EDF0E4FCFD7B017AB57931
:0BBEE4008B90B2CCF0A304F00274D3EA
:10BE6600E4F5F175F208F5F375F40175F8AF30FCF9
:0BBE7600FDD2FE20FEFDAFFBE4F5F85E
:01BE8100229E
:10BDB200E4F5F175F208F5F375F40175F88C30FCD1
:0FBDC200FDE4F5FAF5FBD2FE20FEFDE4F5F822D4
:106E95007B017AB079BD90B2CBE4F0A37402F07FA8
:106EA500007E0F7D007C0012788F90B0BDE0645AA3
:056EB50060030270A65D
:106EBA00A3E0FEA3E0FFE4FCFDC0077B017AB07902
:106ECA00C1A3E0FF90B2CBE4F0A3EFF0D0071278B1
:106EDA008F90B0BEE0FEA3E08EF0122C016F0B8003
:106EEA00006F2F80016F5980066F7F80076FD480F3
:106EFA00086FF3800A7012800B7031800C000070EA
:106F0A005790B0C1E07004A3E064016003027057B7
:106F1A0090B482E0700690B42EE060057F020270A1
:106F2A00527F02802290B0C1E07004A3E064016045
:106F3A000302705790B482E0700690B42EE06005A8
:106F4A007F160270527F167E0012BD1A0270579089
:106F5A00B0C1E07004A3E064016003027057D390EB
:106F6A00B2DDE0940090B2DCE09400500302705766
:106F7A007F4602705290B0C1E07004A3E0640160E1
:106F8A000302705790B336E07002A3E07017D390F3
:106F9A00B357E0940090B356E09400500302705740
:106FAA007F5E02705290B336E07004A3E064016021
:106FBA0003027057D390B377E0940090B376E094CD
:106FCA000050030270577F5E807E90B0C1E070046B
:106FDA00A3E064017077D390B3A7E0940090B3A6BE
:106FEA00E0940040687F48805F90B0C1E07004A3DD
:106FFA00E064017058D390B3D7E0940090B3D6E020
:10700A00940040497F52804090B0C1E07004A3E0F0
:10701A0064017039D390B3CFE0940090B3CEE0947A
:10702A0000402A7F56802190B0C1E07004A3E0643A
:10703A0001701AD390B3FBE0940090B3FAE0940085
:10704A0040047F5780027F3F7E0012AA5C7E007F49
:10705A00057D007B017AB079C1122DDE90B0BEE0C9
:10706A00FEA3E0FFE4FCFDC0077B017AB079C1A36F
:10707A00E0FF90B2CCE4F0A3EFF0D0071274D3E4AF
:10708A0090B0BDF07B017AB079BD90B2CCF0A30488
:0C709A00F07F007E0F7D007C001274D39C
:1070A60090B482E06002E4F090B42EE06002E4F076
:0170B60022B7
:107A69007B017AB079BD90B2CBE4F0A37402F07FC8
:107A7900007E0F7D007C0012788F90B0BDE0645AC3
:057A89006003027C42D5
:107A8E00A3E0FEA3E0FFE4FCFDC0077B017AB07922
:107A9E00C1A3E0FF90B2CBE4F0A3EFF0D0071278D1
:107AAE008F90B0BEE0FEA3E08EF0122C017ADF8044
:107ABE00207B0480217B2980227B4E80237B71805A
:107ACE00247B9180257BB180267BD5802700007B8F
:107ADE00F390B0C1E07004A3E064016003027BF395
:107AEE0090B482E0700690B42EE060057F0B027BAE
:107AFE00CB7F0B027BD190B0C1E07004A3E0640198
:107B0E006003027BF390B482E0700690B42EE060C6
:107B1E00057F23027BCB7F23027BD190B0C1E07027
:107B2E0004A3E064016003027BF390B482E070066C
:107B3E0090B42EE060057F27027BCB7F27027BD19E
:107B4E0090B0C1E07004A3E064016003027BF39087
:107B5E00B482E0700690B42EE060047F2A805E7FCF
:107B6E002A806090B0C1E07004A3E064017076904A
:107B7E00B482E0700690B42EE060047F2C803E7FCD
:107B8E002C804090B0C1E07004A3E0640170569068
:107B9E00B482E0700690B42EE060047F30801E7FC9
:107BAE0030802090B0C1E07004A3E0640170369084
:107BBE00B482E0700690B42EE060067F327E0080C4
:107BCE001C7F327E00801B90B0C1E07004A3E06485
:107BDE0001701290B42EE07F347E00600512AA5C14
:107BEE00800312BD1A7E007F057D007B017AB0797D
:107BFE00C1122DDE90B0BEE0FEA3E0FFE4FCFDC09E
:107C0E00077B017AB079C1A3E0FF90B2CCE4F0A378
:107C1E00EFF0D0071274D3E490B0BDF07B017AB0D0
:107C2E0079BD90B2CCF0A304F07F007E0F7D007C76
:047C3E00001274D3E9
:017C4200221F
:109810007B017AB079BD90B2CBE4F0A37402F07F03
:10982000007E0F7D007C0012788F90B0BDE0645AFE
:0598300060030298FF37
:10983500A3E0FEA3E0FFE4FCFDC0077B017AB0795D
:10984500C1A3E0FF90B2CBE4F0A3EFF0D00712780C
:109855008F90B0BEE0FEA3E08EF0122C01986A80D6
:1098650041000098B090B0C1E07004A3E0640170BD
:109875003A7B017AB279E690B2CBF0A3740CF07F13
:10988500007E907D007C0012788F90B0D3122B6EF5
:109895000000900090B0D7E4F0A3740CF07F007E38
:1098A500017D007C0012A3791201007E007F057DF9
:1098B500007B017AB079C1122DDE90B0BEE0FEA327
:1098C500E0FFE4FCFDC0077B017AB079C1A3E0FFAE
:1098D50090B2CCE4F0A3EFF0D0071274D3E490B0CB
:1098E500BDF07B017AB079BD90B2CCF0A304F07FD6
:0A98F500007E0F7D007C001274D38A
:0198FF002246
:109900007B017AB079BD90B2CBE4F0A37402F07F12
:10991000007E0F7D007C0012788F90B0BDE0645A0D
:0599200060030299EF55
:10992500A3E0FEA3E0FFE4FCFDC0077B017AB0796C
:10993500C1A3E0FF90B2CBE4F0A3EFF0D00712781B
:109945008F90B0BEE0FEA3E08EF0122C01995A80F4
:1099550060000099A090B0C1E07004A3E0640170BC
:109965003A7B017AB3791290B2CBF0A37406F07FFB
:10997500507E907D007C0012788F90B0D3122B6EB4
:109985000000905090B0D7E4F0A37406F07F507EAD
:10999500017D007C0012A3791201007E007F057D08
:1099A500007B017AB079C1122DDE90B0BEE0FEA336
:1099B500E0FFE4FCFDC0077B017AB079C1A3E0FFBD
:1099C50090B2CCE4F0A3EFF0D0071274D3E490B0DA
:1099D500BDF07B017AB079BD90B2CCF0A304F07FE5
:0A99E500007E0F7D007C001274D399
:0199EF002255
:10602D007B017AB079BD90B2CBE4F0A37402F07F1E
:10603D00007E0F7D007C0012788F90B0BDE0645A19
:05604D0060030261C9BF
:10605200A3E0FEA3E0FFE4FCFDC0077B017AB07978
:10606200C1A3E0FF90B2CBE4F0A3EFF0D007127827
:106072008F90B0BEE0FEA3E08EF0122C01609780FC
:106082006060E390B1610790B2612B90B3614F9071
:10609200B40000617A90B0C1E07004A3E0640160D2
:1060A2000302617A7B017AB3791E90B2CBF0A374BA
:1060B2000CF07FA07E907D007C0012788F90B0D390
:1060C200122B6E000090A090B0D7E4F0A3740CF0F5
:1060D2007FA07E017D007C0012A379120100026183
:1060E2007A90B2EAE07002A3E07B017AB079C190C3
:1060F200B2CC7008F0A304F07FA18073E4F0A30493
:10610200F07FA5806A90B2EAE07002A3E07B017A98
:10611200B079C190B2CC7008F0A304F07FA28007DE
:10612200E4F0A304F07FA6804690B2EAE07002A3F6
:10613200E07B017AB079C190B2CC7008F0A304F090
:106142007FA38007E4F0A304F07FA7802290B2EA45
:10615200E07002A3E07B017AB079C190B2CC700802
:10616200F0A304F07FA48007E4F0A304F07FA87EEC
:10617200907D007C001274D37E007F057D007B0140
:106182007AB079C1122DDE90B0BEE0FEA3E0FFE44A
:10619200FCFDC0077B017AB079C1A3E0FF90B2CCCD
:1061A200E4F0A3EFF0D0071274D3E490B0BDF07B1B
:1061B200017AB079BD90B2CCF0A304F07F007E0FDB
:0761C2007D007C001274D384
:0A61C90090B2E6E07002A3E07075EA
:1061D30090B0C17490F0A374A1F07B017AB079C13F
:1061E30090B2CCE4F0A304F07F007E507D007C00ED
:1061F3001274D390B0C17490F0A374A2F07B017AAF
:10620300B079C190B2CCE4F0A304F07F207E507D3E
:10621300007C001274D390B0C17490F0A374A3F007
:106223007B017AB079C190B2CCE4F0A304F07F4053
:106233007E507D007C001274D390B0C17490F0A3A3
:0262430074A441
:106245000262C990B2E6E07004A3E0640160030253
:0262550062E302
:1062570090B0C17490F0A374A5F07B017AB079C1B6
:1062670090B2CCE4F0A304F07F007E507D007C0068
:106277001274D390B0C17490F0A374A6F07B017A26
:10628700B079C190B2CCE4F0A304F07F207E507DBA
:10629700007C001274D390B0C17490F0A374A7F07F
:1062A7007B017AB079C190B2CCE4F0A304F07F40CF
:1062B7007E507D007C001274D390B0C17490F0A31F
:1062C70074A8F07B017AB079C190B2CCE4F0A30452
:0C62D700F07F607E507D007C001274D3CC
:0162E3002298
:108EA0007B017AB079BD90B2CBE4F0A37402F07F7D
:108EB000007E0F7D007C0012788F90B0BDE0645A78
:058EC0006003028FBAFF
:108EC500A3E0FEA3E0FFE4FCFDC0077B017AB079D7
:108ED500C1A3E0FF90B2CBE4F0A3EFF0D007127886
:108EE5008F90B0BEE0FEA3E08EF0122C018F0280C1
:108EF500808F4A91208F59912100008F6B90B0C1CE
:108F0500E07004A3E06401705D7B017AB379BA90E7
:108F1500B2CBF0A37428F07F007E917D007C001217
:108F2500788F90B0D3122B6E0000910090B0D7E4EB
:108F3500F0A37428F07F007E027D007C0012A379E7
:108F4500120100802190B0C1E07004A3E0640170BB
:108F550015FF800E90B0C1E07004A3E064017006B7
:108F65007F01FE12AC9C7E007F057D007B017AB0FF
:108F750079C1122DDE90B0BEE0FEA3E0FFE4FCFD5A
:108F8500C0077B017AB079C1A3E0FF90B2CCE4F0D1
:108F9500A3EFF0D0071274D3E490B0BDF07B017A53
:108FA500B079BD90B2CCF0A304F07F007E0F7D00B8
:058FB5007C001274D3E2
:018FBA002294
:108FBB007B017AB079BD90B2CBE4F0A37402F07F61
:108FCB00007E0F7D007C0012788F90B0BDE0645A5C
:058FDB0060030290900C
:108FE000A3E0FEA3E0FFE4FCFDC0077B017AB079BB
:108FF000C1A3E0FF90B2CBE4F0A3EFF0D00712786A
:109000008F90B0BEE0FEA3E08EF0122C019019917B
:1090100050902D91520000904190B0C1E07004A397
:10902000E06401701C7F1AFE12BD1A801490B0C15A
:10903000E07004A3E06401700890B482F090B42E54
:10904000F07E007F057D007B017AB079C1122DDEB4
:1090500090B0BEE0FEA3E0FFE4FCFDC0077B017A18
:10906000B079C1A3E0FF90B2CCE4F0A3EFF0D00759
:109070001274D3E490B0BDF07B017AB079BD90B2A8
:10908000CCF0A304F07F007E0F7D007C001274D32F
:1090900090B42EE0600B90B0C1E4F0A37402F080B5
:1090A0001790B482E0600A90B0C1E4F0A304F080AD
:1090B00007E490B0C1F0A3F07B017AB079C190B21F
:1090C000CCE4F0A304F07F607E917D007C0002740C
:0190D000D3CC
:1055A1007B017AB079BD90B2CBE4F0A37402F07FB5
:1055B100007E0F7D007C0012788F90B0BDE0645AB0
:0555C10060030258EB3D
:1055C600A3E0FEA3E0FFE4FCFDC0077B017AB0790F
:1055D600C1A3E0FF90B2CBE4F0A3EFF0D0071278BE
:1055E6008F90B0BEE0FEA3E08EF0122C0156238011
:1055F600C0566E91B256AB91B356E891B457259109
:10560600B5576291B6579F91B757DC91B858199123
:10561600B9585591BA589191BB000058CE90B0C177
:10562600E07004A3E0640160030258CE7B017AB205
:1056360079E290B2CBF0A37402F07FA07E917D0058
:105646007C0012788F90B0D3122B6E000091A09040
:10565600B0D7E4F0A37402F07F50FE7D007C001208
:08566600A3791201000258CEE5
:10566E0090A0247461F0E4A3F0A3F0A37406F0A359
:10567E007401F0E4A3F0A37403F0A374E8F0A37430
:10568E0091F0A374B2F0E4A3F0A3F0F9A3C9F0A3D0
:0A569E00F0A3E9F07B017AA0792463
:0356A8000258CBDA
:1056AB0090A0337461F0E4A3F0A3F0A37406F0A30D
:1056BB007401F0E4A3F0A37403F0A374E8F0A374F3
:1056CB0091F0A374B3F0A3E4F0A304F07B00A31454
:0A56DB00F0A3F0A3F00B7AA07933DE
:0356E5000258CB9D
:1056E80090A0427461F0E4A3F0A3F0A37406F0A3C1
:1056F8007401F0E4A3F0A37403F0A374E8F0A374B6
:1057080091F0A374B4F0A3E4F0A37402F0A3E4F05E
:0A571800A3F0A3F07B017AA0794210
:035722000258CB5F
:1057250090A0517461F0E4A3F0A3F0A37406F0A374
:105735007401F0E4A3F0A37403F0A374E8F0A37478
:1057450091F0A374B5F0A3E4F0A37403F0A3E4F01F
:0A575500A3F0A3F07B017AA07951C4
:03575F000258CB22
:1057620090A0607461F0E4A3F0A3F0A37406F0A328
:105772007401F0E4A3F0A37403F0A374E8F0A3743B
:1057820091F0A374B6F0A3E4F0A37406F0A3E4F0DE
:0A579200A3F0A3F07B017AA0796078
:03579C000258CBE5
:10579F0090A06F7461F0E4A3F0A3F0A37406F0A3DC
:1057AF007401F0E4A3F0A37403F0A374E8F0A374FE
:1057BF0091F0A374B7F0A3E4F0A37407F0A3E4F09F
:0A57CF00A3F0A3F07B017AA0796F2C
:0357D9000258CBA8
:1057DC0090A07E7461F0E4A3F0A3F0A37406F0A390
:1057EC007401F0E4A3F0A37403F0A374E8F0A374C1
:1057FC0091F0A374B8F0A3E4F0A37408F0A3E4F060
:0A580C00A3F0A3F07B017AA0797EDF
:035816000258CB6A
:1058190090A08D7461F0E4A3F0A3F0A37406F0A343
:105829007401F0E4A3F0A37403F0A374E8F0A37483
:1058390091F0A374B9F0A3E4F0A37409F0A3E4F020
:0A584900A3F0A3F07B017AA0798D93
:0258530080765D
:1058550090A09C7461F0E4A3F0A3F0A37406F0A3F8
:105865007401F0E4A3F0A37403F0A374E8F0A37447
:1058750091F0A374BAF0A3E4F0A3740AF0A3E4F0E2
:0A588500A3F0A3F07B017AA0799C48
:02588F00803A5D
:1058910090A0AB7461F0E4A3F0A3F0A37406F0A3AD
:1058A1007401F0E4A3F0A37403F0A374E8F0A3740B
:1058B10091F0A374BBF0A3E4F0A3740BF0A3E4F0A4
:0D58C100A3F0A3F07B017AA079AB12BC9A92
:1058CE00E490B0BDF07B017AB079BD90B2CCF0A37C
:0D58DE0004F07F007E0F7D007C001274D36B
:1058EB007B017AAC79ED90B2CCE4F0A304F07FA20B
:1058FB007E917D007C001274D37B017AAC79EF90A2
:10590B00B2CCE4F0A304F07FA37E917D007C001267
:10591B0074D37B017AAC79F190B2CCE4F0A304F0B0
:10592B007FA47E917D007C001274D37B017AAC79CD
:10593B00F390B2CCE4F0A304F07FA57E917D007CC4
:10594B00001274D37B017AAC79F990B2CCE4F0A35A
:10595B0004F07FA67E917D007C001274D37B017ACC
:10596B00AC79FB90B2CCE4F0A304F07FA77E917DE1
:10597B00007C001274D37B017AAC79FD90B2CCE43D
:10598B00F0A304F07FA87E917D007C001274D37B82
:10599B00017AAC79FF90B2CCE4F0A304F07FA97E3E
:1059AB00917D007C001274D37B017AAD790190B2AA
:1059BB00CCE4F0A304F07FAA7E917D007C001274EE
:1059CB00D37B017AAD790390B2CCE4F0A304F07FE2
:0A59DB00AB7E917D007C000274D3C6
:1090D1007B017AB079BD90B2CBE4F0A37402F07F4A
:1090E100007E0F7D007C0012788F90B0BDE0645A45
:0590F10060030291E3A1
:1090F600A3E0FEA3E0FFE4FCFDC0077B017AB079A4
:10910600C1A3E0FF90B2CBE4F0A3EFF0D007127852
:109116008F90B0BEE0FEA3E08EF0122C01913700D6
:109126009D9137009E9137009F914080E00000910D
:10913600C690A0BA7401F00291C690B0C1E0700466
:0D914600A3E06401707A90A0BAE0B40128A3
:109153007B017AB079CB90B2CBE4F0A37404F07FB7
:109163009D7E007D007C0012788F7B017AB079CBE5
:08917300129F75E490A0BAF010
:10917B007B017AB3790E90B2CBE4F0A304F07FF0CD
:10918B007E917D007C0012788F7B017AB3790E90F3
:10919B00B1AEE4F0A37402F07FA0FE7D007C001260
:1091AB00A6767B017AB3790E90B2CCE4F0A304F0EF
:1091BB007F837E007D007C001274D3E490B0BDF001
:1091CB007B017AB079BD90B2CCF0A304F07F007E26
:0891DB000F7D007C001274D32B
:0191E3002269
:109CC0007B017AB079BD90B2CBE4F0A37402F07F4F
:109CD000007E0F7D007C0012788F90B0BDE0645A4A
:059CE0006003029DA9D4
:109CE500A3E0FEA3E0FFE4FCFDC0077B017AB079A9
:109CF500C1A3E0FF90B2CBE4F0A3EFF0D007127858
:109D05008F90B0BEE0FEA3E0704BEE247F704690CE
:109D1500B0C1E07004A3E06401703A7B017AB379C5
:109D25008690B2CBF0A3741AF07F007E927D007C02
:109D35000012788F90B0D3122B6E0000920090B075
:109D4500D7E4F0A3741AF07F007E037D007C001237
:109D5500A3791201007E007F057D007B017AB07931
:109D6500C1122DDE90B0BEE0FEA3E0FFE4FCFDC015
:109D7500077B017AB079C1A3E0FF90B2CCE4F0A3F0
:109D8500EFF0D0071274D3E490B0BDF07B017AB048
:109D950079BD90B2CCF0A304F07F007E0F7D007CEE
:049DA500001274D361
:019DA9002297
:1034D8007B017AB079BD90B2CBE4F0A37402F07F9F
:1034E800007E0F7D007C0012788F90B0BDE0645A9A
:0534F80060030238E44E
:1034FD00A3E0FEA3E0FFE4FCFDC0077B017AB079F9
:10350D00C1A3E0FF90B2CBE4F0A3EFF0D0071278A7
:10351D008F90B0BEE0FEA3E08EF0122C01355281EB
:10352D0020359E925035BA928036C99281379A9243
:10353D008237D79283381492843850928538889286
:10354D0086000038C790B0C1E07004A3E06401604C
:10355D00030238C77B017AB3793690B2CBF0A374EE
:10356D0028F07F507E927D007C0012788F90B0D332
:10357D00122B6E0000925090B0D7E4F0A37428F097
:10358D007F507E037D007C0012A37912010002386A
:10359D00C77B017AB3793690B2CBE4F0A304F07F08
:1035AD00507E927D007C0012788F0238C790B33622
:1035BD00E07002A3E0707B90B0C1E0FEA3E0FFC31A
:1035CD00EE940050030238C7D3EF9405EE940040FB
:0435DD00030238C7E6
:1035E10090B0CBEEF0A3EFF07B017AB079CB90B243
:1035F100CCE4F0A304F07F607E927D007C00127425
:10360100D37B017AB079CD90B2CBE4F0A304F07F03
:10361100617E927D007C0012788F90B0CBE0FEA39A
:10362100E0FF7C007D181228A0D390B0CEE09F90DF
:0B363100B0CDE09E4005EEF0A3EFF0EE
:10363C0002371C90B336E07004A3E064016003020F
:10364C0038C790B0C1E0FEA3E0FFC3EE9400500376
:0F365C000238C7D3EF9402EE940040030238C740
:10366B0090B0CBEEF0A3EFF07B017AB079CB90B2B8
:10367B00CCE4F0A304F07F707E927D007C0012748A
:10368B00D37B017AB079CD90B2CBE4F0A304F07F79
:10369B00717E927D007C0012788F90B0CBE0FEA300
:1036AB00E0FF7C007D371228A0D390B0CEE09F9036
:0B36BB00B0CDE09E4005EEF0A3EFF064
:0D36C60002378790B336E07002A3E0705C1D
:1036D30090B0C1E0FFA3E090B0CDCFF0A3EFF07BBB
:1036E300017AB079CB90B2CBE4F0A304F07F607E93
:1036F300927D007C0012788F90B0CBE0FEA3E0FFB8
:103703007C007D181228A0D390B0CEE09F90B0CD5E
:10371300E09E4005EEF0A3EFF07B017AB079CD9007
:09372300B2CCE4F0A304F07F61D4
:10372C000238BE90B336E07004A3E064016003027B
:02373C0038C78C
:10373E0090B0C1E0FFA3E090B0CDCFF0A3EFF07B4F
:10374E00017AB079CB90B2CBE4F0A304F07F707E17
:10375E00927D007C0012788F90B0CBE0FEA3E0FF4C
:10376E007C007D371228A0D390B0CEE09F90B0CDD4
:10377E00E09E4005EEF0A3EFF07B017AB079CD909C
:09378E00B2CCE4F0A304F07F7159
:103797000238BE90B336E07002A3E070127B017A64
:1037A700B079C190B2CCF0A304F07F620238BE902A
:1037B700B336E07004A3E0640160030238C77B01FD
:1037C7007AB079C190B2CCF0A304F07F720238BE10
:1037D70090B336E07002A3E070127B017AB079C132
:1037E70090B2CCF0A304F07F630238BE90B336E00A
:1037F7007004A3E0640160030238C77B017AB079E3
:10380700C190B2CCF0A304F07F730238BE90B336F8
:10381700E07002A3E070127B017AB079C190B2CC5C
:10382700F0A304F07F640238BE90B336E07004A3BF
:10383700E0640160030238C77B017AB079C190B2B6
:10384700CCF0A304F07F74806E90B336E07002A3CF
:10385700E070117B017AB079C190B2CCF0A304F08B
:103867007F65805390B336E07004A3E06401705025
:103877007B017AB079C190B2CCF0A304F07F758058
:103887003690B336E07002A3E070117B017AB0790D
:10389700C190B2CCF0A304F07F66801B90B336E0F2
:1038A7007004A3E0640170187B017AB079C190B20B
:1038B700CCF0A304F07F767E927D007C001274D357
:1038C700E490B0BDF07B017AB079BD90B2CCF0A3A3
:0D38D70004F07F007E0F7D007C001274D392
:0D38E40090B336E07002A3E060030239CF1C
:1038F10090B0C17492F0A37460F07B017AB079C189
:1039010090B2CCE4F0A304F07F007E527D007C00F5
:103911001274D390B0C17492F0A37461F07B017AF8
:10392100B079C190B2CCE4F0A304F07F207E527D47
:10393100007C001274D390B0C17492F0A37462F051
:103941007B017AB079C190B2CCE4F0A304F07F405E
:103951007E527D007C001274D390B0C17492F0A3AA
:103961007463F07B017AB079C190B2CCE4F0A30426
:10397100F07F607E527D007C001274D390B0C174E0
:1039810092F0A37464F07B017AB079C190B2CCE477
:10399100F0A304F07F807E527D007C001274D390EE
:1039A100B0C17492F0A37465F07B017AB079C190D3
:1039B100B2CCE4F0A304F07FA07E527D007C001223
:0B39C10074D390B0C17492F0A3746640
:1039CC00023AB990B336E07004A3E06401600302DC
:0239DC003AD3DC
:1039DE0090B0C17492F0A37470F07B017AB079C18B
:1039EE0090B2CCE4F0A304F07F007E527D007C0008
:1039FE001274D390B0C17492F0A37471F07B017AFB
:103A0E00B079C190B2CCE4F0A304F07F207E527D59
:103A1E00007C001274D390B0C17492F0A37472F053
:103A2E007B017AB079C190B2CCE4F0A304F07F4070
:103A3E007E527D007C001274D390B0C17492F0A3BC
:103A4E007473F07B017AB079C190B2CCE4F0A30428
:103A5E00F07F607E527D007C001274D390B0C174F2
:103A6E0092F0A37474F07B017AB079C190B2CCE479
:103A7E00F0A304F07F807E527D007C001274D39000
:103A8E00B0C17492F0A37475F07B017AB079C190D5
:103A9E00B2CCE4F0A304F07FA07E527D007C001235
:103AAE0074D390B0C17492F0A37476F07B017AB0A7
:103ABE0079C190B2CCE4F0A304F07FC07E527D00B9
:053ACE007C001274D31E
:013AD30022D0
:1099F0007B017AB079BD90B2CBE4F0A37402F07F22
:109A0000007E0F7D007C0012788F90B0BDE0645A1C
:059A10006003029ADF73
:109A1500A3E0FEA3E0FFE4FCFDC0077B017AB0797B
:109A2500C1A3E0FF90B2CBE4F0A3EFF0D00712782A
:109A35008F90B0BEE0FEA3E08EF0122C019A4A8111
:109A45004000009A9090B0C1E07004A3E0640170FA
:109A55003A7B017AB379DA90B2CBF0A37416F07F32
:109A6500A07E927D007C0012788F90B0D3122B6E71
:109A7500000092A090B0D7E4F0A37416F07FA07E0A
:109A8500037D007C0012A3791201007E007F057D15
:109A9500007B017AB079C1122DDE90B0BEE0FEA345
:109AA500E0FFE4FCFDC0077B017AB079C1A3E0FFCC
:109AB50090B2CCE4F0A3EFF0D0071274D3E490B0E9
:109AC500BDF07B017AB079BD90B2CCF0A304F07FF4
:0A9AD500007E0F7D007C001274D3A8
:019ADF002264
:109AE0007B017AB079BD90B2CBE4F0A37402F07F31
:109AF000007E0F7D007C0012788F90B0BDE0645A2C
:059B00006003029BCF91
:109B0500A3E0FEA3E0FFE4FCFDC0077B017AB0798A
:109B1500C1A3E0FF90B2CBE4F0A3EFF0D007127839
:109B25008F90B0BEE0FEA3E08EF0122C019B3A812F
:109B35006000009B8090B0C1E07004A3E0640170F8
:109B45003A7B017AB279DA90B2CBF0A37406F07F52
:109B5500007E937D007C0012788F90B0D3122B6E1F
:109B65000000930090B0D7E4F0A37406F07F007E68
:109B7500047D007C0012A3791201007E007F057D23
:109B8500007B017AB079C1122DDE90B0BEE0FEA354
:109B9500E0FFE4FCFDC0077B017AB079C1A3E0FFDB
:109BA50090B2CCE4F0A3EFF0D0071274D3E490B0F8
:109BB500BDF07B017AB079BD90B2CCF0A304F07F03
:0A9BC500007E0F7D007C001274D3B7
:019BCF002273
:108346007B017AB079BD90B2CBE4F0A37402F07FE2
:10835600007E0F7D007C0012788F90B0BDE0645ADD
:0583660060030284C663
:10836B00A3E0FEA3E0FFE4FCFDC0077B017AB0793C
:10837B00C1A3E0FF90B2CBE4F0A3EFF0D0071278EB
:10838B008F90B0BEE0FEA3E08EF0122C0183A4818F
:10839B008083EF93600000847790B0C1E07004A3FA
:1083AB00E0640160030284777B017AB379CE90B2EB
:1083BB00CBF0A37404F07F507E937D007C00127889
:1083CB008F90B0D3122B6E0000935090B0D7E4F087
:1083DB00A37404F07F50FE7D007C0012A379120180
:1083EB000002847790B0C1E07004A3E06401707C5C
:0F83FB00D390B3CFE0940090B3CEE09400406DE8
:10840A0090AF79E0FEA3E0FF20E0047D0180027DC9
:10841A0000ED5401FDEF54FEFFEF4DFF90AF79EEF2
:10842A00F0A3EFF05401FF90A0CAE4F0A3EFF0909C
:10843A00A0BB74FEF0E4A3F0A3F0A37406F0A37447
:10844A0001F0E4A3F0A37403F0A374E8F0E4A3F04A
:10845A00A3F0A3F0A37405F0A37401F0A374A0F031
:0D846A00A374CAF07B017AA079BB12BC9A02
:108477007E007F057D007B017AB079C1122DDE90E9
:10848700B0BEE0FEA3E0FFE4FCFDC0077B017AB0CD
:1084970079C1A3E0FF90B2CCE4F0A3EFF0D00712CC
:1084A70074D3E490B0BDF07B017AB079BD90B2CCC3
:0F84B700F0A304F07F007E0F7D007C001274D3D1
:1084C60090AF7AE07E0030E0047F0180027F00906A
:1084D600B0C1EEF0A3EFF07B017AB079C190B2CCD7
:1084E600E4F0A304F07F617E937D007C000274D3E8
:109BD0007B017AB079BD90B2CBE4F0A37402F07F40
:109BE000007E0F7D007C0012788F90B0BDE0645A3B
:059BF0006003029CBFB0
:109BF500A3E0FEA3E0FFE4FCFDC0077B017AB0799A
:109C0500C1A3E0FF90B2CBE4F0A3EFF0D007127848
:109C15008F90B0BEE0FEA3E08EF0122C019C2A814D
:109C2500A000009C7090B0C1E07004A3E0640170D6
:109C35003A7B017AB379D690B2CBF0A37402F07F68
:109C4500A07E937D007C0012788F90B0D3122B6E8E
:109C5500000093A090B0D7E4F0A37402F07FA07E3B
:109C6500047D007C0012A3791201007E007F057D32
:109C7500007B017AB079C1122DDE90B0BEE0FEA363
:109C8500E0FFE4FCFDC0077B017AB079C1A3E0FFEA
:109C950090B2CCE4F0A3EFF0D0071274D3E490B007
:109CA500BDF07B017AB079BD90B2CCF0A304F07F12
:0A9CB500007E0F7D007C001274D3C6
:019CBF002282
:10A88A0090B312E4F0A304F0A37411F0A37494F04B
:10A89A00A3740CF0A3749EF090B31A740AF0A37414
:10A8AA00F0F0A37407F0A3744EF07B017AB3791227
:10A8BA0090B1AEE4F0A37406F07F507E017D007C77
:10A8CA000012A6767B017AB3791290B2CCE4F0A397
:10A8DA007406F07F507E907D007C001274D390B392
:10A8EA00307403F0A374E8F0A37403F0A374E8F0DF
:10A8FA007B017AB3791E90B1AEE4F0A3740CF07FB9
:10A90A00A07E017D007C0012A6767B017AB3791EB7
:10A91A0090B2CCE4F0A3740CF07FA07E907D007C12
:04A92A00000274D3E0
:10971C007B017AB079BD90B2CBE4F0A37402F07FF8
:10972C00007E0F7D007C0012788F90B0BDE0645AF3
:05973C00600302980F1C
:10974100A3E0FEA3E0FFE4FCFDC0077B017AB07952
:10975100C1A3E0FF90B2CBE4F0A3EFF0D007127801
:109761008F90B0BEE0FEA3E08EF0122C01977E94A4
:1097710000978F9401979B9402000097C090B0C10D
:10978100E07004A3E06401703612A88A803190B0C1
:10979100C1E0702BA3E06401802590B0C1E07004AA
:1097A100A3E0640170197BFF7A8A799B90B2CCF0B7
:1097B100A37402F07F047E007D007C001274D37ECE
:1097C100007F057D007B017AB079C1122DDE90B05A
:1097D100BEE0FEA3E0FFE4FCFDC0077B017AB079A7
:1097E100C1A3E0FF90B2CCE4F0A3EFF0D007127474
:1097F100D3E490B0BDF07B017AB079BD90B2CCF0EA
:0E980100A304F07F007E0F7D007C001274D364
:01980F002236
:0D84F60090B318E07002A3E060030285A3BC
:1085030090B0BD7494F0A374A0F07B017AB079BDF0
:1085130090B2CCE4F0A304F07F007E547D007C0095
:108523001274D390B0BD7494F0A374A1F07B017A5C
:10853300B079BD90B2CCE4F0A304F07F407E547DCB
:10854300007C001274D390B0BD7494F0A374A3F0B4
:108553007B017AB079BD90B2CCE4F0A304F07F60E4
:108563007E547D007C001274D390B0BD7494F0A34C
:1085730074A5F07B017AB079BD90B2CCE4F0A3048A
:10858300F07FA07E547D007C001274D37B017AAC13
:0D85930079F990B2CCE4F0A37406F07FA05B
:1085A00002865F90B318E07004A3E06401600302E8
:0285B0008668DB
:1085B20074FF90B0BDF0A3F07B017AB079BD90B2A8
:1085C200CCE4F0A304F07F007E547D007C001274A2
:1085D200D374FF90B0BDF0A3F07B017AB079BD9067
:1085E200B2CCE4F0A304F07F407E547D007C001204
:1085F20074D374FF90B0BDF0A3F07B017AB079BD63
:1086020090B2CCE4F0A304F07F607E547D007C0045
:108612001274D374FF90B0BDF0A3F07B017AB079ED
:10862200BD90B2CCE4F0A304F07FA07E547D007C28
:10863200001274D37B017AAC79F990B2CCE4F0A346
:1086420004F07FA17E947D007C001274D37B017ABA
:10865200AC79F990B2CCE4F0A304F07FA47E947DCF
:06866200007C001274D33D
:0186680022EF
:1010A7007B017AB079BD90B2CBE4F0A37402F07FF4
:1010B700007E0F7D007C0012788F90B0BDE0645AEF
:0510C700600302149D0E
:1010CC00A3E0FEA3E0FFE4FCFDC0077B017AB0794E
:1010DC00C1A3E0FF90B2CBE4F0A3EFF0D0071278FD
:1010EC008F90B0BEE0FEA3E08EF0122C01111D9586
:1010FC00301184953111EB95321252953312B9950A
:10110C0034132095351387953613ED95370000145D
:10111C004E90B0C1E07004A3E06401600302144E71
:10112C00C390B2DDE0940190B2DCE0940050030275
:02113C00144E4F
:10113E0090B00DE0FEA3E0FF20E0047D0180027D73
:10114E0000ED5401FDEF54FEFFEF4DFF90B00DEE9C
:10115E00F0A3EFF07B017AB0790D90B2CCE4F0A35E
:10116E0004F07F407E957D007C001274D37B017A63
:03117E00A079CC89
:1011810002144B90B0C1E07004A3E064016003025B
:10119100144EC390B2DDE0940290B2DCE0940050B2
:0411A1000302144EE3
:1011A50090B01DE0FEA3E0FF20E0047D0180027DFC
:1011B50000ED5401FDEF54FEFFEF4DFF90B01DEE25
:1011C500F0A3EFF07B017AB0791D90B2CCE4F0A3E7
:1011D50004F07F417E957D007C001274D37B017AFB
:0311E500A079DB13
:1011E80002144B90B0C1E07004A3E06401600302F4
:1011F800144EC390B2DDE0940390B2DCE09400504A
:041208000302144E7B
:10120C0090B02DE0FEA3E0FF20E0047D0180027D84
:10121C0000ED5401FDEF54FEFFEF4DFF90B02DEEAD
:10122C00F0A3EFF07B017AB0792D90B2CCE4F0A36F
:10123C0004F07F427E957D007C001274D37B017A92
:03124C00A079EA9C
:10124F0002144B90B0C1E07004A3E064016003028C
:10125F00144EC390B2DDE0940490B2DCE0940050E1
:04126F000302144E14
:1012730090B03DE0FEA3E0FF20E0047D0180027D0D
:1012830000ED5401FDEF54FEFFEF4DFF90B03DEE36
:10129300F0A3EFF07B017AB0793D90B2CCE4F0A3F8
:1012A30004F07F437E957D007C001274D37B017A2A
:0312B300A079F926
:1012B60002144B90B0C1E07004A3E0640160030225
:1012C600144EC390B2DDE0940590B2DCE094005079
:0412D6000302144EAD
:1012DA0090B04DE0FEA3E0FF20E0047D0180027D96
:1012EA0000ED5401FDEF54FEFFEF4DFF90B04DEEBF
:1012FA00F0A3EFF07B017AB0794D90B2CCE4F0A381
:10130A0004F07F447E957D007C001274D37B017AC1
:03131A00A17908AE
:10131D0002144B90B0C1E07004A3E06401600302BD
:10132D00144EC390B2DDE0940690B2DCE094005010
:04133D000302144E45
:1013410090B05DE0FEA3E0FF20E0047D0180027D1E
:1013510000ED5401FDEF54FEFFEF4DFF90B05DEE47
:10136100F0A3EFF07B017AB0795D90B2CCE4F0A309
:1013710004F07F457E957D007C001274D37B017A59
:03138100A1791738
:1013840002144B90B0C1E07004A3E0640160030256
:10139400144EC390B2DDE0940790B2DCE0940050A8
:0413A4000302144EDE
:1013A80090B06DE0FEA3E0FF20E0047D0180027DA7
:1013B80000ED5401FDEF54FEFFEF4DFF90B06DEED0
:1013C800F0A3EFF07B017AB0796D90B2CCE4F0A392
:1013D80004F07F467E957D007C001274D37B017AF1
:0313E800A17926C2
:1013EB00805E90B0C1E07004A3E064017055C390BF
:0D13FB00B2DDE0940890B2DCE094004046C2
:1014080090B07DE0FEA3E0FF20E0047D0180027D36
:1014180000ED5401FDEF54FEFFEF4DFF90B07DEE5F
:10142800F0A3EFF07B017AB0797D90B2CCE4F0A321
:1014380004F07F477E957D007C001274D37B017A8F
:06144800A1793512BC9AE7
:10144E007E007F057D007B017AB079C1122DDE9082
:10145E00B0BEE0FEA3E0FFE4FCFDC0077B017AB066
:10146E0079C1A3E0FF90B2CCE4F0A3EFF0D0071265
:10147E0074D3E490B0BDF07B017AB079BD90B2CC5C
:0F148E00F0A304F07F007E0F7D007C001274D36A
:10149D00C390B2DDE0940190B2DCE0940040457B56
:1014AD00017AB0790390B2CCE4F0A37403F07F001D
:1014BD007E957D007C001274D37B017AB0790D90FE
:1014CD00B2CCE4F0A304F07F037E957D007C001286
:0214DD0074D3C6
:1014DF00E490B0BDF0A3F07B017AB079BD90B2CCAF
:0214EF0080116A
:1014F10090B0BDE4F0A304F0FB7AB079BD90B2CC1A
:10150100E4F0A304F07F207E957D007C001274D36B
:10151100C390B2DDE0940290B2DCE0940040457BE0
:10152100017AB0791390B2CCE4F0A37403F07F0494
:101531007E957D007C001274D37B017AB0791D9079
:10154100B2CCE4F0A304F07F077E957D007C00120D
:0215510074D351
:10155300E490B0BDF0A3F07B017AB079BD90B2CC3A
:021563008011F5
:1015650090B0BDE4F0A304F0FB7AB079BD90B2CCA5
:10157500E4F0A304F07F217E957D007C001274D3F6
:10158500C390B2DDE0940390B2DCE0940040457B6B
:10159500017AB0792390B2CCE4F0A37403F07F080C
:1015A5007E957D007C001274D37B017AB0792D90F5
:1015B500B2CCE4F0A304F07F0B7E957D007C001295
:0215C50074D3DD
:1015C700E490B0BDF0A3F07B017AB079BD90B2CCC6
:0215D700801181
:1015D90090B0BDE4F0A304F0FB7AB079BD90B2CC31
:1015E900E4F0A304F07F227E957D007C001274D381
:1015F900C390B2DDE0940490B2DCE0940040457BF6
:10160900017AB0793390B2CCE4F0A37403F07F0C83
:101619007E957D007C001274D37B017AB0793D9070
:10162900B2CCE4F0A304F07F0F7E957D007C00121C
:0216390074D368
:10163B00E490B0BDF0A3F07B017AB079BD90B2CC51
:02164B0080110C
:10164D0090B0BDE4F0A304F0FB7AB079BD90B2CCBC
:10165D00E4F0A304F07F237E957D007C001274D30B
:10166D00C390B2DDE0940590B2DCE0940040457B80
:10167D00017AB0794390B2CCE4F0A37403F07F10FB
:10168D007E957D007C001274D37B017AB0794D90EC
:10169D00B2CCE4F0A304F07F137E957D007C0012A4
:0216AD0074D3F4
:1016AF00E490B0BDF0A3F07B017AB079BD90B2CCDD
:0216BF00801198
:1016C10090B0BDE4F0A304F0FB7AB079BD90B2CC48
:1016D100E4F0A304F07F247E957D007C001274D396
:1016E100C390B2DDE0940690B2DCE0940040457B0B
:1016F100017AB0795390B2CCE4F0A37403F07F1473
:101701007E957D007C001274D37B017AB0795D9067
:10171100B2CCE4F0A304F07F177E957D007C00122B
:0217210074D37F
:10172300E490B0BDF0A3F07B017AB079BD90B2CC68
:02173300801123
:1017350090B0BDE4F0A304F0FB7AB079BD90B2CCD3
:10174500E4F0A304F07F257E957D007C001274D320
:10175500C390B2DDE0940790B2DCE0940040457B95
:10176500017AB0796390B2CCE4F0A37403F07F18EA
:101775007E957D007C001274D37B017AB0796D90E3
:10178500B2CCE4F0A304F07F1B7E957D007C0012B3
:0217950074D30B
:10179700E490B0BDF0A3F07B017AB079BD90B2CCF4
:0217A7008011AF
:1017A90090B0BDE4F0A304F0FB7AB079BD90B2CC5F
:1017B900E4F0A304F07F267E957D007C001274D3AB
:1017C900C390B2DDE0940890B2DCE0940040457B20
:1017D900017AB0797390B2CCE4F0A37403F07F1C62
:1017E9007E957D007C001274D37B017AB0797D905F
:1017F900B2CCE4F0A304F07F1F7E957D007C00123B
:0218090074D396
:10180B00E490B0BDF0A3F07B017AB079BD90B2CC7F
:02181B0080113A
:10181D0090B0BDE4F0A304F0FB7AB079BD90B2CCEA
:10182D00E4F0A304F07F277E957D007C001274D335
:01183D002288
:107C4300E490B0BFF0A3F090B388E0FEA3E0FF9010
:107C5300B0BFE0FCA3E0FDC39FEC9E5069AF05906D
:107C6300AD0DE0FEA3E0A807088005CEC313CE1335
:107C7300D8F95401FF90B386E0B40010A3E0B50730
:107C83000B90B0BDE4F0A37403F0800990B0BDE4A1
:107C9300F0A37402F090B0C0E024A0FF90B0BFE066
:107CA3003495FEE4FCFD7B017AB079BD90B2CCF053
:107CB300A304F01274D390B0C0E004F0708990B0C4
:107CC300BFE004F0808190B0BFE0FEA3E0FFC39467
:107CD3000CEE9400505890AD0DE0FEA3E0A8070809
:107CE3008005CEC313CE13D8F930E00A90B0BDE4BB
:107CF300F0A304F08007E490B0BDF0A3F090B0C00F
:107D0300E024A0FF90B0BFE03495FEE4FCFD7B01CE
:107D13007AB079BD90B2CCF0A304F01274D390B0D2
:107D2300C0E004F070A090B0BFE004F0809890B081
:107D3300BFE0FEA3E0FFC3940DEE9400506790AD47
:107D43000DE0FEA3E0A807088005CEC313CE13D829
:107D5300F95401FF90B386E0B40010A3E0B5070B1C
:107D630090B0BDE4F0A37403F0800990B0BDE4F0DB
:107D7300A37402F090B0C0E024A0FF90B0BFE03441
:107D830095FEE4FCFD7B017AB079BD90B2CCF0A303
:107D930004F01274D390B0C0E004F0709190B0BFBF
:107DA300E004F0808990B0BFE0FEA3E0FFC3940F2E
:107DB300EE9400505890AD0DE0FEA3E0A8070880B4
:107DC30005CEC313CE13D8F930E00A90B0BDE4F06A
:107DD300A304F08007E490B0BDF0A3F090B0C0E03E
:107DE30024A0FF90B0BFE03495FEE4FCFD7B017A54
:107DF300B079BD90B2CCF0A304F01274D390B0C0AC
:0D7E0300E004F070A090B0BFE004F08098A3
:017E1000224F
:0A183E0090B38AE07002A3E070642A
:1018480090B0BDF0A3F090B0BDE0FCA3E0FDC39460
:0918580010EC9400400302191980
:10186100AF0590AD11E0FEA3E0A807088005CEC347
:1018710013CE13D8F95401FF90B0BFE4F0A3EFF0F9
:10188100ED2450FFEC3497FEE4FCFD7B017AB07946
:0B189100BF90B2CCF0A304F01274D39F
:10189C0090B0BEE004F070AA90B0BDE004F080A25D
:0C18AC0090B38AE07004A3E06401706156
:1018B80090B0BDF0A3F090B0BDE0FCA3E0FDC394F0
:0618C80010EC9400504BEF
:1018CE00AF0590B0B5E0FEA3E0A807088005CEC333
:1018DE0013CE13D8F95401FF90B0BFE4F0A3EFF08C
:1018EE00ED2450FFEC3497FEE4FCFD7B017AB079D9
:0B18FE00BF90B2CCF0A304F01274D332
:1019090090B0BEE004F070AD90B0BDE004F080A5E9
:101919007B017AB079BD90B2CBE4F0A37402F07F79
:10192900007E0F7D007C0012788F90B0BDE0645A74
:051939006003021FB66F
:10193E00A3E0FEA3E0FFE4FCFDC0077B017AB079D3
:10194E00C1A3E0FF90B2CBE4F0A3EFF0D007127882
:10195E008F90B0BEE0FEA3E08EF0122C0119AF976F
:10196E006019AF976119AF976219AF976319AF9767
:10197E006419AF976519AF976619AF976719AF9747
:10198E006819AF976919AF976A19AF976B19AF9727
:10199E006C19AF976D19AF976E19AF976F00001F47
:1019AE006790B38AE07002A3E06003021C9A90B0C5
:0B19BE00C1E07002A3E06003021B2CDC
:1019C90090B0BFE024A0FF90B0BEE0346890B0CBE7
:1019D900F0FCA3EFF0FD7E007401A807088005C3A1
:1019E90033CE33CED8F9F4FFEEF4FE90AD11E05EBC
:1019F900F0A3E05FF090A14475F00FED122B9FEC7E
:101A090075F00FA42583F58374D0F090B0CBE0FE78
:101A1900A3E0FF90A14575F00F122B9FEE75F00F13
:101A2900A42583F583E4F090A14675F00FEF122BFE
:101A39009FEE75F00FA42583F583E4F090A1477517
:101A4900F00FEF122B9FEE75F00FA42583F5837429
:101A590006F090A14875F00FEF122B9FEE75F00F6D
:101A6900A42583F5837401F090A14975F00FEF1255
:101A79002B9FEE75F00FA42583F583E4F090A14A1E
:101A890075F00FEF122B9FEE75F00FA42583F583E8
:101A99007403F0A374E8F0EF2480FFEE3497FE900E
:101AA900B0CBE0FCA3E0FD90A14C75F00F122B9F89
:101AB900EC75F00FA42583F583EEF0A3EFF090A168
:101AC9004E75F00FED122B9FEC75F00FA42583F5E1
:101AD90083E4F0A37402F090A15075F00FED122B7E
:101AE9009FEC75F00FA42583F583E4F0A3F0A3F030
:101AF900ED2480FFEC3497FEE4FCFD7B017AAD799F
:101B09001190B2CCF0A304F01274D390B0CBE0FEE4
:101B1900A3E0FF7C007D0F1228A074442FF974A163
:101B2900021F6090B0C1E07004A3E0640160030289
:021B39001F6724
:101B3B0090B0BFE024A0FF90B0BEE0346890B0CB73
:101B4B00F0FCA3EFF0FD7E007401A807088005C32D
:101B5B0033CE33CED8F9FF90AD11E04EF0A3E04F6A
:101B6B00F090A23475F00FED122B9FEC75F00FA4D3
:101B7B002583F58374D0F090B0CBE0FEA3E0FF900B
:101B8B00A23575F00F122B9FEE75F00FA42583F580
:101B9B0083E4F090A23675F00FEF122B9FEE75F0E9
:101BAB000FA42583F583E4F090A23775F00FEF12A5
:101BBB002B9FEE75F00FA42583F5837406F090A28E
:101BCB003875F00FEF122B9FEE75F00FA42583F5F0
:101BDB00837401F090A23975F00FEF122B9FEE7505
:101BEB00F00FA42583F583E4F090A23A75F00FEF84
:101BFB00122B9FEE75F00FA42583F5837403F0A3CE
:101C0B0074E8F0EF2480FFEE3497FE90B0CBE0FC4D
:101C1B00A3E0FD90A23C75F00F122B9FEC75F00F1B
:101C2B00A42583F583EEF0A3EFF090A23E75F00FA1
:101C3B00ED122B9FEC75F00FA42583F583E4F0A335
:101C4B007402F090A24075F00FED122B9FEC75F023
:101C5B000FA42583F583E4F0A3F0A3F0ED2480FF1C
:101C6B00EC3497FEE4FCFD7B017AAD791190B2CC9C
:101C7B00F0A304F01274D390B0CBE0FEA3E0FF7C92
:0C1C8B00007D0F1228A074342FF974A201
:101C9700021F6090B38AE07004A3E064016003024E
:0F1CA7001F6790B0C1E07002A3E06003021E044B
:101CB60090B0CBF0A3F090B0BFE024A0FE90B0BEF1
:101CC600E0346890B0CDF0A3CEF090B0CDE0FEA3A6
:101CD600E0FF90A32475F00F122B9FEE75F00FA472
:101CE6002583F58374D0F090A32575F00FEF122BA2
:101CF6009FEE75F00FA42583F583E4F090A3267577
:101D0600F00FEF122B9FEE75F00FA42583F583E4F9
:101D1600F090A32775F00FEF122B9FEE75F00FA42E
:101D26002583F5837406F090A32875F00FEF122B28
:101D36009FEE75F00FA42583F5837401F090A32917
:101D460075F00FEF122B9FEE75F00FA42583F58328
:101D5600E4F090A32A75F00FEF122B9FEE75F00FAB
:101D6600A42583F5837403F0A374E8F0EF2480FFC1
:101D7600EE3497FE90B0CDE0FCA3E0FD90A32C7569
:101D8600F00F122B9FEC75F00FA42583F583EEF070
:101D9600A3EFF0ED2402FFE43CFE90A32E75F00FB6
:101DA600ED122B9FEC75F00FA42583F583EEF0A3BF
:101DB600EFF090A33075F00FED122B9FEC75F00F3E
:101DC600A42583F583E4F0A3F0A3F0ED2480FFECD3
:101DD6003497FEE4FCFD7B017AB079CB90B2CCF06F
:101DE600A304F01274D390B0CDE0FEA3E0FF7C0014
:0B1DF6007D0F1228A074242FF974A3A5
:101E0100021F6090B0C1E07004A3E06401600302AE
:021E11001F6749
:101E130074FF90B0CBF0A3F090B0BFE024A0FE908D
:101E2300B0BEE0346890B0CDF0A3CEF090B0CDE07A
:101E3300FEA3E0FF90A41475F00F122B9FEE75F034
:101E43000FA42583F58374D0F090A41575F00FEFDC
:101E5300122B9FEE75F00FA42583F583E4F090A475
:101E63001675F00FEF122B9FEE75F00FA42583F577
:101E730083E4F090A41775F00FEF122B9FEE75F02B
:101E83000FA42583F5837406F090A41875F00FEF63
:101E9300122B9FEE75F00FA42583F5837401F09048
:101EA300A41975F00FEF122B9FEE75F00FA4258385
:101EB300F583E4F090A41A75F00FEF122B9FEE75E3
:101EC300F00FA42583F5837403F0A374E8F0EF24E3
:101ED30080FFEE3497FE90B0CDE0FCA3E0FD90A42C
:101EE3001C75F00F122B9FEC75F00FA42583F5835F
:101EF300EEF0A3EFF0ED2402FFE43CFE90A41E7588
:101F0300F00FED122B9FEC75F00FA42583F583EEF4
:101F1300F0A3EFF090A42075F00FED122B9FEC755A
:101F2300F00FA42583F583E4F0A3F0A3F0ED248060
:101F3300FFEC3497FEE4FCFD7B017AB079CB90B2E1
:101F4300CCF0A304F01274D390B0CDE0FEA3E0FF75
:101F53007C007D0F1228A074142FF974A43EFA7B21
:041F63000112BC9A11
:101F67007E007F057D007B017AB079C1122DDE905E
:101F7700B0BEE0FEA3E0FFE4FCFDC0077B017AB042
:101F870079C1A3E0FF90B2CCE4F0A3EFF0D0071241
:101F970074D3E490B0BDF07B017AB079BD90B2CC38
:0F1FA700F0A304F07F007E0F7D007C001274D346
:011FB6002208
:1092F000E490B0BFF0A3F090B0BFE0FEA3E0FFC3E6
:10930000941EEE940040030293FA90B3B0E0FCA3E5
:10931000E0FDC3EF9DEE9C506090B0BFE0FCA3E089
:10932000FDECC4F854F0C868FEEDC4540F4825E0C5
:10933000FFEE33FE74D52FF58274AC3EF583E0FE6C
:10934000A3E0FFED540FFDEFA805088005CEC31381
:10935000CE13D8F95401FF90B3A8E0B40010A3E0F5
:10936000B5070B90B0BDE4F0A37403F0805A90B041
:10937000BDE4F0A37402F0804F90B0BFE0FCA3E026
:10938000FDECC4F854F0C868FEEDC4540F4825E065
:10939000FFEE33FE74D52FF58274AC3EF583E0FE0C
:1093A000A3E0FFED540FFDEFA805088005CEC31321
:1093B000CE13D8F930E00A90B0BDE4F0A304F080F9
:1093C00007E490B0BDF0A3F090B0C0E02400FF909F
:1093D000B0BFE03496FEE4FCFD7B017AB079BD902D
:1093E000B2CCF0A304F01274D390B0C0E004F070DB
:0A93F0000690B0BFE004F00292F70F
:0193FA002250
:1093FB00E490B0BFF0A3F090B0BFE0FEA3E0FFC3DA
:10940B00941EEE9400400302950590B3B2E0FCA3CA
:10941B00E0FDC3EF9DEE9C506090B0BFE0FCA3E07D
:10942B00FDECC4F854F0C868FEEDC4540F4825E0B9
:10943B00FFEE33FE74DB2FF58274AC3EF583E0FE5A
:10944B00A3E0FFED540FFDEFA805088005CEC31375
:10945B00CE13D8F95401FF90B3AAE0B40010A3E0E7
:10946B00B5070B90B0BDE4F0A37403F0805A90B035
:10947B00BDE4F0A37402F0804F90B0BFE0FCA3E01A
:10948B00FDECC4F854F0C868FEEDC4540F4825E059
:10949B00FFEE33FE74DB2FF58274AC3EF583E0FEFA
:1094AB00A3E0FFED540FFDEFA805088005CEC31315
:1094BB00CE13D8F930E00A90B0BDE4F0A304F080ED
:1094CB0007E490B0BDF0A3F090B0C0E02450FF9043
:1094DB00B0BFE03496FEE4FCFD7B017AB079BD9021
:1094EB00B2CCF0A304F01274D390B0C0E004F070CF
:0A94FB000690B0BFE004F0029402F6
:019505002243
:10950600E490B0BFF0A3F090B0BFE0FEA3E0FFC3CD
:10951600941EEE9400400302961090B3B4E0FCA3B0
:10952600E0FDC3EF9DEE9C506090B0BFE0FCA3E071
:10953600FDECC4F854F0C868FEEDC4540F4825E0AD
:10954600FFEE33FE74E12FF58274AC3EF583E0FE48
:10955600A3E0FFED540FFDEFA805088005CEC31369
:10956600CE13D8F95401FF90B3ACE0B40010A3E0D9
:10957600B5070B90B0BDE4F0A37403F0805A90B029
:10958600BDE4F0A37402F0804F90B0BFE0FCA3E00E
:10959600FDECC4F854F0C868FEEDC4540F4825E04D
:1095A600FFEE33FE74E12FF58274AC3EF583E0FEE8
:1095B600A3E0FFED540FFDEFA805088005CEC31309
:1095C600CE13D8F930E00A90B0BDE4F0A304F080E1
:1095D60007E490B0BDF0A3F090B0C0E024A0FF90E7
:1095E600B0BFE03496FEE4FCFD7B017AB079BD9015
:1095F600B2CCF0A304F01274D390B0C0E004F070C3
:0A9606000690B0BFE004F002950DDD
:019610002237
:10961100E490B0BFF0A3F090B0BFE0FEA3E0FFC3C1
:10962100941EEE9400400302971B90B3B6E0FCA396
:10963100E0FDC3EF9DEE9C506090B0BFE0FCA3E065
:10964100FDECC4F854F0C868FEEDC4540F4825E0A1
:10965100FFEE33FE74E72FF58274AC3EF583E0FE36
:10966100A3E0FFED540FFDEFA805088005CEC3135D
:10967100CE13D8F95401FF90B3AEE0B40010A3E0CB
:10968100B5070B90B0BDE4F0A37403F0805A90B01D
:10969100BDE4F0A37402F0804F90B0BFE0FCA3E002
:1096A100FDECC4F854F0C868FEEDC4540F4825E041
:1096B100FFEE33FE74E72FF58274AC3EF583E0FED6
:1096C100A3E0FFED540FFDEFA805088005CEC313FD
:1096D100CE13D8F930E00A90B0BDE4F0A304F080D5
:1096E10007E490B0BDF0A3F090B0C0E02400FF907B
:1096F100B0BFE03497FEE4FCFD7B017AB079BD9008
:10970100B2CCF0A304F01274D390B0C0E004F070B6
:0A9711000690B0BFE004F0029618C5
:01971B00222B
:10AF44007B017AAC79ED90B2CCE4F0A304F07F00FD
:10AF54007E987D007C001274D37B017AAC79EF90EB
:10AF6400B2CCE4F0A304F0FF7E987D007C00127460
:10AF7400D37B017AAC79F590B2CCE4F0A304F07FF2
:10AF8400027E987D007C001274D37B017AAC79F345
:10AF940090B2CCE4F0A304F07F037E987D007C00A3
:10AFA4001274D37B017AAC79F790B2CCE4F0A304A9
:0CAFB400F07F047E987D007C000274D3C6
:10A5BA00C390B3D7E0940190B3D6E0940040337BC4
:10A5CA00017AB0798390B2CCE4F0A3740BF07F5097
:10A5DA007E987D007C001274D37B017AB0799990C1
:10A5EA00B2CCE4F0A304F07F5B7E987D007C00127D
:10A5FA0074D3C390B3D7E0940290B3D6E0940040EA
:10A60A00337B017AB0799B90B2CCE4F0A3740BF05F
:10A61A007F607E987D007C001274D37B017AB079CA
:10A62A00B190B2CCE4F0A304F07F6B7E987D007CFD
:04A63A00001274D3C3
:10A63E00C390B3D7E0940290B3D6E094007E00505E
:10A64E00047F0180027F0090B0BDEEF0A3EFF07B9F
:10A65E00017AB079BD90B2CCE4F0A304F07F807E95
:08A66E00987D007C000274D30A
:10AD2700C390B3D9E0940190B3D8E09400401A7B64
:10AD3700017AAF79AF90B2CCE4F0A37415F07FA09D
:10AD47007E987D007C001274D3C390B3D9E094023F
:10AD570090B3D8E09400401A7B017AAF79D990B2CA
:10AD6700CCE4F0A37415F07FC07E987D007C0012C0
:02AD770074D393
