:0300000002B8A69D
:0800F800FFFF4457494E543547
:10B8A600759401759502758E0075930075C870754F
:10B8B600C96075F80075F90175A80075B800759A24
:10B8C6000075A90075B90053D0E7787FE4F6D8FD76
:10B8D6009080007F007E80E4F0A3DFFCDEFA7581B5
:04B8E6002702B92557
:108FC30090B2DB12464090B2DFEBF0A3EAF0A3E9E4
:018FD300F0AD
:108FD400E490B2E4F0A3F0A3F0A3F0A3F0A3F0A311
:108FE400F0A3F090B2E2E07002A3E0700302919C5F
:108FF40090B2DBE0F8A3E0F9A3E0FAA3E0FBC3E45A
:109004009BFFE49AFE740299FDE498FC90B2EC1282
:10901400464090B2E2E0FEA3E0FFE4FCFD90B2EC37
:10902400E0F8A3E0F9A3E0FAA3E0FBC31245C850BB
:109034001190B2ECA3A3E0FFA3E090B2E2CFF0A3BF
:10904400EFF090B2DBE0FCA3E0FDA3E0FEA3E0FFC1
:1090540078011245D990B2E4EEF0A3EFF090B2DBC0
:10906400A3A3A3E05401FEE490B2E6F0A3CEF0C2C1
:10907400AFE4F5F190B2E4E0FCA3E0FDECF5F28D91
:10908400F375F40175F8AF30FCFD90B2E6E07002C0
:10909400A3E0603DD2FE20FEFD90B2DFE0FBA3E43E
:1090A40075F0011243FBA9F0FAE5FC12434A90B2B1
:1090B400DFE0FBA3E475F0011243FBA9F0FAE5FD40
:1090C40012434A90B2E3E024FFF090B2E2E034FFAE
:1090D400F090B2E2E0FCA3E0FDECC313FFED1390CB
:1090E400B2E8CFF0A3EFF0ED5401FFA3E4F0A3EF57
:1090F400F090B2E874FFF5F01243FB45F0605BD2E8
:10910400FE20FEFD90B2DFE0FBA3E475F001124304
:10911400FBA9F0FAE5FA12434A90B2DFE0FBA3E4BC
:1091240075F0011243FBA9F0FAE5FB12434A90B231
:10913400DFE0FBA3E475F0011243FBA9F0FAE5FCC0
:1091440012434A90B2DFE0FBA3E475F0011243FB43
:10915400A9F0FAE5FD12434A809790B2EAE0700262
:10916400A3E0602FD2FE20FEFD90B2DFE0FBA3E47B
:1091740075F0011243FBA9F0FAE5FA12434A90B2E2
:10918400DFE0FBA3E475F0011243FBA9F0FAE5FB71
:0891940012434AE4F5F8D2AFE2
:01919C0022B0
:108DE30090B2DC12464090B2E0EBF0A3EAF0A3E9C4
:018DF300F08F
:108DF400E490B2E5F0A3F0A3F0A3F0A3F0A3F0A3F2
:108E0400F0A3F090B2E3E07002A3E07003028FC21B
:108E140090B2DCE0F8A3E0F9A3E0FAA3E0FBC3E43A
:108E24009BFFE49AFE740299FDE498FC90B2ED1263
:108E3400464090B2E3E0FEA3E0FFE4FCFD90B2ED17
:108E4400E0F8A3E0F9A3E0FAA3E0FBC31245C8509D
:108E54001190B2EDA3A3E0FFA3E090B2E3CFF0A39F
:108E6400EFF090B2DCE0FCA3E0FDA3E0FEA3E0FFA2
:108E740078011245D990B2E5EEF0A3EFF090B2DCA0
:108E8400A3A3A3E05401FEE490B2E7F0A3CEF0C2A2
:108E9400AFE4F5F190B2E5E0FCA3E0FDECF5F28D72
:108EA400F375F40175F88330FCFD90B2E7E07002CD
:108EB400A3E0603D90B2E0E0FBA3E475F00112434F
:108EC400FBA9F0FA124304F5FC90B2E0E0FBA3E442
:108ED40075F0011243FBA9F0FA124304F5FDD2FE2A
:108EE40020FEFD90B2E4E024FFF090B2E3E034FF12
:108EF400F090B2E3E0FCA3E0FDECC313FFED1390AC
:108F0400B2E9CFF0A3EFF0ED5401FFA3E4F0A3EF37
:108F1400F075F88F90B2E974FFF5F01243FB45F059
:108F2400605B90B2E0E0FBA3E475F0011243FBA99F
:108F3400F0FA124304F5FA90B2E0E0FBA3E475F012
:108F4400011243FBA9F0FA124304F5FB90B2E0E0EE
:108F5400FBA3E475F0011243FBA9F0FA124304F5F4
:108F6400FC90B2E0E0FBA3E475F0011243FBA9F02E
:108F7400FA124304F5FDD2FE30FE9980FB90B2EB69
:108F8400E07002A3E0603275F88C90B2E0E0FBA3DD
:108F9400E475F0011243FBA9F0FA124304F5FA90C8
:108FA400B2E0E0FBA3E475F0011243FBA9F0FA126E
:0E8FB4004304F5FBD2FE20FEFDE4F5F8D2AF3B
:018FC200228C
:10D59B00EF4E6010E4FD0DEDC3943240F9EF1F70B8
:04D5AB00EF1E80EC03
:01D5AF002259
:08C0410090B102EEF0A3EFF054
:10C04900A3745AF0A37401F090B102E0FCA3E0FDDF
:10C05900EC90B106F0A3EDF07B017AB1790490B2CE
:10C06900E3E4F0A37402F07F847E007D007C00127B
:10C079008DE37FF47E0112D59B7B017AB17904901F
:10C08900B2E2E4F0A37402F07F147E007D007C002C
:10C09900128FC390B102E0FEA3E0FFA3E0B506D280
:10C0A900A3E0B507CDE490B104F0A3F0A3F0A3F0A9
:10C0B9007B017AB1790490B2E3F0A37402F07F16A0
:09C0C9007E007D007C00028DE385
:08CEDF0090B1C7EEF0A3EFF0E3
:10CEE700E4A3F0A3F090B1C7E0FEA3E0FFC390B1C5
:10CEF700CAE09F90B1C9E09E5025E4FBFA7F017E0E
:10CF07000012D59B0BBB00010ABA01F1BB2CEE90B6
:0FCF1700B1CAE004F070CE90B1C9E004F080C65A
:01CF260022E8
:10CF2700EF14601814602314602E24037039A805C9
:10CF37007401088002C333D8FC42B722A8057401E4
:10CF4700088002C333D8FC42BC22A80574010880BC
:10CF570002C333D8FC42BD22AF05A807740108807D
:08CF670002C333D8FC42BE22D4
:10CDFF00EF1460191460251460312403703DA805E9
:10CE0F007401088002C333D8FCF452B722A805740A
:10CE1F0001088002C333D8FCF452BC22A805740168
:10CE2F00088002C333D8FCF452BD22AF05A80774A3
:0CCE3F0001088002C333D8FCF452BE226C
:10BFAE00EF14602D14604A1460672403600302C00E
:10BFBE0040EB600EA8057401088002C333D8FC4222
:10BFCE008022A8057401088002C333D8FCF4528085
:10BFDE0022EB600EA8057401088002C333D8FC4220
:10BFEE009022A8057401088002C333D8FCF4529045
:10BFFE0022EB600EA8057401088002C333D8FC4200
:10C00E00A022A8057401088002C333D8FCF452A004
:10C01E0022EB600EA8057401088002C333D8FC42DF
:10C02E00B022AF05A8077401088002C333D8FCF410
:03C03E0052B022DB
:10CC1600EF14601A14602714603424037042A805C8
:10CC26007401088002C333D8FC5580FE8034A80501
:10CC36007401088002C333D8FC5590FE8024A805F1
:10CC46007401088002C333D8FC55A0FE8014AF05DA
:10CC5600A8077401088002C333D8FC55B0FE8002D1
:04CC6600E4FEAF0633
:01CC6A0022A7
:10D44600758911E4F58CF58AC28CF518F51A4389AD
:0CD4560001758CBC758ACDD2A9D28C2245
:03000B0002C61713
:0DC61700C0E0C0D075D000C000C006C00754
:10C62400C2AF758CBC758ACD05197527007E007460
:10C6340001A827088005C333CE33CED8F9FFEF55C0
:10C644001A602DE52725E02408F808E6161870017D
:10C6540016E52725E02408F8E6FE08E64E7011AF3B
:10C6640027A80704088002C333D8FC4218F4521ADE
:09C674000527E527B408B6D2AF92
:0BC67D00D007D006D000D0D0D0E032B3
:10D58300758911E4F58DF58BC28E438910758DBCB9
:08D59300758BCDD2ABD28E22C4
:03001B0002D642C8
:0DD64200C2AF758DBC758BCDB290D2AF32EA
:10D5C50075C8F075CD58E4F5CC75CB58F5CA43C888
:04D5D50001D2AD22B0
:03002B0002D659A1
:09D65900C2AFC2C6B291D2AF32D9
:10D3AA00C2AFA8077401088002C333D8FCFE421A30
:10D3BA00EF25E02408F8A60408A605EEF45218D2D0
:02D3CA00AF2290
:10D5B000C2AFA8077401088002C333D8FCF4521A22
:05D5C0005218D2AF2259
:10D5ED00C2AFA8077401088002C333D8FC5518FFD9
:02D5FD00D2AFAB
:01D5FF002209
:10CD6400AB07AA06A905A8047F007E387D317C00A4
:10CD7400124520C3E49F90B0D8F074049E90B0D7BD
:10CD8400F043C9407D04E4FF12CF277D05E4FF1280
:10CD9400CDFF43803075D88075985090B0D7E0FCB3
:0DCDA400A3E0FDECF5BA8DAA43A810D2ACB7
:01CDB100225F
:10CE9600AB07AA06A905A8047F007E707D627C0008
:10CEA600124520C3E49F90B0D8F074049E90B0D78A
:10CEB600F043C9207D06E4FF12CF277D07E4FF1269
:10CEC600CDFF4380C0759B9090B0D7E0FCA3E0FDFA
:08CED600ECF5BB8D9D439A01B0
:01CEDE002231
:10D284007596C07597C0AB07AA06A905A8047F00C8
:10D294007EC07D897C01124520AD07AC06ECF5D932
:0FD2A400AF058FE743B80CE4FDFF12CF27C28020
:01D2B3002258
:10D30C0075A78075AB80AB07AA06A905A8047F009A
:10D31C007EC07D897C01124520AD07AC06ECF5AED4
:07D32C00AF058FAF43B830DD
:01D3330022D7
:10CCC000EF14601B1460291460372403704490B083
:10CCD000D3E0FCA3E0FDA3E0FEA3E0FF02CD64905F
:10CCE000B0D3E0FCA3E0FDA3E0FEA3E0FF02CE96FC
:10CCF00090B0D3E0FCA3E0FDA3E0FEA3E0FF02D2EE
:10CD00008490B0D3E0FCA3E0FDA3E0FEA3E0FF121B
:03CD1000D30C221F
:1095450090B2D3EFF0A3ECF0A3EDF0A3EBF0A3EA18
:04955500F0A3E9F0A6
:10955900C2AFE4A3F0A3F090B2D4E0FEA3E0FFC34E
:1095690090B2DAE09F90B2D9E09E400302961D9036
:10957900B2D6E0FBA3E475F0011243FBA9F0FA129D
:109589004304FF90B2D3E0FE75F009A42400F582EC
:10959900E5F03488F583EE75F008A42583F583E0BA
:1095A900FCA3E0FD75F009EEA42400F582E5F03492
:1095B90080F583EE75F008A42583F583E5822DF502
:1095C90082E5833CF583EFF075F009EEA42400F5FC
:1095D90082E5F03488F583EE75F008A42583F583D8
:1095E900E475F0011243E575F009EEA42400F58253
:1095F900E5F03488F583EE75F008A42583F583E05A
:109609005403F090B2DAE004F0700690B2D9E004A5
:10961900F002956090B2D3E0146042146070147047
:10962900030296D324036003029703908808E0603D
:109639000302970304F0908802E0FEA3E02400F5FA
:109649008274803EF583E0F599908803E004F07018
:1096590006908802E004F09088020296FF9090112B
:10966900E0600302970304F090900BE0FEA3E0246E
:1096790009F58274883EF583E0F59C90900CE0042E
:10968900F0700690900BE004F090900B8068909831
:109699001AE07066D28004F0909814E0FEA3E024EA
:1096A90012F58274903EF583E0FF30D0055396DFC2
:1096B90080034396208F9E909815E004F0700690E1
:1096C9009814E004F0909814802C90A023E0702A5C
:1096D90004F090A01DE0FEA3E0241BF58274983EDF
:1096E900F583E0F5AC90A01EE004F0700690A01D93
:0C96F900E004F090A01DE05403F0D2AF9C
:019705002241
:0300230002C1F225
:10C1F200C0E0C083C082C0D075D000C006C007C2F4
:10C20200AF30982AC298908804E0FEA3E02400F59B
:10C212008274843EF583E599F0908805E004F0701D
:10C2220006908804E004F0908804E05403F030990A
:10C232003FC299908802E0FEA3E0FF908800E06E82
:10C242007003A3E06F602474002FF58274803EF5C2
:10C2520083E0F599908803E004F07006908802E08C
:10C2620004F0908802E05403F08005908808E4F01E
:0FC27200D2AFD007D006D0D0D082D083D0E03268
:0300530002C7D70A
:10C7D700C0E0C083C082C0D075D000C006C007C209
:10C7E700AF5396FE909814E0FEA3E0FF909812E0F6
:10C7F7006E7003A3E06F603074122FF58274903E61
:10C80700F583E0FF30D0055396DF80034396208FF2
:10C817009E909815E004F07006909814E004F0904C
:10C827009814E05403F0800790981AE4F0C280D27D
:0EC83700AFD007D006D0D0D082D083D0E03270
:03005B0002C9E4F3
:10C9E400C0E0C083C082C0D075D000C006C007C2FA
:10C9F400AF5397FEE59FE59770047F0180027F00A7
:10CA0400EF5420FFA2D0E433B50728909816E0FE37
:10CA1400A3E02412F58274943EF583E59FF0909888
:10CA240017E004F07006909816E004F0909816E071
:10CA34005403F0D2AFD007D006D0D0D082D083D068
:02CA4400E032DE
:0300630002CA4688
:10CA4600C0E0C083C082C0D075D000C006C007C297
:10CA5600AF53A7FE90A01DE0FEA3E0FF90A01BE051
:10CA66006E7003A3E06F6024741B2FF58274983EEA
:10CA7600F583E0F5AC90A01EE004F0700690A01DD2
:10CA8600E004F090A01DE05403F0800590A023E49C
:10CA9600F0D2AFD007D006D0D0D082D083D0E0324B
:03006B0002CFB70A
:10CFB700C0E0C083C082C0D075D000C006C2AF53E6
:10CFC700ABFE90A01FE0FEA3E0241BF582749C3EFD
:10CFD700F583E5ADF090A020E004F0700690A01F67
:10CFE700E004F090A01FE05403F0D2AFD006D0D0F9
:07CFF700D082D083D0E032AC
:0300830002BF13A6
:10BF1300C0E0C083C082C0D075D000C006C007C2D5
:10BF2300AFE59B30E02E759B90539BFE90900DE008
:10BF3300FEA3E02409F582748C3EF583E59CF09022
:10BF4300900EE004F0700690900DE004F090900DD8
:10BF5300E05403F0E59B30E143759B90539BFD90C8
:10BF6300900BE0FEA3E0FF909009E06E7003A3E066
:10BF73006F602474092FF58274883EF583E0F59C85
:10BF830090900CE004F0700690900BE004F0909019
:10BF93000BE05403F08005909011E4F0D2AFD0078A
:0BBFA300D006D0D0D082D083D0E03296
:10D2520090B0D27403F0A374C8F043C9207D06E4F1
:10D26200FF12CF277D07E4FF12CDFF4380C0759BDD
:10D272009090B0D2E0FCA3E0FDECF5BB8D9D759CD7
:01D282000D9E
:01D283002288
:10D4EB0090B1EEEFF07B017AB179EE7D017C00E437
:0AD4FB00FF12954590B1EEE0FF220C
:10D5D90090000112431DFE54F0C4540FFFEE540F86
:04D5E900FD02CF2749
:08D51F00EBF0A3EAF0A3E9F030
:10D52700124304FE54F0C4540FFFEE540FFD02CD16
:01D53700FFF4
:08D53800E0FBA3E0FAA3E0F917
:10D54000124304FE54F0C4540FFFEE540FFD02CFFB
:01D5500027B3
:08D55100E0FBA3E0FAA3E0F9FE
:10D55900124304FE54F0C4540FFFEE540FFD02CCE5
:01D5690016AB
:08D49A00E0FBA3E0FAA3E0F9B6
:10D4A200124304FE54F0C4540FFFEE540FFD7B01EF
:03D4B20002BFAE08
:08D4B500E0FBA3E0FAA3E0F99B
:10D4BD00124304FE54F0C4540FFFEE540FFDE4FB71
:03D4CD0002BFAEED
:08D40A00E0FBA3E0FAA3E0F946
:10D4120090000112431DFE54F0C4540FFFEE540F4E
:06D42200FD7B0102BFAE1C
:08D42800E0FBA3E0FAA3E0F928
:10D4300090000112431DFE54F0C4540FFFEE540F30
:06D44000FDE4FB02BFAE9B
:10D1090090B0F8EBF0A3EAF0A3E9F090B0F812D5EB
:10D119003890B0F812D49A90B0F812D40A7F0F7EE2
:10D129000012D59B90B0F812D4B57F0F7E0012D5AE
:0ED139009B90B0F812D4287F0F7E0002D59B89
:10D0CA0090B0F8EBF0A3EAF0A3E9F090B0F812D52B
:10D0DA003890B0F812D4B590B0F812D40A7F0F7E07
:10D0EA000012D59B90B0F812D49A7F0F7E0012D509
:0FD0FA009B90B0F8E0FBA3E0FAA3E0F902D52782
:10D1470090B0F8EBF0A3EAF0A3E9F090B0F812D5AD
:10D157003890B0F812D4B57F057E0012D59B90B0F9
:10D16700F812D40A7F057E0012D59B90B0F812D42E
:08D17700287F057E0002D59B14
:10D17F0090B0F8EBF0A3EAF0A3E9F090B0F812D575
:10D18F003890B0F812D49A7F057E0012D59B90B0DC
:10D19F00F812D40A7F057E0012D59B90B0F812D4F6
:08D1AF00287F057E0002D59BDC
:03CB060090B0FDEF
:10CB090012D51F90B0FD12D49A7F057E0012D59BD5
:10CB190090B0FD12D40A7F057E0012D59BE490B136
:10CB290000F090B0FD12D551EF60137F057E001221
:10CB3900D59B90B100E004F0E0C3943240E490B09A
:10CB4900FD12D4287F057E0012D59B90B0FDE0FB35
:09CB5900A3E0FAA3E0F902D540C3
:0EC91B0090B0F8EFF0A3EBF0A3EAF0A3E9F080
:10C9290012D540E490B0FCF090B0F8E030E706A3EF
:10C9390012D49A800690B0F912D4B590B0F8E025D7
:10C94900E0F07F057E0012D59B90B0F912D40A7FE2
:10C95900057E0012D59B90B0F912D42890B0FCE066
:10C9690004F0E0C36480948840BE90B0F9E0FBA372
:08C97900E0FAA3E0F902CB068D
:03CC6B0090B0F88E
:10CC6E0012D51FE490B0FBF07F057E0012D59B908D
:10CC7E00B0F812D40A7F057E0012D59B90B0FCE06E
:10CC8E00FF25E0F090B0F812D551EF90B0FC6006A1
:10CC9E00E04401F08004E054FEF090B0F812D42885
:10CCAE0090B0FBE004F0E0C3940840BC90B0FCE010
:01CCBE00FF76
:01CCBF002252
:0ED6340053797374656D2073746172740A000B
:10C6F90012D446127E2712A5D512D25290B0D31267
:10C70900464C000025807F0212CCC090B0D312465F
:10C719004C0001C200E4FF12CCC0D2AF12830B124D
:10C729001AD6128BFA12C59C7DC87C00E4FF12D37D
:10C73900AA7BFF7AD6793412702912C0D212D2E2BA
:10C74900E4FF12D5EDEF601212A5D512D6621201DF
:0FC75900007DC87C00E4FF12D3AA12732380DB9B
:101AD600E490B0E6F0A3F090B0E6E0FEA3E0FF905D
:101AE600A8F175F00F12467DEE75F00FA42583F56B
:101AF600837461F090A8F275F00FEF12467DEE75D3
:101B0600F00FA42583F583E4F090A8F375F00FEFAA
:101B160012467DEE75F00FA42583F583E4F090A8B8
:101B2600F475F00FEF12467DEE75F00FA42583F5E0
:101B3600837403F090A8F575F00FEF12467DEE75ED
:101B4600F00FA42583F5837412F090A8F675F00FB4
:101B5600EF12467DEE75F00FA42583F583E4F09031
:101B6600A8F775F00FEF12467DEE75F00FA42583EA
:101B7600F5837403F0A374E8F090A8F975F00FEFFD
:101B860012467DEE75F00FA42583F583E4F0A3F0ED
:101B960090A8FB75F00FEF12467DEE75F00FA425A9
:101BA60083F583E4F0A3F090A8FD75F00FEF1246DD
:101BB6007DEE75F00FA42583F5837401F0A374AC54
:101BC600F0A374FCF090B0E7E004F0700690B0E685
:031BD600E004F038
:101BD900E490B0E8F0A3F090B411E0FEA3E0FF9028
:101BE900B0E8E0FCA3E0FDC39FEC9E4003021D6248
:101BF90090B0E6E0FEA3E0FFC39440EE94004003FA
:101C0900021D51ED4C701890A8F175F00FEF1246B6
:101C19007DEE75F00FA42583F5837460F08028C3E9
:101C2900ED9401EC9400401FED2461FF90B0E6E0D3
:101C3900FCA3E090A8F175F00F12467DEC75F00F4A
:101C4900A42583F583EFF090B0E6E0FEA3E0FF90D2
:101C5900A8F275F00F12467DEE75F00FA42583F5F5
:101C690083E4F090A8F375F00FEF12467DEE75F05E
:101C79000FA42583F583E4F090A8F475F00FEF1213
:101C8900467DEE75F00FA42583F5837403F090A8C3
:101C9900F575F00FEF12467DEE75F00FA42583F56B
:101CA900837421F090A8F675F00FEF12467DEE755A
:101CB900F00FA42583F583E4F090A8F775F00FEFF2
:101CC90012467DEE75F00FA42583F5837403F0A306
:101CD90074E8F090A8F975F00FEF12467DEE75F0F3
:101CE9000FA42583F583E4F0A3F090A8FB75F00F0A
:101CF900EF12467DEE75F00FA42583F583E4F0A37A
:101D0900F090B0E8E0FEA3E0FF7C007D4212437E44
:101D190074282FF974AD3EFA90B0E6E0FEA3E09086
:101D2900A8FD75F00F12467DEE75F00FA42583F519
:101D3900837401F0A3EAF0A3E9F090B0E7E004F0BE
:101D4900700690B0E6E004F090B0E9E004F07006A7
:091D590090B0E8E004F0021BE088
:101D6200E490B0E8F0A3F090B3BDE0FCA3E0FD90F6
:101D7200B0E8E0FEA3E0FFC39DEE9C4003021EB06C
:101D820090B0E6E0FCA3E0FDC39440EC9400400375
:101D9200021E9FEF24A0FB90A8F175F00FED1246F2
:101DA2007DEC75F00FA42583F583EBF090A8F27516
:101DB200F00FED12467DEC75F00FA42583F583E458
:101DC200F090A8F375F00FED12467DEC75F00FA4BC
:101DD2002583F583E4F090A8F475F00FED12467DAB
:101DE200EC75F00FA42583F5837403F090A8F575C4
:101DF200F00FED12467DEC75F00FA42583F5837488
:101E020003F090A8F675F00FED12467DEC75F00F19
:101E1200A42583F583E4F090A8F775F00FED124640
:101E22007DEC75F00FA42583F5837403F0A374E8A9
:101E3200F090A8F975F00FED12467DEC75F00FA445
:101E42002583F583E4F0A3F090A8FB75F00FED1263
:101E5200467DEC75F00FA42583F583E4F0A3F0FC36
:101E62007D0612437E74E42FF974AC3EFA90B0E61C
:101E7200E0FEA3E090A8FD75F00F12467DEE75F02E
:101E82000FA42583F5837401F0A3EAF0A3E9F0908F
:101E9200B0E7E004F0700690B0E6E004F090B0E93C
:0E1EA200E004F0700690B0E8E004F0021D6964
:0D1EB00090B34DE07002A3E0600302200A31
:101EBD0090B0E8F0A3F090B36DE0FCA3E0FD90B01E
:101ECD00E8E0FEA3E0FFC39DEE9C40030221669077
:101EDD00B0E6E0FCA3E0FDC39440EC9400400302A7
:101EED001FF9EF2470FB90A8F175F00FED12467DF0
:101EFD00EC75F00FA42583F583EBF090A8F275F047
:101F0D000FED12467DEC75F00FA42583F583E4F0FB
:101F1D0090A8F375F00FED12467DEC75F00FA4252A
:101F2D0083F583E4F090A8F475F00FED12467DEC87
:101F3D0075F00FA42583F5837403F090A8F575F063
:101F4D000FED12467DEC75F00FA42583F583741902
:101F5D00F090A8F675F00FED12467DEC75F00FA41C
:101F6D002583F583E4F090A8F775F00FED12467D0B
:101F7D00EC75F00FA42583F5837403F0A374E8F0DA
:101F8D0090A8F975F00FED12467DEC75F00FA425B4
:101F9D0083F583E4F0A3F090A8FB75F00FED1246E6
:101FAD007DEC75F00FA42583F583E4F0A3F0FC7DA3
:101FBD003212437E74B02FF974AD3EFA90B0E6E064
:101FCD00FEA3E090A8FD75F00F12467DEE75F00FA3
:101FDD00A42583F5837401F0A3EAF0A3E9F090B092
:101FED00E7E004F0700690B0E6E004F090B0E9E0B0
:0D1FFD0004F0700690B0E8E004F0021EC38E
:0F200A0090B34DE07004A3E0640160030221660F
:1020190090B0E8F0A3F090B38DE0FCA3E0FD90B0A0
:10202900E8E0FEA3E0FFC39DEE9C40030221669019
:10203900B0E6E0FCA3E0FDC39440EC940040030249
:102049002155EF2470FB90A8F175F00FED12467D34
:10205900EC75F00FA42583F583EBF090A8F275F0E9
:102069000FED12467DEC75F00FA42583F583E4F09E
:1020790090A8F375F00FED12467DEC75F00FA425CD
:1020890083F583E4F090A8F475F00FED12467DEC2A
:1020990075F00FA42583F5837403F090A8F575F006
:1020A9000FED12467DEC75F00FA42583F583743787
:1020B900F090A8F675F00FED12467DEC75F00FA4BF
:1020C9002583F583E4F090A8F775F00FED12467DAE
:1020D900EC75F00FA42583F5837403F0A374E8F07D
:1020E90090A8F975F00FED12467DEC75F00FA42557
:1020F90083F583E4F0A3F090A8FB75F00FED124689
:102109007DEC75F00FA42583F583E4F0A3F0FC7D45
:102119006E12437E74AA2FF974AE3EFA90B0E6E0CF
:10212900FEA3E090A8FD75F00F12467DEE75F00F45
:10213900A42583F5837401F0A3EAF0A3E9F090B034
:10214900E7E004F0700690B0E6E004F090B0E9E052
:0D21590004F0700690B0E8E004F002201FD2
:10216600E490B0E8F0A3F090B3E5E0FEA3E0FF90C2
:10217600B0E8E0FAA3E0FBC39FEA9E40030222B662
:1021860090B0E6E0FCA3E0FDC39440EC940040036D
:102196000222A5EB2490FF90A8F175F00FED1246F0
:1021A6007DEC75F00FA42583F583EFF090A8F2750A
:1021B600F00FED12467DEC75F00FA42583F583E450
:1021C600F090A8F375F00FED12467DEC75F00FA4B4
:1021D6002583F583E4F090A8F475F00FED12467DA3
:1021E600EC75F00FA42583F5837403F090A8F575BC
:1021F600F00FED12467DEC75F00FA42583F5837480
:1022060007F090A8F675F00FED12467DEC75F00F0D
:10221600A42583F583E4F090A8F775F00FED124638
:102226007DEC75F00FA42583F5837403F0A374E8A1
:10223600F090A8F975F00FED12467DEC75F00FA43D
:102246002583F583E4F0A3F090A8FB75F00FED125B
:10225600467DEC75F00FA42583F583E4F0A3F0EB3F
:10226600C4F8540FC868FFEAC454F048FE74862FB9
:10227600F974AF3EFA90A8FD75F00FED12467DECAD
:1022860075F00FA42583F5837401F0A3EAF0A3E9A2
:10229600F090B0E7E004F0700690B0E6E004F0904D
:1022A600B0E9E004F0700690B0E8E004F002216DB9
:1022B600E490B0E8F0A3F090B3A3E0FEA3E0FF90B3
:1022C600B0E8E0FAA3E0FBC39FEA9E40030225368E
:1022D60090B0E6E0FCA3E0FDC39440EC940040031C
:1022E60002252590B3A1E07002A3E060030224005A
:1022F600EB24D0FF90A8F175F00FED12467DEC753A
:10230600F00FA42583F583EFF090A8F275F00FED9A
:1023160012467DEC75F00FA42583F583E4F090A8B2
:10232600F375F00FED12467DEC75F00FA42583F5DD
:1023360083E4F090A8F475F00FED12467DEC75F08D
:102346000FA42583F5837403F090A8F575F00FEDBF
:1023560012467DEC75F00FA42583F5837401F09089
:10236600A8F675F00FED12467DEC75F00FA42583E7
:10237600F583E4F090A8F775F00FED12467DEC7545
:10238600F00FA42583F5837403F0A374E8F090A8F6
:10239600F975F00FED12467DEC75F00FA42583F567
:1023A60083E4F0A3F090A8FB75F00FED12467DECE8
:1023B60075F00FA42583F583E4F0A37402F0EB25F2
:1023C600E0FFEA33FE74AC2FF974AD3EFA90A8FD37
:1023D60075F00FED12467DEC75F00FA42583F5839D
:1023E6007401F0A3EAF0A3E9F090B0E7E004F0701E
:1023F6000690B0E6E004F002252590B3A1E0700453
:10240600A3E06401600302252590B0E8E0FEA3E0A6
:10241600FF24D0FB90B0E6E0FCA3E0FD90A8F175A8
:10242600F00F12467DEC75F00FA42583F583EBF0D3
:1024360090A8F275F00FED12467DEC75F00FA4250D
:1024460083F583E4F090A8F375F00FED12467DEC6A
:1024560075F00FA42583F583E4F090A8F475F00FCA
:10246600ED12467DEC75F00FA42583F5837403F019
:1024760090A8F575F00FED12467DEC75F00FA425CA
:1024860083F5837402F090A8F675F00FED12467D81
:10249600EC75F00FA42583F583E4F090A8F775F0AA
:1024A6000FED12467DEC75F00FA42583F5837403BA
:1024B600F0A374E8F090A8F975F00FED12467DECE4
:1024C60075F00FA42583F583E4F0A3F090A8FB75BF
:1024D600F00FED12467DEC75F00FA42583F583E42D
:1024E600F0A3F0EF7802C333CE33CED8F924CAF97D
:1024F60074B03EFA7B0190A8FD75F00FED12467D93
:10250600EC75F00FA42583F583EBF0A3EAF0A3E9BD
:10251600F090B0E7E004F0700690B0E6E004F090CA
:10252600B0E9E004F0700690B0E8E004F00222BDE5
:10253600E490B0E8F0A3F090B2F3E0FEA3E0FF90E1
:10254600B0E8E0FAA3E0FBC39FEA9E4003022685BB
:1025560090B0E6E0FCA3E0FDC39440EC9400400399
:10256600022674EB04FF90A8F175F00FED12467D7C
:10257600EC75F00FA42583F583EFF090A8F275F0C3
:102586000FED12467DEC75F00FA42583F583E4F07C
:1025960090A8F375F00FED12467DEC75F00FA425AB
:1025A60083F583E4F090A8F475F00FED12467DEC08
:1025B60075F00FA42583F5837403F090A8F575F0E4
:1025C6000FED12467DEC75F00FA42583F583740894
:1025D600F090A8F675F00FED12467DEC75F00FA49D
:1025E6002583F583E4F090A8F775F00FED12467D8C
:1025F600EC75F00FA42583F5837403F0A374E8F05B
:1026060090A8F975F00FED12467DEC75F00FA42534
:1026160083F583E4F0A3F090A8FB75F00FED124666
:102626007DEC75F00FA42583F583E4F0A3F0EBC4ED
:10263600F8540FC868FFEAC454F048FE741A2FF91C
:1026460074B03EFA90A8FD75F00FED12467DEC755C
:10265600F00FA42583F5837401F0A3EAF0A3E9F053
:1026660090B0E7E004F0700690B0E6E004F090B0B9
:0F267600E9E004F0700690B0E8E004F002253DC2
:10268500E490B0E8F0A3F090B3EDE0FCA3E0FD909A
:10269500B0E8E0FEA3E0FFC39DEE9C40030227D314
:1026A50090B0E6E0FCA3E0FDC39440EC9400400349
:1026B5000227C2EF241AFB90A8F175F00FED124620
:1026C5007DEC75F00FA42583F583EBF090A8F275EA
:1026D500F00FED12467DEC75F00FA42583F583E42C
:1026E500F090A8F375F00FED12467DEC75F00FA490
:1026F5002583F583E4F090A8F475F00FED12467D7F
:10270500EC75F00FA42583F5837403F090A8F57597
:10271500F00FED12467DEC75F00FA42583F583745B
:102725000BF090A8F675F00FED12467DEC75F00FE5
:10273500A42583F583E4F090A8F775F00FED124614
:102745007DEC75F00FA42583F5837403F0A374E87D
:10275500F090A8F975F00FED12467DEC75F00FA419
:102765002583F583E4F0A3F090A8FB75F00FED1237
:10277500467DEC75F00FA42583F583E4F0A3F0FC0A
:102785007D1812437E749A2FF974B03EFA90B0E624
:10279500E0FEA3E090A8FD75F00F12467DEE75F002
:1027A5000FA42583F5837401F0A3EAF0A3E9F09063
:1027B500B0E7E004F0700690B0E6E004F090B0E910
:0E27C500E004F0700690B0E8E004F002268C0C
:1027D300E490B0E8F0A3F090B3EDE0FCA3E0FD904B
:1027E300B0E8E0FEA3E0FFC39DEE9C400302292373
:1027F30090B0E6E0FCA3E0FDC39440EC94004003FA
:10280300022912EF241AFB90A8F175F00FED12467E
:102813007DEC75F00FA42583F583EBF090A8F2759A
:10282300F00FED12467DEC75F00FA42583F583E4DC
:10283300F090A8F375F00FED12467DEC75F00FA440
:102843002583F583E4F090A8F475F00FED12467D2F
:10285300EC75F00FA42583F5837402F090A8F57549
:10286300F00FED12467DEC75F00FA42583F583740C
:1028730010F090A8F675F00FED12467DEC75F00F91
:10288300A42583F583E4F090A8F775F00FED1246C5
:102893007DEC75F00FA42583F5837403F0A374E82E
:1028A300F090A8F975F00FED12467DEC75F00FA4CA
:1028B3002583F583E4F0A3F090A8FB75F00FED12E8
:1028C300467DEC75F00FA42583F5837403F0A3E430
:1028D300F0FC7D1812437E74B02FF974B03EFA9069
:1028E300B0E6E0FEA3E090A8FD75F00F12467DEE82
:1028F30075F00FA42583F5837401F0A3EAF0A3E92F
:10290300F090B0E7E004F0700690B0E6E004F090D9
:10291300B0E9E004F0700690B0E8E004F00227DAD2
:10292300E490B0E8F0A3F090B3EFE0FCA3E0FD90F7
:10293300B0E8E0FEA3E0FFC39DEE9C4003022A73D0
:1029430090B0E6E0FCA3E0FDC39440EC94004003A8
:10295300022A62EF2480FB90A8F175F00FED124676
:102963007DEC75F00FA42583F583EBF090A8F27549
:10297300F00FED12467DEC75F00FA42583F583E48B
:10298300F090A8F375F00FED12467DEC75F00FA4EF
:102993002583F583E4F090A8F475F00FED12467DDE
:1029A300EC75F00FA42583F5837403F090A8F575F7
:1029B300F00FED12467DEC75F00FA42583F58374BB
:1029C30015F090A8F675F00FED12467DEC75F00F3B
:1029D300A42583F583E4F090A8F775F00FED124674
:1029E3007DEC75F00FA42583F5837403F0A374E8DD
:1029F300F090A8F975F00FED12467DEC75F00FA479
:102A03002583F583E4F0A3F090A8FB75F00FED1296
:102A1300467DEC75F00FA42583F583E4F0A304F061
:102A23007C007D2A12437E74C62FF974AF3EFA9060
:102A3300B0E6E0FEA3E090A8FD75F00F12467DEE30
:102A430075F00FA42583F5837401F0A3EAF0A3E9DD
:102A5300F090B0E7E004F0700690B0E6E004F09088
:102A6300B0E9E004F0700690B0E8E004F002292A2F
:102A730090B0E6E0FEA3E0FFC39440EE9400400371
:102A8300022B7B90A8F175F00FEF12467DEE75F0E7
:102A93000FA42583F5837432F090A8F275F00FEF3D
:102AA30012467DEE75F00FA42583F583E4F090A81C
:102AB300F375F00FEF12467DEE75F00FA42583F545
:102AC30083E4F090A8F475F00FEF12467DEE75F0F5
:102AD3000FA42583F5837403F090A8F575F00FEF29
:102AE30012467DEE75F00FA42583F5837404F090F0
:102AF300A8F675F00FEF12467DEE75F00FA425834F
:102B0300F583E4F090A8F775F00FEF12467DEE75AC
:102B1300F00FA42583F5837403F0A374E8F090A861
:102B2300F975F00FEF12467DEE75F00FA42583F5CE
:102B330083E4F0A3F090A8FB75F00FEF12467DEE4F
:102B430075F00FA42583F583E4F0A3F090A8FD7539
:102B5300F00FEF12467DEE75F00FA42583F5837415
:102B630001F0A374ADF0A37420F090B0E7E004F09B
:102B7300700690B0E6E004F090B0E6A3E090ACB24B
:012B8300F061
:012B8400222E
:10A1CF0055AA5AA500FF87B9000000FF919D000016
:10A1DF000000000000000000000000000000000070
:10A1EF00000000000000FFB0A6FFB19600000000C5
:10A1FF000000000000000000000000FF76060000D5
:10A20F0000000000000000FFA84200000000000056
:10A21F00000000FFA95D000000000000FF6B7A0046
:10A22F000000000000000000FFAA73000000FFB450
:10A23F0066000000000000000000FF497B000000E6
:10A24F00000000FFA48A000000FFB286000000009B
:10A25F000000000000FF9A7A000000FFB3760000B4
:10A26F0000FFAFB20000000000000000000000007F
:10A27F00000000000000FF80A0000000FF556B00F1
:10A28F0000000000000000000000000000000000BF
:10A29F0000FF9C2A000000FF2B85000000FF937732
:10A2AF00000000000000FF331CFFAB86FFAC91FFE6
:10A2BF00AD9CFFAEA7FFC4A4000000FFBBAB000026
:10A2CF0000000000FFC30CFF98C5FF78BDFF7B7235
:10A2DF00000000000000000000000000000000FF70
:10A2EF00A06C000000000000000000000000000053
:10A2FF0000FF9706000000FF89DB00000000000050
:10A30F00000000000000000000000000000000003E
:10A31F000000000000000000FF9F05FF3A950000BD
:01A32F00002D
:104F770041A0BA004FA0DB01000005010003E8953E
:104F87004000060000004FA0EA02000005010003F0
:104F9700E8954100060000004FA0F9030000050155
:104FA7000003E8954200060000004FA10804000036
:104FB70005010003E8954300060000004FA117050F
:104FC700000005010003E8954400060000004FA11A
:104FD7002606000005010003E895450006000000CD
:104FE7004FA13507000005010003E89546000600BC
:104FF70000004FA14408000005010003E8954700A1
:105007000600000042A8D3000044A8E40000000006
:0550170042A8E80000C2
:10D4D00090B5A4ECF0A3EDF0E4FCFD7B017AB57906
:0BD4E000A490B2E3F0A304F0028DE37F
:10D46200E4F5F175F208F5F375F40175F8AF30FCE7
:0BD47200FDD2FE20FEFDAFFBE4F5F84C
:01D47D00228C
:10D3CC00E4F5F175F208F5F375F40175F88C30FCA1
:0FD3DC00FDE4F5FAF5FBD2FE20FEFDE4F5F822A4
:1087B9007B017AB079D490B2E2E4F0A37402F07F3D
:1087C900007E0F7D007C00128FC390B0D4E0645A04
:0587D90060030289CAE3
:1087DE00A3E0FEA3E0FFE4FCFDC0077B017AB079C5
:1087EE00D8A3E0FF90B2E2E4F0A3EFF0D007128F2F
:1087FE00C390B0D5E0FEA3E08EF01246DF882F8046
:10880E000088538001887D800688A3800788F880C1
:10881E00088917800A8936800B8955800C000089DB
:10882E007B90B0D8E07004A3E06401600302897B02
:10883E0090B499E0700690B445E060057F0202891D
:10884E00767F02802290B0D8E07004A3E0640160CD
:10885E000302897B90B499E0700690B445E0600500
:10886E007F160289767F167E0012D33402897B90A2
:10887E00B0D8E07004A3E06401600302897BD3905A
:10888E00B2F4E0940090B2F3E09400500302897BBE
:10889E007F4602897690B0D8E07004A3E064016050
:1088AE000302897B90B34DE07002A3E07017D39062
:1088BE00B36EE0940090B36DE09400500302897B98
:1088CE007F5E02897690B34DE07004A3E064016090
:1088DE000302897BD390B38EE0940090B38DE09425
:1088EE0000500302897B7F5E807E90B0D8E07004DA
:1088FE00A3E064017077D390B3BEE0940090B3BD53
:10890E00E0940040687F48805F90B0D8E07004A388
:10891E00E064017058D390B3EEE0940090B3EDE0B4
:10892E00940040497F52804090B0D8E07004A3E09C
:10893E0064017039D390B3E6E0940090B3E5E0940F
:10894E0000402A7F56802190B0D8E07004A3E064E6
:10895E0001701AD390B412E0940090B411E0940018
:10896E0040047F5780027F3F7E0012C0417E007F11
:10897E00057D007B017AB079D81248BC90B0D5E065
:10898E00FEA3E0FFE4FCFDC0077B017AB079D8A31B
:10899E00E0FF90B2E3E4F0A3EFF0D007128DE3E432
:1089AE0090B0D4F07B017AB079D490B2E3F0A30406
:0C89BE00F07F007E0F7D007C00128DE336
:1089CA0090B499E06002E4F090B445E06002E4F00B
:0189DA00227A
:10919D007B017AB079D490B2E2E4F0A37402F07F4F
:1091AD00007E0F7D007C00128FC390B0D4E0645A16
:0591BD0060030293763F
:1091C200A3E0FEA3E0FFE4FCFDC0077B017AB079D7
:1091D200D8A3E0FF90B2E2E4F0A3EFF0D007128F41
:1091E200C390B0D5E0FEA3E08EF01246DF9213806A
:1091F2002092388021925D80229282802392A580E3
:109202002492C5802592E580269309802700009349
:109212002790B0D8E07004A3E064016003029327B2
:1092220090B499E0700690B445E060057F0B02921D
:10923200FF7F0B02930590B0D8E07004A3E06401B5
:10924200600302932790B499E0700690B445E06001
:10925200057F230292FF7F2302930590B0D8E0702E
:1092620004A3E06401600302932790B499E07006BE
:1092720090B445E060057F270292FF7F27029305A5
:1092820090B0D8E07004A3E06401600302932790D9
:10929200B499E0700690B445E060047F2A805E7F56
:1092A2002A806090B0D8E07004A3E06401707690E8
:1092B200B499E0700690B445E060047F2C803E7F54
:1092C2002C804090B0D8E07004A3E0640170569006
:1092D200B499E0700690B445E060047F30801E7F50
:1092E20030802090B0D8E07004A3E0640170369022
:1092F200B499E0700690B445E060067F327E00804B
:109302001C7F327E00801B90B0D8E07004A3E06422
:1093120001701290B445E07F347E00600512C041B6
:10932200800312D3347E007F057D007B017AB07901
:10933200D81248BC90B0D5E0FEA3E0FFE4FCFDC02B
:10934200077B017AB079D8A3E0FF90B2E3E4F0A3FF
:10935200EFF0D007128DE3E490B0D4F07B017AB045
:1093620079D490B2E3F0A304F07F007E0F7D007CFD
:0493720000128DE375
:0193760022D4
:10B0A6007B017AB079D490B2E2E4F0A37402F07F27
:10B0B600007E0F7D007C00128FC390B0D4E0645AEE
:05B0C600600302B195DA
:10B0CB00A3E0FEA3E0FFE4FCFDC0077B017AB079AF
:10B0DB00D8A3E0FF90B2E2E4F0A3EFF0D007128F19
:10B0EB00C390B0D5E0FEA3E08EF01246DFB1008036
:10B0FB00410000B14690B0D8E07004A3E064017049
:10B10B003A7B017AB279FD90B2E2F0A3740CF07F36
:10B11B00007E907D007C00128FC390B0EA12464CEB
:10B12B000000900090B0EEE4F0A3740CF07F007E72
:10B13B00017D007C0012B96A121AD67E007F057D54
:10B14B00007B017AB079D81248BC90B0D5E0FEA351
:10B15B00E0FFE4FCFDC0077B017AB079D8A3E0FFE8
:10B16B0090B2E3E4F0A3EFF0D007128DE3E490B0DC
:10B17B00D4F07B017AB079D490B2E3F0A304F07FE2
:0AB18B00007E0F7D007C00128DE3B2
:01B195002297
:10B196007B017AB079D490B2E2E4F0A37402F07F36
:10B1A600007E0F7D007C00128FC390B0D4E0645AFD
:05B1B600600302B285F8
:10B1BB00A3E0FEA3E0FFE4FCFDC0077B017AB079BE
:10B1CB00D8A3E0FF90B2E2E4F0A3EFF0D007128F28
:10B1DB00C390B0D5E0FEA3E08EF01246DFB1F08055
:10B1EB00600000B23690B0D8E07004A3E064017048
:10B1FB003A7B017AB3792990B2E2F0A37406F07F1F
:10B20B00507E907D007C00128FC390B0EA12464CAA
:10B21B000000905090B0EEE4F0A37406F07F507EE7
:10B22B00017D007C0012B96A121AD67E007F057D63
:10B23B00007B017AB079D81248BC90B0D5E0FEA360
:10B24B00E0FFE4FCFDC0077B017AB079D8A3E0FFF7
:10B25B0090B2E3E4F0A3EFF0D007128DE3E490B0EB
:10B26B00D4F07B017AB079D490B2E3F0A304F07FF1
:0AB27B00007E0F7D007C00128DE3C1
:01B2850022A6
:107606007B017AB079D490B2E2E4F0A37402F07F01
:10761600007E0F7D007C00128FC390B0D4E0645AC8
:0576260060030277A2E1
:10762B00A3E0FEA3E0FFE4FCFDC0077B017AB07989
:10763B00D8A3E0FF90B2E2E4F0A3EFF0D007128FF3
:10764B00C390B0D5E0FEA3E08EF01246DF767080DB
:10765B006076BC90B176E090B2770490B3772890C7
:10766B00B40000775390B0D8E07004A3E0640160DD
:10767B00030277537B017AB3793590B2E2F0A374AE
:10768B000CF07FA07E907D007C00128FC390B0EA3F
:10769B0012464C000090A090B0EEE4F0A3740CF0F6
:1076AB007FA07E017D007C0012B96A121AD6027788
:1076BB005390B301E07002A3E07B017AB079D890CC
:1076CB00B2E37008F0A304F07FA18073E4F0A3048D
:1076DB00F07FA5806A90B301E07002A3E07B017A92
:1076EB00B079D890B2E37008F0A304F07FA28007C2
:1076FB00E4F0A304F07FA6804690B301E07002A3F0
:10770B00E07B017AB079D890B2E37008F0A304F073
:10771B007FA38007E4F0A304F07FA7802290B3013E
:10772B00E07002A3E07B017AB079D890B2E37008E5
:10773B00F0A304F07FA48007E4F0A304F07FA87EFD
:10774B00907D007C00128DE37E007F057D007B0128
:10775B007AB079D81248BC90B0D5E0FEA3E0FFE434
:10776B00FCFDC0077B017AB079D8A3E0FF90B2E3B0
:10777B00E4F0A3EFF0D007128DE3E490B0D4F07BEC
:10778B00017AB079D490B2E3F0A304F07F007E0FBE
:07779B007D007C00128DE36C
:0A77A20090B2FDE07002A3E07075E4
:1077AC0090B0D87490F0A374A1F07B017AB079D822
:1077BC0090B2E3E4F0A304F07F007E507D007C00E7
:1077CC00128DE390B0D87490F0A374A2F07B017A80
:1077DC00B079D890B2E3E4F0A304F07F207E507D22
:1077EC00007C00128DE390B0D87490F0A374A3F0D9
:1077FC007B017AB079D890B2E3E4F0A304F07F4037
:10780C007E507D007C00128DE390B0D87490F0A374
:02781C0074A452
:10781E000278A290B2FDE07004A3E064016003025E
:02782E0078BC24
:1078300090B0D87490F0A374A5F07B017AB079D899
:1078400090B2E3E4F0A304F07F007E507D007C0062
:10785000128DE390B0D87490F0A374A6F07B017AF7
:10786000B079D890B2E3E4F0A304F07F207E507D9D
:10787000007C00128DE390B0D87490F0A374A7F050
:107880007B017AB079D890B2E3E4F0A304F07F40B2
:107890007E507D007C00128DE390B0D87490F0A3F0
:1078A00074A8F07B017AB079D890B2E3E4F0A30435
:0C78B000F07F607E507D007C00128DE3B4
:0178BC0022A9
:10A842007B017AB079D490B2E2E4F0A37402F07F93
:10A85200007E0F7D007C00128FC390B0D4E0645A5A
:05A86200600302A95C87
:10A86700A3E0FEA3E0FFE4FCFDC0077B017AB0791B
:10A87700D8A3E0FF90B2E2E4F0A3EFF0D007128F85
:10A88700C390B0D5E0FEA3E08EF01246DFA8A48007
:10A8970080A8EC9120A8FB91210000A90D90B0D8C9
:10A8A700E07004A3E06401705D7B017AB379D19015
:10A8B700B2E2F0A37428F07F007E917D007C001245
:10A8C7008FC390B0EA12464C0000910090B0EEE4BE
:10A8D700F0A37428F07F007E027D007C0012B96A25
:10A8E700121AD6802190B0D8E07004A3E0640170FA
:10A8F70015FF800E90B0D8E07004A3E064017006E5
:10A907007F01FE12C2817E007F057D007B017AB048
:10A9170079D81248BC90B0D5E0FEA3E0FFE4FCFD77
:10A92700C0077B017AB079D8A3E0FF90B2E3E4F0E7
:10A93700A3EFF0D007128DE3E490B0D4F07B017A57
:10A94700B079D490B2E3F0A304F07F007E0F7D00CE
:05A957007C00128DE3FD
:01A95C0022D8
:10A95D007B017AB079D490B2E2E4F0A37402F07F77
:10A96D00007E0F7D007C00128FC390B0D4E0645A3E
:05A97D00600302AA3294
:10A98200A3E0FEA3E0FFE4FCFDC0077B017AB079FF
:10A99200D8A3E0FF90B2E2E4F0A3EFF0D007128F69
:10A9A200C390B0D5E0FEA3E08EF01246DFA9BB91C2
:10A9B20050A9CF91520000A9E390B0D8E07004A34F
:10A9C200E06401701C7F1AFE12D334801490B0D858
:10A9D200E07004A3E06401700890B499F090B4456B
:10A9E200F07E007F057D007B017AB079D81248BCE9
:10A9F20090B0D5E0FEA3E0FFE4FCFDC0077B017A46
:10AA0200B079D8A3E0FF90B2E3E4F0A3EFF0D0076F
:10AA1200128DE3E490B0D4F07B017AB079D490B295
:10AA2200E3F0A304F07F007E0F7D007C00128DE333
:10AA320090B445E0600B90B0D8E4F0A37402F080CB
:10AA42001790B499E0600A90B0D8E4F0A304F080C3
:10AA520007E490B0D8F0A3F07B017AB079D890B235
:10AA6200E3E4F0A304F07F607E917D007C00028D20
:01AA7200E300
:106B7A007B017AB079D490B2E2E4F0A37402F07F98
:106B8A00007E0F7D007C00128FC390B0D4E0645A5F
:056B9A006003026EC45F
:106B9F00A3E0FEA3E0FFE4FCFDC0077B017AB07920
:106BAF00D8A3E0FF90B2E2E4F0A3EFF0D007128F8A
:106BBF00C390B0D5E0FEA3E08EF01246DF6BFC80F1
:106BCF00C06C4791B26C8491B36CC191B46CFE915F
:106BDF00B56D3B91B66D7891B76DB591B86DF2917A
:106BEF00B96E2E91BA6E6A91BB00006EA790B0D8A5
:106BFF00E07004A3E064016003026EA77B017AB228
:106C0F0079F990B2E2F0A37402F07FA07E917D003B
:106C1F007C00128FC390B0EA12464C000091A090F6
:106C2F00B0EEE4F0A37402F07F50FE7D007C001202
:086C3F00B96A121AD6026EA711
:106C470090A0247461F0E4A3F0A3F0A37406F0A36A
:106C57007401F0E4A3F0A37403F0A374E8F0A37441
:106C670091F0A374B2F0E4A3F0A3F0F9A3C9F0A3E1
:0A6C7700F0A3E9F07B017AA0792474
:036C8100026EA4FC
:106C840090A0337461F0E4A3F0A3F0A37406F0A31E
:106C94007401F0E4A3F0A37403F0A374E8F0A37404
:106CA40091F0A374B3F0A3E4F0A304F07B00A31465
:0A6CB400F0A3F0A3F00B7AA07933EF
:036CBE00026EA4BF
:106CC10090A0427461F0E4A3F0A3F0A37406F0A3D2
:106CD1007401F0E4A3F0A37403F0A374E8F0A374C7
:106CE10091F0A374B4F0A3E4F0A37402F0A3E4F070
:0A6CF100A3F0A3F07B017AA0794222
:036CFB00026EA482
:106CFE0090A0517461F0E4A3F0A3F0A37406F0A386
:106D0E007401F0E4A3F0A37403F0A374E8F0A37489
:106D1E0091F0A374B5F0A3E4F0A37403F0A3E4F030
:0A6D2E00A3F0A3F07B017AA07951D5
:036D3800026EA444
:106D3B0090A0607461F0E4A3F0A3F0A37406F0A339
:106D4B007401F0E4A3F0A37403F0A374E8F0A3744C
:106D5B0091F0A374B6F0A3E4F0A37406F0A3E4F0EF
:0A6D6B00A3F0A3F07B017AA0796089
:036D7500026EA407
:106D780090A06F7461F0E4A3F0A3F0A37406F0A3ED
:106D88007401F0E4A3F0A37403F0A374E8F0A3740F
:106D980091F0A374B7F0A3E4F0A37407F0A3E4F0B0
:0A6DA800A3F0A3F07B017AA0796F3D
:036DB200026EA4CA
:106DB50090A07E7461F0E4A3F0A3F0A37406F0A3A1
:106DC5007401F0E4A3F0A37403F0A374E8F0A374D2
:106DD50091F0A374B8F0A3E4F0A37408F0A3E4F071
:0A6DE500A3F0A3F07B017AA0797EF1
:036DEF00026EA48D
:106DF20090A08D7461F0E4A3F0A3F0A37406F0A355
:106E02007401F0E4A3F0A37403F0A374E8F0A37494
:106E120091F0A374B9F0A3E4F0A37409F0A3E4F031
:0A6E2200A3F0A3F07B017AA0798DA4
:026E2C0080766E
:106E2E0090A09C7461F0E4A3F0A3F0A37406F0A309
:106E3E007401F0E4A3F0A37403F0A374E8F0A37458
:106E4E0091F0A374BAF0A3E4F0A3740AF0A3E4F0F3
:0A6E5E00A3F0A3F07B017AA0799C59
:026E6800803A6E
:106E6A0090A0AB7461F0E4A3F0A3F0A37406F0A3BE
:106E7A007401F0E4A3F0A37403F0A374E8F0A3741C
:106E8A0091F0A374BBF0A3E4F0A3740BF0A3E4F0B5
:0D6E9A00A3F0A3F07B017AA079AB12D2B473
:106EA700E490B0D4F07B017AB079D490B2E3F0A348
:0D6EB70004F07F007E0F7D007C00128DE353
:106EC4007B017AAC79FC90B2E3E4F0A304F07FA2F6
:106ED4007E917D007C00128DE37B017AAC79FE907B
:106EE400B2E3E4F0A304F07FA37E917D007C001262
:106EF4008DE37B017AAD790090B2E3E4F0A304F072
:106F04007FA47E917D007C00128DE37B017AAD79B4
:106F14000290B2E3E4F0A304F07FA57E917D007CAF
:106F240000128DE37B017AAD790890B2E3E4F0A31B
:106F340004F07FA67E917D007C00128DE37B017AB4
:106F4400AD790A90B2E3E4F0A304F07FA77E917DCB
:106F5400007C00128DE37B017AAD790C90B2E3E4FE
:106F6400F0A304F07FA87E917D007C00128DE37B6A
:106F7400017AAD790E90B2E3E4F0A304F07FA97E28
:106F8400917D007C00128DE37B017AAD791090B283
:106F9400E3E4F0A304F07FAA7E917D007C00128DCF
:106FA400E37B017AAD791290B2E3E4F0A304F07FBD
:0A6FB400AB7E917D007C00028DE3AE
:10AA73007B017AB079D490B2E2E4F0A37402F07F60
:10AA8300007E0F7D007C00128FC390B0D4E0645A27
:05AA9300600302AB8529
:10AA9800A3E0FEA3E0FFE4FCFDC0077B017AB079E8
:10AAA800D8A3E0FF90B2E2E4F0A3EFF0D007128F52
:10AAB800C390B0D5E0FEA3E08EF01246DFAAD9001D
:10AAC8009DAAD9009EAAD9009FAAE280E00000AB07
:10AAD8006890A0BA7401F002AB6890B0D8E0700436
:0DAAE800A3E06401707A90A0BAE0B40128E8
:10AAF5007B017AB079E290B2E2E4F0A37404F07FCE
:10AB05009D7E007D007C00128FC37B017AB079E2C7
:08AB150012B635E490A0BAF07D
:10AB1D007B017AB3792590B2E2E4F0A304F07FF0E3
:10AB2D007E917D007C00128FC37B017AB3792590D5
:10AB3D00B1C5E4F0A37402F07FA0FE7D007C00128D
:10AB4D00BC677B017AB3792590B2E3E4F0A304F0FE
:10AB5D007F837E007D007C00128DE3E490B0D4F005
:10AB6D007B017AB079D490B2E3F0A304F07F007E3C
:08AB7D000F7D007C00128DE346
:01AB850022AD
:10B466007B017AB079D490B2E2E4F0A37402F07F63
:10B47600007E0F7D007C00128FC390B0D4E0645A2A
:05B48600600302B54F58
:10B48B00A3E0FEA3E0FFE4FCFDC0077B017AB079EB
:10B49B00D8A3E0FF90B2E2E4F0A3EFF0D007128F55
:10B4AB00C390B0D5E0FEA3E0704BEE247F704690C6
:10B4BB00B0D8E07004A3E06401703A7B017AB379F1
:10B4CB009D90B2E2F0A3741AF07F007E927D007C17
:10B4DB0000128FC390B0EA12464C0000920090B05D
:10B4EB00EEE4F0A3741AF07F007E037D007C001263
:10B4FB00B96A121AD67E007F057D007B017AB0797E
:10B50B00D81248BC90B0D5E0FEA3E0FFE4FCFDC030
:10B51B00077B017AB079D8A3E0FF90B2E3E4F0A304
:10B52B00EFF0D007128DE3E490B0D4F07B017AB04A
:10B53B0079D490B2E3F0A304F07F007E0F7D007C02
:04B54B0000128DE37A
:01B54F0022D9
:10497B007B017AB079D490B2E2E4F0A37402F07FB9
:10498B00007E0F7D007C00128FC390B0D4E0645A80
:05499B006003024D87DE
:1049A000A3E0FEA3E0FFE4FCFDC0077B017AB07941
:1049B000D8A3E0FF90B2E2E4F0A3EFF0D007128FAB
:1049C000C390B0D5E0FEA3E08EF01246DF49F5813A
:1049D000204A4192504A5D92804B6C92814C3D92AC
:1049E000824C7A92834CB792844CF392854D2B92F1
:1049F0008600004D6A90B0D8E07004A3E0640160C6
:104A000003024D6A7B017AB3794D90B2E2F0A37450
:104A100028F07F507E927D007C00128FC390B0EA18
:104A200012464C0000925090B0EEE4F0A37428F0CF
:104A30007F507E037D007C0012B96A121AD6024DA7
:104A40006A7B017AB3794D90B2E2E4F0A304F07F7F
:104A5000507E927D007C00128FC3024D6A90B34D50
:104A6000E07002A3E0707B90B0D8E0FEA3E0FFC34B
:104A7000EE94005003024D6AD3EF9405EE9400408B
:044A800003024D6A76
:104A840090B0E2EEF0A3EFF07B017AB079E290B25D
:104A9400E3E4F0A304F07F607E927D007C00128D3D
:104AA400E37B017AB079E490B2E2E4F0A304F07F0E
:104AB400617E927D007C00128FC390B0E2E0FEA381
:104AC400E0FF7C007D1812437ED390B0E5E09F9018
:0B4AD400B0E4E09E4005EEF0A3EFF020
:104ADF00024BBF90B34DE07004A3E064016003028A
:104AEF004D6A90B0D8E0FEA3E0FFC3EE94005003F0
:0F4AFF00024D6AD3EF9402EE94004003024D6A19
:104B0E0090B0E2EEF0A3EFF07B017AB079E290B2D2
:104B1E00E3E4F0A304F07F707E927D007C00128DA2
:104B2E00E37B017AB079E490B2E2E4F0A304F07F83
:104B3E00717E927D007C00128FC390B0E2E0FEA3E6
:104B4E00E0FF7C007D3712437ED390B0E5E09F906E
:0B4B5E00B0E4E09E4005EEF0A3EFF095
:0D4B6900024C2A90B34DE07002A3E0705C96
:104B760090B0D8E0FFA3E090B0E4CFF0A3EFF07BD5
:104B8600017AB079E290B2E2E4F0A304F07F607EAD
:104B9600927D007C00128FC390B0E2E0FEA3E0FF9E
:104BA6007C007D1812437ED390B0E5E09F90B0E480
:104BB600E09E4005EEF0A3EFF07B017AB079E49039
:094BC600B2E3E4F0A304F07F6106
:104BCF00024D6190B34DE07004A3E06401600302F5
:024BDF004D6A1D
:104BE10090B0D8E0FFA3E090B0E4CFF0A3EFF07B6A
:104BF100017AB079E290B2E2E4F0A304F07F707E32
:104C0100927D007C00128FC390B0E2E0FEA3E0FF32
:104C11007C007D3712437ED390B0E5E09F90B0E4F5
:104C2100E09E4005EEF0A3EFF07B017AB079E490CD
:094C3100B2E3E4F0A304F07F718A
:104C3A00024D6190B34DE07002A3E070127B017ADD
:104C4A00B079D890B2E3F0A304F07F62024D61908C
:104C5A00B34DE07004A3E064016003024D6A7B0176
:104C6A007AB079D890B2E3F0A304F07F72024D6172
:104C7A0090B34DE07002A3E070127B017AB079D84C
:104C8A0090B2E3F0A304F07F63024D6190B34DE06C
:104C9A007004A3E064016003024D6A7B017AB07973
:104CAA00D890B2E3F0A304F07F73024D6190B34D44
:104CBA00E07002A3E070127B017AB079D890B2E377
:104CCA00F0A304F07F64024D6190B34DE07004A339
:104CDA00E064016003024D6A7B017AB079D890B230
:104CEA00E3F0A304F07F74806E90B34DE07002A3EA
:104CFA00E070117B017AB079D890B2E3F0A304F0A6
:104D0A007F65805390B34DE07004A3E06401705056
:104D1A007B017AB079D890B2E3F0A304F07F758072
:104D2A003690B34DE07002A3E070117B017AB0793E
:104D3A00D890B2E3F0A304F07F66801B90B34DE0F5
:104D4A007004A3E0640170187B017AB079D890B23C
:104D5A00E3F0A304F07F767E927D007C00128DE35F
:104D6A00E490B0D4F07B017AB079D490B2E3F0A3A6
:0D4D7A0004F07F007E0F7D007C00128DE3B1
:0D4D870090B34DE07002A3E06003024E7295
:104D940090B0D87492F0A37460F07B017AB079D8A3
:104DA40090B2E3E4F0A304F07F007E527D007C0027
:104DB400128DE390B0D87492F0A37461F07B017A01
:104DC400B079D890B2E3E4F0A304F07F207E527D62
:104DD400007C00128DE390B0D87492F0A37462F05A
:104DE4007B017AB079D890B2E3E4F0A304F07F4079
:104DF4007E527D007C00128DE390B0D87492F0A3B3
:104E04007463F07B017AB079D890B2E3E4F0A30440
:104E1400F07F607E527D007C00128DE390B0D874E8
:104E240092F0A37464F07B017AB079D890B2E3E491
:104E3400F0A304F07F807E527D007C00128DE3900D
:104E4400B0D87492F0A37465F07B017AB079D890ED
:104E5400B2E3E4F0A304F07FA07E527D007C001254
:0B4E64008DE390B0D87492F0A3746648
:104E6F00024F5C90B34DE07004A3E0640160030255
:024E7F004F766C
:104E810090B0D87492F0A37470F07B017AB079D8A5
:104E910090B2E3E4F0A304F07F007E527D007C0039
:104EA100128DE390B0D87492F0A37471F07B017A03
:104EB100B079D890B2E3E4F0A304F07F207E527D74
:104EC100007C00128DE390B0D87492F0A37472F05C
:104ED1007B017AB079D890B2E3E4F0A304F07F408B
:104EE1007E527D007C00128DE390B0D87492F0A3C5
:104EF1007473F07B017AB079D890B2E3E4F0A30443
:104F0100F07F607E527D007C00128DE390B0D874FA
:104F110092F0A37474F07B017AB079D890B2E3E493
:104F2100F0A304F07F807E527D007C00128DE3901F
:104F3100B0D87492F0A37475F07B017AB079D890EF
:104F4100B2E3E4F0A304F07FA07E527D007C001266
:104F51008DE390B0D87492F0A37476F07B017AB0AF
:104F610079D890B2E3E4F0A304F07FC07E527D00D3
:054F71007C00128DE33D
:014F76002218
:10A48A007B017AB079D490B2E2E4F0A37402F07F4F
:10A49A00007E0F7D007C00128FC390B0D4E0645A16
:05A4AA00600302A5BCE7
:10A4AF00A3E0FEA3E0FFE4FCFDC0077B017AB079D7
:10A4BF00D8A3E0FF90B2E2E4F0A3EFF0D007128F41
:10A4CF00C390B0D5E0FEA3E08EF01246DFA4E88182
:10A4DF0040A53092C10000A56D90B0D8E07004A3E4
:10A4EF00E0640170797B017AB379F190B2E2F0A365
:10A4FF007416F07FA07E927D007C00128FC390B007
:10A50F00EA12464C000092A090B0EEE4F0A374164D
:10A51F00F07FA07E037D007C0012B96A121AD680EC
:01A52F003DEE
:10A5300090A0BB7432F0E4A3F0A3F0A37406F0A3E0
:10A540007401F0E4A3F0A37403F0A374E8F0A3741F
:10A5500092F0A374C1F0A3E4F0A37403F0A3E4F0B9
:0DA56000A3F0A3F07B017AA079BB12D2B466
:10A56D007E007F057D007B017AB079D81248BC90C2
:10A57D00B0D5E0FEA3E0FFE4FCFDC0077B017AB09F
:10A58D0079D8A3E0FF90B2E3E4F0A3EFF0D0071287
:10A59D008DE3E490B0D4F07B017AB079D490B2E33E
:0FA5AD00F0A304F07F007E0F7D007C00128DE391
:10A5BC007B017AAD792690B2E3E4F0A304F07FC07E
:09A5CC007E927D007C00028DE30B
:10B286007B017AB079D490B2E2E4F0A37402F07F45
:10B29600007E0F7D007C00128FC390B0D4E0645A0C
:05B2A600600302B37516
:10B2AB00A3E0FEA3E0FFE4FCFDC0077B017AB079CD
:10B2BB00D8A3E0FF90B2E2E4F0A3EFF0D007128F37
:10B2CB00C390B0D5E0FEA3E08EF01246DFB2E08172
:10B2DB00600000B32690B0D8E07004A3E064017066
:10B2EB003A7B017AB279F190B2E2F0A37406F07F67
:10B2FB00007E937D007C00128FC390B0EA12464C07
:10B30B000000930090B0EEE4F0A37406F07F007E93
:10B31B00047D007C0012B96A121AD67E007F057D6F
:10B32B00007B017AB079D81248BC90B0D5E0FEA36F
:10B33B00E0FFE4FCFDC0077B017AB079D8A3E0FF06
:10B34B0090B2E3E4F0A3EFF0D007128DE3E490B0FA
:10B35B00D4F07B017AB079D490B2E3F0A304F07F00
:0AB36B00007E0F7D007C00128DE3D0
:01B3750022B5
:109A7A007B017AB079D490B2E2E4F0A37402F07F69
:109A8A00007E0F7D007C00128FC390B0D4E0645A30
:059A9A006003029BFACD
:109A9F00A3E0FEA3E0FFE4FCFDC0077B017AB079F1
:109AAF00D8A3E0FF90B2E2E4F0A3EFF0D007128F5B
:109ABF00C390B0D5E0FEA3E08EF01246DF9AD881B6
:109ACF00809B23936000009BAB90B0D8E07004A301
:109ADF00E064016003029BAB7B017AB379E590B23E
:109AEF00E2F0A37404F07F507E937D007C00128F10
:109AFF00C390B0EA12464C0000935090B0EEE4F0E1
:109B0F00A37404F07F50FE7D007C0012B96A121A14
:109B1F00D6029BAB90B0D8E07004A3E06401707CD8
:0F9B2F00D390B3E6E0940090B3E5E09400406D6E
:109B3E0090AF90E0FEA3E0FF20E0047D0180027D67
:109B4E0000ED5401FDEF54FEFFEF4DFF90AF90EE90
:109B5E00F0A3EFF05401FF90A0D9E4F0A3EFF09042
:109B6E00A0CA74FEF0E4A3F0A3F0A37406F0A374ED
:109B7E0001F0E4A3F0A37403F0A374E8F0E4A3F0FF
:109B8E00A3F0A3F0A37405F0A37401F0A374A0F0E6
:0D9B9E00A374D9F07B017AA079CA12D2B469
:109BAB007E007F057D007B017AB079D81248BC908E
:109BBB00B0D5E0FEA3E0FFE4FCFDC0077B017AB06B
:109BCB0079D8A3E0FF90B2E3E4F0A3EFF0D0071253
:109BDB008DE3E490B0D4F07B017AB079D490B2E30A
:0F9BEB00F0A304F07F007E0F7D007C00128DE35D
:109BFA0090AF91E07E0030E0047F0180027F009008
:109C0A00B0D8EEF0A3EFF07B017AB079D890B2E346
:109C1A00E4F0A304F07F617E937D007C00028DE373
:10B376007B017AB079D490B2E2E4F0A37402F07F54
:10B38600007E0F7D007C00128FC390B0D4E0645A1B
:05B39600600302B46534
:10B39B00A3E0FEA3E0FFE4FCFDC0077B017AB079DC
:10B3AB00D8A3E0FF90B2E2E4F0A3EFF0D007128F46
:10B3BB00C390B0D5E0FEA3E08EF01246DFB3D08190
:10B3CB00A00000B41690B0D8E07004A3E064017044
:10B3DB003A7B017AB379ED90B2E2F0A37402F07F7D
:10B3EB00A07E937D007C00128FC390B0EA12464C76
:10B3FB00000093A090B0EEE4F0A37402F07FA07E67
:10B40B00047D007C0012B96A121AD67E007F057D7E
:10B41B00007B017AB079D81248BC90B0D5E0FEA37E
:10B42B00E0FFE4FCFDC0077B017AB079D8A3E0FF15
:10B43B0090B2E3E4F0A3EFF0D007128DE3E490B009
:10B44B00D4F07B017AB079D490B2E3F0A304F07F0F
:0AB45B00007E0F7D007C00128DE3DF
:01B4650022C4
:10BE6F0090B329E4F0A304F0A37411F0A37494F039
:10BE7F00A3740CF0A3749EF090B331740AF0A37402
:10BE8F00F0F0A37407F0A3744EF07B017AB3792915
:10BE9F0090B1C5E4F0A37406F07F507E017D007C65
:10BEAF000012BC677B017AB3792990B2E3E4F0A367
:10BEBF007406F07F507E907D007C00128DE390B36E
:10BECF00477403F0A374E8F0A37403F0A374E8F0CD
:10BEDF007B017AB3793590B1C5E4F0A3740CF07F90
:10BEEF00A07E017D007C0012BC677B017AB379359F
:10BEFF0090B2E3E4F0A3740CF07FA07E907D007C01
:04BF0F0000028DE3BC
:10AFB2007B017AB079D490B2E2E4F0A37402F07F1C
:10AFC200007E0F7D007C00128FC390B0D4E0645AE3
:05AFD200600302B0A5C0
:10AFD700A3E0FEA3E0FFE4FCFDC0077B017AB079A4
:10AFE700D8A3E0FF90B2E2E4F0A3EFF0D007128F0E
:10AFF700C390B0D5E0FEA3E08EF01246DFB0149404
:10B0070000B0259401B03194020000B05690B0D83A
:10B01700E07004A3E06401703612BE6F803190B017
:10B02700D8E0702BA3E06401802590B0D8E07004CD
:10B03700A3E0640170197BFF7AA179CF90B2E3F0A6
:10B04700A37402F07F047E007D007C00128DE37EF6
:10B05700007F057D007B017AB079D81248BC90B09B
:10B06700D5E0FEA3E0FFE4FCFDC0077B017AB079E1
:10B07700D8A3E0FF90B2E3E4F0A3EFF0D007128D7E
:10B08700E3E490B0D4F07B017AB079D490B2E3F0E6
:0EB09700A304F07F007E0F7D007C00128DE38D
:01B0A5002288
:0D9C2A0090B32FE07002A3E06003029CD70E
:109C370090B0D47494F0A374A0F07B017AB079D477
:109C470090B2E3E4F0A304F07F007E547D007C0033
:109C5700128DE390B0D47494F0A374A1F07B017AD1
:109C6700B079D490B2E3E4F0A304F07F407E547D52
:109C7700007C00128DE390B0D47494F0A374A3F029
:109C87007B017AB079D490B2E3E4F0A304F07F606B
:109C97007E547D007C00128DE390B0D47494F0A3C1
:109CA70074A5F07B017AB079D490B2E3E4F0A30411
:109CB700F07FA07E547D007C00128DE37B017AAD9E
:0D9CC700790890B2E3E4F0A37406F07FA0EA
:109CD400029D9390B32FE07004A3E064016003023B
:029CE4009D9C45
:109CE60074FF90B0D4F0A3F07B017AB079D490B22F
:109CF600E3E4F0A304F07F007E547D007C00128D27
:109D0600E374FF90B0D4F0A3F07B017AB079D490DD
:109D1600B2E3E4F0A304F07F407E547D007C0012A1
:109D26008DE374FF90B0D4F0A3F07B017AB079D4C0
:109D360090B2E3E4F0A304F07F607E547D007C00E3
:109D4600128DE374FF90B0D4F0A3F07B017AB07962
:109D5600D490B2E3E4F0A304F07FA07E547D007CAF
:109D660000128DE37B017AAD790890B2E3E4F0A3AB
:109D760004F07FA17E947D007C00128DE37B017A46
:109D8600AD790890B2E3E4F0A304F07FA47E947D5D
:069D9600007C00128DE3C9
:019D9C0022A4
:102B85007B017AB079D490B2E2E4F0A37402F07FCD
:102B9500007E0F7D007C00128FC390B0D4E0645A94
:052BA5006003022F7B1C
:102BAA00A3E0FEA3E0FFE4FCFDC0077B017AB07955
:102BBA00D8A3E0FF90B2E2E4F0A3EFF0D007128FBF
:102BCA00C390B0D5E0FEA3E08EF01246DF2BFB9552
:102BDA00302C6295312CC995322D3095332D97952D
:102BEA00342DFE95352E6595362ECB953700002F60
:102BFA002C90B0D8E07004A3E064016003022F2C8B
:102C0A00C390B2F4E0940190B2F3E094005003024E
:022C1A002F2C5D
:102C1C0090B024E0FEA3E0FF20E0047D0180027D63
:102C2C0000ED5401FDEF54FEFFEF4DFF90B024EE8C
:102C3C00F0A3EFF07B017AB0792490B2E3E4F0A337
:102C4C0004F07F407E957D007C00128DE37B017A41
:032C5C00A079DB81
:102C5F00022F2990B0D8E07004A3E0640160030252
:102C6F002F2CC390B2F4E0940290B2F3E094005092
:042C7F0003022F2CF1
:102C830090B034E0FEA3E0FF20E0047D0180027DEC
:102C930000ED5401FDEF54FEFFEF4DFF90B034EE15
:102CA300F0A3EFF07B017AB0793490B2E3E4F0A3C0
:102CB30004F07F417E957D007C00128DE37B017AD9
:032CC300A079EA0B
:102CC600022F2990B0D8E07004A3E06401600302EB
:102CD6002F2CC390B2F4E0940390B2F3E09400502A
:042CE60003022F2C8A
:102CEA0090B044E0FEA3E0FF20E0047D0180027D75
:102CFA0000ED5401FDEF54FEFFEF4DFF90B044EE9E
:102D0A00F0A3EFF07B017AB0794490B2E3E4F0A348
:102D1A0004F07F427E957D007C00128DE37B017A70
:032D2A00A079F994
:102D2D00022F2990B0D8E07004A3E0640160030283
:102D3D002F2CC390B2F4E0940490B2F3E0940050C1
:042D4D0003022F2C22
:102D510090B054E0FEA3E0FF20E0047D0180027DFD
:102D610000ED5401FDEF54FEFFEF4DFF90B054EE26
:102D7100F0A3EFF07B017AB0795490B2E3E4F0A3D1
:102D810004F07F437E957D007C00128DE37B017A08
:032D9100A179081D
:102D9400022F2990B0D8E07004A3E064016003021C
:102DA4002F2CC390B2F4E0940590B2F3E094005059
:042DB40003022F2CBB
:102DB80090B064E0FEA3E0FF20E0047D0180027D86
:102DC80000ED5401FDEF54FEFFEF4DFF90B064EEAF
:102DD800F0A3EFF07B017AB0796490B2E3E4F0A35A
:102DE80004F07F447E957D007C00128DE37B017AA0
:032DF800A17917A7
:102DFB00022F2990B0D8E07004A3E06401600302B5
:102E0B002F2CC390B2F4E0940690B2F3E0940050F0
:042E1B0003022F2C53
:102E1F0090B074E0FEA3E0FF20E0047D0180027D0E
:102E2F0000ED5401FDEF54FEFFEF4DFF90B074EE37
:102E3F00F0A3EFF07B017AB0797490B2E3E4F0A3E2
:102E4F0004F07F457E957D007C00128DE37B017A37
:032E5F00A1792630
:102E6200022F2990B0D8E07004A3E064016003024D
:102E72002F2CC390B2F4E0940790B2F3E094005088
:042E820003022F2CEC
:102E860090B084E0FEA3E0FF20E0047D0180027D97
:102E960000ED5401FDEF54FEFFEF4DFF90B084EEC0
:102EA600F0A3EFF07B017AB0798490B2E3E4F0A36B
:102EB60004F07F467E957D007C00128DE37B017ACF
:032EC600A17935BA
:102EC900805E90B0D8E07004A3E064017055C390AF
:0D2ED900B2F4E0940890B2F3E0940040469B
:102EE60090B094E0FEA3E0FF20E0047D0180027D27
:102EF60000ED5401FDEF54FEFFEF4DFF90B094EE50
:102F0600F0A3EFF07B017AB0799490B2E3E4F0A3FA
:102F160004F07F477E957D007C00128DE37B017A6D
:062F2600A1794412D2B4AF
:102F2C007E007F057D007B017AB079D81248BC9079
:102F3C00B0D5E0FEA3E0FFE4FCFDC0077B017AB056
:102F4C0079D8A3E0FF90B2E3E4F0A3EFF0D007123E
:102F5C008DE3E490B0D4F07B017AB079D490B2E3F5
:0F2F6C00F0A304F07F007E0F7D007C00128DE348
:102F7B00C390B2F4E0940190B2F3E0940040457B2F
:102F8B00017AB0791A90B2E3E4F0A37403F07F00F6
:102F9B007E957D007C00128DE37B017AB0792490C5
:102FAB00B2E3E4F0A304F07F037E957D007C001276
:022FBB008DE3A4
:102FBD00E490B0D4F0A3F07B017AB079D490B2E371
:022FCD00801171
:102FCF0090B0D4E4F0A304F0FB7AB079D490B2E3DC
:102FDF00E4F0A304F07F207E957D007C00128DE34A
:102FEF00C390B2F4E0940290B2F3E0940040457BBA
:102FFF00017AB0792A90B2E3E4F0A37403F07F046E
:10300F007E957D007C00128DE37B017AB079349040
:10301F00B2E3E4F0A304F07F077E957D007C0012FD
:02302F008DE32F
:10303100E490B0D4F0A3F07B017AB079D490B2E3FC
:023041008011FC
:1030430090B0D4E4F0A304F0FB7AB079D490B2E367
:10305300E4F0A304F07F217E957D007C00128DE3D4
:10306300C390B2F4E0940390B2F3E0940040457B44
:10307300017AB0793A90B2E3E4F0A37403F07F08E5
:103083007E957D007C00128DE37B017AB0794490BC
:10309300B2E3E4F0A304F07F0B7E957D007C001285
:0230A3008DE3BB
:1030A500E490B0D4F0A3F07B017AB079D490B2E388
:0230B500801188
:1030B70090B0D4E4F0A304F0FB7AB079D490B2E3F3
:1030C700E4F0A304F07F227E957D007C00128DE35F
:1030D700C390B2F4E0940490B2F3E0940040457BCF
:1030E700017AB0794A90B2E3E4F0A37403F07F0C5D
:1030F7007E957D007C00128DE37B017AB079549038
:10310700B2E3E4F0A304F07F0F7E957D007C00120C
:023117008DE346
:10311900E490B0D4F0A3F07B017AB079D490B2E313
:02312900801113
:10312B0090B0D4E4F0A304F0FB7AB079D490B2E37E
:10313B00E4F0A304F07F237E957D007C00128DE3E9
:10314B00C390B2F4E0940590B2F3E0940040457B59
:10315B00017AB0795A90B2E3E4F0A37403F07F10D4
:10316B007E957D007C00128DE37B017AB0796490B3
:10317B00B2E3E4F0A304F07F137E957D007C001294
:02318B008DE3D2
:10318D00E490B0D4F0A3F07B017AB079D490B2E39F
:02319D0080119F
:10319F0090B0D4E4F0A304F0FB7AB079D490B2E30A
:1031AF00E4F0A304F07F247E957D007C00128DE374
:1031BF00C390B2F4E0940690B2F3E0940040457BE4
:1031CF00017AB0796A90B2E3E4F0A37403F07F144C
:1031DF007E957D007C00128DE37B017AB07974902F
:1031EF00B2E3E4F0A304F07F177E957D007C00121C
:0231FF008DE35E
:10320100E490B0D4F0A3F07B017AB079D490B2E32A
:0232110080112A
:1032130090B0D4E4F0A304F0FB7AB079D490B2E395
:10322300E4F0A304F07F257E957D007C00128DE3FE
:10323300C390B2F4E0940790B2F3E0940040457B6E
:10324300017AB0797A90B2E3E4F0A37403F07F18C3
:103253007E957D007C00128DE37B017AB0798490AA
:10326300B2E3E4F0A304F07F1B7E957D007C0012A3
:023273008DE3E9
:10327500E490B0D4F0A3F07B017AB079D490B2E3B6
:023285008011B6
:1032870090B0D4E4F0A304F0FB7AB079D490B2E321
:10329700E4F0A304F07F267E957D007C00128DE389
:1032A700C390B2F4E0940890B2F3E0940040457BF9
:1032B700017AB0798A90B2E3E4F0A37403F07F1C3B
:1032C7007E957D007C00128DE37B017AB079949026
:1032D700B2E3E4F0A304F07F1F7E957D007C00122B
:0232E7008DE375
:1032E900E490B0D4F0A3F07B017AB079D490B2E342
:0232F900801142
:1032FB0090B0D4E4F0A304F0FB7AB079D490B2E3AD
:10330B00E4F0A304F07F277E957D007C00128DE313
:01331B00228F
:10937700E490B0D6F0A3F090B39FE0FEA3E0FF9097
:10938700B0D6E0FCA3E0FDC39FEC9E5069AF05900B
:10939700AD1CE0FEA3E0A807088005CEC313CE13DB
:1093A700D8F95401FF90B39DE0B40010A3E0B507CE
:1093B7000B90B0D4E4F0A37403F0800990B0D4E428
:1093C700F0A37402F090B0D7E024A0FF90B0D6E0ED
:1093D7003495FEE4FCFD7B017AB079D490B2E3F0DA
:1093E700A304F0128DE390B0D7E004F0708990B039
:1093F700D6E004F0808190B0D6E0FEA3E0FFC394EE
:109407000CEE9400505890AD1CE0FEA3E0A80708AE
:109417008005CEC313CE13D8F930E00A90B0D4E458
:10942700F0A304F08007E490B0D4F0A3F090B0D795
:10943700E024A0FF90B0D6E03495FEE4FCFD7B016C
:109447007AB079D490B2E3F0A304F0128DE390B030
:10945700D7E004F070A090B0D6E004F0809890B008
:10946700D6E0FEA3E0FFC3940DEE9400506790ADE5
:109477001CE0FEA3E0A807088005CEC313CE13D8CF
:10948700F95401FF90B39DE0B40010A3E0B5070BBA
:1094970090B0D4E4F0A37403F0800990B0D4E4F062
:1094A700A37402F090B0D7E024A0FF90B0D6E034C8
:1094B70095FEE4FCFD7B017AB079D490B2E3F0A38A
:1094C70004F0128DE390B0D7E004F0709190B0D61D
:1094D700E004F0808990B0D6E0FEA3E0FFC3940FCC
:1094E700EE9400505890AD1CE0FEA3E0A80708805A
:1094F70005CEC313CE13D8F930E00A90B0D4E4F008
:10950700A304F08007E490B0D4F0A3F090B0D7E0C4
:1095170024A0FF90B0D6E03495FEE4FCFD7B017AF1
:10952700B079D490B2E3F0A304F0128DE390B0D7F2
:0D953700E004F070A090B0D6E004F0809841
:019544002204
:0A331C0090B3A1E07002A3E070641A
:1033260090B0D4F0A3F090B0D4E0FCA3E0FDC39439
:0933360010EC940040030233F78F
:10333F00AF0590ADACE0FEA3E0A807088005CEC3B3
:10334F0013CE13D8F95401FF90B0D6E4F0A3EFF0E9
:10335F00ED2450FFEC3497FEE4FCFD7B017AB0794D
:0B336F00D690B2E3F0A304F0128DE34F
:10337A0090B0D5E004F070AA90B0D4E004F080A236
:0C338A0090B3A1E07004A3E06401706146
:1033960090B0D4F0A3F090B0D4E0FCA3E0FDC394C9
:0633A60010EC9400504BF6
:1033AC00AF0590B0CCE0FEA3E0A807088005CEC323
:1033BC0013CE13D8F95401FF90B0D6E4F0A3EFF07C
:1033CC00ED2450FFEC3497FEE4FCFD7B017AB079E0
:0B33DC00D690B2E3F0A304F0128DE3E2
:1033E70090B0D5E004F070AD90B0D4E004F080A5C3
:1033F7007B017AB079D490B2E2E4F0A37402F07F53
:10340700007E0F7D007C00128FC390B0D4E0645A19
:053417006003023A947D
:10341C00A3E0FEA3E0FFE4FCFDC0077B017AB079DA
:10342C00D8A3E0FF90B2E2E4F0A3EFF0D007128F44
:10343C00C390B0D5E0FEA3E08EF01246DF348D973A
:10344C0060348D9761348D9762348D9763348D978A
:10345C0064348D9765348D9766348D9767348D976A
:10346C0068348D9769348D976A348D976B348D974A
:10347C006C348D976D348D976E348D976F00003A48
:10348C004590B3A1E07002A3E0600302377890B0DE
:0B349C00D8E07002A3E0600302360AD3
:1034A70090B0D6E024A0FF90B0D5E0346890B0E2A9
:1034B700F0FCA3EFF0FD7E007401A807088005C3A8
:1034C70033CE33CED8F9F4FFEEF4FE90ADACE05E28
:1034D700F0A3E05FF090A15375F00FED12467DEC7D
:1034E70075F00FA42583F58374D0F090B0E2E0FE69
:1034F700A3E0FF90A15475F00F12467DEE75F00F13
:10350700A42583F583E4F090A15575F00FEF1246DB
:103517007DEE75F00FA42583F583E4F090A1567531
:10352700F00FEF12467DEE75F00FA42583F5837437
:1035370006F090A15775F00FEF12467DEE75F00F6C
:10354700A42583F5837401F090A15875F00FEF124D
:10355700467DEE75F00FA42583F583E4F090A1591D
:1035670075F00FEF12467DEE75F00FA42583F583F6
:103577007403F0A374E8F0EF2480FFEE3497FE9015
:10358700B0E2E0FCA3E0FD90A15B75F00F12467D71
:10359700EC75F00FA42583F583EEF0A3EFF090A16F
:1035A7005D75F00FED12467DEC75F00FA42583F5E0
:1035B70083E4F0A37402F090A15F75F00FED12465B
:1035C7007DEC75F00FA42583F583E4F0A3F0A3F059
:1035D700ED2480FFEC3497FEE4FCFD7B017AAD79A6
:1035E700AC90B2E3F0A304F0128DE390B0E2E0FEFA
:1035F700A3E0FF7C007D0F12437E74532FF974A163
:10360700023A3E90B0D8E07004A3E0640160030280
:023617003A4532
:1036190090B0D6E024A0FF90B0D5E0346890B0E235
:10362900F0FCA3EFF0FD7E007401A807088005C334
:1036390033CE33CED8F9FF90ADACE04EF0A3E04FD6
:10364900F090A24375F00FED12467DEC75F00FA4D2
:103659002583F58374D0F090B0E2E0FEA3E0FF90FB
:10366900A24475F00F12467DEE75F00FA42583F57F
:1036790083E4F090A24575F00FEF12467DEE75F0E8
:103689000FA42583F583E4F090A24675F00FEF129D
:10369900467DEE75F00FA42583F5837406F090A29C
:1036A9004775F00FEF12467DEE75F00FA42583F5EF
:1036B900837401F090A24875F00FEF12467DEE7504
:1036C900F00FA42583F583E4F090A24975F00FEF7C
:1036D90012467DEE75F00FA42583F5837403F0A3DC
:1036E90074E8F0EF2480FFEE3497FE90B0E2E0FC3E
:1036F900A3E0FD90A24B75F00F12467DEC75F00F1B
:10370900A42583F583EEF0A3EFF090A24D75F00F99
:10371900ED12467DEC75F00FA42583F583E4F0A343
:103729007402F090A24F75F00FED12467DEC75F022
:103739000FA42583F583E4F0A3F0A3F0ED2480FF23
:10374900EC3497FEE4FCFD7B017AAD79AC90B2E3F1
:10375900F0A304F0128DE390B0E2E0FEA3E0FF7C59
:0C376900007D0F12437E74432FF974A200
:10377500023A3E90B3A1E07004A3E0640160030245
:0F3785003A4590B0D8E07002A3E060030238E24A
:1037940090B0E2F0A3F090B0D6E024A0FE90B0D5B3
:1037A400E0346890B0E4F0A3CEF090B0E4E0FEA37F
:1037B400E0FF90A33375F00F12467DEE75F00FA471
:1037C4002583F58374D0F090A33475F00FEF12467F
:1037D4007DEE75F00FA42583F583E4F090A3357591
:1037E400F00FEF12467DEE75F00FA42583F583E408
:1037F400F090A33675F00FEF12467DEE75F00FA42E
:103804002583F5837406F090A33775F00FEF124605
:103814007DEE75F00FA42583F5837401F090A33831
:1038240075F00FEF12467DEE75F00FA42583F58336
:10383400E4F090A33975F00FEF12467DEE75F00FAA
:10384400A42583F5837403F0A374E8F0EF2480FFC8
:10385400EE3497FE90B0E4E0FCA3E0FD90A33B754A
:10386400F00F12467DEC75F00FA42583F583EEF07E
:10387400A3EFF0ED2402FFE43CFE90A33D75F00FAE
:10388400ED12467DEC75F00FA42583F583EEF0A3CD
:10389400EFF090A33F75F00FED12467DEC75F00F3D
:1038A400A42583F583E4F0A3F0A3F0ED2480FFECDA
:1038B4003497FEE4FCFD7B017AB079E290B2E3F048
:1038C400A304F0128DE390B0E4E0FEA3E0FF7C00DB
:0B38D4007D0F12437E74332FF974A3A4
:1038DF00023A3E90B0D8E07004A3E06401600302A6
:0238EF003A4558
:1038F10074FF90B0E2F0A3F090B0D6E024A0FE9067
:10390100B0D5E0346890B0E4F0A3CEF090B0E4E03C
:10391100FEA3E0FF90A42375F00F12467DEE75F033
:103921000FA42583F58374D0F090A42475F00FEFD4
:1039310012467DEE75F00FA42583F583E4F090A483
:103941002575F00FEF12467DEE75F00FA42583F576
:1039510083E4F090A42675F00FEF12467DEE75F02A
:103961000FA42583F5837406F090A42775F00FEF5B
:1039710012467DEE75F00FA42583F5837401F09056
:10398100A42875F00FEF12467DEE75F00FA4258384
:10399100F583E4F090A42975F00FEF12467DEE75E2
:1039A100F00FA42583F5837403F0A374E8F0EF24EA
:1039B10080FFEE3497FE90B0E4E0FCA3E0FD90A41C
:1039C1002B75F00F12467DEC75F00FA42583F5835E
:1039D100EEF0A3EFF0ED2402FFE43CFE90A42D7580
:1039E100F00FED12467DEC75F00FA42583F583EE03
:1039F100F0A3EFF090A42F75F00FED12467DEC755A
:103A0100F00FA42583F583E4F0A3F0A3F0ED248067
:103A1100FFEC3497FEE4FCFD7B017AB079E290B2D1
:103A2100E3F0A304F0128DE390B0E4E0FEA3E0FF25
:103A31007C007D0F12437E74232FF974A43EFA7B20
:043A41000112D2B4E8
:103A45007E007F057D007B017AB079D81248BC9055
:103A5500B0D5E0FEA3E0FFE4FCFDC0077B017AB032
:103A650079D8A3E0FF90B2E3E4F0A3EFF0D007121A
:103A75008DE3E490B0D4F07B017AB079D490B2E3D1
:0F3A8500F0A304F07F007E0F7D007C00128DE324
:013A9400220F
:10AB8600E490B0D6F0A3F090B0D6E0FEA3E0FFC309
:10AB9600941EEE9400400302AC9090B3C7E0FCA371
:10ABA600E0FDC3EF9DEE9C506090B0D6E0FCA3E0C4
:10ABB600FDECC4F854F0C868FEEDC4540F4825E017
:10ABC600FFEE33FE74E42FF58274AC3EF583E0FEAF
:10ABD600A3E0FFED540FFDEFA805088005CEC313D3
:10ABE600CE13D8F95401FF90B3BFE0B40010A3E030
:10ABF600B5070B90B0D4E4F0A37403F0805A90B07C
:10AC0600D4E4F0A37402F0804F90B0D6E0FCA3E049
:10AC1600FDECC4F854F0C868FEEDC4540F4825E0B6
:10AC2600FFEE33FE74E42FF58274AC3EF583E0FE4E
:10AC3600A3E0FFED540FFDEFA805088005CEC31372
:10AC4600CE13D8F930E00A90B0D4E4F0A304F08033
:10AC560007E490B0D4F0A3F090B0D7E02400FF90C2
:10AC6600B0D6E03496FEE4FCFD7B017AB079D49050
:10AC7600B2E3F0A304F0128DE390B0D7E004F070D5
:0AAC86000690B0D6E004F002AB8D9A
:01AC900022A1
:10AC9100E490B0D6F0A3F090B0D6E0FEA3E0FFC3FD
:10ACA100941EEE9400400302AD9B90B3C9E0FCA357
:10ACB100E0FDC3EF9DEE9C506090B0D6E0FCA3E0B8
:10ACC100FDECC4F854F0C868FEEDC4540F4825E00B
:10ACD100FFEE33FE74EA2FF58274AC3EF583E0FE9D
:10ACE100A3E0FFED540FFDEFA805088005CEC313C7
:10ACF100CE13D8F95401FF90B3C1E0B40010A3E022
:10AD0100B5070B90B0D4E4F0A37403F0805A90B06F
:10AD1100D4E4F0A37402F0804F90B0D6E0FCA3E03D
:10AD2100FDECC4F854F0C868FEEDC4540F4825E0AA
:10AD3100FFEE33FE74EA2FF58274AC3EF583E0FE3C
:10AD4100A3E0FFED540FFDEFA805088005CEC31366
:10AD5100CE13D8F930E00A90B0D4E4F0A304F08027
:10AD610007E490B0D4F0A3F090B0D7E02450FF9066
:10AD7100B0D6E03496FEE4FCFD7B017AB079D49044
:10AD8100B2E3F0A304F0128DE390B0D7E004F070C9
:0AAD91000690B0D6E004F002AC9882
:01AD9B002295
:10AD9C00E490B0D6F0A3F090B0D6E0FEA3E0FFC3F1
:10ADAC00941EEE9400400302AEA690B3CBE0FCA33D
:10ADBC00E0FDC3EF9DEE9C506090B0D6E0FCA3E0AC
:10ADCC00FDECC4F854F0C868FEEDC4540F4825E0FF
:10ADDC00FFEE33FE74F02FF58274AC3EF583E0FE8B
:10ADEC00A3E0FFED540FFDEFA805088005CEC313BB
:10ADFC00CE13D8F95401FF90B3C3E0B40010A3E014
:10AE0C00B5070B90B0D4E4F0A37403F0805A90B063
:10AE1C00D4E4F0A37402F0804F90B0D6E0FCA3E031
:10AE2C00FDECC4F854F0C868FEEDC4540F4825E09E
:10AE3C00FFEE33FE74F02FF58274AC3EF583E0FE2A
:10AE4C00A3E0FFED540FFDEFA805088005CEC3135A
:10AE5C00CE13D8F930E00A90B0D4E4F0A304F0801B
:10AE6C0007E490B0D4F0A3F090B0D7E024A0FF900A
:10AE7C00B0D6E03496FEE4FCFD7B017AB079D49038
:10AE8C00B2E3F0A304F0128DE390B0D7E004F070BD
:0AAE9C000690B0D6E004F002ADA36A
:01AEA6002289
:10AEA700E490B0D6F0A3F090B0D6E0FEA3E0FFC3E5
:10AEB700941EEE9400400302AFB190B3CDE0FCA323
:10AEC700E0FDC3EF9DEE9C506090B0D6E0FCA3E0A0
:10AED700FDECC4F854F0C868FEEDC4540F4825E0F3
:10AEE700FFEE33FE74F62FF58274AC3EF583E0FE79
:10AEF700A3E0FFED540FFDEFA805088005CEC313AF
:10AF0700CE13D8F95401FF90B3C5E0B40010A3E005
:10AF1700B5070B90B0D4E4F0A37403F0805A90B057
:10AF2700D4E4F0A37402F0804F90B0D6E0FCA3E025
:10AF3700FDECC4F854F0C868FEEDC4540F4825E092
:10AF4700FFEE33FE74F62FF58274AC3EF583E0FE18
:10AF5700A3E0FFED540FFDEFA805088005CEC3134E
:10AF6700CE13D8F930E00A90B0D4E4F0A304F0800F
:10AF770007E490B0D4F0A3F090B0D7E02400FF909E
:10AF8700B0D6E03497FEE4FCFD7B017AB079D4902B
:10AF9700B2E3F0A304F0128DE390B0D7E004F070B1
:0AAFA7000690B0D6E004F002AEAE52
:01AFB100227D
:10C4A4007B017AAC79FC90B2E3E4F0A304F07F0062
:10C4B4007E987D007C00128DE37B017AAC79FE903E
:10C4C400B2E3E4F0A304F0FF7E987D007C00128DBB
:10C4D400E37B017AAD790490B2E3E4F0A304F07F46
