:0300000002DAAB76
:0800F800FFFF4457494E543547
:10DAAB00759401759502758E0075930075C8707528
:10DABB00C96075F80075F90175A80075B800759AFD
:10DACB000075A90075B90053D0E7787FE4F6D8FD4F
:10DADB009080007F007E80E4F0A3DFFCDEFA75818E
:04DAEB002702DB2A09
:06B172007E007D007C0060
:10B1780090B304126A4090B308EBF0A3EAF0A3E995
:01B18800F0D6
:10B18900E490B30DF0A3F0A3F0A3F0A3F0A3F0A310
:10B19900F0A3F090B30BE07002A3E0700302B35187
:10B1A90090B304E0F8A3E0F9A3E0FAA3E0FBC3E459
:10B1B9009BFFE49AFE740299FDE498FC90B3151282
:10B1C9006A4090B30BE0FEA3E0FFE4FCFD90B315E9
:10B1D900E0F8A3E0F9A3E0FAA3E0FBC31269C850C1
:10B1E9001190B315A3A3E0FFA3E090B30BCFF0A395
:10B1F900EFF090B304E0FCA3E0FDA3E0FEA3E0FFC1
:10B2090078011269D990B30DEEF0A3EFF090B30471
:10B21900A3A3A3E05401FEE490B30FF0A3CEF0C2C0
:10B22900AFE4F5F190B30DE0FCA3E0FDECF5F28D90
:10B23900F375F40175F8AF30FCFD90B30FE07002BF
:10B24900A3E0603DD2FE20FEFD90B308E0FBA3E43D
:10B2590075F0011267FBA9F0FAE5FC12674A90B391
:10B2690008E0FBA3E475F0011267FBA9F0FAE5FD1C
:10B2790012674A90B30CE024FFF090B30BE034FF5F
:10B28900F090B30BE0FCA3E0FDECC313FFED1390CA
:10B29900B311CFF0A3EFF0ED5401FFA3E4F0A3EF56
:10B2A900F090B31174FFF5F01267FB45F0605BD2C3
:10B2B900FE20FEFD90B308E0FBA3E475F0011267E0
:10B2C900FBA9F0FAE5FA12674A90B308E0FBA3E498
:10B2D90075F0011267FBA9F0FAE5FB12674A90B312
:10B2E90008E0FBA3E475F0011267FBA9F0FAE5FC9D
:10B2F90012674A90B308E0FBA3E475F0011267FBFB
:10B30900A9F0FAE5FD12674A809790B313E070023D
:10B31900A3E0602FD2FE20FEFD90B308E0FBA3E47A
:10B3290075F0011267FBA9F0FAE5FA12674A90B3C2
:10B3390008E0FBA3E475F0011267FBA9F0FAE5FB4D
:08B3490012674AE4F5F8D2AFE7
:01B3510022D9
:06AF8C007E007D007C0048
:10AF920090B307126A4090B30BEBF0A3EAF0A3E977
:01AFA200F0BE
:10AFA300E490B310F0A3F0A3F0A3F0A3F0A3F0A3F5
:10AFB300F0A3F090B30EE07002A3E0700302B1714E
:10AFC30090B307E0F8A3E0F9A3E0FAA3E0FBC3E43E
:10AFD3009BFFE49AFE740299FDE498FC90B3181267
:10AFE3006A4090B30EE0FEA3E0FFE4FCFD90B318CB
:10AFF300E0F8A3E0F9A3E0FAA3E0FBC31269C850A9
:10B003001190B318A3A3E0FFA3E090B30ECFF0A376
:10B01300EFF090B307E0FCA3E0FDA3E0FEA3E0FFA5
:10B0230078011269D990B310EEF0A3EFF090B30753
:10B03300A3A3A3E05401FEE490B312F0A3CEF0C2A5
:10B04300AFE4F5F190B310E0FCA3E0FDECF5F28D75
:10B05300F375F40175F88330FCFD90B312E07002D0
:10B06300A3E0603D90B30BE0FBA3E475F00112672E
:10B07300FBA9F0FA126704F5FC90B30BE0FBA3E421
:10B0830075F0011267FBA9F0FA126704F5FDD2FE11
:10B0930020FEFD90B30FE024FFF090B30EE034FFE9
:10B0A300F090B30EE0FCA3E0FDECC313FFED1390AF
:10B0B300B314CFF0A3EFF0ED5401FFA3E4F0A3EF3B
:10B0C300F075F88F90B31474FFF5F01267FB45F039
:10B0D300605B90B30BE0FBA3E475F0011267FBA97F
:10B0E300F0FA126704F5FA90B30BE0FBA3E475F0F2
:10B0F300011267FBA9F0FA126704F5FB90B30BE0AA
:10B10300FBA3E475F0011267FBA9F0FA126704F5DB
:10B11300FC90B30BE0FBA3E475F0011267FBA9F00D
:10B12300FA126704F5FDD2FE30FE9980FB90B31648
:10B13300E07002A3E0603275F88C90B30BE0FBA3E0
:10B14300E475F0011267FBA9F0FA126704F5FA90AF
:10B15300B30BE0FBA3E475F0011267FBA9F0FA124D
:0EB163006704F5FBD2FE20FEFDE4F5F8D2AF46
:01B1710022BB
:10F80600EF4E6010E4FD0DEDC3943240F9EF1F702A
:04F81600EF1E80EC75
:01F81A0022CB
:08E6C30090B12BEEF0A3EFF083
:10E6CB00A3745AF0A37401F090B12BE0FCA3E0FD0E
:10E6DB00EC90B12FF0A3EDF07B017AB1792D90B3D3
:10E6EB000EE4F0A37402F07F8412AF8C7FF47E01F2
:10E6FB0012F8067B017AB1792D90B30BE4F0A37479
:10E70B0002F07F1412B17290B12BE0FEA3E0FFA3D5
:10E71B00E0B506D8A3E0B507D3E490B12DF0A3F094
:10E72B00A3F0A3F07B017AB1792D90B30EF0A37413
:0DE73B0002F07F167E007D007C0002AF9290
:08F1370090B1F0EEF0A3EFF03F
:10F13F00E4A3F0A3F090B1F0E0FEA3E0FFC390B121
:10F14F00F3E09F90B1F2E09E5025E4FBFA7F017E41
:10F15F000012F8060BBB00010ABA01F1BB2CEE90AE
:0FF16F00B1F3E004F070CE90B1F2E004F080C68E
:01F17E00226E
:10F17F00EF14601814602314602E24037039A8054F
:10F18F007401088002C333D8FC42B722A80574016A
:10F19F00088002C333D8FC42BC22A8057401088042
:10F1AF0002C333D8FC42BD22AF05A8077401088003
:08F1BF0002C333D8FC42BE225A
:10F00C00EF1460191460251460312403703DA805B9
:10F01C007401088002C333D8FCF452B722A80574DB
:10F02C0001088002C333D8FCF452BC22A805740139
:10F03C00088002C333D8FCF452BD22AF05A8077474
:0CF04C0001088002C333D8FCF452BE223D
:10E25E00EF14602D14604A1460672403600302E219
:10E26E00F0EB600EA8057401088002C333D8FC429F
:10E27E008022A8057401088002C333D8FCF45280B2
:10E28E0022EB600EA8057401088002C333D8FC424D
:10E29E009022A8057401088002C333D8FCF4529072
:10E2AE0022EB600EA8057401088002C333D8FC422D
:10E2BE00A022A8057401088002C333D8FCF452A032
:10E2CE0022EB600EA8057401088002C333D8FC420D
:10E2DE00B022AF05A8077401088002C333D8FCF43E
:03E2EE0052B02209
:10EDD200EF14601A14602714603424037042A805EB
:10EDE2007401088002C333D8FC5580FE8034A80524
:10EDF2007401088002C333D8FC5590FE8024A80514
:10EE02007401088002C333D8FC55A0FE8014AF05FC
:10EE1200A8077401088002C333D8FC55B0FE8002F3
:04EE2200E4FEAF0655
:01EE260022C9
:10F40F007B017AB079FF90B30BE4F0A304F07F1681
:10F41F0012B17290B0FFE0B45A17E4F07B017AB0EA
:10F42F0079FF90B30EF0A304F07F1612AF8C7F011B
:03F43F00227F0029
:01F4420022A7
:10F6B100758911E4F58CF58AC28CF518F51A438920
:0CF6C10001758CBC758ACDD2A9D28C22B8
:03000B0002E840C8
:0DE84000C0E0C0D075D000C000C006C00709
:10E84D00C2AF758CBC758ACD05197527007E007415
:10E85D0001A827088005C333CE33CED8F9FFEF5575
:10E86D001A602DE52725E02408F808E61618700132
:10E87D0016E52725E02408F8E6FE08E64E7011AFF0
:10E88D0027A80704088002C333D8FC4218F4521A93
:09E89D000527E527B408B6D2AF47
:0BE8A600D007D006D000D0D0D0E03268
:10F7EE00758911E4F58DF58BC28E438910758DBC2C
:08F7FE00758BCDD2ABD28E2237
:03001B0002F8AD3B
:0DF8AD00C2AF758DBC758BCDB290D2AF325D
:10F8300075C8F075CD58E4F5CC75CB58F5CA43C8FA
:04F8400001D2AD2222
:03002B0002F8C414
:09F8C400C2AFC2C6B291D2AF324C
:10F61500C2AFA8077401088002C333D8FCFE421AA2
:10F62500EF25E02408F8A60408A605EEF45218D242
:02F63500AF2202
:10F81B00C2AFA8077401088002C333D8FCF4521A94
:05F82B005218D2AF22CB
:10F85800C2AFA8077401088002C333D8FC5518FF4B
:02F86800D2AF1D
:01F86A00227B
:10EF7100AB07AA06A905A8047F007E387D317C0075
:10EF8100126920C3E49F90B0FFF074049E90B0FE1C
:10EF9100F043C9407D04E4FF12F17F7D05E4FF12D7
:10EFA100F00C43803075D88075985090B0FEE0FC2D
:0DEFB100A3E0FDECF5BA8DAA43A810D2AC88
:01EFBE002230
:10F0EE00AB07AA06A905A8047F007E707D627C008E
:10F0FE00126920C3E49F90B0FFF074049E90B0FE9E
:10F10E00F043C9207D06E4FF12F17F7D07E4FF1274
:10F11E00F00C4380C0759B9090B0FEE0FCA3E0FD28
:08F12E00ECF5BB8D9D439A0135
:01F1360022B6
:10F541007596C07597C0AB07AA06A905A8047F00E8
:10F551007EC07D897C01126920AD07AC06ECF5D92E
:0FF56100AF058FE743B80CE4FDFF12F17FC280C6
:01F570002278
:10F5100075A78075AB80AB07AA06A905A8047F0074
:10F520007EC07D897C01126920AD07AC06ECF5AE8A
:10F53000AF058FAF43B8307D01E4FF12F17FC28188
:01F5400022A8
:10EE7C00EF14601B1460291460372403704490B0A5
:10EE8C00FAE0FCA3E0FDA3E0FEA3E0FF02EF71902B
:10EE9C00B0FAE0FCA3E0FDA3E0FEA3E0FF02F0EE7D
:10EEAC0090B0FAE0FCA3E0FDA3E0FEA3E0FF02F5C6
:10EEBC004190B0FAE0FCA3E0FDA3E0FEA3E0FF125A
:03EECC00F510221C
:10B6FA0090B301EFF0A3ECF0A3EDF0A3EBF0A3EA13
:04B70A00F0A3E9F0CF
:10B70E00C2AFE4A3F0A3F090B302E0FEA3E0FFC348
:10B71E0090B308E09F90B307E09E400302B7D2902B
:10B72E00B304E0FBA3E475F0011267FBA9F0FA1273
:10B73E006704FF90B301E0FE75F009A42400F582C2
:10B74E00E5F03488F583EE75F008A42583F583E0E3
:10B75E00FCA3E0FD75F009EEA42400F582E5F034BB
:10B76E0080F583EE75F008A42583F583E5822DF52B
:10B77E0082E5833CF583EFF075F009EEA42400F525
:10B78E0082E5F03488F583EE75F008A42583F58301
:10B79E00E475F0011267E575F009EEA42400F58258
:10B7AE00E5F03488F583EE75F008A42583F583E083
:10B7BE005403F090B308E004F0700690B307E00471
:10B7CE00F002B71590B301E014604214607014706B
:10B7DE000302B8882403600302B8BA908808E060B8
:10B7EE000302B8BA04F0908802E0FEA3E02400F54C
:10B7FE008274803EF583E0F599908803E004F07042
:10B80E0006908802E004F090880202B8B69090117B
:10B81E00E0600302B8BA04F090900BE0FEA3E024BF
:10B82E0009F58274883EF583E0F59C90900CE00457
:10B83E00F0700690900BE004F090900B806A909858
:10B84E001AE07068D28004F0909814E0FEA3E02411
:10B85E0012F58274903EF583E0FF30D0055396DFEB
:10B86E0080034396208F9E909815E004F07006900A
:10B87E009814E004F0909814802E90A023E0702C81
:10B88E00D28104F090A01DE0FEA3E0241BF582748B
:10B89E00983EF583E0F5AC90A01EE004F0700690A3
:0EB8AE00A01DE004F090A01DE05403F0D2AF06
:01B8BC002269
:0300230002E411E3
:10E41100C0E0C083C082C0D075D000C006C007C2B2
:10E42100AF30982AC298908804E0FEA3E02400F55A
:10E431008274843EF583E599F0908805E004F070DC
:10E4410006908804E004F0908804E05403F03099C9
:10E451003FC299908802E0FEA3E0FF908800E06E41
:10E461007003A3E06F602474002FF58274803EF581
:10E4710083E0F599908803E004F07006908802E04B
:10E4810004F0908802E05403F08005908808E4F0DD
:0FE49100D2AFD007D006D0D0D082D083D0E03227
:0300530002E9912E
:10E99100C0E0C083C082C0D075D000C006C007C22D
:10E9A100AF5396FE909814E0FEA3E0FF909812E01A
:10E9B1006E7003A3E06F603074122FF58274903E85
:10E9C100F583E0FF30D0055396DF80034396208F17
:10E9D1009E909815E004F07006909814E004F09071
:10E9E1009814E05403F0800790981AE4F0C280D2A2
:0EE9F100AFD007D006D0D0D082D083D0E03295
:03005B0002EB9E17
:10EB9E00C0E0C083C082C0D075D000C006C007C21E
:10EBAE00AF5397FEE59FE59770047F0180027F00CB
:10EBBE00EF5420FFA2D0E433B50728909816E0FE5C
:10EBCE00A3E02412F58274943EF583E59FF09098AD
:10EBDE0017E004F07006909816E004F0909816E096
:10EBEE005403F0D2AFD007D006D0D0D082D083D08D
:02EBFE00E03203
:0300630002EC00AC
:10EC0000C0E0C083C082C0D075D000C006C007C2BB
:10EC1000AF53A7FE90A01DE0FEA3E0FF90A01BE075
:10EC20006E7003A3E06F6024741B2FF58274983E0E
:10EC3000F583E0F5AC90A01EE004F0700690A01DF6
:10EC4000E004F090A01DE05403F0800790A023E4BE
:10EC5000F0C281D2AFD007D006D0D0D082D083D03E
:02EC6000E032A0
:03006B0002F20F8F
:10F20F00C0E0C083C082C0D075D000C006C2AF536B
:10F21F00ABFE90A01FE0FEA3E0241BF582749C3E82
:10F22F00F583E5ADF090A020E004F0700690A01FEC
:10F23F00E004F090A01FE05403F0D2AFD006D0D07E
:07F24F00D082D083D0E03231
:0300830002E1C3D4
:10E1C300C0E0C083C082C0D075D000C006C007C203
:10E1D300AFE59B30E02E759B90539BFE90900DE036
:10E1E300FEA3E02409F582748C3EF583E59CF09050
:10E1F300900EE004F0700690900DE004F090900D06
:10E20300E05403F0E59B30E143759B90539BFD90F5
:10E21300900BE0FEA3E0FF909009E06E7003A3E093
:10E223006F602474092FF58274883EF583E0F59CB2
:10E2330090900CE004F0700690900BE004F0909046
:10E243000BE05403F08005909011E4F0D2AFD007B7
:0BE25300D006D0D0D082D083D0E032C3
:10F4DE0090B0F97403F0A374C8F043C9207D06E41C
:10F4EE00FF12F17F7D07E4FF12F00C4380C0759B85
:10F4FE009090B0F9E0FCA3E0FDECF5BB8D9D759C02
:01F50E000DEF
:01F50F0022D9
:10F7560090B215EFF07B017AB279157D017C00E459
:0AF76600FF12B6FA90B215E0FF2280
:10F8440090000112671DFE54F0C4540FFFEE540FD4
:04F85400FD02F17F41
:08F78A00EBF0A3EAF0A3E9F0A3
:10F79200126704FE54F0C4540FFFEE540FFD02F042
:01F7A2000C5A
:08F7A300E0FBA3E0FAA3E0F98A
:10F7AB00126704FE54F0C4540FFFEE540FFD02F128
:01F7BB007FCE
:08F7BC00E0FBA3E0FAA3E0F971
:10F7C400126704FE54F0C4540FFFEE540FFD02ED13
:01F7D400D262
:08F70500E0FBA3E0FAA3E0F928
:10F70D00126704FE54F0C4540FFFEE540FFD7B013D
:03F71D0002E25EA7
:08F72000E0FBA3E0FAA3E0F90D
:10F72800126704FE54F0C4540FFFEE540FFDE4FBBF
:03F7380002E25E8C
:08F67500E0FBA3E0FAA3E0F9B9
:10F67D0090000112671DFE54F0C4540FFFEE540F9D
:06F68D00FD7B0102E25EBC
:08F69300E0FBA3E0FAA3E0F99B
:10F69B0090000112671DFE54F0C4540FFFEE540F7F
:06F6AB00FDE4FB02E25E3B
:10F3610090B121EBF0A3EAF0A3E9F090B12112F7FB
:10F37100A390B12112F70590B12112F6757F0F7E8E
:10F381000012F80690B12112F7207F0F7E0012F8CB
:0EF391000690B12112F6937F0F7E0002F8065F
:10F3220090B121EBF0A3EAF0A3E9F090B12112F73A
:10F33200A390B12112F72090B12112F6757F0F7EB2
:10F342000012F80690B12112F7057F0F7E0012F825
:0FF352000690B121E0FBA3E0FAA3E0F902F792E5
:10F39F0090B121EBF0A3EAF0A3E9F090B12112F7BD
:10F3AF00A390B12112F7207F057E0012F80690B1CD
:10F3BF002112F6757F057E0012F80690B12112F624
:08F3CF00937F057E0002F806A1
:10F3D70090B121EBF0A3EAF0A3E9F090B12112F785
:10F3E700A390B12112F7057F057E0012F80690B1B0
:10F3F7002112F6757F057E0012F80690B12112F6EC
:08F40700937F057E0002F80668
:03ECC20090B126E8
:10ECC50012F78A90B12612F7057F057E0012F80625
:10ECD50090B12612F6757F057E0012F806E490B114
:10ECE50029F090B12612F7BCEF60137F057E001264
:10ECF500F80690B129E004F0E0C3943240E490B105
:10ED05002612F6937F057E0012F80690B126E0FBE9
:09ED1500A3E0FAA3E0F902F7AB58
:0EEAD50090B121EFF0A3EBF0A3EAF0A3E9F07B
:10EAE30012F7ABE490B125F090B121E030E706A333
:10EAF30012F705800690B12212F72090B121E0258C
:10EB0300E0F07F057E0012F80690B12212F6757FC1
:10EB1300057E0012F80690B12212F69390B125E01B
:10EB230004F0E0C36480948840BE90B122E0FBA36C
:08EB3300E0FAA3E0F902ECC2D4
:03EE270090B12186
:10EE2A0012F78AE490B124F07F057E0012F806906A
:10EE3A00B12112F6757F057E0012F80690B125E021
:10EE4A00FF25E0F090B12112F7BCEF90B1256006E2
:10EE5A00E04401F08004E054FEF090B12112F693F0
:10EE6A0090B124E004F0E0C3940840BC90B125E0DE
:01EE7A00FF98
:01EE7B002274
:0EF89F0053797374656D2073746172740A007E
:086D7B0041B6890041B68A000F
:10D9E60012F6B112A2B912C5D112F4DE90B0FA1233
:10D9F6006A4C000025807F0212EE7C90B0FA126A13
:10DA06004C000025807F0312EE7C90B0FA126A4C1F
:10DA16000001C200E4FF12EE7CD2AF1292B2121FD6
:10DA26007512ABBC7DC87C00E4FF12F6157DE87C60
:10DA3600037F0212F6157DE87C037F0312F6157B41
:10DA4600FF7AF8799F1289C012E2F112A032129879
:09DA56002BE4FF12F858EF6022E6
:10DA5F0012C5D112F05890B689E0FF04F0EF75F0BF
:10DA6F000584E5F0700312EECF7DC87C00E4FF1251
:02DA7F00F6159A
:08DA81007F0212F858EF601A51
:10DA890090B68AE0700204F090B68AE06003120151
:0ADA9900007DE87C037F0212F61501
:08DAA300128FCF12C83E80A3D0
:101F7500E490B10FF0A3F090B10FE0FEA3E0FF9065
:101F8500A8FC75F00F126A7DEE75F00FA42583F598
:101F9500837461F090A8FD75F00FEF126A7DEE7500
:101FA500F00FA42583F583E4F090A8FE75F00FEFFC
:101FB500126A7DEE75F00FA42583F583E4F090A8F1
:101FC500FF75F00FEF126A7DEE75F00FA42583F50E
:101FD500837403F090A90075F00FEF126A7DEE751A
:101FE500F00FA42583F5837412F090A90175F00F05
:101FF500EF126A7DEE75F00FA42583F583E4F0906A
:10200500A90275F00FEF126A7DEE75F00FA4258316
:10201500F5837403F0A374E8F090A90475F00FEF4D
:10202500126A7DEE75F00FA42583F583E4F0A3F025
:1020350090A90675F00FEF126A7DEE75F00FA425D5
:1020450083F583E4F0A3F090A90875F00FEF126A09
:102055007DEE75F00FA42583F5837401F0A374ADAF
:10206500F0A37423F090B110E004F0700690B10F66
:03207500E004F094
:10207800E490B111F0A3F090B440E0FEA3E0FF902B
:10208800B111E0FCA3E0FDC39FEC9E4003022201D6
:1020980090B10FE0FEA3E0FFC39440EE940040032C
:1020A8000221F0ED4C701890A8FC75F00FEF126A41
:1020B8007DEE75F00FA42583F5837460F08028C346
:1020C800ED9401EC9400401FED2461FF90B10FE006
:1020D800FCA3E090A8FC75F00F126A7DEC75F00F78
:1020E800A42583F583EFF090B10FE0FEA3E0FF9005
:1020F800A8FD75F00F126A7DEE75F00FA42583F523
:1021080083E4F090A8FE75F00FEF126A7DEE75F08B
:102118000FA42583F583E4F090A8FF75F00FEF1264
:102128006A7DEE75F00FA42583F5837403F090A9FA
:102138000075F00FEF126A7DEE75F00FA42583F598
:10214800837421F090A90175F00FEF126A7DEE7586
:10215800F00FA42583F583E4F090A90275F00FEF42
:10216800126A7DEE75F00FA42583F5837403F0A33E
:1021780074E8F090A90475F00FEF126A7DEE75F01F
:102188000FA42583F583E4F0A3F090A90675F00F5A
:10219800EF126A7DEE75F00FA42583F583E4F0A3B2
:1021A800F090B111E0FEA3E0FF7C007D4212677E53
:1021B800744F2FF974AD3EFA90B10FE0FEA3E09092
:1021C800A90875F00F126A7DEE75F00FA42583F546
:1021D800837401F0A3EAF0A3E9F090B110E004F0F1
:1021E800700690B10FE004F090B112E004F07006B0
:0921F80090B111E004F002207F17
:10220100E490B111F0A3F090B3E8E0FCA3E0FD90FD
:10221100B111E0FEA3E0FFC39DEE9C400302234FFA
:1022210090B10FE0FCA3E0FDC39440EC94004003A7
:1022310002233EEF24A0FB90A8FC75F00FED126A7B
:102241007DEC75F00FA42583F583EBF090A8FD7567
:10225100F00FED126A7DEC75F00FA42583F583E490
:10226100F090A8FE75F00FED126A7DEC75F00FA4E9
:102271002583F583E4F090A8FF75F00FED126A7DD8
:10228100EC75F00FA42583F5837403F090A9007514
:10229100F00FED126A7DEC75F00FA42583F58374C0
:1022A10003F090A90175F00FED126A7DEC75F00F46
:1022B100A42583F583E4F090A90275F00FED126A6D
:1022C1007DEC75F00FA42583F5837403F0A374E806
:1022D100F090A90475F00FED126A7DEC75F00FA472
:1022E1002583F583E4F0A3F090A90675F00FED12B4
:1022F1006A7DEC75F00FA42583F583E4F0A3F0FC6F
:102301007D0612677E740B2FF974AD3EFA90B10F02
:10231100E0FEA3E090A90875F00F126A7DEE75F05A
:102321000FA42583F5837401F0A3EAF0A3E9F090EB
:10233100B110E004F0700690B10FE004F090B1121A
:0E234100E004F0700690B111E004F0022208F2
:0D234F0090B378E07002A3E060030224A9BF
:10235C0090B111F0A3F090B398E0FCA3E0FD90B124
:10236C0011E0FEA3E0FFC39DEE9C40030226059006
:10237C00B10FE0FCA3E0FDC39440EC9400400302D9
:10238C002498EF2470FB90A8FC75F00FED126A7D79
:10239C00EC75F00FA42583F583EBF090A8FD75F098
:1023AC000FED126A7DEC75F00FA42583F583E4F034
:1023BC0090A8FE75F00FED126A7DEC75F00FA42558
:1023CC0083F583E4F090A8FF75F00FED126A7DECB5
:1023DC0075F00FA42583F5837403F090A90075F0B4
:1023EC000FED126A7DEC75F00FA42583F58374193B
:1023FC00F090A90175F00FED126A7DEC75F00FA449
:10240C002583F583E4F090A90275F00FED126A7D37
:10241C00EC75F00FA42583F5837403F0A374E8F036
:10242C0090A90475F00FED126A7DEC75F00FA425E0
:10243C0083F583E4F0A3F090A90675F00FED126A12
:10244C007DEC75F00FA42583F583E4F0A3F0FC7DFF
:10245C003212677E74D72FF974AD3EFA90B10FE04B
:10246C00FEA3E090A90875F00F126A7DEE75F00FCF
:10247C00A42583F5837401F0A3EAF0A3E9F090B1ED
:10248C0010E004F0700690B10FE004F090B112E08F
:0D249C0004F0700690B111E004F00223621C
:0F24A90090B378E07004A3E0640160030226059D
:1024B80090B111F0A3F090B3B8E0FCA3E0FD90B1A7
:1024C80011E0FEA3E0FFC39DEE9C400302260590A9
:1024D800B10FE0FCA3E0FDC39440EC94004003027C
:1024E80025F4EF2470FB90A8FC75F00FED126A7DBF
:1024F800EC75F00FA42583F583EBF090A8FD75F03B
:102508000FED126A7DEC75F00FA42583F583E4F0D6
:1025180090A8FE75F00FED126A7DEC75F00FA425FA
:1025280083F583E4F090A8FF75F00FED126A7DEC57
:1025380075F00FA42583F5837403F090A90075F056
:102548000FED126A7DEC75F00FA42583F5837437BF
:10255800F090A90175F00FED126A7DEC75F00FA4EB
:102568002583F583E4F090A90275F00FED126A7DDA
:10257800EC75F00FA42583F5837403F0A374E8F0D9
:1025880090A90475F00FED126A7DEC75F00FA42583
:1025980083F583E4F0A3F090A90675F00FED126AB5
:1025A8007DEC75F00FA42583F583E4F0A3F0FC7DA2
:1025B8006E12677E74D12FF974AE3EFA90B10FE0B7
:1025C800FEA3E090A90875F00F126A7DEE75F00F72
:1025D800A42583F5837401F0A3EAF0A3E9F090B190
:1025E80010E004F0700690B10FE004F090B112E032
:0D25F80004F0700690B111E004F00224BE62
:10260500E490B111F0A3F090B410E0FEA3E0FF90C8
:10261500B111E0FAA3E0FBC39FEA9E4003022755F0
:1026250090B10FE0FCA3E0FDC39440EC940040039F
:10263500022744EB2490FF90A8FC75F00FED126A79
:102645007DEC75F00FA42583F583EFF090A8FD755B
:10265500F00FED126A7DEC75F00FA42583F583E488
:10266500F090A8FE75F00FED126A7DEC75F00FA4E1
:102675002583F583E4F090A8FF75F00FED126A7DD0
:10268500EC75F00FA42583F5837403F090A900750C
:10269500F00FED126A7DEC75F00FA42583F58374B8
:1026A50007F090A90175F00FED126A7DEC75F00F3A
:1026B500A42583F583E4F090A90275F00FED126A65
:1026C5007DEC75F00FA42583F5837403F0A374E8FE
:1026D500F090A90475F00FED126A7DEC75F00FA46A
:1026E5002583F583E4F0A3F090A90675F00FED12AC
:1026F5006A7DEC75F00FA42583F583E4F0A3F0EB78
:10270500C4F8540FC868FFEAC454F048FE74AD2FEE
:10271500F974AF3EFA90A90875F00FED126A7DECD9
:1027250075F00FA42583F5837401F0A3EAF0A3E9FE
:10273500F090B110E004F0700690B10FE004F09055
:10274500B112E004F0700690B111E004F002260C1D
:10275500E490B111F0A3F090B3CEE0FEA3E0FF90BA
:10276500B111E0FAA3E0FBC39FEA9E40030229D51D
:1027750090B10FE0FCA3E0FDC39440EC940040034E
:102785000229C490B3CCE07002A3E0600302289F45
:10279500EB24D0FF90A8FC75F00FED126A7DEC7567
:1027A500F00FA42583F583EFF090A8FD75F00FEDEC
:1027B500126A7DEC75F00FA42583F583E4F090A8EB
:1027C500FE75F00FED126A7DEC75F00FA42583F50B
:1027D50083E4F090A8FF75F00FED126A7DEC75F0BB
:1027E5000FA42583F5837403F090A90075F00FED10
:1027F500126A7DEC75F00FA42583F5837401F090C2
:10280500A90175F00FED126A7DEC75F00FA4258313
:10281500F583E4F090A90275F00FED126A7DEC7571
:10282500F00FA42583F5837403F0A374E8F090A951
:102835000475F00FED126A7DEC75F00FA42583F594
:1028450083E4F0A3F090A90675F00FED126A7DEC14
:1028550075F00FA42583F583E4F0A37402F0EB254E
:10286500E0FFEA33FE74D32FF974AD3EFA90A90860
:1028750075F00FED126A7DEC75F00FA42583F583D5
:102885007401F0A3EAF0A3E9F090B110E004F07050
:102895000690B10FE004F00229C490B3CCE07004B7
:1028A500A3E0640160030229C490B111E0FEA3E036
:1028B500FF24D0FB90B10FE0FCA3E0FD90A8FC75D0
:1028C500F00F126A7DEC75F00FA42583F583EBF00C
:1028D50090A8FD75F00FED126A7DEC75F00FA4253B
:1028E50083F583E4F090A8FE75F00FED126A7DEC98
:1028F50075F00FA42583F583E4F090A8FF75F00F1C
:10290500ED126A7DEC75F00FA42583F5837403F051
:1029150090A90075F00FED126A7DEC75F00FA425F6
:1029250083F5837402F090A90175F00FED126A7DAD
:10293500EC75F00FA42583F583E4F090A90275F0FA
:102945000FED126A7DEC75F00FA42583F5837403F2
:10295500F0A374E8F090A90475F00FED126A7DEC10
:1029650075F00FA42583F583E4F0A3F090A906750F
:10297500F00FED126A7DEC75F00FA42583F583E465
:10298500F0A3F0EF7802C333CE33CED8F924F1F9B2
:1029950074B03EFA7B0190A90875F00FED126A7DBF
:1029A500EC75F00FA42583F583EBF0A3EAF0A3E91A
:1029B500F090B110E004F0700690B10FE004F090D3
:1029C500B112E004F0700690B111E004F002275C4A
:1029D500E490B111F0A3F090B31EE0FEA3E0FF90E8
:1029E500B111E0FAA3E0FBC39FEA9E4003022B244A
:1029F50090B10FE0FCA3E0FDC39440EC94004003CC
:102A0500022B13EB04FF90A8FC75F00FED126A7D05
:102A1500EC75F00FA42583F583EFF090A8FD75F014
:102A25000FED126A7DEC75F00FA42583F583E4F0B4
:102A350090A8FE75F00FED126A7DEC75F00FA425D8
:102A450083F583E4F090A8FF75F00FED126A7DEC35
:102A550075F00FA42583F5837403F090A90075F034
:102A65000FED126A7DEC75F00FA42583F5837408CC
:102A7500F090A90175F00FED126A7DEC75F00FA4C9
:102A85002583F583E4F090A90275F00FED126A7DB8
:102A9500EC75F00FA42583F5837403F0A374E8F0B7
:102AA50090A90475F00FED126A7DEC75F00FA42561
:102AB50083F583E4F0A3F090A90675F00FED126A93
:102AC5007DEC75F00FA42583F583E4F0A3F0EBC44A
:102AD500F8540FC868FFEAC454F048FE74412FF952
:102AE50074B03EFA90A90875F00FED126A7DEC7589
:102AF500F00FA42583F5837401F0A3EAF0A3E9F0B0
:102B050090B110E004F0700690B10FE004F090B1C0
:0F2B150012E004F0700690B111E004F00229DC28
:102B2400E490B111F0A3F090B418E0FCA3E0FD90A0
:102B3400B111E0FEA3E0FFC39DEE9C4003022C72A2
:102B440090B10FE0FCA3E0FDC39440EC940040037B
:102B5400022C61EF241AFB90A8FC75F00FED126AA9
:102B64007DEC75F00FA42583F583EBF090A8FD753B
:102B7400F00FED126A7DEC75F00FA42583F583E464
:102B8400F090A8FE75F00FED126A7DEC75F00FA4BD
:102B94002583F583E4F090A8FF75F00FED126A7DAC
:102BA400EC75F00FA42583F5837403F090A90075E8
:102BB400F00FED126A7DEC75F00FA42583F5837494
:102BC4000BF090A90175F00FED126A7DEC75F00F12
:102BD400A42583F583E4F090A90275F00FED126A41
:102BE4007DEC75F00FA42583F5837403F0A374E8DA
:102BF400F090A90475F00FED126A7DEC75F00FA446
:102C04002583F583E4F0A3F090A90675F00FED1287
:102C14006A7DEC75F00FA42583F583E4F0A3F0FC42
:102C24007D1812677E74C12FF974B03EFA90B10F0B
:102C3400E0FEA3E090A90875F00F126A7DEE75F02E
:102C44000FA42583F5837401F0A3EAF0A3E9F090BF
:102C5400B110E004F0700690B10FE004F090B112EE
:0E2C6400E004F0700690B111E004F0022B2B9A
:102C7200E490B111F0A3F090B418E0FCA3E0FD9051
:102C8200B111E0FEA3E0FFC39DEE9C4003022DC202
:102C920090B10FE0FCA3E0FDC39440EC940040032C
:102CA200022DB1EF241AFB90A8FC75F00FED126A09
:102CB2007DEC75F00FA42583F583EBF090A8FD75EC
:102CC200F00FED126A7DEC75F00FA42583F583E415
:102CD200F090A8FE75F00FED126A7DEC75F00FA46E
:102CE2002583F583E4F090A8FF75F00FED126A7D5D
:102CF200EC75F00FA42583F5837402F090A900759A
:102D0200F00FED126A7DEC75F00FA42583F5837444
:102D120010F090A90175F00FED126A7DEC75F00FBD
:102D2200A42583F583E4F090A90275F00FED126AF1
:102D32007DEC75F00FA42583F5837403F0A374E88A
:102D4200F090A90475F00FED126A7DEC75F00FA4F6
:102D52002583F583E4F0A3F090A90675F00FED1238
:102D62006A7DEC75F00FA42583F5837403F0A3E468
:102D7200F0FC7D1812677E74D72FF974B03EFA907A
:102D8200B10FE0FEA3E090A90875F00F126A7DEE84
:102D920075F00FA42583F5837401F0A3EAF0A3E98B
:102DA200F090B110E004F0700690B10FE004F090E2
:102DB200B112E004F0700690B111E004F0022C7937
:102DC200E490B111F0A3F090B41AE0FCA3E0FD90FE
:102DD200B111E0FEA3E0FFC39DEE9C4003022F125F
:102DE20090B10FE0FCA3E0FDC39440EC94004003DB
:102DF200022F01EF2480FB90A8FC75F00FED126A00
:102E02007DEC75F00FA42583F583EBF090A8FD759A
:102E1200F00FED126A7DEC75F00FA42583F583E4C3
:102E2200F090A8FE75F00FED126A7DEC75F00FA41C
:102E32002583F583E4F090A8FF75F00FED126A7D0B
:102E4200EC75F00FA42583F5837403F090A9007547
:102E5200F00FED126A7DEC75F00FA42583F58374F3
:102E620015F090A90175F00FED126A7DEC75F00F67
:102E7200A42583F583E4F090A90275F00FED126AA0
:102E82007DEC75F00FA42583F5837403F0A374E839
:102E9200F090A90475F00FED126A7DEC75F00FA4A5
:102EA2002583F583E4F0A3F090A90675F00FED12E7
:102EB2006A7DEC75F00FA42583F583E4F0A304F09A
:102EC2007C007D2A12677E74ED2FF974AF3EFA9072
:102ED200B10FE0FEA3E090A90875F00F126A7DEE33
:102EE20075F00FA42583F5837401F0A3EAF0A3E93A
:102EF200F090B110E004F0700690B10FE004F09091
:102F0200B112E004F0700690B111E004F0022DC994
:102F120090B10FE0FEA3E0FFC39440EE94004003A3
:102F220002301A90A8FC75F00FEF126A7DEE75F070
:102F32000FA42583F5837432F090A8FD75F00FEF8E
:102F4200126A7DEE75F00FA42583F583E4F090A854
:102F5200FE75F00FEF126A7DEE75F00FA42583F572
:102F620083E4F090A8FF75F00FEF126A7DEE75F022
:102F72000FA42583F5837403F090A90075F00FEF79
:102F8200126A7DEE75F00FA42583F5837404F09028
:102F9200A90175F00FEF126A7DEE75F00FA425837B
:102FA200F583E4F090A90275F00FEF126A7DEE75D9
:102FB200F00FA42583F5837403F0A374E8F090A9BD
:102FC2000475F00FEF126A7DEE75F00FA42583F5FC
:102FD20083E4F0A3F090A90675F00FEF126A7DEE7C
:102FE20075F00FA42583F583E4F0A3F090A908758A
:102FF200F00FEF126A7DEE75F00FA42583F583744E
:1030020001F0A374ADF0A37447F090B110E004F0A6
:10301200700690B10FE004F090B10FA3E090ACC144
:01302200F0BD
:01302300228A
:10C0640055AA5AA500FFA77B000000FFB3520000A9
:10C0740000000000000000000000000000000000BC
:10C08400000000000000FFD1E6FFD2D6000000004F
:10C094000000000000000000000000FF9574000094
:10C0A40000000000000000FFC95B000000FFDF2863
:10C0B400000000FFCB91000000000000FF8511008C
:10C0C4000000000000000000FFCCA7000000FFD526
:10C0D400A6000000000000000000FF73C300000081
:10C0E400000000FFC486000000FFD3C6000000006B
:10C0F4000000000000FFBA72000000FFD4B6000088
:10C1040000FFCA76000000000000000000000000EC
:10C11400000000000000FF8CBA000000FF79BF009F
:10C12400000000000000000000000000000000000B
:10C1340000FFBC22000000FF4F85000000FFB52C6B
:10C14400000000000000FF571CFFCDBAFFCEC5FF62
:10C15400CFD0FFD0DBFFE748000000FFDDB00000D8
:10C1640000000000FFE52BFFB8BDFF9D8CFF9AE0A7
:10C17400000000000000000000000000000000FFBC
:10C18400C1C9000000000000000000000000000021
:10C1940000FFADA5000000FFA99D00000000000005
:10C1A400000000000000000000000000000000008B
:10C1B4000000000000000000FFBEFDFF5E950000CF
:05C1C40000003E4000F8
:106D830041A0BA004FA0DB01000005010003E89514
:106D93004000060000004FA0EA02000005010003C6
:106DA300E8954100060000004FA0F903000005012B
:106DB3000003E8954200060000004FA1080400000C
:106DC30005010003E8954300060000004FA11705E5
:106DD300000005010003E8954400060000004FA1F0
:106DE3002606000005010003E895450006000000A3
:106DF3004FA13507000005010003E8954600060092
:106E030000004FA14408000005010003E895470076
:106E13000600000042A8D3000042A8D5000042A803
:0F6E2300D7000044A8E80000000042A8EC0000DF
:10F73B0090B68BECF0A3EDF0E4FCFD7B017AB6798F
:0BF74B008B90B30EF0A304F002AF920D
:10F6CD00E4F5F175F208F5F375F40175F8AF30FC5A
:0BF6DD00FDD2FE20FEFDAFFBE4F5F8BF
:01F6E80022FF
:10F63700E4F5F175F208F5F375F40175F88C30FC13
:0FF64700FDE4F5FAF5FBD2FE20FEFDE4F5F82216
:10A77B007B017AB079FD90B30BE4F0A37402F07F08
:10A78B00007E0F7D007C0012B17890B0FDE0645A22
:05A79B00600302A98C1F
:10A7A000A3E0FEA3E0FFE4FCFDC0077B017AB179E2
:10A7B00001A3E0FF90B30BE4F0A3EFF0D00712B1D8
:10A7C0007890B0FEE0FEA3E08EF0126ADFA7F18081
:10A7D00000A8158001A83F8006A8658007A8BA8058
:10A7E00008A8D9800AA8F8800BA917800C0000A936
:10A7F0003D90B101E07004A3E06401600302A93D53
:10A8000090B5C4E0700690B570E060057F0202A9C3
:10A81000387F02802290B101E07004A3E0640160FF
:10A820000302A93D90B5C4E0700690B570E06005E4
:10A830007F1602A9387F167E0012F59F02A93D906F
:10A84000B101E07004A3E06401600302A93DD3906C
:10A85000B31FE0940090B31EE09400500302A93DA2
:10A860007F4602A93890B101E07004A3E064016062
:10A870000302A93D90B378E07002A3E07017D39073
:10A88000B399E0940090B398E09400500302A93D7E
:10A890007F5E02A93890B378E07004A3E0640160A1
:10A8A0000302A93DD390B3B9E0940090B3B8E0940B
:10A8B00000500302A93D7F5E807E90B101E07004EC
:10A8C000A3E064017077D390B3E9E0940090B3E81B
:10A8D000E0940040687F48805F90B101E07004A37D
:10A8E000E064017058D390B419E0940090B418E07B
:10A8F000940040497F52804090B101E07004A3E091
:10A9000064017039D390B411E0940090B410E094D5
:10A9100000402A7F56802190B101E07004A3E064DA
:10A9200001701AD390B441E0940090B440E09400D8
:10A9300040047F5780027F3F7E0012E6C37E007F87
:10A94000057D007B017AB17901126CBC90B0FEE00C
:10A95000FEA3E0FFE4FCFDC0077B017AB17901A30F
:10A96000E0FF90B30EE4F0A3EFF0D00712AF92E453
:10A9700090B0FDF07B017AB079FD90B30EF0A304A6
:0CA98000F07F007E0F7D007C0012AF9283
:10A98C0090B5C4E06002E4F090B570E06002E4F0D1
:01A99C002298
:10B352007B017AB079FD90B30BE4F0A37402F07F25
:10B36200007E0F7D007C0012B17890B0FDE0645A3F
:05B37200600302B52B91
:10B37700A3E0FEA3E0FFE4FCFDC0077B017AB179FF
:10B3870001A3E0FF90B30BE4F0A3EFF0D00712B1F5
:10B397007890B0FEE0FEA3E08EF0126ADFB3C880BB
:10B3A70020B3ED8021B4128022B4378023B45A80B1
:10B3B70024B47A8025B49A8026B4BE80270000B4CE
:10B3C700DC90B101E07004A3E06401600302B4DC27
:10B3D70090B5C4E0700690B570E060057F0B02B4CD
:10B3E700B47F0B02B4BA90B101E07004A3E064012A
:10B3F700600302B4DC90B5C4E0700690B570E060FD
:10B40700057F2302B4B47F2302B4BA90B101E07080
:10B4170004A3E06401600302B4DC90B5C4E07006E5
:10B4270090B570E060057F2702B4B47F2702B4BAF5
:10B4370090B101E07004A3E06401600302B4DC9002
:10B44700B5C4E0700690B570E060047F2A805E7F27
:10B457002A806090B101E07004A3E06401707690E7
:10B46700B5C4E0700690B570E060047F2C803E7F25
:10B477002C804090B101E07004A3E0640170569005
:10B48700B5C4E0700690B570E060047F30801E7F21
:10B4970030802090B101E07004A3E0640170369021
:10B4A700B5C4E0700690B570E060067F327E00801C
:10B4B7001C7F327E00801B90B101E07004A3E06422
:10B4C70001701290B570E07F347E00600512E6C30C
:10B4D700800312F59F7E007F057D007B017AB1799D
:10B4E70001126CBC90B0FEE0FEA3E0FFE4FCFDC0DF
:10B4F700077B017AB17901A3E0FF90B30EE4F0A3D3
:10B50700EFF0D00712AF92E490B0FDF07B017AB074
:10B5170079FD90B30EF0A304F07F007E0F7D007CD1
:04B527000012AF92CD
:01B52B0022FD
:10D1E6007B017AB079FD90B30BE4F0A37402F07F73
:10D1F600007E0F7D007C0012B17890B0FDE0645A8D
:05D20600600302D2D517
:10D20B00A3E0FEA3E0FFE4FCFDC0077B017AB1794C
:10D21B0001A3E0FF90B30BE4F0A3EFF0D00712B142
:10D22B007890B0FEE0FEA3E08EF0126ADFD2408071
:10D23B00410000D28690B101E07004A3E06401705C
:10D24B003A7B017AB3792890B30BF0A3740CF07F7F
:10D25B00007E907D007C0012B17890B113126A4C65
:10D26B000000900090B117E4F0A3740CF07F007EE7
:10D27B00017D007C0012DB6F121F757E007F057D28
:10D28B00007B017AB17901126CBC90B0FEE0FEA379
:10D29B00E0FFE4FCFDC0077B017AB17901A3E0FF5D
:10D2AB0090B30EE4F0A3EFF0D00712AF92E490B07E
:10D2BB00FDF07B017AB079FD90B30EF0A304F07F03
:0AD2CB00007E0F7D007C0012AF9280
:01D2D5002236
:10D2D6007B017AB079FD90B30BE4F0A37402F07F82
:10D2E600007E0F7D007C0012B17890B0FDE0645A9C
:05D2F600600302D3C536
:10D2FB00A3E0FEA3E0FFE4FCFDC0077B017AB1795C
:10D30B0001A3E0FF90B30BE4F0A3EFF0D00712B151
:10D31B007890B0FEE0FEA3E08EF0126ADFD330808F
:10D32B00600000D37690B101E07004A3E06401705B
:10D33B003A7B017AB3795490B30BF0A37406F07F68
:10D34B00507E907D007C0012B17890B113126A4C24
:10D35B000000905090B117E4F0A37406F07F507E5C
:10D36B00017D007C0012DB6F121F757E007F057D37
:10D37B00007B017AB17901126CBC90B0FEE0FEA388
:10D38B00E0FFE4FCFDC0077B017AB17901A3E0FF6C
:10D39B0090B30EE4F0A3EFF0D00712AF92E490B08D
:10D3AB00FDF07B017AB079FD90B30EF0A304F07F12
:0AD3BB00007E0F7D007C0012AF928F
:01D3C5002245
:109574007B017AB079FD90B30BE4F0A37402F07F21
:10958400007E0F7D007C0012B17890B0FDE0645A3B
:059594006003029710C6
:10959900A3E0FEA3E0FFE4FCFDC0077B017AB179FB
:1095A90001A3E0FF90B30BE4F0A3EFF0D00712B1F1
:1095B9007890B0FEE0FEA3E08EF0126ADF95DE80BF
:1095C90060962A90B1964E90B2967290B396969004
:1095D900B4000096C190B101E07004A3E064016099
:1095E900030296C17B017AB3796090B30BF0A3743F
:1095F9000CF07FA07E907D007C0012B17890B113B1
:10960900126A4C000090A090B117E4F0A3740CF01A
:109619007FA07E017D007C0012DB6F121F75029610
:10962900C190B32CE07002A3E07B017AB17901907B
:10963900B30E7008F0A304F07FA18073E4F0A304D3
:10964900F07FA5806A90B32CE07002A3E07B017AD9
:10965900B1790190B30E7008F0A304F07FA28007DE
:10966900E4F0A304F07FA6804690B32CE07002A337
:10967900E07B017AB1790190B30E7008F0A304F090
:109689007FA38007E4F0A304F07FA7802290B32C86
:10969900E07002A3E07B017AB1790190B30E700802
:1096A900F0A304F07FA48007E4F0A304F07FA87E70
:1096B900907D007C0012AF927E007F057D007B01CA
:1096C9007AB17901126CBC90B0FEE0FEA3E0FFE430
:1096D900FCFDC0077B017AB17901A3E0FF90B30ECD
:1096E900E4F0A3EFF0D00712AF92E490B0FDF07B65
:1096F900017AB079FD90B30EF0A304F07F007E0FDC
:079709007D007C0012AF920D
:0A97100090B328E07002A3E070752A
:10971A0090B1017490F0A374A1F07B017AB1790140
:10972A0090B30EE4F0A304F07F007E507D007C002D
:10973A0012AF9290B1017490F0A374A2F07B017AF7
:10974A00B1790190B30EE4F0A304F07F207E507D3E
:10975A00007C0012AF9290B1017490F0A374A3F050
:10976A007B017AB1790190B30EE4F0A304F07F4053
:10977A007E507D007C0012AF9290B1017490F0A3EC
:02978A0074A4C5
:10978C0002981090B328E07004A3E0640160030217
:02979C00982A09
:10979E0090B1017490F0A374A5F07B017AB17901B8
:1097AE0090B30EE4F0A304F07F007E507D007C00A9
:1097BE0012AF9290B1017490F0A374A6F07B017A6F
:1097CE00B1790190B30EE4F0A304F07F207E507DBA
:1097DE00007C0012AF9290B1017490F0A374A7F0C8
:1097EE007B017AB1790190B30EE4F0A304F07F40CF
:1097FE007E507D007C0012AF9290B1017490F0A368
:10980E0074A8F07B017AB1790190B30EE4F0A30451
:0C981E00F07F607E507D007C0012AF9255
:01982A00221B
:10C95B007B017AB079FD90B30BE4F0A37402F07F06
:10C96B00007E0F7D007C0012B17890B0FDE0645A20
:05C97B00600302CA7513
:10C98000A3E0FEA3E0FFE4FCFDC0077B017AB179E0
:10C9900001A3E0FF90B30BE4F0A3EFF0D00712B1D6
:10C9A0007890B0FEE0FEA3E08EF0126ADFC9BD8091
:10C9B00080CA059120CA1491210000CA2690B101B5
:10C9C000E07004A3E06401705D7B017AB379FC90B0
:10C9D000B30BF0A37428F07F007E917D007C0012E1
:10C9E000B17890B113126A4C0000910090B117E435
:10C9F000F0A37428F07F007E027D007C0012DB6FC4
:10CA0000121F75802190B101E07004A3E0640170F1
:10CA100015FF800E90B101E07004A3E06401700680
:10CA20007F01FE12E4A07E007F057D007B017AB1CC
:10CA30007901126CBC90B0FEE0FEA3E0FFE4FCFDC7
:10CA4000C0077B017AB17901A3E0FF90B30EE4F057
:10CA5000A3EFF0D00712AF92E490B0FDF07B017A23
:10CA6000B079FD90B30EF0A304F07F007E0F7D003F
:05CA70007C0012AF92F2
:01CA7500229E
:10DF28007B017AB079FD90B30BE4F0A37402F07F23
:10DF3800007E0F7D007C0012B17890B0FDE0645A3D
:05DF4800600302DFD2BE
:10DF4D00A3E0FEA3E0FFE4FCFDC0077B017AB179FD
:10DF5D0001A3E0FF90B30BE4F0A3EFF0D00712B1F3
:10DF6D007890B0FEE0FEA3E08EF0126ADFDF8291C2
:10DF7D00510000DFB57B017AA879F890B30BE4F07E
:10DF8D00A304F07F517E917D007C0012B1787B015E
:10DF9D007AA879F890B1EEE4F0A37402F07F507E88
:10DFAD00057D007C0012DE6CE490B0FDF07B017A03
:10DFBD00B079FD90B30EF0A304F07F007E0F7D00CD
:05DFCD007C0012AF9280
:01DFD200222C
:10CB91007B017AB079FD90B30BE4F0A37402F07FCE
:10CBA100007E0F7D007C0012B17890B0FDE0645AE8
:05CBB100600302CC66E8
:10CBB600A3E0FEA3E0FFE4FCFDC0077B017AB179A8
:10CBC60001A3E0FF90B30BE4F0A3EFF0D00712B19E
:10CBD6007890B0FEE0FEA3E08EF0126ADFCBEF9114
:10CBE60050CC0391520000CC1790B101E07004A321
:10CBF600E06401701C7F1AFE12F59F801490B1014B
:10CC0600E07004A3E06401700890B5C4F090B570BC
:10CC1600F07E007F057D007B017AB17901126CBC44
:10CC260090B0FEE0FEA3E0FFE4FCFDC0077B017AC6
:10CC3600B17901A3E0FF90B30EE4F0A3EFF0D007C3
:10CC460012AF92E490B0FDF07B017AB079FD90B31B
:10CC56000EF0A304F07F007E0F7D007C0012AF92E1
:10CC660090B570E0600B90B101E4F0A37402F0801F
:10CC76001790B5C4E0600A90B101E4F0A304F08017
:10CC860007E490B101F0A3F07B017AB1790190B38A
:10CC96000EE4F0A304F07F607E917D007C0002AF7D
:01CCA60092FB
:108511007B017AB079FD90B30BE4F0A37402F07F94
:10852100007E0F7D007C0012B17890B0FDE0645AAE
:05853100600302885BFD
:10853600A3E0FEA3E0FFE4FCFDC0077B017AB1796E
:1085460001A3E0FF90B30BE4F0A3EFF0D00712B164
:108556007890B0FEE0FEA3E08EF0126ADF8593808D
:10856600C085DE91B2861B91B3865891B4869591EB
:10857600B586D291B6870F91B7874C91B887899106
:10858600B987C591BA880191BB0000883E90B101B8
:10859600E07004A3E06401600302883E7B017AB3C5
:1085A600792490B30BF0A37402F07FA07E917D0036
:1085B6007C0012B17890B113126A4C000091A09021
:1085C600B117E4F0A37402F07F50FE7D007C001228
:0885D600DB6F121F7502883EE5
:1085DE0090A0247461F0E4A3F0A3F0A37406F0A3BA
:1085EE007401F0E4A3F0A37403F0A374E8F0A37491
:1085FE0091F0A374B2F0E4A3F0A3F0F9A3C9F0A331
:0A860E00F0A3E9F07B017AA07924C3
:0386180002883B9A
:10861B0090A0337461F0E4A3F0A3F0A37406F0A36D
:10862B007401F0E4A3F0A37403F0A374E8F0A37453
:10863B0091F0A374B3F0A3E4F0A304F07B00A314B4
:0A864B00F0A3F0A3F00B7AA079333E
:0386550002883B5D
:1086580090A0427461F0E4A3F0A3F0A37406F0A321
:108668007401F0E4A3F0A37403F0A374E8F0A37416
:1086780091F0A374B4F0A3E4F0A37402F0A3E4F0BF
:0A868800A3F0A3F07B017AA0794271
:0386920002883B20
:1086950090A0517461F0E4A3F0A3F0A37406F0A3D5
:1086A5007401F0E4A3F0A37403F0A374E8F0A374D9
:1086B50091F0A374B5F0A3E4F0A37403F0A3E4F080
:0A86C500A3F0A3F07B017AA0795125
:0386CF0002883BE3
:1086D20090A0607461F0E4A3F0A3F0A37406F0A389
:1086E2007401F0E4A3F0A37403F0A374E8F0A3749C
:1086F20091F0A374B6F0A3E4F0A37406F0A3E4F03F
:0A870200A3F0A3F07B017AA07960D8
:03870C0002883BA5
:10870F0090A06F7461F0E4A3F0A3F0A37406F0A33C
:10871F007401F0E4A3F0A37403F0A374E8F0A3745E
:10872F0091F0A374B7F0A3E4F0A37407F0A3E4F0FF
:0A873F00A3F0A3F07B017AA0796F8C
:0387490002883B68
:10874C0090A07E7461F0E4A3F0A3F0A37406F0A3F0
:10875C007401F0E4A3F0A37403F0A374E8F0A37421
:10876C0091F0A374B8F0A3E4F0A37408F0A3E4F0C0
:0A877C00A3F0A3F07B017AA0797E40
:0387860002883B2B
:1087890090A08D7461F0E4A3F0A3F0A37406F0A3A4
:108799007401F0E4A3F0A37403F0A374E8F0A374E4
:1087A90091F0A374B9F0A3E4F0A37409F0A3E4F081
:0A87B900A3F0A3F07B017AA0798DF4
:0287C3008076BE
:1087C50090A09C7461F0E4A3F0A3F0A37406F0A359
:1087D5007401F0E4A3F0A37403F0A374E8F0A374A8
:1087E50091F0A374BAF0A3E4F0A3740AF0A3E4F043
:0A87F500A3F0A3F07B017AA0799CA9
:0287FF00803ABE
:1088010090A0AB7461F0E4A3F0A3F0A37406F0A30D
:108811007401F0E4A3F0A37403F0A374E8F0A3746B
:1088210091F0A374BBF0A3E4F0A3740BF0A3E4F004
:0D883100A3F0A3F07B017AA079AB12F571E2
:10883E00E490B0FDF07B017AB079FD90B30EF0A319
:0D884E0004F07F007E0F7D007C0012AF92D1
:10885B007B017AAD792390B30EE4F0A304F07FA2F1
:10886B007E917D007C0012AF927B017AAD792590D1
:10887B00B30EE4F0A304F07FA37E917D007C001285
:10888B00AF927B017AAD792790B30EE4F0A304F09D
:10889B007FA47E917D007C0012AF927B017AAD7933
:1088AB002990B30EE4F0A304F07FA57E917D007CAC
:1088BB000012AF927B017AAD792F90B30EE4F0A347
:1088CB0004F07FA67E917D007C0012AF927B017A33
:1088DB00AD793190B30EE4F0A304F07FA77E917DC8
:1088EB00007C0012AF927B017AAD793390B30EE42A
:1088FB00F0A304F07FA87E917D007C0012AF927BE9
:10890B00017AAD793590B30EE4F0A304F07FA97E24
:10891B00917D007C0012AF927B017AAD793790B3D9
:10892B000EE4F0A304F07FAA7E917D007C0012AFD1
:10893B00927B017AAD793990B30EE4F0A304F07F0A
:0A894B00AB7E917D007C0002AF922C
:10CCA7007B017AB079FD90B30BE4F0A37402F07FB7
:10CCB700007E0F7D007C0012B17890B0FDE0645AD1
:05CCC700600302CDB97D
:10CCCC00A3E0FEA3E0FFE4FCFDC0077B017AB17991
:10CCDC0001A3E0FF90B30BE4F0A3EFF0D00712B187
:10CCEC007890B0FEE0FEA3E08EF0126ADFCD0D006E
:10CCFC009DCD0D009ECD0D009FCD1680E00000CD8A
:10CD0C009C90A0BA7401F002CD9C90B101E070042B
:0DCD1C00A3E06401707A90A0BAE0B4012891
:10CD29007B017AB1790B90B30BE4F0A37404F07F23
:10CD39009D7E007D007C0012B1787B017AB1790B70
:08CD490012D775E490A0BAF0C6
:10CD51007B017AB3795090B30BE4F0A304F07FF038
:10CD61007E917D007C0012B1787B017AB37950907D
:10CD7100B1EEE4F0A37402F07FA0FE7D007C00120E
:10CD8100DE6C7B017AB3795090B30EE4F0A304F02A
:10CD91007F837E007D007C0012AF92E490B0FDF0B5
:10CDA1007B017AB079FD90B30EF0A304F07F007E91
:08CDB1000F7D007C0012AF921F
:01CDB9002257
:10D5A6007B017AB079FD90B30BE4F0A37402F07FAF
:10D5B600007E0F7D007C0012B17890B0FDE0645AC9
:05D5C600600302D68F96
:10D5CB00A3E0FEA3E0FFE4FCFDC0077B017AB17989
:10D5DB0001A3E0FF90B30BE4F0A3EFF0D00712B17F
:10D5EB007890B0FEE0FEA3E0704BEE247F70469087
:10D5FB00B101E07004A3E06401703A7B017AB37966
:10D60B00C890B30BF0A3741AF07F007E927D007C60
:10D61B000012B17890B113126A4C0000920090B1D5
:10D62B0017E4F0A3741AF07F007E037D007C0012D8
:10D63B00DB6F121F757E007F057D007B017AB17950
:10D64B0001126CBC90B0FEE0FEA3E0FFE4FCFDC059
:10D65B00077B017AB17901A3E0FF90B30EE4F0A34D
:10D66B00EFF0D00712AF92E490B0FDF07B017AB0EF
:10D67B0079FD90B30EF0A304F07F007E0F7D007C4C
:04D68B000012AF9248
:01D68F002278
:1073C3007B017AB079FD90B30BE4F0A37402F07FF4
:1073D300007E0F7D007C0012B17890B0FDE0645A0E
:0573E30060030277CFFA
:1073E800A3E0FEA3E0FFE4FCFDC0077B017AB179CE
:1073F80001A3E0FF90B30BE4F0A3EFF0D00712B1C4
:107408007890B0FEE0FEA3E08EF0126ADF743D8152
:10741800207489925074A5928075B4928176859271
:107428008276C2928376FF9284773B9285777392B5
:1074380086000077B290B101E07004A3E0640160B7
:10744800030277B27B017AB3797890B30BF0A37417
:1074580028F07F507E927D007C0012B17890B113A5
:10746800126A4C0000925090B117E4F0A37428F00F
:107478007F507E037D007C0012DB6F121F75027740
:10748800B27B017AB3797890B30BE4F0A304F07F70
:10749800507E927D007C0012B1780277B290B3786A
:1074A800E07002A3E0707B90B101E0FEA3E0FFC3AF
:1074B800EE940050030277B2D3EF9405EE940040A7
:0474C800030277B292
:1074CC0090B10BEEF0A3EFF07B017AB1790B90B396
:1074DC000EE4F0A304F07F607E927D007C0012AF7E
:1074EC00927B017AB1790D90B30BE4F0A304F07F99
:1074FC00617E927D007C0012B17890B10BE0FEA30E
:10750C00E0FF7C007D1812677ED390B10EE09F9057
:0B751C00B10DE09E4005EEF0A3EFF083
:1075270002760790B378E07004A3E0640160030279
:1075370077B290B101E0FEA3E0FFC3EE94005003E1
:0F7547000277B2D3EF9402EE940040030277B2C2
:1075560090B10BEEF0A3EFF07B017AB1790B90B30B
:107566000EE4F0A304F07F707E927D007C0012AFE3
:10757600927B017AB1790D90B30BE4F0A304F07F0E
:10758600717E927D007C0012B17890B10BE0FEA373
:10759600E0FF7C007D3712677ED390B10EE09F90AE
:0B75A600B10DE09E4005EEF0A3EFF0F9
:0D75B10002767290B378E07002A3E0705C87
:1075BE0090B101E0FFA3E090B10DCFF0A3EFF07B0F
:1075CE00017AB1790B90B30BE4F0A304F07F607EE7
:1075DE00927D007C0012B17890B10BE0FEA3E0FF2B
:1075EE007C007D1812677ED390B10EE09F90B10D96
:1075FE00E09E4005EEF0A3EFF07B017AB1790D909D
:09760E00B30EE4F0A304F07F6167
:107617000277A990B378E07004A3E06401600302E5
:0276270077B238
:1076290090B101E0FFA3E090B10DCFF0A3EFF07BA3
:10763900017AB1790B90B30BE4F0A304F07F707E6B
:10764900927D007C0012B17890B10BE0FEA3E0FFBF
:107659007C007D3712677ED390B10EE09F90B10D0B
:10766900E09E4005EEF0A3EFF07B017AB1790D9031
:09767900B30EE4F0A304F07F71EC
:107682000277A990B378E07002A3E070127B017ACE
:10769200B1790190B30EF0A304F07F620277A99052
:1076A200B378E07004A3E0640160030277B27B0167
:1076B2007AB1790190B30EF0A304F07F720277A938
:1076C20090B378E07002A3E070127B017AB1790185
:1076D20090B30EF0A304F07F630277A990B378E031
:1076E2007004A3E0640160030277B27B017AB1798E
:1076F2000190B30EF0A304F07F730277A990B378E0
:10770200E07002A3E070127B017AB1790190B30EAE
:10771200F0A304F07F640277A990B378E07004A329
:10772200E0640160030277B27B017AB1790190B320
:107732000EF0A304F07F74806E90B378E07002A321
:10774200E070117B017AB1790190B30EF0A304F0DD
:107752007F65805390B378E07004A3E064017050B9
:107762007B017AB1790190B30EF0A304F07F7580AA
:107772003690B378E07002A3E070117B017AB179A0
:107782000190B30EF0A304F07F66801B90B378E003
:107792007004A3E0640170187B017AB1790190B39F
:1077A2000EF0A304F07F767E927D007C0012AF92F1
:1077B200E490B0FDF07B017AB079FD90B30EF0A3B6
:0D77C20004F07F007E0F7D007C0012AF926E
:0D77CF0090B378E07002A3E060030278BA86
:1077DC0090B1017492F0A37460F07B017AB17901DD
:1077EC0090B30EE4F0A304F07F007E527D007C0089
:1077FC0012AF9290B1017492F0A37461F07B017A94
:10780C00B1790190B30EE4F0A304F07F207E527D99
:10781C00007C0012AF9290B1017492F0A37462F0EC
:10782C007B017AB1790190B30EE4F0A304F07F40B0
:10783C007E527D007C0012AF9290B1017492F0A345
:10784C007463F07B017AB1790190B30EE4F0A30478
:10785C00F07F607E527D007C0012AF9290B101747B
:10786C0092F0A37464F07B017AB1790190B30EE4C9
:10787C00F0A304F07F807E527D007C0012AF9290CA
:10788C00B1017492F0A37465F07B017AB179019027
:10789C00B30EE4F0A304F07FA07E527D007C0012B6
:0B78AC00AF9290B1017492F0A37466DB
:1078B7000279A490B378E07004A3E0640160030246
:0278C70079BE88
:1078C90090B1017492F0A37470F07B017AB17901DF
:1078D90090B30EE4F0A304F07F007E527D007C009B
:1078E90012AF9290B1017492F0A37471F07B017A96
:1078F900B1790190B30EE4F0A304F07F207E527DAC
:10790900007C0012AF9290B1017492F0A37472F0EE
:107919007B017AB1790190B30EE4F0A304F07F40C2
:107929007E527D007C0012AF9290B1017492F0A357
:107939007473F07B017AB1790190B30EE4F0A3047A
:10794900F07F607E527D007C0012AF9290B101748D
:1079590092F0A37474F07B017AB1790190B30EE4CB
:10796900F0A304F07F807E527D007C0012AF9290DC
:10797900B1017492F0A37475F07B017AB179019029
:10798900B30EE4F0A304F07FA07E527D007C0012C8
:10799900AF9290B1017492F0A37476F07B017AB141
:1079A900790190B30EE4F0A304F07FC07E527D000C
:0579B9007C0012AF92FA
:0179BE0022A6
:10C486007B017AB079FD90B30BE4F0A37402F07FE0
:10C49600007E0F7D007C0012B17890B0FDE0645AFA
:05C4A600600302C5B8AF
:10C4AB00A3E0FEA3E0FFE4FCFDC0077B017AB179BA
:10C4BB0001A3E0FF90B30BE4F0A3EFF0D00712B1B0
:10C4CB007890B0FEE0FEA3E08EF0126ADFC4E48148
:10C4DB0040C52C92C10000C56990B101E07004A366
:10C4EB00E0640170797B017AB4792090B30BF0A3EF
:10C4FB007416F07FA07E927D007C0012B17890B113
:10C50B0013126A4C000092A090B117E4F0A37416BA
:10C51B00F07FA07E037D007C0012DB6F121F758005
:01C52B003DD2
:10C52C0090A0BB7432F0E4A3F0A3F0A37406F0A3C4
:10C53C007401F0E4A3F0A37403F0A374E8F0A37403
:10C54C0092F0A374C1F0A3E4F0A37403F0A3E4F09D
:0DC55C00A3F0A3F07B017AA079BB12F5716A
:10C569007E007F057D007B017AB17901126CBC9058
:10C57900B0FEE0FEA3E0FFE4FCFDC0077B017AB159
:10C589007901A3E0FF90B30EE4F0A3EFF0D0071216
:10C59900AF92E490B0FDF07B017AB079FD90B30ED3
:0FC5A900F0A304F07F007E0F7D007C0012AF92A4
:10C5B8007B017AAD794D90B30EE4F0A304F07FC00F
:09C5C8007E927D007C0002AF921E
:10D3C6007B017AB079FD90B30BE4F0A37402F07F91
:10D3D600007E0F7D007C0012B17890B0FDE0645AAB
:05D3E600600302D4B554
:10D3EB00A3E0FEA3E0FFE4FCFDC0077B017AB1796B
:10D3FB0001A3E0FF90B30BE4F0A3EFF0D00712B161
:10D40B007890B0FEE0FEA3E08EF0126ADFD42081AC
:10D41B00600000D46690B101E07004A3E064017079
:10D42B003A7B017AB3791C90B30BF0A37406F07FAF
:10D43B00007E937D007C0012B17890B113126A4C80
:10D44B000000930090B117E4F0A37406F07F007E08
:10D45B00047D007C0012DB6F121F757E007F057D43
:10D46B00007B017AB17901126CBC90B0FEE0FEA397
:10D47B00E0FFE4FCFDC0077B017AB17901A3E0FF7B
:10D48B0090B30EE4F0A3EFF0D00712AF92E490B09C
:10D49B00FDF07B017AB079FD90B30EF0A304F07F21
:0AD4AB00007E0F7D007C0012AF929E
:01D4B5002254
:10BA72007B017AB079FD90B30BE4F0A37402F07FFE
:10BA8200007E0F7D007C0012B17890B0FDE0645A18
:05BA9200600302BBF29D
:10BA9700A3E0FEA3E0FFE4FCFDC0077B017AB179D8
:10BAA70001A3E0FF90B30BE4F0A3EFF0D00712B1CE
:10BAB7007890B0FEE0FEA3E08EF0126ADFBAD08184
:10BAC70080BB1B93600000BBA390B101E07004A38F
:10BAD700E06401600302BBA37B017AB4791090B3E1
:10BAE7000BF0A37404F07F507E937D007C0012B1AD
:10BAF7007890B113126A4C0000935090B117E4F09C
:10BB0700A37404F07F50FE7D007C0012DB6F121FD0
:10BB17007502BBA390B101E07004A3E06401707CDF
:0FBB2700D390B411E0940090B410E09400406DFE
:10BB360090AFB7E0FEA3E0FF20E0047D0180027D28
:10BB460000ED5401FDEF54FEFFEF4DFF90AFB7EE51
:10BB5600F0A3EFF05401FF90A0D9E4F0A3EFF0902A
:10BB6600A0CA74FEF0E4A3F0A3F0A37406F0A374D5
:10BB760001F0E4A3F0A37403F0A374E8F0E4A3F0E7
:10BB8600A3F0A3F0A37405F0A37401F0A374A0F0CE
:0DBB9600A374D9F07B017AA079CA12F57171
:10BBA3007E007F057D007B017AB17901126CBC9028
:10BBB300B0FEE0FEA3E0FFE4FCFDC0077B017AB129
:10BBC3007901A3E0FF90B30EE4F0A3EFF0D00712E6
:10BBD300AF92E490B0FDF07B017AB079FD90B30EA3
:0FBBE300F0A304F07F007E0F7D007C0012AF9274
:10BBF20090AFB8E07E0030E0047F0180027F0090C9
:10BC0200B101EEF0A3EFF07B017AB1790190B30EAE
:10BC1200E4F0A304F07F617E937D007C0002AF928A
:10D4B6007B017AB079FD90B30BE4F0A37402F07FA0
:10D4C600007E0F7D007C0012B17890B0FDE0645ABA
:05D4D600600302D5A572
:10D4DB00A3E0FEA3E0FFE4FCFDC0077B017AB1797A
:10D4EB0001A3E0FF90B30BE4F0A3EFF0D00712B170
:10D4FB007890B0FEE0FEA3E08EF0126ADFD51081CB
:10D50B00A00000D55690B101E07004A3E064017057
:10D51B003A7B017AB4791890B30BF0A37402F07FC5
:10D52B00A07E937D007C0012B17890B113126A4CEF
:10D53B00000093A090B117E4F0A37402F07FA07EDB
:10D54B00047D007C0012DB6F121F757E007F057D52
:10D55B00007B017AB17901126CBC90B0FEE0FEA3A6
:10D56B00E0FFE4FCFDC0077B017AB17901A3E0FF8A
:10D57B0090B30EE4F0A3EFF0D00712AF92E490B0AB
:10D58B00FDF07B017AB079FD90B30EF0A304F07F30
:0AD59B00007E0F7D007C0012AF92AD
:01D5A5002263
:10E11F0090B354E4F0A304F0A37411F0A37494F03B
:10E12F00A3740CF0A3749EF090B35C740AF0A37404
:10E13F00F0F0A37407F0A3744EF07B017AB3795417
:10E14F0090B1EEE4F0A37406F07F507E017D007C69
:10E15F000012DE6C7B017AB3795490B30EE4F0A316
:10E16F007406F07F507E907D007C0012AF9290B3CA
:10E17F00727403F0A374E8F0A37403F0A374E8F0CF
:10E18F007B017AB3796090B1EEE4F0A3740CF07F69
:10E19F00A07E017D007C0012DE6C7B017AB379607A
:10E1AF0090B30EE4F0A3740CF07FA07E907D007C02
:04E1BF000002AF9219
:10CA76007B017AB079FD90B30BE4F0A37402F07FEA
:10CA8600007E0F7D007C0012B17890B0FDE0645A04
:05CA9600600302CB90DB
:10CA9B00A3E0FEA3E0FFE4FCFDC0077B017AB179C4
:10CAAB0001A3E0FF90B30BE4F0A3EFF0D00712B1BA
:10CABB007890B0FEE0FEA3E08EF0126ADFCAD89445
:10CACB0000CAE99401CB1C94020000CB4190B10148
:10CADB00E07004A3E06401705D12E11F805890B117
:10CAEB0001E07004A3E06401704C90B504F0A3F076
:10CAFB0090B502F0A3F07B017AB5790290B1EEF01C
:10CB0B00A37402F07F007E087D007C0012DE6C8037
:10CB1B002590B101E07004A3E0640170197BFF7AEA
:10CB2B00C0796490B30EF0A37402F07F047E007D95
:10CB3B00007C0012AF927E007F057D007B017AB1F5
:10CB4B007901126CBC90B0FEE0FEA3E0FFE4FCFDAB
:10CB5B00C0077B017AB17901A3E0FF90B30EE4F03B
:10CB6B00A3EFF0D00712AF92E490B0FDF07B017A07
:10CB7B00B079FD90B30EF0A304F07F007E0F7D0023
:05CB8B007C0012AF92D6
:01CB90002282
:0DBC220090B35AE07002A3E0600302BCCFB3
:10BC2F0090B0FD7494F0A374A0F07B017AB079FD0D
:10BC3F0090B30EE4F0A304F07F007E547D007C00EF
:10BC4F0012AF9290B0FD7494F0A374A1F07B017ABF
:10BC5F00B079FD90B30EE4F0A304F07F407E547DE5
:10BC6F00007C0012AF9290B0FD7494F0A374A3F017
:10BC7F007B017AB079FD90B30EE4F0A304F07F60FE
:10BC8F007E547D007C0012AF9290B0FD7494F0A3AF
:10BC9F0074A5F07B017AB079FD90B30EE4F0A304A4
:10BCAF00F07FA07E547D007C0012AF927B017AADB5
:0DBCBF00792F90B30EE4F0A37406F07FA07F
:10BCCC0002BD8B90B35AE07004A3E06401600302E0
:02BCDC00BD9415
:10BCDE0074FF90B0FDF0A3F07B017AB079FD90B3C4
:10BCEE000EE4F0A304F07F007E547D007C0012AFC2
:10BCFE009274FF90B0FDF0A3F07B017AB079FD90C5
:10BD0E00B30EE4F0A304F07F407E547D007C00125D
:10BD1E00AF9274FF90B0FDF0A3F07B017AB079FD85
:10BD2E0090B30EE4F0A304F07F607E547D007C009F
:10BD3E0012AF9274FF90B0FDF0A3F07B017AB07950
:10BD4E00FD90B30EE4F0A304F07FA07E547D007C42
:10BD5E000012AF927B017AAD792F90B30EE4F0A36F
:10BD6E0004F07FA17E947D007C0012AF927B017A5D
:10BD7E00AD792F90B30EE4F0A304F07FA47E947DF2
:06BD8E00007C0012AF92E0
:01BD9400228C
:104F85007B017AB079FD90B30BE4F0A37402F07F56
:104F9500007E0F7D007C0012B17890B0FDE0645A70
:054FA500600302537BD4
:104FAA00A3E0FEA3E0FFE4FCFDC0077B017AB17930
:104FBA0001A3E0FF90B30BE4F0A3EFF0D00712B126
:104FCA007890B0FEE0FEA3E08EF0126ADF4FFB9508
:104FDA00305062953150C995325130953351979579
:104FEA003451FE95355265953652CB9537000053AC
:104FFA002C90B101E07004A3E06401600302532C19
:10500A00C390B31FE0940190B31EE09400500302D2
:02501A00532C15
:10501C0090B04BE0FEA3E0FF20E0047D0180027D18
:10502C0000ED5401FDEF54FEFFEF4DFF90B04BEE41
:10503C00F0A3EFF07B017AB0794B90B30EE4F0A3C0
:10504C0004F07F407E957D007C0012AF927B017A4C
:03505C00A079DB5D
:10505F0002532990B101E07004A3E06401600302E0
:10506F00532CC390B31FE0940290B31EE0940050F2
:04507F000302532CA9
:1050830090B05BE0FEA3E0FF20E0047D0180027DA1
:1050930000ED5401FDEF54FEFFEF4DFF90B05BEECA
:1050A300F0A3EFF07B017AB0795B90B30EE4F0A349
:1050B30004F07F417E957D007C0012AF927B017AE4
:0350C300A079EAE7
:1050C60002532990B101E07004A3E0640160030279
:1050D600532CC390B31FE0940390B31EE09400508A
:0450E6000302532C42
:1050EA0090B06BE0FEA3E0FF20E0047D0180027D2A
:1050FA0000ED5401FDEF54FEFFEF4DFF90B06BEE53
:10510A00F0A3EFF07B017AB0796B90B30EE4F0A3D1
:10511A0004F07F427E957D007C0012AF927B017A7B
:03512A00A079F970
:10512D0002532990B101E07004A3E0640160030211
:10513D00532CC390B31FE0940490B31EE094005021
:04514D000302532CDA
:1051510090B07BE0FEA3E0FF20E0047D0180027DB2
:1051610000ED5401FDEF54FEFFEF4DFF90B07BEEDB
:10517100F0A3EFF07B017AB0797B90B30EE4F0A35A
:1051810004F07F437E957D007C0012AF927B017A13
:03519100A17908F9
:1051940002532990B101E07004A3E06401600302AA
:1051A400532CC390B31FE0940590B31EE0940050B9
:0451B4000302532C73
:1051B80090B08BE0FEA3E0FF20E0047D0180027D3B
:1051C80000ED5401FDEF54FEFFEF4DFF90B08BEE64
:1051D800F0A3EFF07B017AB0798B90B30EE4F0A3E3
:1051E80004F07F447E957D007C0012AF927B017AAB
:0351F800A1791783
:1051FB0002532990B101E07004A3E0640160030243
:10520B00532CC390B31FE0940690B31EE094005050
:04521B000302532C0B
:10521F0090B09BE0FEA3E0FF20E0047D0180027DC3
:10522F0000ED5401FDEF54FEFFEF4DFF90B09BEEEC
:10523F00F0A3EFF07B017AB0799B90B30EE4F0A36B
:10524F0004F07F457E957D007C0012AF927B017A42
:03525F00A179260C
:1052620002532990B101E07004A3E06401600302DB
:10527200532CC390B31FE0940790B31EE0940050E8
:045282000302532CA4
:1052860090B0ABE0FEA3E0FF20E0047D0180027D4C
:1052960000ED5401FDEF54FEFFEF4DFF90B0ABEE75
:1052A600F0A3EFF07B017AB079AB90B30EE4F0A3F4
:1052B60004F07F467E957D007C0012AF927B017ADA
:0352C600A1793596
:1052C900805E90B101E07004A3E064017055C39061
:0D52D900B31FE0940890B31EE0940040461F
:1052E60090B0BBE0FEA3E0FF20E0047D0180027DDC
:1052F60000ED5401FDEF54FEFFEF4DFF90B0BBEE05
:10530600F0A3EFF07B017AB079BB90B30EE4F0A383
:1053160004F07F477E957D007C0012AF927B017A78
:06532600A1794412F571AB
:10532C007E007F057D007B017AB17901126CBC9007
:10533C00B0FEE0FEA3E0FFE4FCFDC0077B017AB108
:10534C007901A3E0FF90B30EE4F0A3EFF0D00712C5
:10535C00AF92E490B0FDF07B017AB079FD90B30E82
:0F536C00F0A304F07F007E0F7D007C0012AF9253
:10537B00C390B31FE0940190B31EE0940040457BB3
:10538B00017AB0794190B30EE4F0A37403F07F007F
:10539B007E957D007C0012AF927B017AB0794B90A9
:1053AB00B30EE4F0A304F07F037E957D007C001226
:0253BB00AF92AF
:1053BD00E490B0FDF0A3F07B017AB079FD90B30ECF
:0253CD0080114D
:1053CF0090B0FDE4F0A304F0FB7AB079FD90B30E3A
:1053DF00E4F0A304F07F207E957D007C0012AF9255
:1053EF00C390B31FE0940290B31EE0940040457B3E
:1053FF00017AB0795190B30EE4F0A37403F07F04F7
:10540F007E957D007C0012AF927B017AB0795B9024
:10541F00B30EE4F0A304F07F077E957D007C0012AD
:02542F00AF923A
:10543100E490B0FDF0A3F07B017AB079FD90B30E5A
:025441008011D8
:1054430090B0FDE4F0A304F0FB7AB079FD90B30EC5
:10545300E4F0A304F07F217E957D007C0012AF92DF
:10546300C390B31FE0940390B31EE0940040457BC8
:10547300017AB0796190B30EE4F0A37403F07F086E
:105483007E957D007C0012AF927B017AB0796B90A0
:10549300B30EE4F0A304F07F0B7E957D007C001235
:0254A300AF92C6
:1054A500E490B0FDF0A3F07B017AB079FD90B30EE6
:0254B500801164
:1054B70090B0FDE4F0A304F0FB7AB079FD90B30E51
:1054C700E4F0A304F07F227E957D007C0012AF926A
:1054D700C390B31FE0940490B31EE0940040457B53
:1054E700017AB0797190B30EE4F0A37403F07F0CE6
:1054F7007E957D007C0012AF927B017AB0797B901C
:10550700B30EE4F0A304F07F0F7E957D007C0012BC
:02551700AF9251
:10551900E490B0FDF0A3F07B017AB079FD90B30E71
:025529008011EF
:10552B0090B0FDE4F0A304F0FB7AB079FD90B30EDC
:10553B00E4F0A304F07F237E957D007C0012AF92F4
:10554B00C390B31FE0940590B31EE0940040457BDD
:10555B00017AB0798190B30EE4F0A37403F07F105D
:10556B007E957D007C0012AF927B017AB0798B9097
:10557B00B30EE4F0A304F07F137E957D007C001244
:02558B00AF92DD
:10558D00E490B0FDF0A3F07B017AB079FD90B30EFD
:02559D0080117B
:10559F0090B0FDE4F0A304F0FB7AB079FD90B30E68
:1055AF00E4F0A304F07F247E957D007C0012AF927F
:1055BF00C390B31FE0940690B31EE0940040457B68
:1055CF00017AB0799190B30EE4F0A37403F07F14D5
:1055DF007E957D007C0012AF927B017AB0799B9013
:1055EF00B30EE4F0A304F07F177E957D007C0012CC
:0255FF00AF9269
:10560100E490B0FDF0A3F07B017AB079FD90B30E88
:02561100801106
:1056130090B0FDE4F0A304F0FB7AB079FD90B30EF3
:10562300E4F0A304F07F257E957D007C0012AF9209
:10563300C390B31FE0940790B31EE0940040457BF2
:10564300017AB079A190B30EE4F0A37403F07F184C
:105653007E957D007C0012AF927B017AB079AB908E
:10566300B30EE4F0A304F07F1B7E957D007C001253
:02567300AF92F4
:10567500E490B0FDF0A3F07B017AB079FD90B30E14
:02568500801192
:1056870090B0FDE4F0A304F0FB7AB079FD90B30E7F
:10569700E4F0A304F07F267E957D007C0012AF9294
:1056A700C390B31FE0940890B31EE0940040457B7D
:1056B700017AB079B190B30EE4F0A37403F07F1CC4
:1056C7007E957D007C0012AF927B017AB079BB900A
:1056D700B30EE4F0A304F07F1F7E957D007C0012DB
:0256E700AF9280
:1056E900E490B0FDF0A3F07B017AB079FD90B30EA0
:0256F90080111E
:1056FB0090B0FDE4F0A304F0FB7AB079FD90B30E0B
:10570B00E4F0A304F07F277E957D007C0012AF921E
:01571B00226B
:10B52C00E490B0FFF0A3F090B3CAE0FEA3E0FF906C
:10B53C00B0FFE0FCA3E0FDC39FEC9E5069AF05900B
:10B54C00AD43E0FEA3E0A807088005CEC313CE13DD
:10B55C00D8F95401FF90B3C8E0B40010A3E0B507CC
:10B56C000B90B0FDE4F0A37403F0800990B0FDE4FF
:10B57C00F0A37402F090B100E024A0FF90B0FFE0C3
:10B58C003495FEE4FCFD7B017AB079FD90B30EF0AE
:10B59C00A304F012AF9290B100E004F0708990B067
:10B5AC00FFE004F0808190B0FFE0FEA3E0FFC394C5
:10B5BC000CEE9400505890AD43E0FEA3E0A80708B1
:10B5CC008005CEC313CE13D8F930E00A90B0FDE459
:10B5DC00F0A304F08007E490B0FDF0A3F090B1006C
:10B5EC00E024A0FF90B0FFE03495FEE4FCFD7B016D
:10B5FC007AB079FD90B30EF0A304F012AF9290B133
:10B60C0000E004F070A090B0FFE004F0809890B0DF
:10B61C00FFE0FEA3E0FFC3940DEE9400506790ADE5
:10B62C0043E0FEA3E0A807088005CEC313CE13D8D1
:10B63C00F95401FF90B3C8E0B40010A3E0B5070BB8
:10B64C0090B0FDE4F0A37403F0800990B0FDE4F039
:10B65C00A37402F090B100E024A0FF90B0FFE0349E
:10B66C0095FEE4FCFD7B017AB079FD90B30EF0A35E
:10B67C0004F012AF9290B100E004F0709190B0FF22
:10B68C00E004F0808990B0FFE0FEA3E0FFC3940FCC
:10B69C00EE9400505890AD43E0FEA3E0A80708805C
:10B6AC0005CEC313CE13D8F930E00A90B0FDE4F008
:10B6BC00A304F08007E490B0FDF0A3F090B100E09B
:10B6CC0024A0FF90B0FFE03495FEE4FCFD7B017AF2
:10B6DC00B079FD90B30EF0A304F012AF9290B100CC
:0DB6EC00E004F070A090B0FFE004F0809842
:01B6F900222E
:0A571C0090B3CCE07002A3E07064CB
:1057260090B0FDF0A3F090B0FDE0FCA3E0FDC394C3
:0957360010EC940040030257F747
:10573F00AF0590ADD3E0FEA3E0A807088005CEC368
:10574F0013CE13D8F95401FF90B0FFE4F0A3EFF09C
:10575F00ED2450FFEC3497FEE4FCFD7B017AB07929
:0B576F00FF90B30EF0A304F012AF9205
:10577A0090B0FEE004F070AA90B0FDE004F080A2C0
:0C578A0090B3CCE07004A3E064017061F7
:1057960090B0FDF0A3F090B0FDE0FCA3E0FDC39453
:0657A60010EC9400504BD2
:1057AC00AF0590B0F3E0FEA3E0A807088005CEC3D8
:1057BC0013CE13D8F95401FF90B0FFE4F0A3EFF02F
:1057CC00ED2450FFEC3497FEE4FCFD7B017AB079BC
:0B57DC00FF90B30EF0A304F012AF9298
:1057E70090B0FEE004F070AD90B0FDE004F080A54D
:1057F7007B017AB079FD90B30BE4F0A37402F07FDC
:10580700007E0F7D007C0012B17890B0FDE0645AF5
:055817006003025E9435
:10581C00A3E0FEA3E0FFE4FCFDC0077B017AB179B5
:10582C0001A3E0FF90B30BE4F0A3EFF0D00712B1AB
:10583C007890B0FEE0FEA3E08EF0126ADF588D97F0
:10584C0060588D9761588D9762588D9763588D97D6
:10585C0064588D9765588D9766588D9767588D97B6
:10586C0068588D9769588D976A588D976B588D9796
:10587C006C588D976D588D976E588D976F00005E94
:10588C004590B3CCE07002A3E06003025B7890B16A
:0B589C0001E07002A3E06003025A0A62
:1058A70090B0FFE024A0FF90B0FEE0346890B10B09
:1058B700F0FCA3EFF0FD7E007401A807088005C384
:1058C70033CE33CED8F9F4FFEEF4FE90ADD3E05EDD
:1058D700F0A3E05FF090A15375F00FED126A7DEC35
:1058E70075F00FA42583F58374D0F090B10BE0FE1B
:1058F700A3E0FF90A15475F00F126A7DEE75F00FCB
:10590700A42583F583E4F090A15575F00FEF126A93
:105917007DEE75F00FA42583F583E4F090A156750D
:10592700F00FEF126A7DEE75F00FA42583F58374EF
:1059370006F090A15775F00FEF126A7DEE75F00F24
:10594700A42583F5837401F090A15875F00FEF1229
:105957006A7DEE75F00FA42583F583E4F090A159D5
:1059670075F00FEF126A7DEE75F00FA42583F583AE
:105977007403F0A374E8F0EF2480FFEE3497FE90F1
:10598700B10BE0FCA3E0FD90A15B75F00F126A7DFF
:10599700EC75F00FA42583F583EEF0A3EFF090A14B
:1059A7005D75F00FED126A7DEC75F00FA42583F598
:1059B70083E4F0A37402F090A15F75F00FED126A13
:1059C7007DEC75F00FA42583F583E4F0A3F0A3F035
:1059D700ED2480FFEC3497FEE4FCFD7B017AAD7982
:1059E700D390B30EF0A304F012AF9290B10BE0FE88
:1059F700A3E0FF7C007D0F12677E74532FF974A11B
:105A0700025E3E90B101E07004A3E064016003020E
:025A17005E45EA
:105A190090B0FFE024A0FF90B0FEE0346890B10B95
:105A2900F0FCA3EFF0FD7E007401A807088005C310
:105A390033CE33CED8F9FF90ADD3E04EF0A3E04F8B
:105A4900F090A24375F00FED126A7DEC75F00FA48A
:105A59002583F58374D0F090B10BE0FEA3E0FF90AD
:105A6900A24475F00F126A7DEE75F00FA42583F537
:105A790083E4F090A24575F00FEF126A7DEE75F0A0
:105A89000FA42583F583E4F090A24675F00FEF1279
:105A99006A7DEE75F00FA42583F5837406F090A254
:105AA9004775F00FEF126A7DEE75F00FA42583F5A7
:105AB900837401F090A24875F00FEF126A7DEE75BC
:105AC900F00FA42583F583E4F090A24975F00FEF58
:105AD900126A7DEE75F00FA42583F5837403F0A394
:105AE90074E8F0EF2480FFEE3497FE90B10BE0FCF0
:105AF900A3E0FD90A24B75F00F126A7DEC75F00FD3
:105B0900A42583F583EEF0A3EFF090A24D75F00F75
:105B1900ED126A7DEC75F00FA42583F583E4F0A3FB
:105B29007402F090A24F75F00FED126A7DEC75F0DA
:105B39000FA42583F583E4F0A3F0A3F0ED2480FFFF
:105B4900EC3497FEE4FCFD7B017AAD79D390B30E7A
:105B5900F0A304F012AF9290B10BE0FEA3E0FF7C3A
:0C5B6900007D0F12677E74432FF974A2B8
:105B7500025E3E90B3CCE07004A3E06401600302D2
:0F5B85005E4590B101E07002A3E06003025CE2B4
:105B940090B10BF0A3F090B0FFE024A0FE90B0FE13
:105BA400E0346890B10DF0A3CEF090B10DE0FEA307
:105BB400E0FF90A33375F00F126A7DEE75F00FA429
:105BC4002583F58374D0F090A33475F00FEF126A37
:105BD4007DEE75F00FA42583F583E4F090A335756D
:105BE400F00FEF126A7DEE75F00FA42583F583E4C0
:105BF400F090A33675F00FEF126A7DEE75F00FA4E6
:105C04002583F5837406F090A33775F00FEF126ABD
:105C14007DEE75F00FA42583F5837401F090A3380D
:105C240075F00FEF126A7DEE75F00FA42583F583EE
:105C3400E4F090A33975F00FEF126A7DEE75F00F62
:105C4400A42583F5837403F0A374E8F0EF2480FFA4
:105C5400EE3497FE90B10DE0FCA3E0FD90A33B75FC
:105C6400F00F126A7DEC75F00FA42583F583EEF036
:105C7400A3EFF0ED2402FFE43CFE90A33D75F00F8A
:105C8400ED126A7DEC75F00FA42583F583EEF0A385
:105C9400EFF090A33F75F00FED126A7DEC75F00FF5
:105CA400A42583F583E4F0A3F0A3F0ED2480FFECB6
:105CB4003497FEE4FCFD7B017AB1790B90B30EF0CE
:105CC400A304F012AF9290B10DE0FEA3E0FF7C00BC
:0B5CD4007D0F12677E74332FF974A35C
:105CDF00025E3E90B101E07004A3E0640160030234
:025CEF005E4510
:105CF10074FF90B10BF0A3F090B0FFE024A0FE90F0
:105D0100B0FEE0346890B10DF0A3CEF090B10DE09B
:105D1100FEA3E0FF90A42375F00F126A7DEE75F0EB
:105D21000FA42583F58374D0F090A42475F00FEFB0
:105D3100126A7DEE75F00FA42583F583E4F090A43B
:105D41002575F00FEF126A7DEE75F00FA42583F52E
:105D510083E4F090A42675F00FEF126A7DEE75F0E2
:105D61000FA42583F5837406F090A42775F00FEF37
:105D7100126A7DEE75F00FA42583F5837401F0900E
:105D8100A42875F00FEF126A7DEE75F00FA425833C
:105D9100F583E4F090A42975F00FEF126A7DEE759A
:105DA100F00FA42583F5837403F0A374E8F0EF24C6
:105DB10080FFEE3497FE90B10DE0FCA3E0FD90A4CE
:105DC1002B75F00F126A7DEC75F00FA42583F58316
:105DD100EEF0A3EFF0ED2402FFE43CFE90A42D755C
:105DE100F00FED126A7DEC75F00FA42583F583EEBB
:105DF100F0A3EFF090A42F75F00FED126A7DEC7512
:105E0100F00FA42583F583E4F0A3F0A3F0ED248043
:105E1100FFEC3497FEE4FCFD7B017AB1790B90B382
:105E21000EF0A304F012AF9290B10DE0FEA3E0FFDB
:105E31007C007D0F12677E74232FF974A43EFA7BD8
:045E41000112F571E4
:105E45007E007F057D007B017AB17901126CBC90E3
:105E5500B0FEE0FEA3E0FFE4FCFDC0077B017AB1E4
:105E65007901A3E0FF90B30EE4F0A3EFF0D00712A1
:105E7500AF92E490B0FDF07B017AB079FD90B30E5E
:0F5E8500F0A304F07F007E0F7D007C0012AF922F
:015E940022EB
:10CDBA00E490B0FFF0A3F090B0FFE0FEA3E0FFC361
:10CDCA00941EEE9400400302CEC490B3F2E0FCA39A
:10CDDA00E0FDC3EF9DEE9C506090B0FFE0FCA3E045
:10CDEA00FDECC4F854F0C868FEEDC4540F4825E0C1
:10CDFA00FFEE33FE740B2FF58274AD3EF583E0FE31
:10CE0A00A3E0FFED540FFDEFA805088005CEC3137C
:10CE1A00CE13D8F95401FF90B3EAE0B40010A3E0AE
:10CE2A00B5070B90B0FDE4F0A37403F0805A90B0FC
:10CE3A00FDE4F0A37402F0804F90B0FFE0FCA3E0A1
:10CE4A00FDECC4F854F0C868FEEDC4540F4825E060
:10CE5A00FFEE33FE740B2FF58274AD3EF583E0FED0
:10CE6A00A3E0FFED540FFDEFA805088005CEC3131C
:10CE7A00CE13D8F930E00A90B0FDE4F0A304F080B4
:10CE8A0007E490B0FDF0A3F090B100E02400FF9019
:10CE9A00B0FFE03496FEE4FCFD7B017AB079FD90A8
:10CEAA00B30EF0A304F012AF9290B100E004F07058
:0ACEBA000690B0FFE004F002CDC1C5
:01CEC400224B
:10CEC500E490B0FFF0A3F090B0FFE0FEA3E0FFC355
:10CED500941EEE9400400302CFCF90B3F4E0FCA380
:10CEE500E0FDC3EF9DEE9C506090B0FFE0FCA3E039
:10CEF500FDECC4F854F0C868FEEDC4540F4825E0B5
:10CF0500FFEE33FE74112FF58274AD3EF583E0FE1E
:10CF1500A3E0FFED540FFDEFA805088005CEC31370
:10CF2500CE13D8F95401FF90B3ECE0B40010A3E0A0
:10CF3500B5070B90B0FDE4F0A37403F0805A90B0F0
:10CF4500FDE4F0A37402F0804F90B0FFE0FCA3E095
:10CF5500FDECC4F854F0C868FEEDC4540F4825E054
:10CF6500FFEE33FE74112FF58274AD3EF583E0FEBE
:10CF7500A3E0FFED540FFDEFA805088005CEC31310
:10CF8500CE13D8F930E00A90B0FDE4F0A304F080A8
:10CF950007E490B0FDF0A3F090B100E02450FF90BD
:10CFA500B0FFE03496FEE4FCFD7B017AB079FD909C
:10CFB500B30EF0A304F012AF9290B100E004F0704C
:0ACFC5000690B0FFE004F002CECCAD
:01CFCF00223F
:10CFD000E490B0FFF0A3F090B0FFE0FEA3E0FFC349
:10CFE000941EEE9400400302D0DA90B3F6E0FCA366
:10CFF000E0FDC3EF9DEE9C506090B0FFE0FCA3E02D
:10D00000FDECC4F854F0C868FEEDC4540F4825E0A8
:10D01000FFEE33FE74172FF58274AD3EF583E0FE0C
:10D02000A3E0FFED540FFDEFA805088005CEC31364
:10D03000CE13D8F95401FF90B3EEE0B40010A3E092
:10D04000B5070B90B0FDE4F0A37403F0805A90B0E4
:10D05000FDE4F0A37402F0804F90B0FFE0FCA3E089
:10D06000FDECC4F854F0C868FEEDC4540F4825E048
:10D07000FFEE33FE74172FF58274AD3EF583E0FEAC
:10D08000A3E0FFED540FFDEFA805088005CEC31304
