:0300000002B30147
:0800F800FFFF4457494E543547
:10B30100759401759502758E0075930075C87075F9
:10B31100C96075F80075F90175A80075B800759ACE
:10B321000075A90075B90053D0E7787FE4F6D8FD20
:10B331009080007F007E80E4F0A3DFFCDEFA75815F
:04B341002702B380AC
:108F3E0090DEB9EEF0A3EFF0A3EBF0A3EAF0A3E915
:018F4E00F032
:108F4F00E490DEC0F0A3F0A3F0A3F0A3F0A3F0A38E
:108F5F00F0A3F090DEBEE0FAA3E0FB4A70030290AC
:108F6F00FD90DEB9E0FEA3E0FFC3E49FFFE49EFEA9
:108F7F00E4FCFD90DEC8124BADAF03AE02E4FCFD86
:108F8F0090DEC8E0F8A3E0F9A3E0FAA3E0FBC31278
:108F9F004B89501190DEC8A3A3E0FFA3E090DEBE83
:108FAF00CFF0A3EFF090DEB9E0FCA3E0FDECC3132C
:108FBF00FFED1390DEC0CFF0A3EFF0ED5401FFA350
:108FCF00E4F0A3EFF0C2AFE4F5F190DEC0E0FCA354
:108FDF00E0FDECF5F28DF375F40175F8AF30FCFDA3
:108FEF0090DEC2E07002A3E0603DD2FE20FEFD9055
:108FFF00DEBBE0FBA3E475F0011249BCA9F0FAE572
:10900F00FC12490B90DEBBE0FBA3E475F0011249A3
:10901F00BCA9F0FAE5FD12490B90DEBFE024FFF08A
:10902F0090DEBEE034FFF090DEBEE0FCA3E0FDEC8E
:10903F00C313FFED1390DEC4CFF0A3EFF0ED540197
:10904F00FFA3E4F0A3EFF090DEC474FFF5F0124934
:10905F00BC45F0605BD2FE20FEFD90DEBBE0FBA3C3
:10906F00E475F0011249BCA9F0FAE5FA12490B9028
:10907F00DEBBE0FBA3E475F0011249BCA9F0FAE5F1
:10908F00FB12490B90DEBBE0FBA3E475F001124924
:10909F00BCA9F0FAE5FC12490B90DEBBE0FBA3E4A0
:1090AF0075F0011249BCA9F0FAE5FD12490B809742
:1090BF0090DEC6E07002A3E0602FD2FE20FEFD908E
:1090CF00DEBBE0FBA3E475F0011249BCA9F0FAE5A1
:1090DF00FA12490B90DEBBE0FBA3E475F0011249D5
:0E90EF00BCA9F0FAE5FB12490BE4F5F8D2AF8C
:0190FD002250
:1095E00090DEBAEEF0A3EFF0A3EBF0A3EAF0A3E96C
:0195F000F08A
:1095F100E490DEC1F0A3F0A3F0A3F0A3F0A3F090F8
:10960100DEBFE07002A3E0700302977290DEBAE061
:10961100FEA3E0FFC3E49FFFE49EFED390DEC0E023
:109621009F90DEBFE09E4005EEF0A3EFF090DEBA22
:10963100E0FAA3E0FBEAC313FCEB13FDEB5401FFDB
:1096410090DEC1E4F0A3EFF0C2AFE4F5F1ECF5F286
:10965100AF058FF375F40175F88330FCFD90DEC121
:10966100E07002A3E0603D90DEBCE0FBA3E475F096
:10967100011249BCA9F0FA1248C5F5FC90DEBCE024
:10968100FBA3E475F0011249BCA9F0FA1248C5F533
:10969100FDD2FE20FEFD90DEC0E024FFF090DEBF93
:1096A100E034FFF090DEBFE0FCA3E0FDECC313FF6C
:1096B100ED1390DEC3CFF0A3EFF0ED5401FFA3E46F
:1096C100F0A3EFF075F88F90DEC374FFF5F0124947
:1096D100BC45F0605B90DEBCE0FBA3E475F00112D9
:1096E10049BCA9F0FA1248C5F5FA90DEBCE0FBA32B
:1096F100E475F0011249BCA9F0FA1248C5F5FB90D6
:10970100DEBCE0FBA3E475F0011249BCA9F0FA123A
:1097110048C5F5FC90DEBCE0FBA3E475F0011249FD
:10972100BCA9F0FA1248C5F5FDD2FE30FE9980FBC6
:1097310090DEC5E07002A3E0603275F88C90DEBC6B
:10974100E0FBA3E475F0011249BCA9F0FA1248C587
:10975100F5FA90DEBCE0FBA3E475F0011249BCA967
:10976100F0FA1248C5F5FBD2FE20FEFDE4F5F8D271
:01977100AF48
:0197720022D4
:10CF6C00EF4E6010E4FD0DEDC3943240F9EF1F70ED
:04CF7C00EF1E80EC38
:01CF8000228E
:08BCF20090DCE0EEF0A3EFF09E
:10BCFA00A3745AF0A37401F090DCE0E0FCA3E0FD29
:10BD0A00EC90DCE4F0A3EDF07B017ADC79E290DEE2
:10BD1A00BFE4F0A37402F07F847E001295E07FF402
:10BD2A007E0112CF6C7B017ADC79E290DEBEE4F010
:10BD3A00A37402F07F147E00128F3E90DCE0E0FED6
:10BD4A00A3E0FFA3E0B506D6A3E0B507D1E490DCF3
:10BD5A00E2F0A3F0A3F0A3F07B017ADC79E290DEB3
:0DBD6A00BFF0A37402F07F167E000295E08A
:08C8CC0090DDAAEEF0A3EFF0ED
:10C8D400E4A3F0A3F090DDAAE0FEA3E0FFC390DDA3
:10C8E400ADE09F90DDACE09E5025E4FBFA7F017E35
:10C8F4000012CF6C0BBB00010ABA01F1BB2CEE9005
:0FC90400DDADE004F070CE90DDACE004F080C655
:01C913002201
:10C91400EF14601814602314602E24037039A805E2
:10C924007401088002C333D8FC42B722A8057401FD
:10C93400088002C333D8FC42BC22A80574010880D5
:10C9440002C333D8FC42BD22AF05A8077401088096
:08C9540002C333D8FC42BE22ED
:10C7EC00EF1460191460251460312403703DA80502
:10C7FC007401088002C333D8FCF452B722A8057424
:10C80C0001088002C333D8FCF452BC22A805740181
:10C81C00088002C333D8FCF452BD22AF05A80774BC
:0CC82C0001088002C333D8FCF452BE2285
:10B99E00EF14602D14604A1460672403600302BA2A
:10B9AE0030EB600EA8057401088002C333D8FC4248
:10B9BE008022A8057401088002C333D8FCF452809B
:10B9CE0022EB600EA8057401088002C333D8FC4236
:10B9DE009022A8057401088002C333D8FCF452905B
:10B9EE0022EB600EA8057401088002C333D8FC4216
:10B9FE00A022A8057401088002C333D8FCF452A01B
:10BA0E0022EB600EA8057401088002C333D8FC42F5
:10BA1E00B022AF05A8077401088002C333D8FCF426
:03BA2E0052B022F1
:10C5B000EF14601A14602714603424037042A80535
:10C5C0007401088002C333D8FC5580FE8034A8056E
:10C5D0007401088002C333D8FC5590FE8024A8055E
:10C5E0007401088002C333D8FC55A0FE8014AF0547
:10C5F000A8077401088002C333D8FC55B0FE80023E
:04C60000E4FEAF069F
:01C604002213
:10CE3200758911E4F58CF58AC28CF518F51A4389C7
:0CCE420001758CBC758ACDD2A9D28C225F
:03000B0002BEE64C
:0DBEE600C0E0C0D075D000C000C006C0078D
:10BEF300C2AF758CBC758ACD05197527007E007499
:10BF030001A827088005C333CE33CED8F9FFEF55F8
:10BF13001A602DE52725E02408F808E616187001B5
:10BF230016E52725E02408F8E6FE08E64E7011AF73
:10BF330027A80704088002C333D8FC4218F4521A16
:09BF43000527E527B408B6D2AFCA
:0BBF4C00D007D006D000D0D0D0E032EB
:10CF5400758911E4F58DF58BC28E438910758DBCEE
:08CF6400758BCDD2ABD28E22F9
:03001B0002D028E8
:0DD02800C2AF758DBC758BCDB290D2AF320A
:10CFAB0075C8F075CD58E4F5CC75CB58F5CA43C8A8
:04CFBB0001D2AD22D0
:03002B0002D03FC1
:09D03F00C2AFC2C6B291D2AF32F9
:10CD7400C2AFA8077401088002C333D8FCFE421A6C
:10CD8400EF25E02408F8A60408A605EEF45218D20C
:02CD9400AF22CC
:10CF8100C2AFA8077401088002C333D8FCF4521A57
:05CF91005218D2AF228E
:10CFD300C2AFA8077401088002C333D8FC5518FFF9
:02CFE300D2AFCB
:01CFE5002229
:10C75100AB07AA06A905A8047F007E387D317C00BD
:10C76100124AE1C3E49F90DCB6F074049E90DCB5FC
:10C77100F043C9407D04E4FF12C9147D05E4FF12B2
:10C78100C7EC43803075D88075985090DCB5E0FCDB
:0DC79100A3E0FDECF5BA8DAA43A810D2ACD0
:01C79E002278
:10C88300AB07AA06A905A8047F007E707D627C0021
:10C89300124AE1C3E49F90DCB6F074049E90DCB5C9
:10C8A300F043C9207D06E4FF12C9147D07E4FF129B
:10C8B300C7EC4380C0759B9090DCB5E0FCA3E0FD22
:08C8C300ECF5BB8D9D439A01C9
:01C8CB00224A
:10CC78007596C07597C0AB07AA06A905A8047F00DA
:10CC88007EC07D897C01124AE1AD07AC06ECF5D97E
:0FCC9800AF058FE743B80CE4FDFF12C914C2804B
:01CCA700226A
:10CD000075A78075AB80AB07AA06A905A8047F00AC
:10CD10007EC07D897C01124AE1AD07AC06ECF5AE20
:07CD2000AF058FAF43B830EF
:01CD270022E9
:10C65A00EF14601B1460291460372403704490DCC3
:10C66A00B1E0FCA3E0FDA3E0FEA3E0FF02C7519006
:10C67A00DCB1E0FCA3E0FDA3E0FEA3E0FF02C88377
:10C68A0090DCB1E0FCA3E0FDA3E0FEA3E0FF02CC56
:10C69A007890DCB1E0FCA3E0FDA3E0FEA3E0FF128A
:03C6AA00CD00229E
:108D7D0090DEB1EFF0A3ECF0A3EDF0A3EBF0A3EADE
:048D8D00F0A3E9F076
:108D9100C2AFE4A3F0A3F090DEB2E0FEA3E0FFC314
:108DA10090DEB8E09F90DEB7E09E4003028E5590C2
:108DB100DEB4E0FBA3E475F0011249BCA9F0FA129C
:108DC10048C5FF90DEB1E0FE75F009A424F5F582F7
:108DD100E5F034B3F583EE75F008A42583F583E05F
:108DE100FCA3E0FD75F009EEA424F5F582E5F0346D
:108DF100ABF583EE75F008A42583F583E5822DF5A7
:108E010082E5833CF583EFF075F009EEA424F5F5D6
:108E110082E5F034B3F583EE75F008A42583F5837C
:108E2100E475F0011249A675F009EEA424F5F58266
:108E3100E5F034B3F583EE75F008A42583F583E0FE
:108E41005403F090DEB8E004F0700690DEB7E00461
:108E5100F0028D9890DEB1E01460421460701470DD
:108E610003028F0B24036003028F3B90B3FDE0608C
:108E710003028F3B04F090B3F7E0FEA3E024F5F585
:108E81008274AB3EF583E0F59990B3F8E004F0709D
:108E91000690B3F7E004F090B3F7028F3790BC0669
:108EA100E06003028F3B04F090BC00E0FEA3E024ED
:108EB100FEF58274B33EF583E0F59C90BC01E004BD
:108EC100F0700690BC00E004F090BC00806890C493
:108ED1000FE07066D28004F090C409E0FEA3E024A4
:108EE10007F58274BC3EF583E0FF30D0055396DF71
:108EF10080034396208F9E90C40AE004F070069090
:108F0100C409E004F090C409802C90CC18E0702AC8
:108F110004F090CC12E0FEA3E02410F58274C43E6C
:108F2100F583E0F5AC90CC13E004F0700690CC1220
:0C8F3100E004F090CC12E05403F0D2AF4A
:018F3D002211
:0300230002BB51CC
:10BB5100C0E0C083C082C0D075D000C006C007C29B
:10BB6100AF30982AC29890B3F9E0FEA3E024F5F52E
:10BB71008274AF3EF583E599F090B3FAE004F0707A
:10BB81000690B3F9E004F090B3F9E05403F0309972
:10BB91003FC29990B3F7E0FEA3E0FF90B3F5E06EEA
:10BBA1007003A3E06F602474F52FF58274AB3EF54A
:10BBB10083E0F59990B3F8E004F0700690B3F7E0F4
:10BBC10004F090B3F7E05403F0800590B3FDE4F086
:0FBBD100D2AFD007D006D0D0D082D083D0E03210
:0300530002C037B1
:10C03700C0E0C083C082C0D075D000C006C007C2B0
:10C04700AF5396FE90C409E0FEA3E0FF90C407E05B
:10C057006E7003A3E06F603074072FF58274BC3EE7
:10C06700F583E0FF30D0055396DF80034396208F9A
:10C077009E90C40AE004F0700690C409E004F090B2
:10C08700C409E05403F0800790C40FE4F0C280D2E3
:0EC09700AFD007D006D0D0D082D083D0E03218
:03005B0002C3835A
:10C38300C0E0C083C082C0D075D000C006C007C261
:10C39300AF5397FEE59FE59770047F0180027F000E
:10C3A300EF5420FFA2D0E433B5072890C40BE0FE7E
:10C3B300A3E02407F58274C03EF583E59FF090C4A3
:10C3C3000CE004F0700690C40BE004F090C40BE0A2
:10C3D3005403F0D2AFD007D006D0D0D082D083D0D0
:02C3E300E03246
:0300630002C3E5F0
:10C3E500C0E0C083C082C0D075D000C006C007C2FF
:10C3F500AF53A7FE90CC12E0FEA3E0FF90CC10E077
:10C405006E7003A3E06F602474102FF58274C43E30
:10C41500F583E0F5AC90CC13E004F0700690CC12F7
:10C42500E004F090CC12E05403F0800590CC18E4C1
:10C43500F0D2AFD007D006D0D0D082D083D0E032B2
:03006B0002C9ECDB
:10C9EC00C0E0C083C082C0D075D000C006C2AF53B7
:10C9FC00ABFE90CC14E0FEA3E02410F58274C83E8C
:10CA0C00F583E5ADF090CC15E004F0700690CC14F5
:10CA1C00E004F090CC14E05403F0D2AFD006D0D0A8
:07CA2C00D082D083D0E0327C
:0300830002B903BC
:10B90300C0E0C083C082C0D075D000C006C007C2EB
:10B91300AFE59B30E02E759B90539BFE90BC02E0FD
:10B92300FEA3E024FEF58274B73EF583E59CF09018
:10B93300BC03E004F0700690BC02E004F090BC028B
:10B94300E05403F0E59B30E143759B90539BFD90DE
:10B95300BC00E0FEA3E0FF90BBFEE06E7003A3E03B
:10B963006F602474FE2FF58274B33EF583E0F59C7B
:10B9730090BC01E004F0700690BC00E004F090BCC1
:10B9830000E05403F0800590BC06E4F0D2AFD0078A
:0BB99300D006D0D0D082D083D0E032AC
:10CC460090DCB07403F0A374C8F043C9207D06E4F9
:10CC5600FF12C9147D07E4FF12C7EC4380C0759B21
:10CC66009090DCB0E0FCA3E0FDECF5BB8D9D759CDF
:01CC76000DB0
:01CC7700229A
:10CEBC0090DDC9EFF07B017ADD79C97D017C00E45E
:0ACECC00FF128D7D90DDC9E0FF220A
:10CFBF009000011248DEFE54F0C4540FFFEE540FE0
:04CFCF00FD02C91482
:08CEF000EBF0A3EAF0A3E9F066
:10CEF8001248C5FE54F0C4540FFFEE540FFD02C78C
:01CF0800EC3C
:08CF0900E0FBA3E0FAA3E0F94C
:10CF11001248C5FE54F0C4540FFFEE540FFD02C970
:01CF210014FB
:08CF2200E0FBA3E0FAA3E0F933
:10CF2A001248C5FE54F0C4540FFFEE540FFD02C55B
:01CF3A00B046
:08CE8600E0FBA3E0FAA3E0F9D0
:10CE8E001248C5FE54F0C4540FFFEE540FFD7B0143
:03CE9E0002B99E38
:08CEA100E0FBA3E0FAA3E0F9B5
:10CEA9001248C5FE54F0C4540FFFEE540FFDE4FBC5
:03CEB90002B99E1D
:08CDF600E0FBA3E0FAA3E0F961
:10CDFE009000011248DEFE54F0C4540FFFEE540FA3
:06CE0E00FD7B0102B99E4C
:08CE1400E0FBA3E0FAA3E0F942
:10CE1C009000011248DEFE54F0C4540FFFEE540F84
:06CE2C00FDE4FB02B99ECB
:10CAFD0090DCD6EBF0A3EAF0A3E9F090DCD612CFF0
:10CB0D000990DCD612CE8690DCD612CDF67F0F7E44
:10CB1D000012CF6C90DCD612CEA17F0F7E0012CF0B
:0ECB2D006C90DCD612CE147F0F7E0002CF6C0F
:10CABE0090DCD6EBF0A3EAF0A3E9F090DCD612CF2F
:10CACE000990DCD612CEA190DCD612CDF67F0F7E69
:10CADE000012CF6C90DCD612CE867F0F7E0012CF66
:0FCAEE006C90DCD6E0FBA3E0FAA3E0F902CEF8EF
:10CB3B0090DCD6EBF0A3EAF0A3E9F090DCD612CFB1
:10CB4B000990DCD612CEA17F057E0012CF6C90DC53
:10CB5B00D612CDF67F057E0012CF6C90DCD612CEAE
:08CB6B00147F057E0002CF6C6F
:10CB730090DCD6EBF0A3EAF0A3E9F090DCD612CF79
:10CB83000990DCD612CE867F057E0012CF6C90DC36
:10CB9300D612CDF67F057E0012CF6C90DCD612CE76
:08CBA300147F057E0002CF6C37
:03C4A50090DCDB4D
:10C4A80012CEF090DCDB12CE867F057E0012CF6CB8
:10C4B80090DCDB12CDF67F057E0012CF6CE490DCB9
:10C4C800DEF090DCDB12CF22EF60137F057E0012D6
:10C4D800CF6C90DCDEE004F0E0C3943240E490DC02
:10C4E800DB12CE147F057E0012CF6C90DCDBE0FB04
:09C4F800A3E0FAA3E0F902CF1160
:0EC2BA0090DCD6EFF0A3EBF0A3EAF0A3E9F0DE
:10C2C80012CF11E490DCDAF090DCD6E030E706A378
:10C2D80012CE86800690DCD712CEA190DCD6E0255F
:10C2E800E0F07F057E0012CF6C90DCD712CDF67F90
:10C2F800057E0012CF6C90DCD712CE1490DCDAE009
:10C3080004F0E0C36480948840BE90DCD7E0FBA3CF
:08C31800E0FAA3E0F902C4A55C
:03C6050090DCD6F0
:10C6080012CEF0E490DCD9F07F057E0012CF6C905A
:10C61800DCD612CDF67F057E0012CF6C90DCDAE016
:10C62800FF25E0F090DCD612CF22EF90DCDA60062E
:10C63800E04401F08004E054FEF090DCD612CE1401
:10C6480090DCD9E004F0E0C3940840BC90DCDAE068
:01C65800FFE2
:01C6590022BE
:0ED01A0053797374656D2073746172740A002B
:10C1130012CE321278B912CC4690DCB1124BB90070
:10C123000025807F0212C65A90DCB1124BB9000180
:10C13300C200E4FF12C65AD2AF127FB01212BB1272
:10C14300A0D112C17F7DC87C00E4FF12CD747BFFB8
:10C153007AD0791A12706912BA3112CCD6E4FF126E
:10C16300CFD3EF6012129F8B12D0481230C87DC814
:0CC173007C00E4FF12CD7412736380DBCB
:1012BB00E490DCC4F0A3F090DCC4E0FEA3E0FF906C
:1012CB00D4D775F00F124BEAEE75F00FA42583F50A
:1012DB00837461F090D4D875F00FEF124BEAEE7572
:1012EB00F00FA42583F583E4F090D4D975F00FEFBC
:1012FB00124BEAEE75F00FA42583F583E4F090D43E
:10130B00DA75F00FEF124BEAEE75F00FA42583F5AB
:10131B00837403F090D4DB75F00FEF124BEAEE758C
:10132B00F00FA42583F5837412F090D4DC75F00FC5
:10133B00EF124BEAEE75F00FA42583F583E4F090E2
:10134B00D4DD75F00FEF124BEAEE75F00FA4258389
:10135B00F5837403F0A374E8F090D4DF75F00FEF0E
:10136B00124BEAEE75F00FA42583F583E4F0A3F09E
:10137B0090D4E175F00FEF124BEAEE75F00FA42548
:10138B0083F583E4F0A3F090D4E375F00FEF124BE9
:10139B00EAEE75F00FA42583F5837401F0A374D8DE
:1013AB00F0A374E2F090DCC5E004F0700690DCC4AE
:0313BB00E004F05B
:1013BE00E490DCC6F0A3F090DFECE0FEA3E0FF903B
:1013CE00DCC6E0FCA3E0FDC39FEC9E400302156368
:1013DE0090DCC4E0FEA3E0FFC39440EE9400400313
:1013EE00021552ED4C701890D4D775F00FEF124BCA
:1013FE00EAEE75F00FA42583F5837460F08028C3A0
:10140E00ED9401EC9400401FED2461FF90DCC4E0EC
:10141E00FCA3E090D4D775F00F124BEAEC75F00FE9
:10142E00A42583F583EFF090DCC4E0FEA3E0FF90EB
:10143E00D4D875F00F124BEAEE75F00FA42583F594
:10144E0083E4F090D4D975F00FEF124BEAEE75F0FD
:10145E000FA42583F583E4F090D4DA75F00FEF1224
:10146E004BEAEE75F00FA42583F5837403F090D448
:10147E00DB75F00FEF124BEAEE75F00FA42583F536
:10148E00837421F090D4DC75F00FEF124BEAEE75F9
:10149E00F00FA42583F583E4F090D4DD75F00FEF03
:1014AE00124BEAEE75F00FA42583F5837403F0A3B7
:1014BE0074E8F090DCC6E0FAA3E0FB7C007D23FF2D
:1014CE00AE0212493FEF2430FFE43EFE90DCC4E052
:1014DE00FCA3E0FD90D4DF75F00F124BEAEC75F033
:1014EE000FA42583F583EEF0A3EFF090D4E175F011
:1014FE000FED124BEAEC75F00FA42583F583E4F0A3
:10150E00A3F0FC7D42AF03AE0212493F740A2FF9DD
:10151E0074D93EFA90DCC4E0FEA3E090D4E375F0FB
:10152E000F124BEAEE75F00FA42583F5837401F0CC
:10153E00A3EAF0A3E9F090DCC5E004F0700690DCBD
:10154E00C4E004F090DCC7E004F0700690DCC6E066
:05155E0004F00213C5BA
:10156300E490DCC6F0A3F090DF98E0FCA3E0FD90EC
:10157300DCC6E0FEA3E0FFC39DEE9C40030216D34E
:10158300C390DCC5E0944090DCC4E09400400302C7
:1015930016C2EF24A0FDE0FAA3E0FB90D4D775F0C8
:1015A3000F124BEAEA75F00FA42583F583EDF09053
:1015B300D4D875F00FEB124BEAEA75F00FA425832C
:1015C300F583E4F090D4D975F00FEB124BEAEA758A
:1015D300F00FA42583F583E4F090D4DA75F00FEBD4
:1015E300124BEAEA75F00FA42583F5837403F09098
:1015F300D4DB75F00FEB124BEAEA75F00FA42583E9
:10160300F5837403F090D4DC75F00FEB124BEAEA28
:1016130075F00FA42583F583E4F090D4DD75F00F06
:10162300EB124BEAEA75F00FA42583F5837403F0FC
:10163300A374E8F07C007D0512493FE42FFFEE34EC
:1016430002FE90DCC4E0FCA3E0FD90D4DF75F00F54
:10165300124BEAEC75F00FA42583F583EEF0A3EFAC
:10166300F090D4E175F00FED124BEAEC75F00FA496
:101673002583F583E4F0A3F090DCC6E0FEA3E0FF4E
:101683007C007D0612493F74CA2FF974D83EFA9044
:10169300DCC4E0FEA3E090D4E375F00F124BEAEE56
:1016A30075F00FA42583F5837401F0A3EAF0A3E991
:1016B300F090DCC5E004F0700690DCC4E004F09028
:1016C300DCC7E004F0700690DCC6E004F002156AA3
:0D16D30090DF28E07002A3E0600302184FD2
:1016E00090DCC6F0A3F090DF48E0FCA3E0FD90DCC6
:1016F000C6E0FEA3E0FFC39DEE9C40030219CDC3EC
:1017000090DCC5E0944090DCC4E0940040030218F3
:101710003EEF2470FDE0FAA3E0FB90D4D775F00F04
:10172000124BEAEA75F00FA42583F583EDF090D40F
:10173000D875F00FEB124BEAEA75F00FA42583F58C
:1017400083E4F090D4D975F00FEB124BEAEA75F010
:101750000FA42583F583E4F090D4DA75F00FEB1233
:101760004BEAEA75F00FA42583F5837403F090D457
:10177000DB75F00FEB124BEAEA75F00FA42583F549
:10178000837419F090D4DC75F00FEB124BEAEA7514
:10179000F00FA42583F583E4F090D4DD75F00FEB12
:1017A000124BEAEA75F00FA42583F5837403F0A3C6
:1017B00074E8F07C007D1912493FE42FFFEE3403FA
:1017C000FE90DCC4E0FCA3E0FD90D4DF75F00F12C6
:1017D0004BEAEC75F00FA42583F583EEF0A3EFF050
:1017E00090D4E175F00FED124BEAEC75F00FA425E3
:1017F00083F583E4F0A3F090DCC6E0FEA3E0FF7C79
:10180000007D3212493F748E2FF974D93EFA90DC74
:10181000C4E0FEA3E090D4E375F00F124BEAEE753E
:10182000F00FA42583F5837401F0A3EAF0A3E9F097
:1018300090DCC5E004F0700690DCC4E004F090DCBD
:0F184000C7E004F0700690DCC6E004F00216E684
:0F184F0090DF28E07004A3E0640160030219CD6C
:10185E0090DCC6F0A3F090DF68E0FCA3E0FD90DC26
:10186E00C6E0FEA3E0FFC39DEE9C40030219CDC36C
:10187E0090DCC5E0944090DCC4E094004003021973
:10188E00BCEF2470FDE0FAA3E0FB90D4D775F00F07
:10189E00124BEAEA75F00FA42583F583EDF090D490
:1018AE00D875F00FEB124BEAEA75F00FA42583F50D
:1018BE0083E4F090D4D975F00FEB124BEAEA75F091
:1018CE000FA42583F583E4F090D4DA75F00FEB12B4
:1018DE004BEAEA75F00FA42583F5837403F090D4D8
:1018EE00DB75F00FEB124BEAEA75F00FA42583F5CA
:1018FE00837437F090D4DC75F00FEB124BEAEA7577
:10190E00F00FA42583F583E4F090D4DD75F00FEB92
:10191E00124BEAEA75F00FA42583F5837403F0A346
:10192E0074E8F07C007D3712493FE42FFFEE34045B
:10193E00FE90DCC4E0FCA3E0FD90D4DF75F00F1246
:10194E004BEAEC75F00FA42583F583EEF0A3EFF0D0
:10195E0090D4E175F00FED124BEAEC75F00FA42563
:10196E0083F583E4F0A3F090DCC6E0FEA3E0FF7CF9
:10197E00007D6E12493F74882FF974DA3EFA90DCBE
:10198E00C4E0FEA3E090D4E375F00F124BEAEE75BF
:10199E00F00FA42583F5837401F0A3EAF0A3E9F018
:1019AE0090DCC5E004F0700690DCC4E004F090DC3E
:0F19BE00C7E004F0700690DCC6E004F002186485
:1019CD00E490DCC6F0A3F090DFC0E0FCA3E0FD9056
:1019DD00DCC6E0FEA3E0FFC39DEE9C4003021B3C72
:1019ED00C390DCC5E0944090DCC4E0940040030259
:1019FD001B2BEF2490FDE0FAA3E0FB90D4D775F0FC
:101A0D000F124BEAEA75F00FA42583F583EDF090E4
:101A1D00D4D875F00FEB124BEAEA75F00FA42583BD
:101A2D00F583E4F090D4D975F00FEB124BEAEA751B
:101A3D00F00FA42583F583E4F090D4DA75F00FEB65
:101A4D00124BEAEA75F00FA42583F5837403F09029
:101A5D00D4DB75F00FEB124BEAEA75F00FA425837A
:101A6D00F5837407F090D4DC75F00FEB124BEAEAB6
:101A7D0075F00FA42583F583E4F090D4DD75F00F98
:101A8D00EB124BEAEA75F00FA42583F5837403F08E
:101A9D00A374E8F07C007D0312493FE42FFFEE3480
:101AAD0006FE90DCC4E0FCA3E0FD90D4DF75F00FE2
:101ABD00124BEAEC75F00FA42583F583EEF0A3EF3E
:101ACD00F090D4E175F00FED124BEAEC75F00FA428
:101ADD002583F583E4F0A3F090DCC7E0C4F8540F40
:101AED00C868FF90DCC6E0C454F048FE74642FF95A
:101AFD0074DB3EFA90D4E375F00FED124BEAEC7502
:101B0D00F00FA42583F5837401F0A3EAF0A3E9F0A7
:101B1D0090DCC5E004F0700690DCC4E004F090DCCD
:0F1B2D00C7E004F0700690DCC6E004F00219D4A3
:101B3C00E490DCC6F0A3F090DF7EE0FCA3E0FD9027
:101B4C00DCC6E0FEA3E0FFC39DEE9C4003021DF942
:101B5C00C390DCC5E0944090DCC4E09400400302E8
:101B6C001DE890DF7CE07002A3E06003021CA8EF8C
:101B7C0024D0FD90DCC4E0FAA3E0FB90D4D775F040
:101B8C000F124BEAEA75F00FA42583F583EDF09064
:101B9C00D4D875F00FEB124BEAEA75F00FA425833D
:101BAC00F583E4F090D4D975F00FEB124BEAEA759B
:101BBC00F00FA42583F583E4F090D4DA75F00FEBE5
:101BCC00124BEAEA75F00FA42583F5837403F090A9
:101BDC00D4DB75F00FEB124BEAEA75F00FA42583FA
:101BEC00F5837401F090D4DC75F00FEB124BEAEA3C
:101BFC0075F00FA42583F583E4F090D4DD75F00F18
:101C0C00EB124BEAEA75F00FA42583F5837403F00D
:101C1C00A374E8F07C007D0A12493FE42FFFEE34F8
:101C2C0007FE90DCC4E0FCA3E0FD90D4DF75F00F60
:101C3C00124BEAEC75F00FA42583F583EEF0A3EFBD
:101C4C00F090D4E175F00FED124BEAEC75F00FA4A7
:101C5C002583F583E4F0A37402F090DCC7E025E063
:101C6C00FF90DCC6E033FE74062FF974D93EFA906F
:101C7C00D4E375F00FED124BEAEC75F00FA425834D
:101C8C00F5837401F0A3EAF0A3E9F090DCC5E0045D
:101C9C00F0700690DCC4E004F0021DE890DF7CE0FC
:101CAC007004A3E064016003021DE890DCC6E0FE52
:101CBC00A3E0FF24D0FD90DCC4E0FAA3E0FB90D4B9
:101CCC00D775F00F124BEAEA75F00FA42583F58354
:101CDC00EDF090D4D875F00FEB124BEAEA75F00FDB
:101CEC00A42583F583E4F090D4D975F00FEB124B57
:101CFC00EAEA75F00FA42583F583E4F090D4DA7545
:101D0C00F00FEB124BEAEA75F00FA42583F5837400
:101D1C0003F090D4DB75F00FEB124BEAEA75F00F81
:101D2C00A42583F5837402F090D4DC75F00FEB12CC
:101D3C004BEAEA75F00FA42583F583E4F090D4DD2B
:101D4C0075F00FEB124BEAEA75F00FA42583F583BF
:101D5C007403F0A374E8F07C007D0A12493FE42F71
:101D6C00FFEE3407FE90DCC4E0FCA3E0FD90D4DF72
:101D7C0075F00F124BEAEC75F00FA42583F583EE8A
:101D8C00F0A3EFF090D4E175F00FED124BEAEC7587
:101D9C00F00FA42583F583E4F0A3F090DCC6E0FEFD
:101DAC00A3E07802C333CE33CED8F924A8F974DC7F
:101DBC003EFA90D4E375F00FED124BEAEC75F00F90
:101DCC00A42583F5837401F0A3EAF0A3E9F090DC79
:101DDC00C5E004F0700690DCC4E004F090DCC7E0D1
:0D1DEC0004F0700690DCC6E004F0021B431A
:101DF900E490DCC6F0A3F090DECEE0FEA3E0FF9015
:101E0900DCC6E0FAA3E0FBC39FEA9E4003021F621F
:101E190090DCC4E0FCA3E0FDC39440EC94004003D3
:101E2900021F51EB04FF90D4D775F00FED124BEA66
:101E3900EC75F00FA42583F583EFF090D4D875F0F5
:101E49000FED124BEAEC75F00FA42583F583E4F04E
:101E590090D4D975F00FED124BEAEC75F00FA4256B
:101E690083F583E4F090D4DA75F00FED124BEAECC8
:101E790075F00FA42583F5837403F090D4DB75F016
:101E89000FED124BEAEC75F00FA42583F583740866
:101E9900F090D4DC75F00FED124BEAEC75F00FA45D
:101EA9002583F583E4F090D4DD75F00FED124BEA4C
:101EB900EC75F00FA42583F5837403F0A374E8F09F
:101EC900AE02EB7803C333CE33CED8F92400FFEE4C
:101ED9003408FE90D4DF75F00FED124BEAEC75F083
:101EE9000FA42583F583EEF0A3EFF090D4E175F00C
:101EF9000FED124BEAEC75F00FA42583F583E4F09E
:101F0900A3F090DCC7E0C4F8540FC868FF90DCC6A2
:101F1900E0C454F048FE74F82FF974DB3EFA90D40B
:101F2900E375F00FED124BEAEC75F00FA42583F57C
:101F3900837401F0A3EAF0A3E9F090DCC5E004F0B2
:101F4900700690DCC4E004F090DCC7E004F0700691
:091F590090DCC6E004F0021E0059
:101F6200E490DCC6F0A3F090DFC8E0FCA3E0FD90B3
:101F7200DCC6E0FEA3E0FFC39DEE9C40030220D23C
:101F8200C390DCC5E0944090DCC4E09400400302BE
:101F920020C1EF241AFDE0FAA3E0FB90D4D775F03C
:101FA2000F124BEAEA75F00FA42583F583EDF0904A
:101FB200D4D875F00FEB124BEAEA75F00FA4258323
:101FC200F583E4F090D4D975F00FEB124BEAEA7581
:101FD200F00FA42583F583E4F090D4DA75F00FEBCB
:101FE200124BEAEA75F00FA42583F5837403F0908F
:101FF200D4DB75F00FEB124BEAEA75F00FA42583E0
:10200200F583740BF090D4DC75F00FEB124BEAEA17
:1020120075F00FA42583F583E4F090D4DD75F00FFD
:10202200EB124BEAEA75F00FA42583F5837403F0F3
:10203200A374E8F07C007D1E12493FE42FFFEE34CA
:1020420009FE90DCC4E0FCA3E0FD90D4DF75F00F44
:10205200124BEAEC75F00FA42583F583EEF0A3EFA3
:10206200F090D4E175F00FED124BEAEC75F00FA48D
:102072002583F583E4F0A3F090DCC6E0FEA3E0FF45
:102082007C007D1812493F74782FF974DC3EFA9077
:10209200DCC4E0FEA3E090D4E375F00F124BEAEE4D
:1020A20075F00FA42583F5837401F0A3EAF0A3E988
:1020B200F090DCC5E004F0700690DCC4E004F0901F
:1020C200DCC7E004F0700690DCC6E004F0021F6991
:1020D200E490DCC6F0A3F090DFC8E0FCA3E0FD9042
:1020E200DCC6E0FEA3E0FFC39DEE9C400302224457
:1020F200C390DCC5E0944090DCC4E094004003024D
:102102002233EF241AFDE0FAA3E0FB90D4D775F056
:102112000F124BEAEA75F00FA42583F583EDF090D8
:10212200D4D875F00FEB124BEAEA75F00FA42583B1
:10213200F583E4F090D4D975F00FEB124BEAEA750F
:10214200F00FA42583F583E4F090D4DA75F00FEB59
:10215200124BEAEA75F00FA42583F5837402F0901E
:10216200D4DB75F00FEB124BEAEA75F00FA425836E
:10217200F5837410F090D4DC75F00FEB124BEAEAA1
:1021820075F00FA42583F583E4F090D4DD75F00F8C
:10219200EB124BEAEA75F00FA42583F5837403F082
:1021A200A374E8F07C007D1412493FE42FFFEE3463
:1021B2000AFE90DCC4E0FCA3E0FD90D4DF75F00FD2
:1021C200124BEAEC75F00FA42583F583EEF0A3EF32
:1021D200F090D4E175F00FED124BEAEC75F00FA41C
:1021E2002583F5837403F0A3E4F090DCC6E0FEA33C
:1021F200E0FF7C007D1812493F748E2FF974DC3E9B
:10220200FA90DCC4E0FEA3E090D4E375F00F124B29
:10221200EAEE75F00FA42583F5837401F0A3EAF0CA
:10222200A3E9F090DCC5E004F0700690DCC4E004A1
:10223200F090DCC7E004F0700690DCC6E004F00227
:0222420020D9A1
:10224400E490DCC6F0A3F090DFCAE0FCA3E0FD90CC
:10225400DCC6E0FEA3E0FFC39DEE9C40030223B571
:10226400C390DCC5E0944090DCC4E09400400302D9
:1022740023A4EF2480FDE0FAA3E0FB90D4D775F00B
:102284000F124BEAEA75F00FA42583F583EDF09065
:10229400D4D875F00FEB124BEAEA75F00FA425833E
:1022A400F583E4F090D4D975F00FEB124BEAEA759C
:1022B400F00FA42583F583E4F090D4DA75F00FEBE6
:1022C400124BEAEA75F00FA42583F5837403F090AA
:1022D400D4DB75F00FEB124BEAEA75F00FA42583FB
:1022E400F5837415F090D4DC75F00FEB124BEAEA29
:1022F40075F00FA42583F583E4F090D4DD75F00F19
:10230400EB124BEAEA75F00FA42583F5837403F00E
:10231400A374E8F07C007D1E12493FE42FFFEE34E5
:102324000BFE90DCC4E0FCA3E0FD90D4DF75F00F5D
:10233400124BEAEC75F00FA42583F583EEF0A3EFBE
:10234400F090D4E175F00FED124BEAEC75F00FA4A8
:102354002583F583E4F0A304F090DCC6E0FEA3E05B
:10236400FF7C007D2A12493F74A42FF974DB3EFAE6
:1023740090DCC4E0FEA3E090D4E375F00F124BEAC6
:10238400EE75F00FA42583F5837401F0A3EAF0A39E
:10239400E9F090DCC5E004F0700690DCC4E004F0E1
:1023A40090DCC7E004F0700690DCC6E004F0022282
:0123B4004BDD
:0923B50090DCC4A3E090D898F07C
:0123BE0022FC
:1098D70055AA5AA500FF840E000000FF8829000042
:1098E7000000000000000000000000000000000071
:1098F700000000000000FFAD59FFAAD100000000E2
:109907000000000000000000000000FF763E00009D
:1099170000000000000000FFA61400000000000087
:10992700000000FFA715000000000000FF6BF50016
:109937000000000000000000FFA815000000FFAFB6
:10994700DA000000000000000000FF5BC800000014
:10995700000000FFABA9000000FFAE2F00000000D1
:109967000000000000FF944C000000FFAC810000E5
:1099770000FFA9F300000000000000000000000045
:10998700000000000000FF7D7B000000FF560C0078
:1099970000000000000000000000000000000000C0
:1099A70000FF9E40000000FF4F07000000FF89F105
:1099B700000000000000FF3927FFA1F0FFA2F9FF18
:1099C700A402FFA50BFFC1EA000000FFB5320000AB
:1099D70000000000FFBD77FF90FEFF81E1FF8BB71E
:1099E700000000000000000000000000000000FF71
:1099F7009B95000000000000000000000000000030
:109A070000FF92A5000000FF861E00000000000076
:109A1700000000000000000000000000000000003F
:109A27000000000000000000FF9A38FF407B0000A4
:019A3700002E
:1001000041CCAF004FCCC101000005010003E895D0
:100110004000060000004FCCD002000005010003A3
:10012000E8954100060000004FCCDF030000050108
:100130000003E8954200060000004FCCEE040000EA
:1001400005010003E8954300060000004FCCFD05C3
:10015000000005010003E8954400060000004FCDB3
:100160000C06000005010003E895450006000000AC
:100170004FCD1B07000005010003E895460006006F
:1001800000004FCD2A08000005010003E895470054
:100190000600000042D4B9000044D4CA00000000A8
:0501A00042D4CE000076
:10CF3B0090E127ECF0A3EDF07B017AE1792790DE0D
:09CF4B00BFE4F0A304F00295E03C
:10CE4E00E4F5F175F208F5F375F40175F8AF30FC01
:0BCE5E00FDD2FE20FEFDAFFBE4F5F866
:01CE690022A6
:10CDB800E4F5F175F208F5F375F40175F88C30FCBB
:0FCDC800FDE4F5FAF5FBD2FE20FEFDE4F5F822BE
:10840E007B017ADC79B290DEBEE4F0A37402F07FD9
:10841E00007E0F128F3E90DCB2E0645A600302863B
:01842E000D40
:10842F00A3E0FEA3E0FF7B017ADC79B6A3E0FC3387
:10843F0095E090DEBEF0A3CCF0128F3E90DCB3E05F
:10844F00FEA3E08EF0124CA5847B8000849F8001F8
:10845F0084C9800684EF8007854480088563800A7D
:10846F008582800B85A1800C000085C790DCB6E06B
:10847F007004A3E0640160030285C790E074E070AC
:10848F000690E020E060057F020285C27F02802215
:10849F0090DCB6E07004A3E0640160030285C7902E
:1084AF00E074E0700690E020E060057F160285C260
:1084BF007F167E0012CD500285C790DCB6E07004A7
:1084CF00A3E0640160030285C7D390DECFE0940080
:1084DF0090DECEE0940050030285C77F460285C22E
:1084EF0090DCB6E07004A3E0640160030285C790DE
:1084FF00DF28E07002A3E07017D390DF49E094000B
:10850F0090DF48E0940050030285C77F5E0285C26A
:10851F0090DF28E07004A3E0640160030285C7D3F5
:10852F0090DF69E0940090DF68E0940050030285CB
:10853F00C77F5E807E90DCB6E07004A3E0640170BC
:10854F0077D390DF99E0940090DF98E09400406833
:10855F007F48805F90DCB6E07004A3E06401705840
:10856F00D390DFC9E0940090DFC8E0940040497FCA
:10857F0052804090DCB6E07004A3E064017039D300
:10858F0090DFC1E0940090DFC0E09400402A7F5656
:10859F00802190DCB6E07004A3E06401701AD390E0
:1085AF00DFEDE0940090DFECE0940040047F578013
:1085BF00027F3F7E0012BCF27E007F057D007B01B3
:1085CF007ADC79B6124E8290DCB3E0FEA3E0FF7B3B
:1085DF00017ADC79B6A3E0FC3395E090DEBFF0A31F
:1085EF00CCF01295E0E490DCB2F07B017ADC79B24A
:0E85FF0090DEBFF0A304F07F007E0F1295E027
:10860D0090E074E06002E4F090E020E06002E4F0BD
:01861D00223A
:108829007B017ADC79B290DEBEE4F0A37402F07FBA
:10883900007E0F128F3E90DCB2E0645A6003028919
:01884900F03E
:10884A00A3E0FEA3E0FF7B017ADC79B6A3E0FC3368
:10885A0095E090DEBEF0A3CCF0128F3E90DCB3E040
:10886A00FEA3E08EF0124CA58896802088BB80215A
:10887A0088E08022890580238928802489488025E8
:10888A0089688026898C8027000089AA90DCB6E056
:10889A007004A3E0640160030289AA90E074E070A6
:1088AA000690E020E060057F0B0289827F0B028937
:1088BA008890DCB6E07004A3E0640160030289AA30
:1088CA0090E074E0700690E020E060057F23028962
:1088DA00827F2302898890DCB6E07004A3E06401F9
:1088EA0060030289AA90E074E0700690E020E060DC
:1088FA00057F270289827F2702898890DCB6E0708B
:10890A0004A3E0640160030289AA90E074E070069F
:10891A0090E020E060047F2A805E7F2A806090DCFD
:10892A00B6E07004A3E06401707690E074E070062B
:10893A0090E020E060047F2C803E7F2C804090DC19
:10894A00B6E07004A3E06401705690E074E070062B
:10895A0090E020E060047F30801E7F30802090DC31
:10896A00B6E07004A3E06401703690E074E070062B
:10897A0090E020E060067F327E00801C7F327E001D
:10898A00801B90DCB6E07004A3E06401701290E0F2
:10899A0020E07F347E00600512BCF2800312CD50C5
:1089AA007E007F057D007B017ADC79B6124E8290CB
:1089BA00DCB3E0FEA3E0FF7B017ADC79B6A3E0FC3E
:1089CA003395E090DEBFF0A3CCF01295E0E490DCA2
:1089DA00B2F07B017ADC79B290DEBFF0A304F07FBB
:0689EA00007E0F1295E073
:0189F0002264
:10AD59007B017ADC79B290DEBEE4F0A37402F07F65
:10AD6900007E0F128F3E90DCB2E0645A600302AE9F
:01AD79002EAB
:10AD7A00A3E0FEA3E0FF7B017ADC79B6A3E0FC3313
:10AD8A0095E090DEBEF0A3CCF0128F3E90DCB3E0EB
:10AD9A00FEA3E08EF0124CA5ADAA80410000ADE8FA
:10ADAA0090DCB6E07004A3E0640170327B017ADEC5
:10ADBA0079D890DEBEF0A3740CF07F007E90128FDB
:10ADCA003E90DCC87490F0A3E4F0A3F0A3740CF0F6
:10ADDA007F007E017D007C0012B6811212BB7E00CC
:10ADEA007F057D007B017ADC79B6124E8290DCB356
:10ADFA00E0FEA3E0FF7B017ADC79B6A3E0FC3395A1
:10AE0A00E090DEBFF0A3CCF01295E0E490DCB2F063
:10AE1A007B017ADC79B290DEBFF0A304F07F007E7A
:04AE2A000F1295E08E
:01AE2E002201
:10AAD1007B017ADC79B290DEBEE4F0A37402F07FF0
:10AAE100007E0F128F3E90DCB2E0645A600302AB2D
:01AAF100A8BC
:10AAF200A3E0FEA3E0FF7B017ADC79B6A3E0FC339E
:10AB020095E090DEBEF0A3CCF0128F3E90DCB3E075
:10AB1200FEA3E08EF0124CA5AB2280600000AB6277
:10AB220090DCB6E07004A3E0640170347B017ADF4C
:10AB3200790490DEBEF0A37406F07F507E90128FEF
:10AB42003E90DCC87490F0A37450F0A3E4F0A374B8
:10AB520006F07F507E017D007C0012B6811212BB8E
:10AB62007E007F057D007B017ADC79B6124E8290F1
:10AB7200DCB3E0FEA3E0FF7B017ADC79B6A3E0FC64
:10AB82003395E090DEBFF0A3CCF01295E0E490DCC8
:10AB9200B2F07B017ADC79B290DEBFF0A304F07FE1
:06ABA200007E0F1295E099
:01ABA800228A
:10763E007B017ADC79B290DEBEE4F0A37402F07FB7
:10764E00007E0F128F3E90DCB2E0645A6003027728
:01765E00BE6D
:10765F00A3E0FEA3E0FF7B017ADC79B6A3E0FC3365
:10766F0095E090DEBEF0A3CCF0128F3E90DCB3E03D
:10767F00FEA3E08EF0124CA5769F806076E590B168
:10768F00770990B2772D90B3775190B40000777847
:10769F0090DCB6E07004A3E0640160030277787BAE
:1076AF00017ADF791090DEBEF0A3740CF07FA07E1C
:1076BF0090128F3E90DCC87490F0A374A0F0A3E4F6
:1076CF00F0A3740CF07FA07E017D007C0012B681C8
:1076DF001212BB02777890DEDCE07002A3E07B0130
:1076EF007ADC79B690DEBF7008F0A304F07FA1803A
:1076FF0073E4F0A304F07FA5806A90DEDCE07002F3
:10770F00A3E07B017ADC79B690DEBF7008F0A304AA
:10771F00F07FA28007E4F0A304F07FA6804690DEFE
:10772F00DCE07002A3E07B017ADC79B690DEBF70FB
:10773F0008F0A304F07FA38007E4F0A304F07FA771
:10774F00802290DEDCE07002A3E07B017ADC79B668
:10775F0090DEBF7008F0A304F07FA48007E4F0A3CD
:10776F0004F07FA87E901295E07E007F057D007B60
:10777F00017ADC79B6124E8290DCB3E0FEA3E0FF13
:10778F007B017ADC79B6A3E0FC3395E090DEBFF0A5
:10779F00A3CCF01295E0E490DCB2F07B017ADC79B7
:0F77AF00B290DEBFF0A304F07F007E0F1295E0D2
:0A77BE0090DED8E07002A3E07068CE
:1077C80090DCB67490F0A374A1F07B017ADC79B6F2
:1077D80090DEBFE4F0A304F07F007E501295E090A5
:1077E800DCB67490F0A374A2F07B017ADC79B690D1
:1077F800DEBFE4F0A304F07F207E501295E090DC19
:10780800B67490F0A374A3F07B017ADC79B690DEAD
:10781800BFE4F0A304F07F407E501295E090DCB600
:067828007490F0A374A4AB
:0E782E00807290DED8E07004A3E06401707CEC
:10783C0090DCB67490F0A374A5F07B017ADC79B679
:10784C0090DEBFE4F0A304F07F007E501295E09030
:10785C00DCB67490F0A374A6F07B017ADC79B69058
:10786C00DEBFE4F0A304F07F207E501295E090DCA4
:10787C00B67490F0A374A7F07B017ADC79B690DE35
:10788C00BFE4F0A304F07F407E501295E090DCB68C
:10789C007490F0A374A8F07B017ADC79B690DEBF0B
:0C78AC00E4F0A304F07F607E501295E031
:0178B80022AD
:10A614007B017ADC79B290DEBEE4F0A37402F07FB1
:10A62400007E0F128F3E90DCB2E0645A600302A7F2
:01A634001411
:10A63500A3E0FEA3E0FF7B017ADC79B6A3E0FC335F
:10A6450095E090DEBEF0A3CCF0128F3E90DCB3E037
:10A65500FEA3E08EF0124CA5A66D8080A6AD9120DC
:10A66500A6BC91210000A6CE90DCB6E07004A3E064
:10A67500640170557B017ADF79AC90DEBEF0A3747E
:10A6850028F07F007E91128F3E90DCC87491F0A374
:10A69500E4F0A3F0A37428F07F007E027D007C0027
:10A6A50012B6811212BB802190DCB6E07004A3E0E3
:10A6B50064017015FF800E90DCB6E07004A3E064C1
:10A6C5000170067F01FE12BBE07E007F057D007BE9
:10A6D500017ADC79B6124E8290DCB3E0FEA3E0FF8E
:10A6E5007B017ADC79B6A3E0FC3395E090DEBFF020
:10A6F500A3CCF01295E0E490DCB2F07B017ADC7932
:0FA70500B290DEBFF0A304F07F007E0F1295E04C
:01A714002222
:10A715007B017ADC79B290DEBEE4F0A37402F07FAF
:10A72500007E0F128F3E90DCB2E0645A600302A7F0
:01A73500D84B
:10A73600A3E0FEA3E0FF7B017ADC79B6A3E0FC335D
:10A7460095E090DEBEF0A3CCF0128F3E90DCB3E035
:10A75600FEA3E08EF0124CA5A76A9150A77E9152F7
:10A766000000A79290DCB6E07004A3E06401701CC0
:10A776007F1AFE12CD50801490DCB6E07004A3E080
:10A786006401700890E074F090E020F07E007F0590
:10A796007D007B017ADC79B6124E8290DCB3E0FE56
:10A7A600A3E0FF7B017ADC79B6A3E0FC3395E09069
:10A7B600DEBFF0A3CCF01295E0E490DCB2F07B01B2
:10A7C6007ADC79B290DEBFF0A304F07F007E0F1230
:02A7D60095E00C
:10A7D80090E020E0600B90DCB6E4F0A37402F08017
:10A7E8001790E074E0600A90DCB6E4F0A304F0800F
:10A7F80007E490DCB6F0A3F07B017ADC79B690DE52
:0DA80800BFE4F0A304F07F607E910295E0B4
:106BF5007B017ADC79B290DEBEE4F0A37402F07F0B
:106C0500007E0F128F3E90DCB2E0645A6003026F83
:016C15002C52
:106C1600A3E0FEA3E0FF7B017ADC79B6A3E0FC33B8
:106C260095E090DEBEF0A3CCF0128F3E90DCB3E090
:106C3600FEA3E08EF0124CA56C6E80C06CB391B2D0
:106C46006CF091B36D2D91B46D6A91B56DA791B647
:106C56006DE491B76E2191B86E5E91B96E9A91BA54
:106C66006ED691BB00006F1390DCB6E07004A3E013
:106C760064016003026F137B017ADE79D490DEBE75
:106C8600F0A37402F07FA07E91128F3E90DCC87450
:106C960091F0A374A0F0A3E4F0A37402F07F50FE79
:0D6CA6007D007C0012B6811212BB026F133C
:106CB30090CC197461F0E4A3F0A3F0A37406F0A3DD
:106CC3007401F0E4A3F0A37403F0A374E8F0A374D5
:106CD30091F0A374B2F0E4A3F0A3F0F9A3C9F0A375
:0A6CE300F0A3E9F07B017ACC7919E7
:036CED00026F1023
:106CF00090CC287461F0E4A3F0A3F0A37406F0A391
:106D00007401F0E4A3F0A37403F0A374E8F0A37497
:106D100091F0A374B3F0A3E4F0A304F07B00A314F8
:0A6D2000F0A3F0A3F00B7ACC792861
:036D2A00026F10E5
:106D2D0090CC377461F0E4A3F0A3F0A37406F0A344
:106D3D007401F0E4A3F0A37403F0A374E8F0A3745A
:106D4D0091F0A374B4F0A3E4F0A37402F0A3E4F003
:0A6D5D00A3F0A3F07B017ACC793794
:036D6700026F10A8
:106D6A0090CC467461F0E4A3F0A3F0A37406F0A3F8
:106D7A007401F0E4A3F0A37403F0A374E8F0A3741D
:106D8A0091F0A374B5F0A3E4F0A37403F0A3E4F0C4
:0A6D9A00A3F0A3F07B017ACC794648
:036DA400026F106B
:106DA70090CC557461F0E4A3F0A3F0A37406F0A3AC
:106DB7007401F0E4A3F0A37403F0A374E8F0A374E0
:106DC70091F0A374B6F0A3E4F0A37406F0A3E4F083
:0A6DD700A3F0A3F07B017ACC7955FC
:036DE100026F102E
:106DE40090CC647461F0E4A3F0A3F0A37406F0A360
:106DF4007401F0E4A3F0A37403F0A374E8F0A374A3
:106E040091F0A374B7F0A3E4F0A37407F0A3E4F043
:0A6E1400A3F0A3F07B017ACC7964AF
:036E1E00026F10F0
:106E210090CC737461F0E4A3F0A3F0A37406F0A313
:106E31007401F0E4A3F0A37403F0A374E8F0A37465
:106E410091F0A374B8F0A3E4F0A37408F0A3E4F004
:0A6E5100A3F0A3F07B017ACC797363
:036E5B00026F10B3
:106E5E0090CC827461F0E4A3F0A3F0A37406F0A3C7
:106E6E007401F0E4A3F0A37403F0A374E8F0A37428
:106E7E0091F0A374B9F0A3E4F0A37409F0A3E4F0C5
:0A6E8E00A3F0A3F07B017ACC798217
:026E9800807602
:106E9A0090CC917461F0E4A3F0A3F0A37406F0A37C
:106EAA007401F0E4A3F0A37403F0A374E8F0A374EC
:106EBA0091F0A374BAF0A3E4F0A3740AF0A3E4F087
:0A6ECA00A3F0A3F07B017ACC7991CC
:026ED400803A02
:106ED60090CCA07461F0E4A3F0A3F0A37406F0A331
:106EE6007401F0E4A3F0A37403F0A374E8F0A374B0
:106EF60091F0A374BBF0A3E4F0A3740BF0A3E4F049
:0D6F0600A3F0A3F07B017ACC79A012CCA8F7
:106F1300E490DCB2F07B017ADC79B290DEBFF0A3BF
:096F230004F07F007E0F1295E0DE
:106F2C007B017AD879E290DEBFE4F0A304F07FA273
:106F3C007E911295E07B017AD879E490DEBFE4F083
:106F4C00A304F07FA37E911295E07B017AD879E6B9
:106F5C0090DEBFE4F0A304F07FA47E911295E07B59
:106F6C00017AD879E890DEBFE4F0A304F07FA57E27
:106F7C00911295E07B017AD879EE90DEBFE4F0A314
:106F8C0004F07FA67E911295E07B017AD879F0907F
:106F9C00DEBFE4F0A304F07FA77E911295E07B01A5
:106FAC007AD879F290DEBFE4F0A304F07FA87E914A
:106FBC001295E07B017AD879F490DEBFE4F0A3045B
:106FCC00F07FA97E911295E07B017AD879F690DE5C
:106FDC00BFE4F0A304F07FAA7E911295E07B017AC6
:106FEC00D879F890DEBFE4F0A304F07FAB7E910279
:026FFC0095E01E
:10A815007B017ADC79B290DEBEE4F0A37402F07FAE
:10A82500007E0F128F3E90DCB2E0645A600302A9ED
:01A835000D15
:10A83600A3E0FEA3E0FF7B017ADC79B6A3E0FC335C
:10A8460095E090DEBEF0A3CCF0128F3E90DCB3E034
:10A85600FEA3E08EF0124CA5A872009DA872009E81
:10A86600A872009FA87A80E00000A8F490CCAF748C
:10A8760001F0807A90DCB6E07004A3E06401706EAB
:07A8860090CCAFE0B4012407
:10A88D007B017ADC79C090DEBEE4F0A37404F07F26
:10A89D009D7E00128F3E7B017ADC79C012AF05E4FC
:04A8AD0090CCAFF0AC
:10A8B1007B017ADF790090DEBEE4F0A304F07FF043
:10A8C1007E91128F3E7B017ADF790090DDA8E4F062
:10A8D100A37402F07FA0FE7D007C0012B4827B0194
:10A8E1007ADF790090DEBFE4F0A304F07F837E007D
:10A8F1001295E0E490DCB2F07B017ADC79B290DE73
:0CA90100BFF0A304F07F007E0F1295E071
:01A90D002227
:10AFDA007B017ADC79B290DEBEE4F0A37402F07FE2
:10AFEA00007E0F128F3E90DCB2E0645A600302B01A
:01AFFA00A9AD
:10AFFB00A3E0FEA3E0FF7B017ADC79B6A3E0FC3390
:10B00B0095E090DEBEF0A3CCF0128F3E90DCB3E067
:10B01B00FEA3E07043EE247F703E90DCB6E070043C
:10B02B00A3E0640170327B017ADF797890DEBEF0A9
:10B03B00A3741AF07F007E92128F3E90DCC874923C
:10B04B00F0A3E4F0A3F0A3741AF07F007E037D005D
:10B05B007C0012B6811212BB7E007F057D007B0146
:10B06B007ADC79B6124E8290DCB3E0FEA3E0FF7B74
:10B07B00017ADC79B6A3E0FC3395E090DEBFF0A358
:10B08B00CCF01295E0E490DCB2F07B017ADC79B283
:0EB09B0090DEBFF0A304F07F007E0F1295E060
:01B0A9002284
:105BC8007B017ADC79B290DEBEE4F0A37402F07F48
:105BD800007E0F128F3E90DCB2E0645A6003025FD1
:015BE800A11B
:105BE900A3E0FEA3E0FF7B017ADC79B6A3E0FC33F6
:105BF90095E090DEBEF0A3CCF0128F3E90DCB3E0CE
:105C0900FEA3E08EF0124CA55C3981205C7F925096
:105C19005C9792805D9692815E5F92825E9C928390
:105C29005ED992845F1592855F4D928600005F88E8
:105C390090DCB6E07004A3E064016003025F887B36
:105C4900017ADF792890DEBEF0A37428F07F507EB8
:105C590092128F3E90DCC87492F0A37450F0A3E4C2
:105C6900F0A37428F07F507E037D007C0012B6817A
:105C79001212BB025F887B017ADF792890DEBEE4CD
:105C8900F0A304F07F507E92128F3E025F8890DF6E
:105C990028E07002A3E0707390DCB6E0FEA3E0FF99
:105CA900C3EE94005003025F88D3EF9405EE94008D
:055CB9004003025F88BA
:105CBE0090DCC0EEF0A3EFF07B017ADC79C090DED1
:105CCE00BFE4F0A304F07F607E921295E07B017A30
:105CDE00DC79C290DEBEE4F0A304F07F617E921206
:105CEE008F3E90DCC0E0FEA3E0FF7C007D181249E1
:105CFE003FD390DCC3E09F90DCC2E09E4005EEF007
:035D0E00A3EFF010
:105D1100025DE590DF28E07004A3E0640160030206
:105D21005F8890DCB6E0FEA3E0FFC3EE9400500371
:0F5D3100025F88D3EF9402EE94004003025F8874
:105D400090DCC0EEF0A3EFF07B017ADC79C090DE4E
:105D5000BFE4F0A304F07F707E921295E07B017A9D
:105D6000DC79C290DEBEE4F0A304F07F717E921273
:105D70008F3E90DCC0E0FEA3E0FF7C007D3712493F
:105D80003FD390DCC3E09F90DCC2E09E4005EEF084
:035D9000A3EFF08E
:0D5D9300025E4C90DF28E07002A3E0705823
:105DA00090DCB6E0FFA3E090DCC2CFF0A3EFF07B85
:105DB000017ADC79C090DEBEE4F0A304F07F607E5F
:105DC00092128F3E90DCC0E0FEA3E0FF7C007D18C5
:105DD00012493FD390DCC3E09F90DCC2E09E4005B7
:105DE000EEF0A3EFF07B017ADC79C290DEBFE4F045
:055DF000A304F07F6137
:105DF500025F8390DF28E07004A3E0640160030282
:025E05005F88B4
:105E070090DCB6E0FFA3E090DCC2CFF0A3EFF07B1D
:105E1700017ADC79C090DEBEE4F0A304F07F707EE7
:105E270092128F3E90DCC0E0FEA3E0FF7C007D373E
:105E370012493FD390DCC3E09F90DCC2E09E40054F
:105E4700EEF0A3EFF07B017ADC79C290DEBFE4F0DD
:055E5700A304F07F71BF
:105E5C00025F8390DF28E07002A3E070127B017A6E
:105E6C00DC79B690DEBFF0A304F07F62025F839012
:105E7C00DF28E07004A3E064016003025F887B010B
:105E8C007ADC79B690DEBFF0A304F07F72025F83F8
:105E9C0090DF28E07002A3E070127B017ADC79B607
:105EAC0090DEBFF0A304F07F63025F8390DF28E0F5
:105EBC007004A3E064016003025F887B017ADC79E3
:105ECC00B690DEBFF0A304F07F73025F8390DF28EF
:105EDC00E07002A3E070127B017ADC79B690DEBF31
:105EEC00F0A304F07F64025F8390DF28E07004A3CA
:105EFC00E064016003025F887B017ADC79B690DE96
:105F0C00BFF0A304F07F74806E90DF28E07002A3D2
:105F1C00E070117B017ADC79B690DEBFF0A304F05F
:105F2C007F65805390DF28E07004A3E06401704C1F
:105F3C007B017ADC79B690DEBFF0A304F07F75802C
:105F4C003690DF28E07002A3E070117B017ADC79D7
:105F5C00B690DEBFF0A304F07F66801B90DF28E0D4
:105F6C007004A3E0640170147B017ADC79B690DED6
:105F7C00BFF0A304F07F767E921295E0E490DCB241
:105F8C00F07B017ADC79B290DEBFF0A304F07F00E5
:055F9C007E0F1295E0EC
:0D5FA10090DF28E07002A3E060030260744E
:105FAE0090DCB67492F0A37460F07B017ADC79B663
:105FBE0090DEBFE4F0A304F07F007E521295E090D5
:105FCE00DCB67492F0A37461F07B017ADC79B69042
:105FDE00DEBFE4F0A304F07F207E521295E090DC49
:105FEE00B67492F0A37462F07B017ADC79B690DE1F
:105FFE00BFE4F0A304F07F407E521295E090DCB631
:10600E007492F0A37463F07B017ADC79B690DEBFF4
:10601E00E4F0A304F07F607E521295E090DCB6743B
:10602E0092F0A37464F07B017ADC79B690DEBFE463
:10603E00F0A304F07F807E521295E090DCB674924D
:10604E00F0A37465F07B017ADC79B690DEBFE4F0E4
:10605E00A304F07FA07E521295E090DCB67492F00D
:03606E00A37466B2
:1060710002614690DF28E07004A3E064016003023E
:02608100615C60
:1060830090DCB67492F0A37470F07B017ADC79B67D
:1060930090DEBFE4F0A304F07F007E521295E090FF
:1060A300DCB67492F0A37471F07B017ADC79B6905C
:1060B300DEBFE4F0A304F07F207E521295E090DC73
:1060C300B67492F0A37472F07B017ADC79B690DE39
:1060D300BFE4F0A304F07F407E521295E090DCB65B
:1060E3007492F0A37473F07B017ADC79B690DEBF0F
:1060F300E4F0A304F07F607E521295E090DCB67466
:1061030092F0A37474F07B017ADC79B690DEBFE47D
:10611300F0A304F07F807E521295E090DCB6749277
:10612300F0A37475F07B017ADC79B690DEBFE4F0FE
:10613300A304F07FA07E521295E090DCB67492F037
:10614300A37476F07B017ADC79B690DEBFE4F0A32A
:0961530004F07FC07E521295E0B9
:01615C002220
:10ABA9007B017ADC79B290DEBEE4F0A37402F07F17
:10ABB900007E0F128F3E90DCB2E0645A600302AC53
:01ABC900800B
:10ABCA00A3E0FEA3E0FF7B017ADC79B6A3E0FC33C5
:10ABDA0095E090DEBEF0A3CCF0128F3E90DCB3E09D
:10ABEA00FEA3E08EF0124CA5ABFA81400000AC3A0D
:10ABFA0090DCB6E07004A3E0640170347B017ADF74
:10AC0A0079CC90DEBEF0A37416F07FA07E92128FEC
:10AC1A003E90DCC87492F0A374A0F0A3E4F0A3748D
:10AC2A0016F07FA07E037D007C0012B6811212BB53
:10AC3A007E007F057D007B017ADC79B6124E829018
:10AC4A00DCB3E0FEA3E0FF7B017ADC79B6A3E0FC8B
:10AC5A003395E090DEBFF0A3CCF01295E0E490DCEF
:10AC6A00B2F07B017ADC79B290DEBFF0A304F07F08
:06AC7A00007E0F1295E0C0
:01AC800022B1
:10AE2F007B017ADC79B290DEBEE4F0A37402F07F8E
:10AE3F00007E0F128F3E90DCB2E0645A600302AFC7
:01AE4F0004FE
:10AE5000A3E0FEA3E0FF7B017ADC79B6A3E0FC333C
:10AE600095E090DEBEF0A3CCF0128F3E90DCB3E014
:10AE7000FEA3E08EF0124CA5AE8081600000AEBE55
:10AE800090DCB6E07004A3E0640170327B017ADEEE
:10AE900079CC90DEBEF0A37406F07F007E93128F13
:10AEA0003E90DCC87493F0A3E4F0A3F0A37406F022
:10AEB0007F007E047D007C0012B6811212BB7E00F2
:10AEC0007F057D007B017ADC79B6124E8290DCB37F
:10AED000E0FEA3E0FF7B017ADC79B6A3E0FC3395CA
:10AEE000E090DEBFF0A3CCF01295E0E490DCB2F08D
:10AEF0007B017ADC79B290DEBFF0A304F07F007EA4
:04AF00000F1295E0B7
:01AF0400222A
:10944C007B017ADC79B290DEBEE4F0A37402F07F8B
:10945C00007E0F128F3E90DCB2E0645A60030295DE
:01946C00B44B
:10946D00A3E0FEA3E0FF7B017ADC79B6A3E0FC3339
:10947D0095E090DEBEF0A3CCF0128F3E90DCB3E011
:10948D00FEA3E08EF0124CA594A1818094E693602A
:10949D000000956E90DCB6E07004A3E064016003FB
:1094AD0002956E7B017ADF79C090DEBEF0A3740465
:1094BD00F07F507E93128F3E90DCC87493F0A374AE
:1094CD0050F0A3E4F0A37404F07F50FE7D007C0007
:1094DD0012B6811212BB02956E90DCB6E07004A339
:1094ED00E06401707CD390DFC1E0940090DFC0E0B8
:0494FD009400406D2A
:1095010090DB6EE0FEA3E0FF20E0047D0180027DA0
:1095110000ED5401FDEF54FEFFEF4DFF90DB6EEEC9
:10952100F0A3EFF05401FF90CCBFE4F0A3EFF09073
:10953100CCB074FEF0E4A3F0A3F0A37406F0A3741E
:1095410001F0E4A3F0A37403F0A374E8F0E4A3F042
:10955100A3F0A3F0A37405F0A37401F0A374CCF0FD
:0D956100A374BFF07B017ACC79B012CCA8C6
:10956E007E007F057D007B017ADC79B6124E8290FB
:10957E00DCB3E0FEA3E0FF7B017ADC79B6A3E0FC6E
:10958E003395E090DEBFF0A3CCF01295E0E490DCD2
:10959E00B2F07B017ADC79B290DEBFF0A304F07FEB
:0695AE00007E0F1295E0A3
:1095B40090DB6FE07E0030E0047F0180027F00904A
:1095C400DCB6EEF0A3EFF07B017ADC79B690DEBF77
:0C95D400E4F0A304F07F617E930295E0B8
:10AC81007B017ADC79B290DEBEE4F0A37402F07F3E
:10AC9100007E0F128F3E90DCB2E0645A600302AD79
:01ACA100585A
:10ACA200A3E0FEA3E0FF7B017ADC79B6A3E0FC33EC
:10ACB20095E090DEBEF0A3CCF0128F3E90DCB3E0C4
:10ACC200FEA3E08EF0124CA5ACD281A00000AD1222
:10ACD20090DCB6E07004A3E0640170347B017ADF9B
:10ACE20079C890DEBEF0A37402F07FA07E93128F2B
:10ACF2003E90DCC87493F0A374A0F0A3E4F0A374B4
:10AD020002F07FA07E047D007C0012B6811212BB8D
:10AD12007E007F057D007B017ADC79B6124E82903F
:10AD2200DCB3E0FEA3E0FF7B017ADC79B6A3E0FCB2
:10AD32003395E090DEBFF0A3CCF01295E0E490DC16
:10AD4200B2F07B017ADC79B290DEBFF0A304F07F2F
:06AD5200007E0F1295E0E7
:01AD580022D8
:10B7CB0090DF04E4F0A304F0A37411F0A37494F0DD
:10B7DB00A3740CF0A3749EF090DF0C740AF0A374A6
:10B7EB00F0F0A37407F0A3744EF07B017ADF7904B9
:10B7FB0090DDA8E4F0A37406F07F507E017D007C01
:10B80B000012B4827B017ADF790490DEBFE4F0A3EF
:10B81B007406F07F507E901295E090DF227403F057
:10B82B00A374E8F0A37403F0A374E8F07B017ADF50
:10B83B00791090DDA8E4F0A3740CF07FA07E017D5D
:10B84B00007C0012B4827B017ADF791090DEBFE4BA
:0CB85B00F0A3740CF07FA07E900295E03A
:10A9F3007B017ADC79B290DEBEE4F0A37402F07FCF
:10AA0300007E0F128F3E90DCB2E0645A600302AA0C
:01AA1300D072
:10AA1400A3E0FEA3E0FF7B017ADC79B6A3E0FC337C
:10AA240095E090DEBEF0A3CCF0128F3E90DCB3E054
:10AA3400FEA3E08EF0124CA5AA4C9400AA5D9401EA
:10AA4400AA6994020000AA8A90DCB6E07004A3E02C
:10AA54006401703212B7CB802D90DCB6E07027A36E
:10AA6400E06401802190DCB6E07004A3E06401702E
:10AA7400157BFF7A9879D790DEBFF0A37402F07F3C
:10AA8400047E001295E07E007F057D007B017ADC68
:10AA940079B6124E8290DCB3E0FEA3E0FF7B017A2C
:10AAA400DC79B6A3E0FC3395E090DEBFF0A3CCF0F4
:10AAB4001295E0E490DCB2F07B017ADC79B290DEAE
:0CAAC400BFF0A304F07F007E0F1295E0AD
:01AAD0002263
:0D9E400090DF0AE07002A3E06003029EDDE7
:109E4D0090DCB27494F0A374A0F07B017ADC79B24B
:109E5D0090DEBFE4F0A304F07F007E541295E090F5
:109E6D00DCB27494F0A374A1F07B017ADC79B2902A
:109E7D00DEBFE4F0A304F07F407E541295E090DC49
:109E8D00B27494F0A374A3F07B017ADC79B290DE06
:109E9D00BFE4F0A304F07F607E541295E090DCB235
:109EAD007494F0A374A5F07B017ADC79B290DEBFD7
:109EBD00E4F0A304F07FA07E541295E07B017AD8E4
:0D9ECD0079EE90DEBFE4F0A37406F07FA0F4
:109EDA00029F8590DF0AE07004A3E0640160030238
:029EEA009F8A4D
:109EEC0074FF90DCB2F0A3F07B017ADC79B290DEE7
:109EFC00BFE4F0A304F07F007E541295E074FF9051
:109F0C00DCB2F0A3F07B017ADC79B290DEBFE4F036
:109F1C00A304F07F407E541295E074FF90DCB2F005
:109F2C00A3F07B017ADC79B290DEBFE4F0A304F0FD
:109F3C007F607E541295E074FF90DCB2F0A3F07B4E
:109F4C00017ADC79B290DEBFE4F0A304F07FA07E4E
:109F5C00541295E07B017AD879EE90DEBFE4F0A341
:109F6C0004F07FA17E941295E07B017AD879EE9073
:0E9F7C00DEBFE4F0A304F07FA47E941295E013
:019F8A0022B4
:104F07007B017ADC79B290DEBEE4F0A37402F07F15
:104F1700007E0F128F3E90DCB2E0645A60030252AB
:014F2700CBBE
:104F2800A3E0FEA3E0FF7B017ADC79B6A3E0FC33C3
:104F380095E090DEBEF0A3CCF0128F3E90DCB3E09B
:104F4800FEA3E08EF0124CA54F7495304FD79531E3
:104F5800503A9532509D95335100953451639535AB
:104F680051C69536522895370000528590DCB6E038
:104F78007004A3E064016003025285C390DECFE0B1
:0D4F8800940190DECEE094005003025285AB
:104F950090DC02E0FEA3E0FF20E0047D0180027DBD
:104FA50000ED5401FDEF54FEFFEF4DFF90DC02EEE6
:104FB500F0A3EFF07B017ADC790290DEBFE4F0A389
:0F4FC50004F07F407E951295E07B017ACC79C194
:104FD40002528290DCB6E07004A3E0640160030234
:104FE4005285C390DECFE0940290DECEE094005070
:044FF40003025285DD
:104FF80090DC12E0FEA3E0FF20E0047D0180027D4A
:1050080000ED5401FDEF54FEFFEF4DFF90DC12EE72
:10501800F0A3EFF07B017ADC791290DEBFE4F0A315
:0F50280004F07F417E951295E07B017ACC79D020
:1050370002528290DCB6E07004A3E06401600302D0
:105047005285C390DECFE0940390DECEE09400500B
:045057000302528579
:10505B0090DC22E0FEA3E0FF20E0047D0180027DD6
:10506B0000ED5401FDEF54FEFFEF4DFF90DC22EEFF
:10507B00F0A3EFF07B017ADC792290DEBFE4F0A3A2
:0F508B0004F07F427E951295E07B017ACC79DFAD
:10509A0002528290DCB6E07004A3E064016003026D
:1050AA005285C390DECFE0940490DECEE0940050A7
:0450BA000302528516
:1050BE0090DC32E0FEA3E0FF20E0047D0180027D63
:1050CE0000ED5401FDEF54FEFFEF4DFF90DC32EE8C
:1050DE00F0A3EFF07B017ADC793290DEBFE4F0A32F
:0F50EE0004F07F437E951295E07B017ACC79EE3A
:1050FD0002528290DCB6E07004A3E064016003020A
:10510D005285C390DECFE0940590DECEE094005042
:04511D0003025285B2
:1051210090DC42E0FEA3E0FF20E0047D0180027DEF
:1051310000ED5401FDEF54FEFFEF4DFF90DC42EE18
:10514100F0A3EFF07B017ADC794290DEBFE4F0A3BB
:0F51510004F07F447E951295E07B017ACC79FDC6
:1051600002528290DCB6E07004A3E06401600302A6
:105170005285C390DECFE0940690DECEE0940050DE
:04518000030252854F
:1051840090DC52E0FEA3E0FF20E0047D0180027D7C
:1051940000ED5401FDEF54FEFFEF4DFF90DC52EEA5
:1051A400F0A3EFF07B017ADC795290DEBFE4F0A348
:0F51B40004F07F457E951295E07B017ACD790C52
:1051C30002528290DCB6E07004A3E0640160030243
:1051D3005285C390DECFE0940790DECEE09400507A
:0451E30003025285EC
:1051E70090DC62E0FEA3E0FF20E0047D0180027D09
:1051F70000ED5401FDEF54FEFFEF4DFF90DC62EE32
:10520700F0A3EFF07B017ADC796290DEBFE4F0A3D4
:0F52170004F07F467E951295E07B017ACD791BDE
:10522600805A90DCB6E07004A3E064017051C3902C
:0D523600DECFE0940890DECEE09400404210
:1052430090DC72E0FEA3E0FF20E0047D0180027D9C
:1052530000ED5401FDEF54FEFFEF4DFF90DC72EEC5
:10526300F0A3EFF07B017ADC797290DEBFE4F0A368
:1052730004F07F477E951295E07B017ACD792A125F
:02528300CCA8B5
:105285007E007F057D007B017ADC79B6124E829027
:10529500DCB3E0FEA3E0FF7B017ADC79B6A3E0FC9A
:1052A5003395E090DEBFF0A3CCF01295E0E490DCFE
:1052B500B2F07B017ADC79B290DEBFF0A304F07F17
:0652C500007E0F1295E0CF
:1052CB00C390DECFE0940190DECEE09400403D7BB6
:1052DB00017ADB79F890DEBFE4F0A37403F07F0072
:1052EB007E951295E07B017ADC790290DEBFE4F0CB
:0A52FB00A304F07F037E951295E0F6
:10530500E490DCB2F0A3F07B017ADC79B290DEBFE9
:02531500801105
:1053170090DCB2E4F0A304F0FB7ADC79B290DEBF54
:0C532700E4F0A304F07F207E951295E0D6
:10533300C390DECFE0940290DECEE09400403D7B4C
:10534300017ADC790890DEBFE4F0A37403F07F04F4
:105353007E951295E07B017ADC791290DEBFE4F052
:0A536300A304F07F077E951295E089
:10536D00E490DCB2F0A3F07B017ADC79B290DEBF81
:02537D0080119D
:10537F0090DCB2E4F0A304F0FB7ADC79B290DEBFEC
:0C538F00E4F0A304F07F217E951295E06D
:10539B00C390DECFE0940390DECEE09400403D7BE3
:1053AB00017ADC791890DEBFE4F0A37403F07F0878
:1053BB007E951295E07B017ADC792290DEBFE4F0DA
:0A53CB00A304F07F0B7E951295E01D
:1053D500E490DCB2F0A3F07B017ADC79B290DEBF19
:0253E500801135
:1053E70090DCB2E4F0A304F0FB7ADC79B290DEBF84
:0C53F700E4F0A304F07F227E951295E004
:10540300C390DECFE0940490DECEE09400403D7B79
:10541300017ADC792890DEBFE4F0A37403F07F0CFB
:105423007E951295E07B017ADC793290DEBFE4F061
:0A543300A304F07F0F7E951295E0B0
:10543D00E490DCB2F0A3F07B017ADC79B290DEBFB0
:02544D008011CC
:10544F0090DCB2E4F0A304F0FB7ADC79B290DEBF1B
:0C545F00E4F0A304F07F237E951295E09A
:10546B00C390DECFE0940590DECEE09400403D7B10
:10547B00017ADC793890DEBFE4F0A37403F07F107F
:10548B007E951295E07B017ADC794290DEBFE4F0E9
:0A549B00A304F07F137E951295E044
:1054A500E490DCB2F0A3F07B017ADC79B290DEBF48
:0254B500801164
:1054B70090DCB2E4F0A304F0FB7ADC79B290DEBFB3
:0C54C700E4F0A304F07F247E951295E031
:1054D300C390DECFE0940690DECEE09400403D7BA7
:1054E300017ADC794890DEBFE4F0A37403F07F1403
:1054F3007E951295E07B017ADC795290DEBFE4F071
:0A550300A304F07F177E951295E0D7
:10550D00E490DCB2F0A3F07B017ADC79B290DEBFDF
:02551D008011FB
:10551F0090DCB2E4F0A304F0FB7ADC79B290DEBF4A
:0C552F00E4F0A304F07F257E951295E0C7
:10553B00C390DECFE0940790DECEE09400403D7B3D
:10554B00017ADC795890DEBFE4F0A37403F07F1886
:10555B007E951295E07B017ADC796290DEBFE4F0F8
:0A556B00A304F07F1B7E951295E06B
:10557500E490DCB2F0A3F07B017ADC79B290DEBF77
:02558500801193
:1055870090DCB2E4F0A304F0FB7ADC79B290DEBFE2
:0C559700E4F0A304F07F267E951295E05E
:1055A300C390DECFE0940890DECEE09400403D7BD4
:1055B300017ADC796890DEBFE4F0A37403F07F1C0A
:1055C3007E951295E07B017ADC797290DEBFE4F080
:0A55D300A304F07F1F7E951295E0FF
:1055DD00E490DCB2F0A3F07B017ADC79B290DEBF0F
:0255ED0080112B
:1055EF0090DCB2E4F0A304F0FB7ADC79B290DEBF7A
:0C55FF00E4F0A304F07F277E951295E0F5
:01560B00227C
:1089F100E490DCB4F0A3F090DF7AE0FEA3E0FF9016
:108A0100DCB4E0FCA3E0FDC39FEC9E5067AF059092
:108A1100D902E0FEA3E0A807088005CEC313CE1358
:108A2100D8F95401FF90DF78E0B40010A3E0B50756
:108A31000B90DCB2E4F0A37403F0800990DCB2E4A3
:108A4100F0A37402F090DCB5E024A0FF90DCB4E068
:108A51003495FE7B017ADC79B290DEBFE4F0A304A9
:108A6100F01295E090DCB5E004F0708B90DCB4E09E
:108A710004F0808390DCB4E0FEA3E0FFC3940CEE2D
:108A81009400505690D902E0FEA3E0A807088005A3
:108A9100CEC313CE13D8F930E00A90DCB2E4F0A3D0
:108AA10004F08007E490DCB2F0A3F090DCB5E024A0
:108AB100A0FF90DCB4E03495FE7B017ADC79B290C2
:108AC100DEBFE4F0A304F01295E090DCB5E004F021
:108AD10070A290DCB4E004F0809A90DCB4E0FEA3D4
:108AE100E0FFC3940DEE9400506590D902E0FEA31F
:108AF100E0A807088005CEC313CE13D8F95401FFAF
:108B010090DF78E0B40010A3E0B5070B90DCB2E48D
:108B1100F0A37403F0800990DCB2E4F0A37402F0D6
:108B210090DCB5E024A0FF90DCB4E03495FE7B013D
:108B31007ADC79B290DEBFE4F0A304F01295E09004
:108B4100DCB5E004F0709390DCB4E004F0808B902D
:108B5100DCB4E0FEA3E0FFC3940FEE940050569006
:108B6100D902E0FEA3E0A807088005CEC313CE1307
:108B7100D8F930E00A90DCB2E4F0A304F08007E415
:108B810090DCB2F0A3F090DCB5E024A0FF90DCB45F
:108B9100E03495FE7B017ADC79B290DEBFE4F0A38C
:108BA10004F01295E090DCB5E004F070A290DCB422
:058BB100E004F0809AD1
:018BB600229C
:0A39270090DF7CE07002A3E0706501
:0639310090DCB2F0A3F0EF
:1039370090DCB2E0FCA3E0FDFF90D906E0FEA3E037
:10394700A807088005CEC313CE13D8F95401FF90FA
:10395700DCB4E4F0A3EFF0ED2450FFEC3497FE7BEA
:10396700017ADC79B490DEBFE4F0A304F01295E0AD
:1039770090DCB3E004F0700690DCB2E004F0C39092
:0F398700DCB3E0941090DCB2E0940040A3806FBA
:0C39960090DF7CE07004A3E0640170632B
:0639A20090DCB2F0A3F07E
:1039A80090DCB2E0FCA3E0FDFF90DCAAE0FEA3E01F
:1039B800A807088005CEC313CE13D8F95401FF9089
:1039C800DCB4E4F0A3EFF0ED2450FFEC3497FE7B79
:1039D800017ADC79B490DEBFE4F0A304F01295E03C
:1039E80090DCB3E004F0700690DCB2E004F0C39021
:0D39F800DCB3E0941090DCB2E0940040A33A
:103A05007B017ADC79B290DEBEE4F0A37402F07F2C
:103A1500007E0F128F3E90DCB2E0645A60030240D4
:013A25007A26
:103A2600A3E0FEA3E0FF7B017ADC79B6A3E0FC33DA
:103A360095E090DEBEF0A3CCF0128F3E90DCB3E0B2
:103A4600FEA3E08EF0124CA53A9297603A929761E7
:103A56003A9297623A9297633A9297643A92976546
:103A66003A9297663A9297673A9297683A92976926
:103A76003A92976A3A92976B3A92976C3A92976D06
:103A86003A92976E3A92976F0000403490DF7CE04E
:103A96007002A3E06003023D7990DCB6E07002A3F9
:063AA600E06003023C0D8C
:103AAC0090DCB4E024A0FF90DCB3E0346890DCC080
:103ABC00F0FCA3EFF0FD7E007401A807088005C39D
:103ACC0033CE33CED8F9F4FFEEF4FE90D906E05E97
:103ADC00F0A3E05FF090CD3975F00FED124BEAECEE
:103AEC0075F00FA42583F58374D0F090DCC0E0FE54
:103AFC00A3E0FF90CD3A75F00F124BEAEE75F00F84
:103B0C00A42583F583E4F090CD3B75F00FEF124BB9
:103B1C00EAEE75F00FA42583F583E4F090CD3C75A7
:103B2C00F00FEF124BEAEE75F00FA42583F58374BA
:103B3C0006F090CD3D75F00FEF124BEAEE75F00FDD
:103B4C00A42583F5837401F090CD3E75F00FEF1230
:103B5C004BEAEE75F00FA42583F583E4F090CD3F8E
:103B6C0075F00FEF124BEAEE75F00FA42583F58379
:103B7C007403F0A374E8F0EF2480FFEE3497FE900A
:103B8C00DCC0E0FCA3E0FD90CD4175F00F124BEAD8
:103B9C00EC75F00FA42583F583EEF0A3EFF090CD38
:103BAC004375F00FED124BEAEC75F00FA42583F57D
:103BBC0083E4F0A37402F090CD4575F00FED124B39
:103BCC00EAEC75F00FA42583F583E4F0A3F0A3F0E1
:103BDC00ED2480FFEC3497FE7B017AD9790690DED8
:103BEC00BFE4F0A304F01295E090DCC0E0FEA3E08B
:0E3BFC00FF7C007D0F12493F74392FF974CD04
:103C0A0002402D90DCB6E07004A3E0640160030278
:023C1A00403434
:103C1C0090DCB4E024A0FF90DCB3E0346890DCC00E
:103C2C00F0FCA3EFF0FD7E007401A807088005C32B
:103C3C0033CE33CED8F9FF90D906E04EF0A3E04F47
:103C4C00F090CE2975F00FED124BEAEC75F00FA445
:103C5C002583F58374D0F090DCC0E0FEA3E0FF90E8
:103C6C00CE2A75F00F124BEAEE75F00FA42583F5F2
:103C7C0083E4F090CE2B75F00FEF124BEAEE75F05B
:103C8C000FA42583F583E4F090CE2C75F00FEF1282
:103C9C004BEAEE75F00FA42583F5837406F090CEF5
:103CAC002D75F00FEF124BEAEE75F00FA42583F58E
:103CBC00837401F090CE2E75F00FEF124BEAEE7577
:103CCC00F00FA42583F583E4F090CE2F75F00FEF61
:103CDC00124BEAEE75F00FA42583F5837403F0A361
:103CEC0074E8F0EF2480FFEE3497FE90DCC0E0FC2B
:103CFC00A3E0FD90CE3175F00F124BEAEC75F00F8E
:103D0C00A42583F583EEF0A3EFF090CE3375F00F7E
:103D1C00ED124BEAEC75F00FA42583F583E4F0A3C8
:103D2C007402F090CE3575F00FED124BEAEC75F095
:103D3C000FA42583F583E4F0A3F0A3F0ED2480FF1A
:103D4C00EC3497FE7B017AD9790690DEBFE4F0A3C0
:103D5C0004F01295E090DCC0E0FEA3E0FF7C007D57
:0A3D6C000F12493F74292FF974CE9D
:103D760002402D90DF7CE07004A3E0640160030242
:0F3D8600403490DCB6E07002A3E06003023EDA46
:103D950090DCC0F0A3F090DCB4E024A0FF90DCB38D
:103DA500E03468FE90DCC2F0A3EFF090CF1975F017
:103DB5000F124BEAEE75F00FA42583F58374D0F04E
:103DC50090CF1A75F00FEF124BEAEE75F00FA425A0
:103DD50083F583E4F090CF1B75F00FEF124BEAEEFD
:103DE50075F00FA42583F583E4F090CF1C75F00FD3
:103DF500EF124BEAEE75F00FA42583F5837406F0F8
:103E050090CF1D75F00FEF124BEAEE75F00FA4255C
:103E150083F5837401F090CF1E75F00FEF124BEA16
:103E2500EE75F00FA42583F583E4F090CF1F75F0B0
:103E35000FEF124BEAEE75F00FA42583F58374039B
:103E4500F0A374E8F0EF2480FFEE3497FE90DCC217
:103E5500E0FCA3E0FD90CF2175F00F124BEAEC7565
:103E6500F00FA42583F583EEF0A3EFF0ED2402FF18
:103E7500E43CFE90CF2375F00FED124BEAEC75F0A4
:103E85000FA42583F583EEF0A3EFF090CF2575F011
:103E95000FED124BEAEC75F00FA42583F583E4F0E2
:103EA500A3F0A3F0ED2480FFEC3497FE7B017ADCD0
:103EB50079C090DEBFE4F0A304F01295E090DCC277
:103EC500E0FEA3E0FF7C007D0F12493F74192FF936
:023ED50074CFA8
:103ED70002402D90DCB6E07004A3E06401600302A9
:023EE700403465
:103EE90074FF90DCC0F0A3F090DCB4E024A0FF9054
:103EF900DCB3E03468FE90DCC2F0A3EFF090D009A7
:103F090075F00F124BEAEE75F00FA42583F5837453
:103F1900D0F090D00A75F00FEF124BEAEE75F00F62
:103F2900A42583F583E4F090D00B75F00FEF124BC5
:103F3900EAEE75F00FA42583F583E4F090D00C75B3
:103F4900F00FEF124BEAEE75F00FA42583F5837499
:103F590006F090D00D75F00FEF124BEAEE75F00FE9
:103F6900A42583F5837401F090D00E75F00FEF123C
:103F79004BEAEE75F00FA42583F583E4F090D00F9A
:103F890075F00FEF124BEAEE75F00FA42583F58358
:103F99007403F0A374E8F0EF2480FFEE3497FE90E9
:103FA900DCC2E0FCA3E0FD90D01175F00F124BEAE2
:103FB900EC75F00FA42583F583EEF0A3EFF0ED2463
:103FC90002FFE43CFE90D01375F00FED124BEAECC2
:103FD90075F00FA42583F583EEF0A3EFF090D015CB
:103FE90075F00FED124BEAEC75F00FA42583F583FC
:103FF900E4F0A3F0A3F0ED2480FFEC3497FE7B01FD
:104009007ADC79C090DEBFE4F0A304F01295E09069
:10401900DCC2E0FEA3E0FF7C007D0F12493F74097A
:0B4029002FF974D03EFA7B0112CCA8E6
:104034007E007F057D007B017ADC79B6124E82908A
:10404400DCB3E0FEA3E0FF7B017ADC79B6A3E0FCFD
:104054003395E090DEBFF0A3CCF01295E0E490DC61
:10406400B2F07B017ADC79B290DEBFF0A304F07F7A
:06407400007E0F1295E032
:01407A002223
:10A1F000E490DCB4F0A3F090DCB4E0FEA3E0FFC395
:10A20000941EEE9400400302A2F890DFA2E0FCA3AB
:10A21000E0FDC3EF9DEE9C506090DCB4E0FCA3E059
:10A22000FDECC4F854F0C868FEEDC4540F4825E0B6
:10A23000FFEE33FE74CA2FF58274D83EF583E0FE3C
:10A24000A3E0FFED540FFDEFA805088005CEC31372
:10A25000CE13D8F95401FF90DF9AE0B40010A3E0C8
:10A26000B5070B90DCB2E4F0A37403F0805A90DCE5
:10A27000B2E4F0A37402F0804F90DCB4E0FCA3E001
:10A28000FDECC4F854F0C868FEEDC4540F4825E056
:10A29000FFEE33FE74CA2FF58274D83EF583E0FEDC
:10A2A000A3E0FFED540FFDEFA805088005CEC31312
:10A2B000CE13D8F930E00A90DCB2E4F0A304F080C9
:10A2C00007E490DCB2F0A3F090DCB5E02400FF904E
:10A2D000DCB4E03496FE7B017ADC79B290DEBFE438
:10A2E000F0A304F01295E090DCB5E004F070069065
:08A2F000DCB4E004F002A1F768
:01A2F8002243
:10A2F900E490DCB4F0A3F090DCB4E0FEA3E0FFC38B
:10A30900941EEE9400400302A40190DFA4E0FCA394
:10A31900E0FDC3EF9DEE9C506090DCB4E0FCA3E04F
:10A32900FDECC4F854F0C868FEEDC4540F4825E0AC
:10A33900FFEE33FE74D02FF58274D83EF583E0FE2C
:10A34900A3E0FFED540FFDEFA805088005CEC31368
:10A35900CE13D8F95401FF90DF9CE0B40010A3E0BC
:10A36900B5070B90DCB2E4F0A37403F0805A90DCDB
:10A37900B2E4F0A37402F0804F90DCB4E0FCA3E0F7
:10A38900FDECC4F854F0C868FEEDC4540F4825E04C
:10A39900FFEE33FE74D02FF58274D83EF583E0FECC
:10A3A900A3E0FFED540FFDEFA805088005CEC31308
:10A3B900CE13D8F930E00A90DCB2E4F0A304F080BF
:10A3C90007E490DCB2F0A3F090DCB5E02450FF90F4
:10A3D900DCB4E03496FE7B017ADC79B290DEBFE42E
:10A3E900F0A304F01295E090DCB5E004F07006905B
:08A3F900DCB4E004F002A30053
:01A401002238
:10A40200E490DCB4F0A3F090DCB4E0FEA3E0FFC380
:10A41200941EEE9400400302A50A90DFA6E0FCA37E
:10A42200E0FDC3EF9DEE9C506090DCB4E0FCA3E045
:10A43200FDECC4F854F0C868FEEDC4540F4825E0A2
:10A44200FFEE33FE74D62FF58274D83EF583E0FE1C
:10A45200A3E0FFED540FFDEFA805088005CEC3135E
:10A46200CE13D8F95401FF90DF9EE0B40010A3E0B0
:10A47200B5070B90DCB2E4F0A37403F0805A90DCD1
:10A48200B2E4F0A37402F0804F90DCB4E0FCA3E0ED
:10A49200FDECC4F854F0C868FEEDC4540F4825E042
:10A4A200FFEE33FE74D62FF58274D83EF583E0FEBC
:10A4B200A3E0FFED540FFDEFA805088005CEC313FE
:10A4C200CE13D8F930E00A90DCB2E4F0A304F080B5
:10A4D20007E490DCB2F0A3F090DCB5E024A0FF909A
:10A4E200DCB4E03496FE7B017ADC79B290DEBFE424
:10A4F200F0A304F01295E090DCB5E004F070069051
:08A50200DCB4E004F002A4093E
:01A50A00222E
:10A50B00E490DCB4F0A3F090DCB4E0FEA3E0FFC376
:10A51B00941EEE9400400302A61390DFA8E0FCA368
:10A52B00E0FDC3EF9DEE9C506090DCB4E0FCA3E03B
:10A53B00FDECC4F854F0C868FEEDC4540F4825E098
:10A54B00FFEE33FE74DC2FF58274D83EF583E0FE0C
:10A55B00A3E0FFED540FFDEFA805088005CEC31354
:10A56B00CE13D8F95401FF90DFA0E0B40010A3E0A4
:10A57B00B5070B90DCB2E4F0A37403F0805A90DCC7
:10A58B00B2E4F0A37402F0804F90DCB4E0FCA3E0E3
:10A59B00FDECC4F854F0C868FEEDC4540F4825E038
:10A5AB00FFEE33FE74DC2FF58274D83EF583E0FEAC
:10A5BB00A3E0FFED540FFDEFA805088005CEC313F4
:10A5CB00CE13D8F930E00A90DCB2E4F0A304F080AB
:10A5DB0007E490DCB2F0A3F090DCB5E02400FF9030
:10A5EB00DCB4E03497FE7B017ADC79B290DEBFE419
:10A5FB00F0A304F01295E090DCB5E004F070069047
:08A60B00DCB4E004F002A5122A
:01A613002224
:10C1EA007B017AD879E290DEBFE4F0A304F07F0005
:10C1FA007E981295E07B017AD879E490DEBFE4F06C
:10C20A00A304F0FF7E981295E07B017AD879EA9030
:10C21A00DEBFE4F0A304F07F027E981295E07B0172
:10C22A007AD879E890DEBFE4F0A304F07F037E9821
:10C23A001295E07B017AD879EC90DEBFE4F0A30492
:08C24A00F07F047E980295E0EC
:10B53200C390DFC9E0940190DFC8E09400402B7B08
:10B54200017ADC797890DEBFE4F0A3740BF07F50CF
:10B552007E981295E07B017ADC798E90DEBFE4F072
:10B56200A304F07F5B7E981295E0C390DFC9E0945C
:10B572000290DFC8E09400402B7B017ADC79909046
:10B58200DEBFE4F0A3740BF07F607E981295E07B3F
:10B59200017ADC79A690DEBFE4F0A304F07F6B7E33
:04B5A200981295E086
:10B5A600C390DFC9E0940290DFC8E094007E0050AB
:10B5B600047F0180027F0090DCB2EEF0A3EFF07B07
:10B5C600017ADC79B290DEBFE4F0A304F07F807EDE
:04B5D600980295E062
:10BD7700C390DFCBE0940190DFCAE0940040167BCC
:10BD8700017ADB79A490DEBFE4F0A37415F07FA0FD
:10BD97007E981295E0C390DFCBE0940290DFCAE073
:10BDA700940040167B017ADB79CE90DEBFE4F0A3E6
:0ABDB7007415F07FC07E981295E02D
:10BDC100C390DFCBE0940290DFCAE094007E005084
:10BDD100047F0180027F0090DCB2EEF0A3EFF07BE4
:10BDE100017ADC79B290DEBFE4F0A304F07FE07E5B
:04BDF100980295E03F
:1090FE00E490DCB2F0A3F090DFC0E0FEA3E0FFC38B
:0F910E0090DCB3E09F90DCB2E09E400302923F02
:10911D00E0FCA3E0FD2400FFEC3499FEC006C0077F
:10912D00EDC4F8540FC868FFECC454F048FE7464E5
:10913D002FF974DB3EFA7B0190DEBFE4F0A304F05F
:10914D00D007D0061295E090DCB2E0FCA3E0FD2440
:10915D0010FFEC3499FEC006C007EDC4F8540FC8DB
:10916D0068FFECC454F048FE74662FF974DB3EFAC8
:10917D007B0190DEBFE4F0A304F0D007D00612957A
:10918D00E090DCB2E0FCA3E0FDC4F8540FC868FF2A
:10919D00ECC454F048FE746E2FF58274DB3EF583FB
:1091AD00E0FEA3E07803CEC313CE13D8F95401FF2C
:1091BD0090DCB4E4F0A3EFF0ED2420FFEC3499FE45
:1091CD007B017ADC79B490DEBFE4F0A304F0129554
:1091DD00E090DCB2E0FCA3E0FDC4F8540FC868FFDA
:1091ED00ECC454F048FE746E2FF58274DB3EF583AB
:1091FD00E0FEA3E07802CEC313CE13D8F95401FFDD
:10920D0090DCB6E4F0A3EFF0ED2430FFEC3499FEE2
:10921D007B017ADC79B690DEBFE4F0A304F0129501
:01922D00E060
:10922E0090DCB3E004F0700690DCB2E004F0029142
:10923E0005E490DCB2F0A3F090DCB2E0FEA3E0FF18
:08924E00C39404EE9400504E9D
:1092560090DFC0E0FCA3E0FDC3EF9DEE9C7E0040E6
:10926600047F0180027F0090DCB4EEF0A3EFF09063
:10927600DCB3E02440FF90DCB2E03499FE7B017A57
:0E928600DC79B490DEBFE4F0A304F01295E0B2
:1092940090DCB3E004F070AA90DCB2E004F080A2A9
:0192A40022A7
:0781E100E490DCB2F0A3F012
:1081E80090DCB2E0FCA3E0FD25E0FFEC33FE741068
:1081F8002FF58274D93EF583E0FFA3E090DCB4CF7D
:10820800F0A3EFF090DFF2E0FEA3E0FFC3ED9FECF8
:108218009E50067E037FE880047E007F0090DCB5D8
:10822800E02FF090DCB4E03EF090DCB3E02450FFA7
:1082380090DCB2E03499FE7B017ADC79B490DEBF41
:08824800E4F0A304F01295E03C
