:03000000029EED70
:0800F800FFFF4457494E543547
:109EED00759401759502758E0075930075C8707522
:109EFD00C96075F80075F90175A80075B800759AF7
:109F0D000075A90075B90053D0E7787FE4F6D8FD48
:109F1D009080007F007E80E4F0A3DFFCDEFA758187
:049F2D0027029F6CFC
:1079850090B49DEEF0A3EFF0A3EBF0A3EAF0A3E92A
:01799500F001
:10799600E490B4A4F0A3F0A3F0A3F0A3F0A3F0A3A3
:1079A600F0A3F090B4A2E0FAA3E0FB4A7003027BD6
:1079B6004490B49DE0FEA3E0FFC3E49FFFE49EFE77
:1079C600E4FCFD90B4AC1237A4AF03AE02E4FCFDB8
:1079D60090B4ACE0F8A3E0F9A3E0FAA3E0FBC3128D
:1079E6003780501190B4ACA3A3E0FFA3E090B4A2FB
:1079F600CFF0A3EFF090B49DE0FCA3E0FDECC31341
:107A0600FFED1390B4A4CFF0A3EFF0ED5401FFA364
:107A1600E4F0A3EFF0C2AFE4F5F190B4A4E0FCA368
:107A2600E0FDECF5F28DF375F40175F8AF30FCFD71
:107A360090B4A6E07002A3E0603DD2FE20FEFD9069
:107A4600B49FE0FBA3E475F0011235E0A9F0FAE576
:107A5600FC12352F90B49FE0FBA3E475F0011235BC
:107A6600E0A9F0FAE5FD12352F90B4A3E024FFF06B
:107A760090B4A2E034FFF090B4A2E0FCA3E0FDECE9
:107A8600C313FFED1390B4A8CFF0A3EFF0ED5401AC
:107A9600FFA3E4F0A3EFF090B4A874FFF5F012355D
:107AA600E045F0605BD2FE20FEFD90B49FE0FBA3B4
:107AB600E475F0011235E0A9F0FAE5FA12352F90D7
:107AC600B49FE0FBA3E475F0011235E0A9F0FAE5F6
:107AD600FB12352F90B49FE0FBA3E475F00112353D
:107AE600E0A9F0FAE5FC12352F90B49FE0FBA3E481
:107AF60075F0011235E0A9F0FAE5FD12352F8097F1
:107B060090B4AAE07002A3E0602FD2FE20FEFD90A2
:107B1600B49FE0FBA3E475F0011235E0A9F0FAE5A5
:107B2600FA12352F90B49FE0FBA3E475F0011235ED
:0E7B3600E0A9F0FAE5FB12352FE4F5F8D2AF26
:017B4400221E
:1080270090B49EEEF0A3EFF0A3EBF0A3EAF0A3E980
:01803700F058
:10803800E490B4A5F0A3F0A3F0A3F0A3F0A3F0900C
:10804800B4A3E07002A3E070030281B990B49EE08B
:10805800FEA3E0FFC3E49FFFE49EFED390B4A4E038
:108068009F90B4A3E09E4005EEF0A3EFF090B49E7D
:10807800E0FAA3E0FBEAC313FCEB13FDEB5401FFAA
:1080880090B4A5E4F0A3EFF0C2AFE4F5F1ECF5F29B
:10809800AF058FF375F40175F88330FCFD90B4A536
:1080A800E07002A3E0603D90B4A0E0FBA3E475F0AB
:1080B800011235E0A9F0FA1234E9F5FC90B4A0E019
:1080C800FBA3E475F0011235E0A9F0FA1234E9F5E2
:1080D800FDD2FE20FEFD90B4A4E024FFF090B4A3EE
:1080E800E034FFF090B4A3E0FCA3E0FDECC313FF81
:1080F800ED1390B4A7CFF0A3EFF0ED5401FFA3E484
:10810800F0A3EFF075F88F90B4A774FFF5F012356F
:10811800E045F0605B90B4A0E0FBA3E475F00112C9
:1081280035E0A9F0FA1234E9F5FA90B4A0E0FBA31F
:10813800E475F0011235E0A9F0FA1234E9F5FB9084
:10814800B4A0E0FBA3E475F0011235E0A9F0FA123F
:1081580034E9F5FC90B4A0E0FBA3E475F001123516
:10816800E0A9F0FA1234E9F5FDD2FE30FE9980FB61
:1081780090B4A9E07002A3E0603275F88C90B4A0C6
:10818800E0FBA3E475F0011235E0A9F0FA1234E936
:10819800F5FA90B4A0E0FBA3E475F0011235E0A96C
:1081A800F0FA1234E9F5FBD2FE20FEFDE4F5F8D230
:0181B800AF17
:0181B90022A3
:10B98100EF4E6010E4FD0DEDC3943240F9EF1F70EE
:04B99100EF1E80EC39
:01B99500228F
:08A7A60090B2C4EEF0A3EFF045
:10A7AE00A3745AF0A37401F090B2C4E0FCA3E0FDD0
:10A7BE00EC90B2C8F0A3EDF07B017AB279C690B4FA
:10A7CE00A3E4F0A37402F07F847E001280277FF44E
:10A7DE007E0112B9817B017AB279C690B4A2E4F0FF
:10A7EE00A37402F07F147E0012798590B2C4E0FE4D
:10A7FE00A3E0FFA3E0B506D6A3E0B507D1E490B27F
:10A80E00C6F0A3F0A3F0A3F07B017AB279C690B4A0
:0DA81E00A3F0A37402F07F167E00028027D5
:08B2C20090B38EEEF0A3EFF053
:10B2CA00E4A3F0A3F090B38EE0FEA3E0FFC390B333
:10B2DA0091E09F90B390E09E5025E4FBFA7F017EB7
:10B2EA000012B9810BBB00010ABA01F1BB2CEE9026
:0FB2FA00B391E004F070CE90B390E004F080C602
:01B309002221
:10B30A00EF14601814602314602E24037039A80502
:10B31A007401088002C333D8FC42B722A80574011D
:10B32A00088002C333D8FC42BC22A80574010880F5
:10B33A0002C333D8FC42BD22AF05A80774010880B6
:08B34A0002C333D8FC42BE220D
:10B1E200EF1460191460251460312403703DA80522
:10B1F2007401088002C333D8FCF452B722A8057444
:10B2020001088002C333D8FCF452BC22A8057401A1
:10B21200088002C333D8FCF452BD22AF05A80774DC
:0CB2220001088002C333D8FCF452BE22A5
:10A45200EF14602D14604A1460672403600302A4A1
:10A46200E4EB600EA8057401088002C333D8FC42F5
:10A472008022A8057401088002C333D8FCF45280FC
:10A4820022EB600EA8057401088002C333D8FC4297
:10A492009022A8057401088002C333D8FCF45290BC
:10A4A20022EB600EA8057401088002C333D8FC4277
:10A4B200A022A8057401088002C333D8FCF452A07C
:10A4C20022EB600EA8057401088002C333D8FC4257
:10A4D200B022AF05A8077401088002C333D8FCF488
:03A4E20052B02253
:10AFF800EF14601A14602714603424037042A80503
:10B008007401088002C333D8FC5580FE8034A8053B
:10B018007401088002C333D8FC5590FE8024A8052B
:10B028007401088002C333D8FC55A0FE8014AF0514
:10B03800A8077401088002C333D8FC55B0FE80020B
:04B04800E4FEAF066D
:01B04C0022E1
:10B84700758911E4F58CF58AC28CF518F51A4389C8
:0CB8570001758CBC758ACDD2A9D28C2260
:03000B0002A92B1C
:0DA92B00C0E0C0D075D000C000C006C0075D
:10A93800C2AF758CBC758ACD05197527007E007469
:10A9480001A827088005C333CE33CED8F9FFEF55C9
:10A958001A602DE52725E02408F808E61618700186
:10A9680016E52725E02408F8E6FE08E64E7011AF44
:10A9780027A80704088002C333D8FC4218F4521AE7
:09A988000527E527B408B6D2AF9B
:0BA99100D007D006D000D0D0D0E032BC
:10B96900758911E4F58DF58BC28E438910758DBCEF
:08B97900758BCDD2ABD28E22FA
:03001B0002BA2FF7
:0DBA2F00C2AF758DBC758BCDB290D2AF3219
:10B9C00075C8F075CD58E4F5CC75CB58F5CA43C8A9
:04B9D00001D2AD22D1
:03002B0002BA46D0
:09BA4600C2AFC2C6B291D2AF3208
:10B76A00C2AFA8077401088002C333D8FCFE421A8C
:10B77A00EF25E02408F8A60408A605EEF45218D22C
:02B78A00AF22EC
:10B99600C2AFA8077401088002C333D8FCF4521A58
:05B9A6005218D2AF228F
:10B9E800C2AFA8077401088002C333D8FC5518FFFA
:02B9F800D2AFCC
:01B9FA00222A
:10B14700AB07AA06A905A8047F007E387D317C00DD
:10B157001236D8C3E49F90B29AF074049E90B299C5
:10B16700F043C9407D04E4FF12B30A7D05E4FF12F2
:10B17700B1E243803075D88075985090B299E0FC61
:0DB18700A3E0FDECF5BA8DAA43A810D2ACF0
:01B194002298
:10B27900AB07AA06A905A8047F007E707D627C0041
:10B289001236D8C3E49F90B29AF074049E90B29992
:10B29900F043C9207D06E4FF12B30A7D07E4FF12DB
:10B2A900B1E24380C0759B9090B299E0FCA3E0FDA8
:08B2B900ECF5BB8D9D439A01E9
:01B2C100226A
:10B66E007596C07597C0AB07AA06A905A8047F00FA
:10B67E007EC07D897C011236D8AD07AC06ECF5D9BB
:0FB68E00AF058FE743B80CE4FDFF12B30AC2808B
:01B69D00228A
:10B6F60075A78075AB80AB07AA06A905A8047F00CD
:10B706007EC07D897C011236D8AD07AC06ECF5AE5D
:07B71600AF058FAF43B8300F
:01B71D002209
:10B0A200EF14601B1460291460372403704490B2BB
:10B0B20095E0FCA3E0FDA3E0FEA3E0FF02B1479010
:10B0C200B295E0FCA3E0FDA3E0FEA3E0FF02B279AB
:10B0D20090B295E0FCA3E0FDA3E0FEA3E0FF02B680
:10B0E2006E90B295E0FCA3E0FDA3E0FEA3E0FF12A8
:03B0F200B6F6228D
:1077C40090B495EFF0A3ECF0A3EDF0A3EBF0A3EAF3
:0477D400F0A3E9F045
:1077D800C2AFE4A3F0A3F090B496E0FEA3E0FFC329
:1077E80090B49CE09F90B49BE09E400302789C90EC
:1077F800B498E0FBA3E475F0011235E0A9F0FA12A1
:1078080034E9FF90B495E0FE75F009A42400F582F0
:10781800E5F03488F583EE75F008A42583F583E058
:10782800FCA3E0FD75F009EEA42400F582E5F03430
:1078380080F583EE75F008A42583F583E5822DF5A0
:1078480082E5833CF583EFF075F009EEA42400F59A
:1078580082E5F03488F583EE75F008A42583F58376
:10786800E475F0011235CA75F009EEA42400F5821A
:10787800E5F03488F583EE75F008A42583F583E0F8
:107888005403F090B49CE004F0700690B49BE004BC
:10789800F00277DF90B495E01460421460701470C1
:1078A8000302795224036003027982908808E06019
:1078B8000302798204F0908802E0FEA3E02400F538
:1078C8008274803EF583E0F599908803E004F070B7
:1078D80006908802E004F090880202797E90901168
:1078E800E0600302798204F090900BE0FEA3E024AC
:1078F80009F58274883EF583E0F59C90900CE004CD
:10790800F0700690900BE004F090900B80689098CF
:107918001AE07066D28004F0909814E0FEA3E02488
:1079280012F58274903EF583E0FF30D0055396DF60
:1079380080034396208F9E909815E004F07006907F
:107948009814E004F0909814802C90A023E0702AFA
:1079580004F090A01DE0FEA3E0241BF58274983E7D
:10796800F583E0F5AC90A01EE004F0700690A01D31
:0C797800E004F090A01DE05403F0D2AF3A
:0179840022E0
:0300230002A6052D
:10A60500C0E0C083C082C0D075D000C006C007C2FC
:10A61500AF30982AC298908804E0FEA3E02400F5A4
:10A625008274843EF583E599F0908805E004F07026
:10A6350006908804E004F0908804E05403F0309913
:10A645003FC299908802E0FEA3E0FF908800E06E8B
:10A655007003A3E06F602474002FF58274803EF5CB
:10A6650083E0F599908803E004F07006908802E095
:10A6750004F0908802E05403F08005908808E4F027
:0FA68500D2AFD007D006D0D0D082D083D0E03271
:0300530002AAEB13
:10AAEB00C0E0C083C082C0D075D000C006C007C212
:10AAFB00AF5396FE909814E0FEA3E0FF909812E0FF
:10AB0B006E7003A3E06F603074122FF58274903E69
:10AB1B00F583E0FF30D0055396DF80034396208FFB
:10AB2B009E909815E004F07006909814E004F09055
:10AB3B009814E05403F0800790981AE4F0C280D286
:0EAB4B00AFD007D006D0D0D082D083D0E03279
:03005B0002ADCB28
:10ADCB00C0E0C083C082C0D075D000C006C007C22F
:10ADDB00AF5397FEE59FE59770047F0180027F00DC
:10ADEB00EF5420FFA2D0E433B50728909816E0FE6D
:10ADFB00A3E02412F58274943EF583E59FF09098BE
:10AE0B0017E004F07006909816E004F0909816E0A6
:10AE1B005403F0D2AFD007D006D0D0D082D083D09D
:02AE2B00E03213
:0300630002AE2DBD
:10AE2D00C0E0C083C082C0D075D000C006C007C2CC
:10AE3D00AF53A7FE90A01DE0FEA3E0FF90A01BE086
:10AE4D006E7003A3E06F6024741B2FF58274983E1F
:10AE5D00F583E0F5AC90A01EE004F0700690A01D07
:10AE6D00E004F090A01DE05403F0800590A023E4D1
:10AE7D00F0D2AFD007D006D0D0D082D083D0E03280
:03006B0002B3E2FB
:10B3E200C0E0C083C082C0D075D000C006C2AF53D7
:10B3F200ABFE90A01FE0FEA3E0241BF582749C3EEE
:10B40200F583E5ADF090A020E004F0700690A01F57
:10B41200E004F090A01FE05403F0D2AFD006D0D0E9
:07B42200D082D083D0E0329C
:0300830002A3B71E
:10A3B700C0E0C083C082C0D075D000C006C007C24D
:10A3C700AFE59B30E02E759B90539BFE90900DE080
:10A3D700FEA3E02409F582748C3EF583E59CF0909A
:10A3E700900EE004F0700690900DE004F090900D50
:10A3F700E05403F0E59B30E143759B90539BFD9040
:10A40700900BE0FEA3E0FF909009E06E7003A3E0DD
:10A417006F602474092FF58274883EF583E0F59CFC
:10A4270090900CE004F0700690900BE004F0909090
:10A437000BE05403F08005909011E4F0D2AFD00701
:0BA44700D006D0D0D082D083D0E0320D
:10B63C0090B2947403F0A374C8F043C9207D06E45F
:10B64C00FF12B30A7D07E4FF12B1E24380C0759B81
:10B65C009090B294E0FCA3E0FDECF5BB8D9D759C45
:01B66C000DD0
:01B66D0022BA
:10B8D10090B3ADEFF07B017AB379AD7D017C00E4EB
:0AB8E100FF1277C490B3ADE0FF2220
:10B9D400900001123502FE54F0C4540FFFEE540FD0
:04B9E400FD02B30AA3
:08B90500EBF0A3EAF0A3E9F066
:10B90D001234E9FE54F0C4540FFFEE540FFD02B192
:01B91D00E247
:08B91E00E0FBA3E0FAA3E0F94D
:10B926001234E9FE54F0C4540FFFEE540FFD02B377
:01B936000A06
:08B93700E0FBA3E0FAA3E0F934
:10B93F001234E9FE54F0C4540FFFEE540FFD02AF62
:01B94F00F8FF
:08B89B00E0FBA3E0FAA3E0F9D1
:10B8A3001234E9FE54F0C4540FFFEE540FFD7B0134
:03B8B30002A4529A
:08B8B600E0FBA3E0FAA3E0F9B6
:10B8BE001234E9FE54F0C4540FFFEE540FFDE4FBB6
:03B8CE0002A4527F
:08B80B00E0FBA3E0FAA3E0F961
:10B81300900001123502FE54F0C4540FFFEE540F92
:06B82300FD7B0102A452AE
:08B82900E0FBA3E0FAA3E0F943
:10B83100900001123502FE54F0C4540FFFEE540F74
:06B84100FDE4FB02A4522D
:10B4F30090B2BAEBF0A3EAF0A3E9F090B2BA12B9B2
:10B503001E90B2BA12B89B90B2BA12B80B7F0F7EDC
:10B513000012B98190B2BA12B8B67F0F7E0012B989
:0EB523008190B2BA12B8297F0F7E0002B98162
:10B4B40090B2BAEBF0A3EAF0A3E9F090B2BA12B9F1
:10B4C4001E90B2BA12B8B690B2BA12B80B7F0F7E01
:10B4D4000012B98190B2BA12B89B7F0F7E0012B9E4
:0FB4E4008190B2BAE0FBA3E0FAA3E0F902B90D40
:10B5310090B2BAEBF0A3EAF0A3E9F090B2BA12B973
:10B541001E90B2BA12B8B67F057E0012B98190B2D0
:10B55100BA12B80B7F057E0012B98190B2BA12B847
:08B56100297F057E0002B9817B
:10B5690090B2BAEBF0A3EAF0A3E9F090B2BA12B93B
:10B579001E90B2BA12B89B7F057E0012B98190B2B3
:10B58900BA12B80B7F057E0012B98190B2BA12B80F
:08B59900297F057E0002B98143
:03AEED0090B2BF61
:10AEF00012B90590B2BF12B89B7F057E0012B981CE
:10AF000090B2BF12B80B7F057E0012B981E490B2F7
:10AF1000C2F090B2BF12B937EF60137F057E001206
:10AF2000B98190B2C2E004F0E0C3943240E490B240
:10AF3000BF12B8297F057E0012B98190B2BFE0FB35
:09AF4000A3E0FAA3E0F902B9262E
:0EAD020090B2BAEFF0A3EBF0A3EAF0A3E9F0F1
:10AD100012B926E490B2BEF090B2BAE030E706A3D2
:10AD200012B89B800690B2BB12B8B690B2BAE025BA
:10AD3000E0F07F057E0012B98190B2BB12B80B7FA4
:10AD4000057E0012B98190B2BB12B82990B2BEE064
:10AD500004F0E0C36480948840BE90B2BBE0FBA3E3
:08AD6000E0FAA3E0F902AEEDF8
:03B04D0090B2BA04
:10B0500012B905E490B2BDF07F057E0012B981906F
:10B06000B2BA12B80B7F057E0012B98190B2BEE071
:10B07000FF25E0F090B2BA12B937EF90B2BE600689
:10B08000E04401F08004E054FEF090B2BA12B82916
:10B0900090B2BDE004F0E0C3940840BC90B2BEE0C2
:01B0A000FFB0
:01B0A100228C
:10B7AE006D6F646275734E756D203D202564200AA1
:0FB7BE000053797374656D2073746172740A009F
:10A82B0012B8471260AF12B63C90B2951237B00017
:10A83B000025807F0212B0A290B2951237B00001B2
:10A84B00C200E4FF12B0A2D2AF1269F612010012DD
:10A85B008B097BFF7AB779AE90AC0BE0FF90B38896
:10A86B00E4F0A3EFF012585F12ABC77DC87C00E495
:10A87B00FF12B76A7BFF7AB779BF12585F12A4E554
:10A88B0012B6CCE4FF12B9E8EF60121289C312BA08
:10A89B004F1263287DC87C00E4FF12B76A125B5924
:02A8AB0080DB50
:10010000E490B2A8F0A3F090B2A8E0FEA3E0FF90C4
:10011000A84A75F00F1237E1EE75F00FA42583F5AC
:10012000837461F090A84B75F00FEF1237E1EE7514
:10013000F00FA42583F583E4F090A84C75F00FEF41
:100140001237E1EE75F00FA42583F583E4F090A853
:100150004D75F00FEF1237E1EE75F00FA42583F522
:10016000837403F090A84E75F00FEF1237E1EE752F
:10017000F00FA42583F5837412F090A84F75F00F4B
:10018000EF1237E1EE75F00FA42583F583E4F090CC
:10019000A85075F00FEF1237E1EE75F00FA425832C
:1001A000F5837403F0A374E8F090A85275F00FEF94
:1001B0001237E1EE75F00FA42583F583E4F0A3F088
:1001C00090A85475F00FEF1237E1EE75F00FA425EB
:1001D00083F583E4F0A3F090A85675F00FEF123783
:1001E000E1EE75F00FA42583F5837401F0A374ACE0
:1001F000F0A37455F090B2A9E004F0700690B2A894
:03020000E004F027
:10020300E490B2AAF0A3F090B5D6E0FEA3E0FF908D
:10021300B2AAE0FCA3E0FDC39FEC9E40030203A847
:1002230090B2A8E0FEA3E0FFC39440EE9400400325
:10023300020397ED4C701890A84A75F00FEF123730
:10024300E1EE75F00FA42583F5837460F08028C375
:10025300ED9401EC9400401FED2461FF90B2A8E0FF
:10026300FCA3E090A84A75F00F1237E1EC75F00F8C
:10027300A42583F583EFF090B2A8E0FEA3E0FF90FE
:10028300A84B75F00F1237E1EE75F00FA42583F537
:1002930083E4F090A84C75F00FEF1237E1EE75F0A0
:1002A3000FA42583F583E4F090A84D75F00FEF12AA
:1002B30037E1EE75F00FA42583F5837403F090A85E
:1002C3004E75F00FEF1237E1EE75F00FA42583F5AD
:1002D300837421F090A84F75F00FEF1237E1EE759C
:1002E300F00FA42583F583E4F090A85075F00FEF89
:1002F3001237E1EE75F00FA42583F5837403F0A3A1
:1003030074E8F090B2AAE0FAA3E0FB7C007D23FF3F
:10031300AE02123563EF2430FFE43EFE90B2A8E054
:10032300FCA3E0FD90A85275F00F1237E1EC75F0D5
:100333000FA42583F583EEF0A3EFF090A85475F096
:100343000FED1237E1EC75F00FA42583F583E4F08C
:10035300A3F0FC7D42AF03AE02123563747D2FF927
:1003630074AC3EFA90B2A8E0FEA3E090A85675F0F4
:100373000F1237E1EE75F00FA42583F5837401F0B6
:10038300A3EAF0A3E9F090B2A9E004F0700690B2FA
:10039300A8E004F090B2ABE004F0700690B2AAE0DB
:0503A30004F002020A53
:1003A800E490B2AAF0A3F090B580E0FCA3E0FD9041
:1003B800B2AAE0FEA3E0FFC39DEE9C40030205182D
:1003C800C390B2A9E0944090B2A8E0940040030220
:1003D8000507EF24A0FDE0FAA3E0FB90A84A75F01A
:1003E8000F1237E1EA75F00FA42583F583EDF0903D
:1003F800A84B75F00FEB1237E1EA75F00FA42583CF
:10040800F583E4F090A84C75F00FEB1237E1EA752C
:10041800F00FA42583F583E4F090A84D75F00FEB59
:100428001237E1EA75F00FA42583F5837403F09081
:10043800A84E75F00FEB1237E1EA75F00FA425838B
:10044800F5837403F090A84F75F00FEB1237E1EACB
:1004580075F00FA42583F583E4F090A85075F00F8C
:10046800EB1237E1EA75F00FA42583F5837403F0E6
:10047800A374E8F07C007D05123563E42FFFEE34A9
:1004880002FE90B2A8E0FCA3E0FD90A85275F00F20
:100498001237E1EC75F00FA42583F583EEF0A3EF96
:1004A800F090A85475F00FED1237E1EC75F00FA439
:1004B8002583F583E4F0A3F090B2AAE0FEA3E0FF61
:1004C8007C007D06123563743D2FF974AC3EFA90BA
:1004D800B2A8E0FEA3E090A85675F00F1237E1EE3F
:1004E80075F00FA42583F5837401F0A3EAF0A3E95E
:1004F800F090B2A9E004F0700690B2A8E004F09081
:10050800B2ABE004F0700690B2AAE004F00203AFC8
:0D05180090B510E07002A3E06003020694AD
:1005250090B2AAF0A3F090B530E0FCA3E0FD90B244
:10053500AAE0FEA3E0FFC39DEE9C4003020812C3A0
:1005450090B2A9E0944090B2A8E09400400302065E
:1005550083EF2470FDE0FAA3E0FB90A84A75F00F45
:100565001237E1EA75F00FA42583F583EDF090A825
:100575004B75F00FEB1237E1EA75F00FA42583F503
:1005850083E4F090A84C75F00FEB1237E1EA75F0B3
:100595000FA42583F583E4F090A84D75F00FEB12B9
:1005A50037E1EA75F00FA42583F5837403F090A86D
:1005B5004E75F00FEB1237E1EA75F00FA42583F5C0
:1005C500837419F090A84F75F00FEB1237E1EA75B7
:1005D500F00FA42583F583E4F090A85075F00FEB98
:1005E5001237E1EA75F00FA42583F5837403F0A3B0
:1005F50074E8F07C007D19123563E42FFFEE3403B7
:10060500FE90B2A8E0FCA3E0FD90A85275F00F1291
:1006150037E1EC75F00FA42583F583EEF0A3EFF039
:1006250090A85475F00FED1237E1EC75F00FA42585
:1006350083F583E4F0A3F090B2AAE0FEA3E0FF7C8B
:10064500007D3212356374012FF974AD3EFA90B214
:10065500A8E0FEA3E090A85675F00F1237E1EE75FD
:10066500F00FA42583F5837401F0A3EAF0A3E9F064
:1006750090B2A9E004F0700690B2A8E004F090B240
:0F068500ABE004F0700690B2AAE004F002052B7F
:0F06940090B510E07004A3E06401600302081247
:1006A30090B2AAF0A3F090B550E0FCA3E0FD90B2A5
:1006B300AAE0FEA3E0FFC39DEE9C4003020812C321
:1006C30090B2A9E0944090B2A8E0940040030208DD
:1006D30001EF2470FDE0FAA3E0FB90A84A75F00F48
:1006E3001237E1EA75F00FA42583F583EDF090A8A6
:1006F3004B75F00FEB1237E1EA75F00FA42583F584
:1007030083E4F090A84C75F00FEB1237E1EA75F033
:100713000FA42583F583E4F090A84D75F00FEB1239
:1007230037E1EA75F00FA42583F5837403F090A8ED
:100733004E75F00FEB1237E1EA75F00FA42583F540
:10074300837437F090A84F75F00FEB1237E1EA7519
:10075300F00FA42583F583E4F090A85075F00FEB18
:100763001237E1EA75F00FA42583F5837403F0A330
:1007730074E8F07C007D37123563E42FFFEE340418
:10078300FE90B2A8E0FCA3E0FD90A85275F00F1212
:1007930037E1EC75F00FA42583F583EEF0A3EFF0BA
:1007A30090A85475F00FED1237E1EC75F00FA42506
:1007B30083F583E4F0A3F090B2AAE0FEA3E0FF7C0C
:1007C300007D6E12356374FB2FF974AD3EFA90B25F
:1007D300A8E0FEA3E090A85675F00F1237E1EE757E
:1007E300F00FA42583F5837401F0A3EAF0A3E9F0E5
:1007F30090B2A9E004F0700690B2A8E004F090B2C1
:0F080300ABE004F0700690B2AAE004F00206A980
:10081200E490B2AAF0A3F090B5AAE0FCA3E0FD90A8
:10082200B2AAE0FEA3E0FFC39DEE9C400302098151
:10083200C390B2A9E0944090B2A8E09400400302B1
:100842000970EF2490FDE0FAA3E0FB90A84A75F04E
:100852000F1237E1EA75F00FA42583F583EDF090CE
:10086200A84B75F00FEB1237E1EA75F00FA4258360
:10087200F583E4F090A84C75F00FEB1237E1EA75BE
:10088200F00FA42583F583E4F090A84D75F00FEBEB
:100892001237E1EA75F00FA42583F5837403F09013
:1008A200A84E75F00FEB1237E1EA75F00FA425831D
:1008B200F5837407F090A84F75F00FEB1237E1EA59
:1008C20075F00FA42583F583E4F090A85075F00F1E
:1008D200EB1237E1EA75F00FA42583F5837403F078
:1008E200A374E8F07C007D03123563E42FFFEE343D
:1008F20006FE90B2A8E0FCA3E0FD90A85275F00FAE
:100902001237E1EC75F00FA42583F583EEF0A3EF27
:10091200F090A85475F00FED1237E1EC75F00FA4CA
:100922002583F583E4F0A3F090B2ABE0C4F8540F52
:10093200C868FF90B2AAE0C454F048FE74D72FF9F9
:1009420074AE3EFA90A85675F00FED1237E1EC75D1
:10095200F00FA42583F5837401F0A3EAF0A3E9F074
:1009620090B2A9E004F0700690B2A8E004F090B250
:0F097200ABE004F0700690B2AAE004F00208199E
:10098100E490B2AAF0A3F090B566E0FCA3E0FD907C
:10099100B2AAE0FEA3E0FFC39DEE9C4003020C3E21
:1009A100C390B2A9E0944090B2A8E0940040030241
:1009B1000C2D90B564E07002A3E06003020AEDEF34
:1009C10024D0FD90B2A8E0FAA3E0FB90A84A75F00C
:1009D1000F1237E1EA75F00FA42583F583EDF0904E
:1009E100A84B75F00FEB1237E1EA75F00FA42583E0
:1009F100F583E4F090A84C75F00FEB1237E1EA753E
:100A0100F00FA42583F583E4F090A84D75F00FEB6A
:100A11001237E1EA75F00FA42583F5837403F09092
:100A2100A84E75F00FEB1237E1EA75F00FA425839C
:100A3100F5837401F090A84F75F00FEB1237E1EADE
:100A410075F00FA42583F583E4F090A85075F00F9D
:100A5100EB1237E1EA75F00FA42583F5837403F0F7
:100A6100A374E8F07C007D0A123563E42FFFEE34B5
:100A710007FE90B2A8E0FCA3E0FD90A85275F00F2C
:100A81001237E1EC75F00FA42583F583EEF0A3EFA7
:100A9100F090A85475F00FED1237E1EC75F00FA44A
:100AA1002583F583E4F0A37402F090B2ABE025E076
:100AB100FF90B2AAE033FE74792FF974AC3EFA903C
:100AC100A85675F00FED1237E1EC75F00FA42583F0
:100AD100F5837401F0A3EAF0A3E9F090B2A9E00470
:100AE100F0700690B2A8E004F0020C2D90B564E01D
:100AF1007004A3E064016003020C2D90B2AAE0FE31
:100B0100A3E0FF24D0FD90B2A8E0FAA3E0FB90A8F7
:100B11004A75F00F1237E1EA75F00FA42583F583CA
:100B2100EDF090A84B75F00FEB1237E1EA75F00F7D
:100B3100A42583F583E4F090A84C75F00FEB1237F0
:100B4100E1EA75F00FA42583F583E4F090A84D75D3
:100B5100F00FEB1237E1EA75F00FA42583F58374EA
:100B610003F090A84E75F00FEB1237E1EA75F00F24
:100B7100A42583F5837402F090A84F75F00FEB1252
:100B810037E1EA75F00FA42583F583E4F090A850CE
:100B910075F00FEB1237E1EA75F00FA42583F583A9
:100BA1007403F0A374E8F07C007D0A123563E42F2E
:100BB100FFEE3407FE90B2A8E0FCA3E0FD90A8523E
:100BC10075F00F1237E1EC75F00FA42583F583EE74
:100BD100F0A3EFF090A85475F00FED1237E1EC752A
:100BE100F00FA42583F583E4F0A3F090B2AAE0FE10
:100BF100A3E07802C333CE33CED8F9241BF974B005
:100C01003EFA90A85675F00FED1237E1EC75F00F32
:100C1100A42583F5837401F0A3EAF0A3E9F090B26F
:100C2100A9E004F0700690B2A8E004F090B2ABE045
:0D0C310004F0700690B2AAE004F0020988F9
:100C3E00E490B2AAF0A3F090B4B2E0FEA3E0FF906D
:100C4E00B2AAE0FAA3E0FBC39FEA9E4003020DA7FF
:100C5E0090B2A8E0FCA3E0FDC39440EC94004003E6
:100C6E00020D96EB04FF90A84A75F00FED1237E1D6
:100C7E00EC75F00FA42583F583EFF090A84B75F07B
:100C8E000FED1237E1EC75F00FA42583F583E4F038
:100C9E0090A84C75F00FED1237E1EC75F00FA4250E
:100CAE0083F583E4F090A84D75F00FED1237E1EC6B
:100CBE0075F00FA42583F5837403F090A84E75F09C
:100CCE000FED1237E1EC75F00FA42583F583740850
:100CDE00F090A84F75F00FED1237E1EC75F00FA400
:100CEE002583F583E4F090A85075F00FED1237E1EF
:100CFE00EC75F00FA42583F5837403F0A374E8F06C
:100D0E00AE02EB7803C333CE33CED8F92400FFEE18
:100D1E003408FE90A85275F00FED1237E1EC75F025
:100D2E000FA42583F583EEF0A3EFF090A85475F091
:100D3E000FED1237E1EC75F00FA42583F583E4F087
:100D4E00A3F090B2ABE0C4F8540FC868FF90B2AAFB
:100D5E00E0C454F048FE746B2FF974AF3EFA90A8BD
:100D6E005675F00FED1237E1EC75F00FA42583F5F3
:100D7E00837401F0A3EAF0A3E9F090B2A9E004F0C5
:100D8E00700690B2A8E004F090B2ABE004F07006EA
:090D9E0090B2AAE004F0020C4539
:100DA700E490B2AAF0A3F090B5B2E0FCA3E0FD9006
:100DB700B2AAE0FEA3E0FFC39DEE9C4003020F171B
:100DC700C390B2A9E0944090B2A8E0940040030217
:100DD7000F06EF241AFDE0FAA3E0FB90A84A75F08E
:100DE7000F1237E1EA75F00FA42583F583EDF09034
:100DF700A84B75F00FEB1237E1EA75F00FA42583C6
:100E0700F583E4F090A84C75F00FEB1237E1EA7523
:100E1700F00FA42583F583E4F090A84D75F00FEB50
:100E27001237E1EA75F00FA42583F5837403F09078
:100E3700A84E75F00FEB1237E1EA75F00FA4258382
:100E4700F583740BF090A84F75F00FEB1237E1EABA
:100E570075F00FA42583F583E4F090A85075F00F83
:100E6700EB1237E1EA75F00FA42583F5837403F0DD
:100E7700A374E8F07C007D1E123563E42FFFEE3487
:100E870009FE90B2A8E0FCA3E0FD90A85275F00F10
:100E97001237E1EC75F00FA42583F583EEF0A3EF8D
:100EA700F090A85475F00FED1237E1EC75F00FA430
:100EB7002583F583E4F0A3F090B2AAE0FEA3E0FF58
:100EC7007C007D1812356374EB2FF974AF3EFA90EE
:100ED700B2A8E0FEA3E090A85675F00F1237E1EE36
:100EE70075F00FA42583F5837401F0A3EAF0A3E955
:100EF700F090B2A9E004F0700690B2A8E004F09078
:100F0700B2ABE004F0700690B2AAE004F0020DAEB6
:100F1700E490B2AAF0A3F090B5B2E0FCA3E0FD9094
:100F2700B2AAE0FEA3E0FFC39DEE9C400302108936
:100F3700C390B2A9E0944090B2A8E09400400302A5
:100F47001078EF241AFDE0FAA3E0FB90A84A75F0A9
:100F57000F1237E1EA75F00FA42583F583EDF090C2
:100F6700A84B75F00FEB1237E1EA75F00FA4258354
:100F7700F583E4F090A84C75F00FEB1237E1EA75B2
:100F8700F00FA42583F583E4F090A84D75F00FEBDF
:100F97001237E1EA75F00FA42583F5837402F09008
:100FA700A84E75F00FEB1237E1EA75F00FA4258311
:100FB700F5837410F090A84F75F00FEB1237E1EA44
:100FC70075F00FA42583F583E4F090A85075F00F12
:100FD700EB1237E1EA75F00FA42583F5837403F06C
:100FE700A374E8F07C007D14123563E42FFFEE3420
:100FF7000AFE90B2A8E0FCA3E0FD90A85275F00F9E
:101007001237E1EC75F00FA42583F583EEF0A3EF1B
:10101700F090A85475F00FED1237E1EC75F00FA4BE
:101027002583F5837403F0A3E4F090B2AAE0FEA34E
:10103700E0FF7C007D1812356374012FF974B03E10
:10104700FA90B2A8E0FEA3E090A85675F00F123709
:10105700E1EE75F00FA42583F5837401F0A3EAF0A0
:10106700A3E9F090B2A9E004F0700690B2A8E004FA
:10107700F090B2ABE004F0700690B2AAE004F00280
:021087000F1E3A
:10108900E490B2AAF0A3F090B5B4E0FCA3E0FD901F
:10109900B2AAE0FEA3E0FFC39DEE9C40030211FA51
:1010A900C390B2A9E0944090B2A8E0940040030232
:1010B90011E9EF2480FDE0FAA3E0FB90A84A75F05E
:1010C9000F1237E1EA75F00FA42583F583EDF0904F
:1010D900A84B75F00FEB1237E1EA75F00FA42583E1
:1010E900F583E4F090A84C75F00FEB1237E1EA753F
:1010F900F00FA42583F583E4F090A84D75F00FEB6C
:101109001237E1EA75F00FA42583F5837403F09093
:10111900A84E75F00FEB1237E1EA75F00FA425839D
:10112900F5837415F090A84F75F00FEB1237E1EACB
:1011390075F00FA42583F583E4F090A85075F00F9E
:10114900EB1237E1EA75F00FA42583F5837403F0F8
:10115900A374E8F07C007D1E123563E42FFFEE34A2
:101169000BFE90B2A8E0FCA3E0FD90A85275F00F29
:101179001237E1EC75F00FA42583F583EEF0A3EFA8
:10118900F090A85475F00FED1237E1EC75F00FA44B
:101199002583F583E4F0A304F090B2AAE0FEA3E06E
:1011A900FF7C007D2A12356374172FF974AF3EFA5C
:1011B90090B2A8E0FEA3E090A85675F00F1237E1AF
:1011C900EE75F00FA42583F5837401F0A3EAF0A36B
:1011D900E9F090B2A9E004F0700690B2A8E004F03A
:1011E90090B2ABE004F0700690B2AAE004F00210ED
:0111F9009065
:0911FA0090B2A8A3E090AC0BF048
:0112030022C8
:1081BA0055AA5AA500FF6E55000000FF7270000014
:1081CA0000000000000000000000000000000000A5
:1081DA00000000000000FF9945FF95E5000000003F
:1081EA000000000000000000000000FF5E340000F4
:1081FA0000000000000000FF904C0000000000009A
:10820A00000000FF914D000000000000FF96BD0035
:10821A000000000000000000FF924D000000FF9BDC
:10822A00C6000000000000000000FF47C700000071
:10823A00000000FF9795000000FF9A1B0000000055
:10824A000000000000FF7E93000000FF986D000010
:10825A0000FF942B00000000000000000000000056
:10826A00000000000000FF67C1000000FF42030099
:10827A0000000000000000000000000000000000F4
:10828A0000FF8878000000FF3AFE000000FF743803
:10829A00000000000000FF254BFF8C28FF8D31FFF6
:1082AA008E3AFF8F43FFAC32000000FFA11E000090
:1082BA0000000000FFA8ADFF7B45FF6C28FF75FE9C
:1082CA00000000000000000000000000000000FFA5
:1082DA008478000000000000000000000000000098
:1082EA0000FF7CEC000000FF706500000000000049
:1082FA000000000000000000000000000000000074
:10830A000000000000000000FF831BFF2C9F0000FC
:01831A000062
:101D260041A024004FA03601000005010003E895FC
:101D36004000060000004FA0450200000501000318
:101D4600E8954100060000004FA05403000005017D
:101D56000003E8954200060000004FA0630400005F
:101D660005010003E8954300060000004FA0720538
:101D7600000005010003E8954400060000004FA09E
:101D86008106000005010003E895450006000000F5
:101D96004FA09007000005010003E89546000600E5
:101DA60000004FA09F08000005010003E8954700CA
:101DB6000600000042A82E000044A83F00000000D4
:051DC60042A8430000EB
:10B9500090B711ECF0A3EDF07B017AB7791190B4B8
:09B96000A3E4F0A304F002802727
:10B86300E4F5F175F208F5F375F40175F8AF30FC02
:0BB87300FDD2FE20FEFDAFFBE4F5F867
:01B87E0022A7
:10B7CD00E4F5F175F208F5F375F40175F88C30FCBC
:0FB7DD00FDE4F5FAF5FBD2FE20FEFDE4F5F822BF
:106E55007B017AB2799690B4A2E4F0A37402F07F34
:106E6500007E0F12798590B296E0645A6003027035
:016E750054C8
:106E7600A3E0FEA3E0FF7B017AB2799AA3E0FC339C
:106E860095E090B4A2F0A3CCF012798590B297E089
:106E9600FEA3E08EF012389C6EC280006EE6800182
:106EA6006F1080066F3680076F8B80086FAA800A86
:106EB6006FC9800B6FE8800C0000700E90B29AE0EC
:106EC6007004A3E06401600302700E90B65EE07089
:106ED6000690B60AE060057F020270097F028022F2
:106EE60090B29AE07004A3E06401600302700E9011
:106EF600B65EE0700690B60AE060057F160270097D
:106F06007F167E0012B74602700E90B29AE07004A9
:106F1600A3E06401600302700ED390B4B3E0940062
:106F260090B4B2E09400500302700E7F46027009DE
:106F360090B29AE07004A3E06401600302700E90C0
:106F4600B510E07002A3E07017D390B531E094005D
:106F560090B530E09400500302700E7F5E02700917
:106F660090B510E07004A3E06401600302700ED3D4
:106F760090B551E0940090B550E094005003027033
:106F86000E7F5E807E90B29AE07004A3E06401708A
:106F960077D390B581E0940090B580E09400406886
:106FA6007F48805F90B29AE07004A3E06401705855
:106FB600D390B5B3E0940090B5B2E0940040497F19
:106FC60052804090B29AE07004A3E064017039D315
:106FD60090B5ABE0940090B5AAE09400402A7F56A5
:106FE600802190B29AE07004A3E06401701AD390F5
:106FF600B5D7E0940090B5D6E0940040047F578062
:10700600027F3F7E0012A7A67E007F057D007B01E2
:107016007AB2799A123A7990B297E0FEA3E0FF7BB2
:10702600017AB2799AA3E0FC3395E090B4A3F0A379
:10703600CCF0128027E490B296F07B017AB2799672
:0E70460090B4A3F0A304F07F007E0F12802709
:1070540090B65EE06002E4F090B60AE06002E4F00C
:017064002209
:107270007B017AB2799690B4A2E4F0A37402F07F15
:10728000007E0F12798590B296E0645A6003027412
:0172900037C6
:10729100A3E0FEA3E0FF7B017AB2799AA3E0FC337D
:1072A10095E090B4A2F0A3CCF012798590B297E06A
:1072B100FEA3E08EF012389C72DD802073028021E3
:1072C10073278022734C8023736F8024738F8025F2
:1072D10073AF802673D38027000073F190B29AE0D8
:1072E1007004A3E0640160030273F190B65EE07084
:1072F1000690B60AE060057F0B0273C97F0B02732B
:10730100CF90B29AE07004A3E0640160030273F1CC
:1073110090B65EE0700690B60AE060057F230273C6
:10732100C97F230273CF90B29AE07004A3E0640195
:1073310060030273F190B65EE0700690B60AE060F9
:10734100057F270273C97F270273CF90B29AE0703D
:1073510004A3E0640160030273F190B65EE070067D
:1073610090B60AE060047F2A805E7F2A806090B236
:107371009AE07004A3E06401707690B65EE0700656
:1073810090B60AE060047F2C803E7F2C804090B252
:107391009AE07004A3E06401705690B65EE0700656
:1073A10090B60AE060047F30801E7F30802090B26A
:1073B1009AE07004A3E06401703690B65EE0700656
:1073C10090B60AE060067F327E00801C7F327E002C
:1073D100801B90B29AE07004A3E06401701290B631
:1073E1000AE07F347E00600512A7A6800312B7462B
:1073F1007E007F057D007B017AB2799A123A7990FD
:10740100B297E0FEA3E0FF7B017AB2799AA3E0FC98
:107411003395E090B4A3F0A3CCF0128027E490B2AE
:1074210096F07B017AB2799690B4A3F0A304F07F31
:06743100007E0F1280270F
:017437002232
:109945007B017AB2799690B4A2E4F0A37402F07F19
:10995500007E0F12798590B296E0645A6003029AF0
:019965001AE7
:10996600A3E0FEA3E0FF7B017AB2799AA3E0FC3381
:1099760095E090B4A2F0A3CCF012798590B297E06E
:10998600FEA3E08EF012389C99968041000099D48F
:1099960090B29AE07004A3E0640170327B017AB45D
:1099A60079D090B4A2F0A3740CF07F007E90127967
:1099B6008590B2AC7490F0A3E4F0A3F0A3740CF01D
:1099C6007F007E017D007C0012A26D1201007E00E8
:1099D6007F057D007B017AB2799A123A7990B29727
:1099E600E0FEA3E0FF7B017AB2799AA3E0FC33950F
:1099F600E090B4A3F0A3CCF0128027E490B296F0E6
:109A06007B017AB2799690B4A3F0A304F07F007E2E
:049A16000F12802784
:019A1A002229
:1095E5007B017AB2799690B4A2E4F0A37402F07F7D
:1095F500007E0F12798590B296E0645A6003029658
:01960500BCA8
:10960600A3E0FEA3E0FF7B017AB2799AA3E0FC33E4
:1096160095E090B4A2F0A3CCF012798590B297E0D1
:10962600FEA3E08EF012389C963680600000967697
:1096360090B29AE07004A3E0640170347B017AB4BE
:1096460079EC90B4A2F0A37406F07F507E90127964
:109656008590B2AC7490F0A37450F0A3E4F0A374B8
:1096660006F07F507E017D007C0012A26D12010083
:109676007E007F057D007B017AB2799A123A799055
:10968600B297E0FEA3E0FF7B017AB2799AA3E0FCF1
:109696003395E090B4A3F0A3CCF0128027E490B207
:1096A60096F07B017AB2799690B4A3F0A304F07F8A
:0696B600007E0F12802768
:0196BC00228B
:105E34007B017AB2799690B4A2E4F0A37402F07F65
:105E4400007E0F12798590B296E0645A6003025F77
:015E5400B499
:105E5500A3E0FEA3E0FF7B017AB2799AA3E0FC33CD
:105E650095E090B4A2F0A3CCF012798590B297E0BA
:105E7500FEA3E08EF012389C5E9580605EDB90B1EB
:105E85005EFF90B25F2390B35F4790B400005F6EF2
:105E950090B29AE07004A3E064016003025F6E7B38
:105EA500017AB479F890B4A2F0A3740CF07FA07EC7
:105EB5009012798590B2AC7490F0A374A0F0A3E42D
:105EC500F0A3740CF07FA07E017D007C0012A26D12
:105ED500120100025F6E90B4D4E07002A3E07B0172
:105EE5007AB2799A90B4A37008F0A304F07FA180E8
:105EF50073E4F0A304F07FA5806A90B4D4E0700247
:105F0500A3E07B017AB2799A90B4A37008F0A30458
:105F1500F07FA28007E4F0A304F07FA6804690B44A
:105F2500D4E07002A3E07B017AB2799A90B4A370B1
:105F350008F0A304F07FA38007E4F0A304F07FA793
:105F4500802290B4D4E07002A3E07B017AB2799A02
:105F550090B4A37008F0A304F07FA48007E4F0A335
:105F650004F07FA87E901280277E007F057D007B50
:105F7500017AB2799A123A7990B297E0FEA3E0FFDE
:105F85007B017AB2799AA3E0FC3395E090B4A3F053
:105F9500A3CCF0128027E490B296F07B017AB27917
:0F5FA5009690B4A3F0A304F07F007E0F12802724
:0A5FB40090B4D0E07002A3E0706822
:105FBE0090B29A7490F0A374A1F07B017AB2799AA0
:105FCE0090B4A3E4F0A304F07F007E5012802790DB
:105FDE00B29A7490F0A374A2F07B017AB2799A907F
:105FEE00B4A3E4F0A304F07F207E5012802790B279
:105FFE009A7490F0A374A3F07B017AB2799A90B45C
:10600E00A3E4F0A304F07F407E5012802790B29A52
:06601E007490F0A374A4CD
:0E602400807290B4D0E07004A3E06401707C40
:1060320090B29A7490F0A374A5F07B017AB2799A27
:1060420090B4A3E4F0A304F07F007E501280279066
:10605200B29A7490F0A374A6F07B017AB2799A9006
:10606200B4A3E4F0A304F07F207E5012802790B204
:106072009A7490F0A374A7F07B017AB2799A90B4E3
:10608200A3E4F0A304F07F407E5012802790B29ADE
:106092007490F0A374A8F07B017AB2799A90B4A3B9
:0C60A200E4F0A304F07F607E5012802721
:0160AE0022CF
:10904C007B017AB2799690B4A2E4F0A37402F07F1B
:10905C00007E0F12798590B296E0645A60030291FB
:01906C004CB7
:10906D00A3E0FEA3E0FF7B017AB2799AA3E0FC3383
:10907D0095E090B4A2F0A3CCF012798590B297E070
:10908D00FEA3E08EF012389C90A5808090E5912093
:10909D0090F491210000910690B29AE07004A3E043
:1090AD00640170557B017AB5799690B4A2F0A374E2
:1090BD0028F07F007E9112798590B2AC7491F0A367
:1090CD00E4F0A3F0A37428F07F007E027D007C0005
:1090DD0012A26D120100802190B29AE07004A3E0FB
:1090ED0064017015FF800E90B29AE07004A3E064E5
:1090FD000170067F01FE12A6947E007F057D007B28
:10910D00017AB2799A123A7990B297E0FEA3E0FF14
:10911D007B017AB2799AA3E0FC3395E090B4A3F089
:10912D00A3CCF0128027E490B296F07B017AB2794D
:0F913D009690B4A3F0A304F07F007E0F1280275A
:01914C002200
:10914D007B017AB2799690B4A2E4F0A37402F07F19
:10915D00007E0F12798590B296E0645A60030292F8
:01916D0010F1
:10916E00A3E0FEA3E0FF7B017AB2799AA3E0FC3381
:10917E0095E090B4A2F0A3CCF012798590B297E06E
:10918E00FEA3E08EF012389C91A2915091B69152AE
:10919E00000091CA90B29AE07004A3E06401701CC2
:1091AE007F1AFE12B746801490B29AE07004A3E0C4
:1091BE006401700890B65EF090B60AF07E007F05EE
:1091CE007D007B017AB2799A123A7990B297E0FEDD
:1091DE00A3E0FF7B017AB2799AA3E0FC3395E0908D
:1091EE00B4A3F0A3CCF0128027E490B296F07B01EA
:1091FE007AB2799690B4A3F0A304F07F007E0F129A
:02920E008027B7
:1092100090B60AE0600B90B29AE4F0A37402F0807A
:109220001790B65EE0600A90B29AE4F0A304F08072
:1092300007E490B29AF0A3F07B017AB2799A90B4E5
:0D924000A3E4F0A304F07F607E910280277C
:1096BD007B017AB2799690B4A2E4F0A37402F07FA4
:1096CD00007E0F12798590B296E0645A600302977E
:0196DD0094F8
:1096DE00A3E0FEA3E0FF7B017AB2799AA3E0FC330C
:1096EE0095E090B4A2F0A3CCF012798590B297E0F9
:1096FE00FEA3E08EF012389C970E80C00000974EAD
:10970E0090B29AE07004A3E0640170347B017AB4E5
:10971E0079B890B4A2F0A3740CF07FA07E91127968
:10972E008590B2AC7491F0A374A0F0A3E4F0A3748E
:10973E000CF07F507E027D007C0012A26D120100A3
:10974E007E007F057D007B017AB2799A123A79907C
:10975E00B297E0FEA3E0FF7B017AB2799AA3E0FC18
:10976E003395E090B4A3F0A3CCF0128027E490B22E
:10977E0096F07B017AB2799690B4A3F0A304F07FB1
:06978E00007E0F1280278F
:0197940022B2
:10924D007B017AB2799690B4A2E4F0A37402F07F18
:10925D00007E0F12798590B296E0645A60030293F6
:01926D0045BB
:10926E00A3E0FEA3E0FF7B017AB2799AA3E0FC3380
:10927E0095E090B4A2F0A3CCF012798590B297E06D
:10928E00FEA3E08EF012389C92AA009D92AA009E38
:10929E0092AA009F92B280E00000932C90A02474BA
:1092AE0001F0807A90B29AE07004A3E06401706ECF
:0792BE0090A024E0B401249C
:1092C5007B017AB279A490B4A2E4F0A37404F07F90
:1092D5009D7E001279857B017AB279A4129AF1E418
:0492E50090A024F041
:1092E9007B017AB479E890B4A2E4F0A304F07FF0AA
:1092F9007E911279857B017AB479E890B38CE4F098
:10930900A37402F07FA0FE7D007C0012A06E7B0199
:109319007AB479E890B4A3E4F0A304F07F837E00E3
:10932900128027E490B296F07B017AB2799690B4D4
:0C933900A3F0A304F07F007E0F12802739
:019345002205
:109BC6007B017AB2799690B4A2E4F0A37402F07F96
:109BD600007E0F12798590B296E0645A6003029C6B
:019BE60095E9
:109BE700A3E0FEA3E0FF7B017AB2799AA3E0FC33FE
:109BF70095E090B4A2F0A3CCF012798590B297E0EB
:109C0700FEA3E07043EE247F703E90B29AE07004AA
:109C1700A3E0640170327B017AB5796090B4A2F059
:109C2700A3741AF07F007E9212798590B2AC749279
:109C3700F0A3E4F0A3F0A3741AF07F007E037D0085
:109C47007C0012A26D1201007E007F057D007B0162
:109C57007AB2799A123A7990B297E0FEA3E0FF7B45
:109C6700017AB2799AA3E0FC3395E090B4A3F0A30C
:109C7700CCF0128027E490B296F07B017AB2799605
:0E9C870090B4A3F0A304F07F007E0F1280279C
:019C950022AC
:1047C7007B017AB2799690B4A2E4F0A37402F07FE9
:1047D700007E0F12798590B296E0645A6003024B0F
:0147E700A031
:1047E800A3E0FEA3E0FF7B017AB2799AA3E0FC3351
:1047F80095E090B4A2F0A3CCF012798590B297E03E
:10480800FEA3E08EF012389C48388120487E9250F2
:1048180048969280499592814A5E92824A9B9283F9
:104828004AD892844B1492854B4C928600004B8751
:1048380090B29AE07004A3E064016003024B877BA6
:10484800017AB5791090B4A2F0A37428F07F507E55
:104858009212798590B2AC7492F0A37450F0A3E4EC
:10486800F0A37428F07F507E037D007C0012A26DB7
:10487800120100024B877B017AB5791090B4A2E44B
:10488800F0A304F07F507E92127985024B8790B591
:1048980010E07002A3E0707390B29AE0FEA3E0FF0C
:1048A800C3EE94005003024B87D3EF9405EE9400B7
:0548B8004003024B87E4
:1048BD0090B2A4EEF0A3EFF07B017AB279A490B49C
:1048CD00A3E4F0A304F07F607E921280277B017A2F
:1048DD00B279A690B4A2E4F0A304F07F617E9212A7
:1048ED00798590B2A4E0FEA3E0FF7C007D1812351F
:1048FD0063D390B2A7E09F90B2A6E09E4005EEF084
:03490D00A3EFF025
:104910000249E490B510E07004A3E0640160030272
:104920004B8790B29AE0FEA3E0FFC3EE94005003E1
:0F493000024B87D3EF9402EE94004003024B87B3
:10493F0090B2A4EEF0A3EFF07B017AB279A490B419
:10494F00A3E4F0A304F07F707E921280277B017A9C
:10495F00B279A690B4A2E4F0A304F07F717E921214
:10496F00798590B2A4E0FEA3E0FF7C007D3712357D
:10497F0063D390B2A7E09F90B2A6E09E4005EEF001
:03498F00A3EFF0A3
:0D499200024A4B90B510E07002A3E070588F
:10499F0090B29AE0FFA3E090B2A6CFF0A3EFF07B26
:1049AF00017AB279A490B4A2E4F0A304F07F607E00
:1049BF009212798590B2A4E0FEA3E0FF7C007D18EF
:1049CF00123563D390B2A7E09F90B2A6E09E400548
:1049DF00EEF0A3EFF07B017AB279A690B4A3E4F0E6
:0549EF00A304F07F614C
:1049F400024B8290B510E07004A3E06401600302EE
:024A04004B87DE
:104A060090B29AE0FFA3E090B2A6CFF0A3EFF07BBE
:104A1600017AB279A490B4A2E4F0A304F07F707E88
:104A26009212798590B2A4E0FEA3E0FF7C007D3768
:104A3600123563D390B2A7E09F90B2A6E09E4005E0
:104A4600EEF0A3EFF07B017AB279A690B4A3E4F07E
:054A5600A304F07F71D4
:104A5B00024B8290B510E07002A3E070127B017ADA
:104A6B00B2799A90B4A3F0A304F07F62024B8290C8
:104A7B00B510E07004A3E064016003024B877B0177
:104A8B007AB2799A90B4A3F0A304F07F72024B82AE
:104A9B0090B510E07002A3E070127B017AB2799AA4
:104AAB0090B4A3F0A304F07F63024B8290B510E0A7
:104ABB007004A3E064016003024B877B017AB27937
:104ACB009A90B4A3F0A304F07F73024B8290B510BD
:104ADB00E07002A3E070127B017AB2799A90B4A3D2
:104AEB00F0A304F07F64024B8290B510E07004A336
:104AFB00E064016003024B877B017AB2799A90B430
:104B0B00A3F0A304F07F74806E90B510E07002A345
:104B1B00E070117B017AB2799A90B4A3F0A304F000
:104B2B007F65805390B510E07004A3E06401704C76
:104B3B007B017AB2799A90B4A3F0A304F07F7580CD
:104B4B003690B510E07002A3E070117B017AB27958
:104B5B009A90B4A3F0A304F07F66801B90B510E08D
:104B6B007004A3E0640170147B017AB2799A90B45B
:104B7B00A3F0A304F07F767E92128027E490B29686
:104B8B00F07B017AB2799690B4A3F0A304F07F0086
:054B9B007E0F128027CF
:0D4BA00090B510E07002A3E06003024C73BA
:104BAD0090B29A7492F0A37460F07B017AB2799A04
:104BBD0090B4A3E4F0A304F07F007E5212802790FE
:104BCD00B29A7492F0A37461F07B017AB2799A90E3
:104BDD00B4A3E4F0A304F07F207E5212802790B29C
:104BED009A7492F0A37462F07B017AB2799A90B4C0
:104BFD00A3E4F0A304F07F407E5212802790B29A76
:104C0D007492F0A37463F07B017AB2799A90B4A395
:104C1D00E4F0A304F07F607E5212802790B29A7464
:104C2D0092F0A37464F07B017AB2799A90B4A3E404
:104C3D00F0A304F07F807E5212802790B29A749276
:104C4D00F0A37465F07B017AB2799A90B4A3E4F085
:104C5D00A304F07FA07E5212802790B29A7492F036
:034C6D00A37466C7
:104C7000024D4590B510E07004A3E06401600302AA
:024C80004D5B8A
:104C820090B29A7492F0A37470F07B017AB2799A1E
:104C920090B4A3E4F0A304F07F007E521280279028
:104CA200B29A7492F0A37471F07B017AB2799A90FD
:104CB200B4A3E4F0A304F07F207E5212802790B2C6
:104CC2009A7492F0A37472F07B017AB2799A90B4DA
:104CD200A3E4F0A304F07F407E5212802790B29AA0
:104CE2007492F0A37473F07B017AB2799A90B4A3B0
:104CF200E4F0A304F07F607E5212802790B29A748F
:104D020092F0A37474F07B017AB2799A90B4A3E41E
:104D1200F0A304F07F807E5212802790B29A7492A0
:104D2200F0A37475F07B017AB2799A90B4A3E4F09F
:104D3200A304F07FA07E5212802790B29A7492F060
:104D4200A37476F07B017AB2799A90B4A3E4F0A3CB
:094D520004F07FC07E521280279C
:014D5B002235
:109795007B017AB2799690B4A2E4F0A37402F07FCB
:1097A500007E0F12798590B296E0645A60030298A4
:0197B5006C47
:1097B600A3E0FEA3E0FF7B017AB2799AA3E0FC3333
:1097C60095E090B4A2F0A3CCF012798590B297E020
:1097D600FEA3E08EF012389C97E6814000009826A2
:1097E60090B29AE07004A3E0640170347B017AB50C
:1097F60079B690B4A2F0A37416F07FA07E92127987
:109806008590B2AC7492F0A374A0F0A3E4F0A374B4
:1098160016F07FA07E037D007C0012A26D1201006F
:109826007E007F057D007B017AB2799A123A7990A3
:10983600B297E0FEA3E0FF7B017AB2799AA3E0FC3F
:109846003395E090B4A3F0A3CCF0128027E490B255
:1098560096F07B017AB2799690B4A3F0A304F07FD8
:06986600007E0F128027B6
:01986C0022D9
:109A1B007B017AB2799690B4A2E4F0A37402F07F42
:109A2B00007E0F12798590B296E0645A6003029A19
:019A3B00F03A
:109A3C00A3E0FEA3E0FF7B017AB2799AA3E0FC33AA
:109A4C0095E090B4A2F0A3CCF012798590B297E097
:109A5C00FEA3E08EF012389C9A6C816000009AAAEA
:109A6C0090B29AE07004A3E0640170327B017AB486
:109A7C0079B090B4A2F0A37406F07F007E931279B3
:109A8C008590B2AC7493F0A3E4F0A3F0A37406F049
:109A9C007F007E047D007C0012A26D1201007E000E
:109AAC007F057D007B017AB2799A123A7990B29750
:109ABC00E0FEA3E0FF7B017AB2799AA3E0FC339538
:109ACC00E090B4A3F0A3CCF0128027E490B296F00F
:109ADC007B017AB2799690B4A3F0A304F07F007E58
:049AEC000F128027AE
:019AF0002253
:107E93007B017AB2799690B4A2E4F0A37402F07FE6
:107EA300007E0F12798590B296E0645A6003027FD8
:017EB300FBD3
:107EB400A3E0FEA3E0FF7B017AB2799AA3E0FC334E
:107EC40095E090B4A2F0A3CCF012798590B297E03B
:107ED400FEA3E08EF012389C7EE881807F2D9360B3
:107EE40000007FB590B29AE07004A3E064016003DF
:107EF400027FB57B017AB579AA90B4A2F0A3740489
:107F0400F07F507E9312798590B2AC7493F0A37491
:107F140050F0A3E4F0A37404F07F50FE7D007C00D5
:107F240012A26D120100027FB590B29AE07004A310
:107F3400E06401707CD390B5ABE0940090B5AAE006
:047F44009400406DF8
:107F480090AEE1E0FEA3E0FF20E0047D0180027D29
:107F580000ED5401FDEF54FEFFEF4DFF90AEE1EE52
:107F6800F0A3EFF05401FF90A034E4F0A3EFF090F9
:107F7800A02574FEF0E4A3F0A3F0A37406F0A374A4
:107F880001F0E4A3F0A37403F0A374E8F0E4A3F011
:107F9800A3F0A3F0A37405F0A37401F0A374A0F0F8
:0D7FA800A37434F07B017AA0792512B69EF7
:107FB5007E007F057D007B017AB2799A123A79902D
:107FC500B297E0FEA3E0FF7B017AB2799AA3E0FCC9
:107FD5003395E090B4A3F0A3CCF0128027E490B2DF
:107FE50096F07B017AB2799690B4A3F0A304F07F62
:067FF500007E0F12802740
:107FFB0090AEE2E07E0030E0047F0180027F0090D3
:10800B00B29AEEF0A3EFF07B017AB2799A90B4A317
:0C801B00E4F0A304F07F617E9302802754
:10986D007B017AB2799690B4A2E4F0A37402F07FF2
:10987D00007E0F12798590B296E0645A60030299CA
:01988D004496
:10988E00A3E0FEA3E0FF7B017AB2799AA3E0FC335A
:10989E0095E090B4A2F0A3CCF012798590B297E047
:1098AE00FEA3E08EF012389C98BE81A0000098FEB8
:1098BE0090B29AE07004A3E0640170347B017AB533
:1098CE0079B290B4A2F0A37402F07FA07E931279C5
:1098DE008590B2AC7493F0A374A0F0A3E4F0A374DB
:1098EE0002F07FA07E047D007C0012A26D120100AA
:1098FE007E007F057D007B017AB2799A123A7990CB
:10990E00B297E0FEA3E0FF7B017AB2799AA3E0FC66
:10991E003395E090B4A3F0A3CCF0128027E490B27C
:10992E0096F07B017AB2799690B4A3F0A304F07FFF
:06993E00007E0F128027DD
:019944002200
:1095090090B4ECE4F0A304F0A37411F0A37494F004
:10951900A3740CF0A3749EF090B4F4740AF0A374CD
:10952900F0F0A37407F0A3744EF07B017AB479ECE0
:1095390090B38CE4F0A37406F07F507E017D007C2B
:109549000012A06E7B017AB479EC90B4A3E4F0A385
:109559007406F07F507E9012802790B4FA740AF056
:10956900A37428F0A37407F0A374D0F0A37409F0CE
:10957900A37474F0A37407F0A374D0F0A37405F076
:10958900A37414F0A37403F0A374E8F0A37404F0B3
:10959900A374B0F0A37403F0A374E8F0A37403F008
:1095A900A374E8F0A37403F0A374E8F07B017AB420
:1095B90079F890B38CE4F0A3740CF07FA07E017D60
:1095C900007C0012A06E7B017AB479F890B4A3E410
:0C95D900F0A3740CF07FA07E90028027AD
:10942B007B017AB2799690B4A2E4F0A37402F07F38
:10943B00007E0F12798590B296E0645A6003029514
:01944B000818
:10944C00A3E0FEA3E0FF7B017AB2799AA3E0FC33A0
:10945C0095E090B4A2F0A3CCF012798590B297E08D
:10946C00FEA3E08EF012389C9484940094959401A1
:10947C0094A19402000094C290B29AE07004A3E00C
:10948C0064017032129509802D90B29AE07027A376
:10949C00E06401802190B29AE07004A3E064017052
:1094AC00157BFF7A8179BA90B4A3F0A37402F07F94
:1094BC00047E001280277E007F057D007B017AB23E
:1094CC00799A123A7990B297E0FEA3E0FF7B017A89
:1094DC00B2799AA3E0FC3395E090B4A3F0A3CCF05E
:1094EC00128027E490B296F07B017AB2799690B410
:0C94FC00A3F0A304F07F007E0F12802775
:019508002240
:0D88780090B4F2E07002A3E06003028915E5
:1088850090B2967494F0A374A0F07B017AB27996B5
:1088950090B4A3E4F0A304F07F007E5412802790E7
:1088A500B2967494F0A374A1F07B017AB279969094
:1088B500B4A3E4F0A304F07F407E5412802790B265
:1088C500967494F0A374A3F07B017AB2799690B470
:1088D500A3E4F0A304F07F607E5412802790B29643
:1088E5007494F0A374A5F07B017AB2799690B4A341
:1088F500E4F0A304F07FA07E541280277B017AACBC
:0D890500796190B4A3E4F0A37406F07FA0A4
:108912000289BD90B4F2E07004A3E0640160030236
:0289220089C208
:1089240074FF90B296F0A3F07B017AB2799690B47A
:10893400A3E4F0A304F07F007E5412802774FF9018
:10894400B296F0A3F07B017AB2799690B4A3E4F0E6
:10895400A304F07F407E5412802774FF90B296F0F7
:10896400A3F07B017AB2799690B4A3E4F0A304F067
:108974007F607E5412802774FF90B296F0A3F07B40
:10898400017AB2799690B4A3E4F0A304F07FA07EB8
:10899400541280277B017AAC796190B4A3E4F0A3EC
:1089A40004F07FA17E941280277B017AAC796190D8
:0E89B400B4A3E4F0A304F07FA47E9412802705
:0189C2002292
:103AFE007B017AB2799690B4A2E4F0A37402F07FBF
:103B0E00007E0F12798590B296E0645A6003023EF1
:013B1E00C2E4
:103B1F00A3E0FEA3E0FF7B017AB2799AA3E0FC3326
:103B2F0095E090B4A2F0A3CCF012798590B297E013
:103B3F00FEA3E08EF012389C3B6B95303BCE953157
:103B4F003C3195323C9495333CF795343D5A95353D
:103B5F003DBD95363E1F953700003E7C90B29AE0F2
:103B6F007004A3E064016003023E7CC390B4B3E031
:0D3B7F00940190B4B2E094005003023E7C2B
:103B8C0090AF75E0FEA3E0FF20E0047D0180027D94
:103B9C0000ED5401FDEF54FEFFEF4DFF90AF75EEBD
:103BAC00F0A3EFF07B017AAF797590B4A3E4F0A3A6
:0F3BBC0004F07F407E951280277B017AA0793636
:103BCB00023E7990B29AE07004A3E06401600302B4
:103BDB003E7CC390B4B3E0940290B4B2E094005036
:043BEB0003023E7C17
:103BEF0090AF85E0FEA3E0FF20E0047D0180027D21
:103BFF0000ED5401FDEF54FEFFEF4DFF90AF85EE4A
:103C0F00F0A3EFF07B017AAF798590B4A3E4F0A332
:0F3C1F0004F07F417E951280277B017AA07945C2
:103C2E00023E7990B29AE07004A3E0640160030250
:103C3E003E7CC390B4B3E0940390B4B2E0940050D1
:043C4E0003023E7CB3
:103C520090AF95E0FEA3E0FF20E0047D0180027DAD
:103C620000ED5401FDEF54FEFFEF4DFF90AF95EED6
:103C7200F0A3EFF07B017AAF799590B4A3E4F0A3BF
:0F3C820004F07F427E951280277B017AA079544F
:103C9100023E7990B29AE07004A3E06401600302ED
:103CA1003E7CC390B4B3E0940490B4B2E09400506D
:043CB10003023E7C50
:103CB50090AFA5E0FEA3E0FF20E0047D0180027D3A
:103CC50000ED5401FDEF54FEFFEF4DFF90AFA5EE63
:103CD500F0A3EFF07B017AAF79A590B4A3E4F0A34C
:0F3CE50004F07F437E951280277B017AA07963DC
:103CF400023E7990B29AE07004A3E064016003028A
:103D04003E7CC390B4B3E0940590B4B2E094005008
:043D140003023E7CEC
:103D180090AFB5E0FEA3E0FF20E0047D0180027DC6
:103D280000ED5401FDEF54FEFFEF4DFF90AFB5EEEF
:103D3800F0A3EFF07B017AAF79B590B4A3E4F0A3D8
:0F3D480004F07F447E951280277B017AA0797268
:103D5700023E7990B29AE07004A3E0640160030226
:103D67003E7CC390B4B3E0940690B4B2E0940050A4
:043D770003023E7C89
:103D7B0090AFC5E0FEA3E0FF20E0047D0180027D53
:103D8B0000ED5401FDEF54FEFFEF4DFF90AFC5EE7C
:103D9B00F0A3EFF07B017AAF79C590B4A3E4F0A365
:0F3DAB0004F07F457E951280277B017AA07981F5
:103DBA00023E7990B29AE07004A3E06401600302C3
:103DCA003E7CC390B4B3E0940790B4B2E094005040
:043DDA0003023E7C26
:103DDE0090AFD5E0FEA3E0FF20E0047D0180027DE0
:103DEE0000ED5401FDEF54FEFFEF4DFF90AFD5EE09
:103DFE00F0A3EFF07B017AAF79D590B4A3E4F0A3F2
:0F3E0E0004F07F467E951280277B017AA0799081
:103E1D00805A90B29AE07004A3E064017051C3908F
:0D3E2D00B4B3E0940890B4B2E094004042B9
:103E3A0090AFE5E0FEA3E0FF20E0047D0180027D73
:103E4A0000ED5401FDEF54FEFFEF4DFF90AFE5EE9C
:103E5A00F0A3EFF07B017AAF79E590B4A3E4F0A385
:103E6A0004F07F477E951280277B017AA0799F1202
:023E7A00B69EF2
:103E7C007E007F057D007B017AB2799A123A7990A7
:103E8C00B297E0FEA3E0FF7B017AB2799AA3E0FC43
:103E9C003395E090B4A3F0A3CCF0128027E490B259
:103EAC0096F07B017AB2799690B4A3F0A304F07FDC
:063EBC00007E0F128027BA
:103EC200C390B4B3E0940190B4B2E09400403D7B5F
:103ED200017AAF796B90B4A3E4F0A37403F07F008E
:103EE2007E951280277B017AAF797590B4A3E4F0B6
:0A3EF200A304F07F037E95128027E1
:103EFC00E490B296F0A3F07B017AB2799690B4A3D9
:023F0C00801122
:103F0E0090B296E4F0A304F0FB7AB2799690B4A343
:0C3F1E00E4F0A304F07F207E95128027C1
:103F2A00C390B4B3E0940290B4B2E09400403D7BF5
:103F3A00017AAF797B90B4A3E4F0A37403F07F0411
:103F4A007E951280277B017AAF798590B4A3E4F03D
:0A3F5A00A304F07F077E9512802774
:103F6400E490B296F0A3F07B017AB2799690B4A370
:023F74008011BA
:103F760090B296E4F0A304F0FB7AB2799690B4A3DB
:0C3F8600E4F0A304F07F217E9512802758
:103F9200C390B4B3E0940390B4B2E09400403D7B8C
:103FA200017AAF798B90B4A3E4F0A37403F07F0895
:103FB2007E951280277B017AAF799590B4A3E4F0C5
:0A3FC200A304F07F0B7E9512802708
:103FCC00E490B296F0A3F07B017AB2799690B4A308
:023FDC00801152
:103FDE0090B296E4F0A304F0FB7AB2799690B4A373
:0C3FEE00E4F0A304F07F227E95128027EF
:103FFA00C390B4B3E0940490B4B2E09400403D7B23
:10400A00017AAF799B90B4A3E4F0A37403F07F0C18
:10401A007E951280277B017AAF79A590B4A3E4F04C
:0A402A00A304F07F0F7E951280279B
:10403400E490B296F0A3F07B017AB2799690B4A39F
:024044008011E9
:1040460090B296E4F0A304F0FB7AB2799690B4A30A
:0C405600E4F0A304F07F237E9512802785
:10406200C390B4B3E0940590B4B2E09400403D7BB9
:10407200017AAF79AB90B4A3E4F0A37403F07F109C
:104082007E951280277B017AAF79B590B4A3E4F0D4
:0A409200A304F07F137E951280272F
:10409C00E490B296F0A3F07B017AB2799690B4A337
:0240AC00801181
:1040AE0090B296E4F0A304F0FB7AB2799690B4A3A2
:0C40BE00E4F0A304F07F247E951280271C
:1040CA00C390B4B3E0940690B4B2E09400403D7B50
:1040DA00017AAF79BB90B4A3E4F0A37403F07F1420
:1040EA007E951280277B017AAF79C590B4A3E4F05C
:0A40FA00A304F07F177E95128027C3
:10410400E490B296F0A3F07B017AB2799690B4A3CE
:02411400801118
:1041160090B296E4F0A304F0FB7AB2799690B4A339
:0C412600E4F0A304F07F257E95128027B2
:10413200C390B4B3E0940790B4B2E09400403D7BE6
:10414200017AAF79CB90B4A3E4F0A37403F07F18A3
:104152007E951280277B017AAF79D590B4A3E4F0E3
:0A416200A304F07F1B7E9512802756
:10416C00E490B296F0A3F07B017AB2799690B4A366
:02417C008011B0
:10417E0090B296E4F0A304F0FB7AB2799690B4A3D1
:0C418E00E4F0A304F07F267E9512802749
:10419A00C390B4B3E0940890B4B2E09400403D7B7D
:1041AA00017AAF79DB90B4A3E4F0A37403F07F1C27
:1041BA007E951280277B017AAF79E590B4A3E4F06B
:0A41CA00A304F07F1F7E95128027EA
:1041D400E490B296F0A3F07B017AB2799690B4A3FE
:0241E400801148
:1041E60090B296E4F0A304F0FB7AB2799690B4A369
:0C41F600E4F0A304F07F277E95128027E0
:014202002299
:10743800E490B298F0A3F090B562E0FEA3E0FF906C
:10744800B298E0FCA3E0FDC39FEC9E5067AF0590A7
:10745800AC75E0FEA3E0A807088005CEC313CE13E1
:10746800D8F95401FF90B560E0B40010A3E0B50767
:107478000B90B296E4F0A37402F0800990B296E4FF
:10748800F0A37403F090B299E024A0FF90B298E0C2
:107498003495FE7B017AB2799690B4A3E4F0A30404
:1074A800F012802790B299E004F0708B90B298E0C7
:1074B80004F0808390B298E0FEA3E0FFC3940CEE42
:1074C8009400505690AC75E0FEA3E0A8070880052C
:1074D800CEC313CE13D8F930E00A90B296E4F0A3E5
:1074E80004F08007E490B296F0A3F090B299E024FB
:1074F800A0FF90B298E03495FE7B017AB27996901D
:10750800B4A3E4F0A304F012802790B299E004F049
:1075180070A290B298E004F0809A90B298E0FEA32E
:10752800E0FFC3940DEE9400506590AC75E0FEA3A7
:10753800E0A807088005CEC313CE13D8F95401FF7D
:1075480090B560E0B40010A3E0B5070B90B296E4E4
:10755800F0A37402F0800990B296E4F0A37403F0EB
:1075680090B299E024A0FF90B298E03495FE7B0198
:107578007AB2799690B4A3E4F0A304F0128027902D
:10758800B299E004F0709390B298E004F0808B9088
:10759800B298E0FEA3E0FFC3940FEE94005056901B
:1075A800AC75E0FEA3E0A807088005CEC313CE1390
:1075B800D8F930E00A90B296E4F0A304F08007E42A
:1075C80090B296F0A3F090B299E024A0FF90B29800
:1075D800E03495FE7B017AB2799690B4A3E4F0A3E7
:1075E80004F012802790B299E004F070A290B2984B
:0575F800E004F0809AA0
:0175FD00226B
:0A254B0090B564E07002A3E0706533
:0625550090B296F0A3F025
:10255B0090B296E0FCA3E0FDFF90AC79E0FEA3E027
:10256B00A807088005CEC313CE13D8F95401FF90EA
:10257B00B298E4F0A3EFF0ED2450FFEC3497FE7B20
:10258B00017AB2799890B4A3E4F0A304F0128027F7
:10259B0090B297E004F0700690B296E004F0C3900E
:0F25AB00B297E0941090B296E0940040A3806F36
:0C25BA0090B564E07004A3E0640170635D
:0625C60090B296F0A3F0B4
:1025CC0090B296E0FCA3E0FDFF90B01DE0FEA3E00E
:1025DC00A807088005CEC313CE13D8F95401FF9079
:1025EC00B298E4F0A3EFF0ED2450FFEC3497FE7BAF
:1025FC00017AB2799890B4A3E4F0A304F012802786
:10260C0090B297E004F0700690B296E004F0C3909C
:0D261C00B297E0941090B296E0940040A3B5
:102629007B017AB2799690B4A2E4F0A37402F07FA8
:10263900007E0F12798590B296E0645A6003022CED
:012649009EF2
:10264A00A3E0FEA3E0FF7B017AB2799AA3E0FC3310
:10265A0095E090B4A2F0A3CCF012798590B297E0FD
:10266A00FEA3E08EF012389C26B6976026B69761D4
:10267A0026B6976226B6976326B6976426B69765F6
:10268A0026B6976626B6976726B6976826B69769D6
:10269A0026B6976A26B6976B26B6976C26B6976DB6
:1026AA0026B6976E26B6976F00002C5890B564E050
:1026BA007002A3E0600302299D90B29AE07002A31F
:0626CA00E060030228316C
:1026D00090B298E024A0FF90B297E0346890B2A442
:1026E000F0FCA3EFF0FD7E007401A807088005C38D
:1026F00033CE33CED8F9F4FFEEF4FE90AC79E05E41
:10270000F0A3E05FF090A0AE75F00FED1237E1ECB2
:1027100075F00FA42583F58374D0F090B2A4E0FE89
:10272000A3E0FF90A0AF75F00F1237E1EE75F00F48
:10273000A42583F583E4F090A0B075F00FEF123775
:10274000E1EE75F00FA42583F583E4F090A0B17558
:10275000F00FEF1237E1EE75F00FA42583F58374C7
:1027600006F090A0B275F00FEF1237E1EE75F00FA2
:10277000A42583F5837401F090A0B375F00FEF12D8
:1027800037E1EE75F00FA42583F583E4F090A0B453
:1027900075F00FEF1237E1EE75F00FA42583F58386
:1027A0007403F0A374E8F0EF2480FFEE3497FE90FA
:1027B000B2A4E0FCA3E0FD90A0B675F00F1237E1E3
:1027C000EC75F00FA42583F583EEF0A3EFF090A055
:1027D000B875F00FED1237E1EC75F00FA42583F515
:1027E00083E4F0A37402F090A0BA75F00FED1237F5
:1027F000E1EC75F00FA42583F583E4F0A3F0A3F0DA
:10280000ED2480FFEC3497FE7B017AAC797990B4AB
:10281000A3E4F0A304F012802790B2A4E0FEA3E0AA
:0E282000FF7C007D0F12356374AE2FF974A09B
:10282E00022C5190B29AE07004A3E064016003029E
:02283E002C5814
:1028400090B298E024A0FF90B297E0346890B2A4D0
:10285000F0FCA3EFF0FD7E007401A807088005C31B
:1028600033CE33CED8F9FF90AC79E04EF0A3E04FF1
:10287000F090A19E75F00FED1237E1EC75F00FA40A
:102880002583F58374D0F090B2A4E0FEA3E0FF901E
:10289000A19F75F00F1237E1EE75F00FA42583F5B7
:1028A00083E4F090A1A075F00FEF1237E1EE75F020
:1028B0000FA42583F583E4F090A1A175F00FEF122A
:1028C00037E1EE75F00FA42583F5837406F090A12F
:1028D000A275F00FEF1237E1EE75F00FA42583F526
:1028E000837401F090A1A375F00FEF1237E1EE753C
:1028F000F00FA42583F583E4F090A1A475F00FEF09
:102900001237E1EE75F00FA42583F5837403F0A36D
:1029100074E8F0EF2480FFEE3497FE90B2A4E0FC60
:10292000A3E0FD90A1A675F00F1237E1EC75F00F52
:10293000A42583F583EEF0A3EFF090A1A875F00F26
:10294000ED1237E1EC75F00FA42583F583E4F0A3D5
:102950007402F090A1AA75F00FED1237E1EC75F05A
:102960000FA42583F583E4F0A3F0A3F0ED2480FF0A
:10297000EC3497FE7B017AAC797990B4A3E4F0A3B0
:1029800004F012802790B2A4E0FEA3E0FF7C007D5B
:0A2990000F123563749E2FF974A135
:10299A00022C5190B564E07004A3E0640160030264
:0F29AA002C5890B29AE07002A3E06003022AFE5C
:1029B90090B2A4F0A3F090B298E024A0FF90B2974F
:1029C900E03468FE90B2A6F0A3EFF090A28E75F005
:1029D9000F1237E1EE75F00FA42583F58374D0F05B
:1029E90090A28F75F00FEF1237E1EE75F00FA42565
:1029F90083F583E4F090A29075F00FEF1237E1EEC2
:102A090075F00FA42583F583E4F090A29175F00F7A
:102A1900EF1237E1EE75F00FA42583F5837406F004
:102A290090A29275F00FEF1237E1EE75F00FA42521
:102A390083F5837401F090A29375F00FEF1237E1DB
:102A4900EE75F00FA42583F583E4F090A29475F058
:102A59000FEF1237E1EE75F00FA42583F5837403A8
:102A6900F0A374E8F0EF2480FFEE3497FE90B2A64D
:102A7900E0FCA3E0FD90A29675F00F1237E1EC752A
:102A8900F00FA42583F583EEF0A3EFF0ED2402FF08
:102A9900E43CFE90A29875F00FED1237E1EC75F069
:102AA9000FA42583F583EEF0A3EFF090A29A75F0B9
:102AB9000FED1237E1EC75F00FA42583F583E4F0EF
:102AC900A3F0A3F0ED2480FFEC3497FE7B017AB2EA
:102AD90079A490B4A3E4F0A304F012802790B2A6DD
:102AE900E0FEA3E0FF7C007D0F123563748E2FF9A1
:022AF90074A2C5
:102AFB00022C5190B29AE07004A3E06401600302CF
:022B0B002C5844
:102B0D0074FF90B2A4F0A3F090B298E024A0FF90CF
:102B1D00B297E03468FE90B2A6F0A3EFF090A37EDA
:102B2D0075F00F1237E1EE75F00FA42583F5837460
:102B3D00D0F090A37F75F00FEF1237E1EE75F00F27
:102B4D00A42583F583E4F090A38075F00FEF123781
:102B5D00E1EE75F00FA42583F583E4F090A3817564
:102B6D00F00FEF1237E1EE75F00FA42583F58374A6
:102B7D0006F090A38275F00FEF1237E1EE75F00FAE
:102B8D00A42583F5837401F090A38375F00FEF12E4
:102B9D0037E1EE75F00FA42583F583E4F090A3845F
:102BAD0075F00FEF1237E1EE75F00FA42583F58365
:102BBD007403F0A374E8F0EF2480FFEE3497FE90D9
:102BCD00B2A6E0FCA3E0FD90A38675F00F1237E1ED
:102BDD00EC75F00FA42583F583EEF0A3EFF0ED2453
:102BED0002FFE43CFE90A38875F00FED1237E1EC87
:102BFD0075F00FA42583F583EEF0A3EFF090A38A73
:102C0D0075F00FED1237E1EC75F00FA42583F58308
:102C1D00E4F0A3F0A3F0ED2480FFEC3497FE7B01EC
:102C2D007AB279A490B4A3E4F0A304F012802790B3
:102C3D00B2A6E0FEA3E0FF7C007D0F123563747E2B
:0B2C4D002FF974A33EFA7B0112B69E23
:102C58007E007F057D007B017AB2799A123A7990DD
:102C6800B297E0FEA3E0FF7B017AB2799AA3E0FC79
:102C78003395E090B4A3F0A3CCF0128027E490B28F
:102C880096F07B017AB2799690B4A3F0A304F07F12
:062C9800007E0F128027F0
:012C9E002213
:108C2800E490B298F0A3F090B298E0FEA3E0FFC3FE
:108C3800941EEE94004003028D3090B58AE0FCA3A8
:108C4800E0FDC3EF9DEE9C506090B298E0FCA3E07D
:108C5800FDECC4F854F0C868FEEDC4540F4825E094
:108C6800FFEE33FE743D2FF58274AC3EF583E0FED3
:108C7800A3E0FFED540FFDEFA805088005CEC31350
:108C8800CE13D8F95401FF90B582E0B40010A3E0E8
:108C9800B5070B90B296E4F0A37402F0805A90B234
:108CA80096E4F0A37403F0804F90B298E0FCA3E040
:108CB800FDECC4F854F0C868FEEDC4540F4825E034
:108CC800FFEE33FE743D2FF58274AC3EF583E0FE73
:108CD800A3E0FFED540FFDEFA805088005CEC313F0
:108CE800CE13D8F930E00A90B296E4F0A304F080ED
:108CF80007E490B296F0A3F090B299E02400FF90B8
:108D0800B298E03496FE7B017AB2799690B4A3E4E7
:108D1800F0A304F012802790B299E004F070069056
:088D2800B298E004F0028C2F68
:018D30002220
:108D3100E490B298F0A3F090B298E0FEA3E0FFC3F4
:108D4100941EEE94004003028E3990B58CE0FCA392
:108D5100E0FDC3EF9DEE9C506090B298E0FCA3E073
:108D6100FDECC4F854F0C868FEEDC4540F4825E08A
:108D7100FFEE33FE74432FF58274AC3EF583E0FEC3
:108D8100A3E0FFED540FFDEFA805088005CEC31346
:108D9100CE13D8F95401FF90B584E0B40010A3E0DC
:108DA100B5070B90B296E4F0A37402F0805A90B22A
:108DB10096E4F0A37403F0804F90B298E0FCA3E036
:108DC100FDECC4F854F0C868FEEDC4540F4825E02A
:108DD100FFEE33FE74432FF58274AC3EF583E0FE63
:108DE100A3E0FFED540FFDEFA805088005CEC313E6
:108DF100CE13D8F930E00A90B296E4F0A304F080E3
:108E010007E490B296F0A3F090B299E02450FF905D
:108E1100B298E03496FE7B017AB2799690B4A3E4DD
:108E2100F0A304F012802790B299E004F07006904C
:088E3100B298E004F0028D3854
:018E39002216
:108E3A00E490B298F0A3F090B298E0FEA3E0FFC3EA
:108E4A00941EEE94004003028F4290B58EE0FCA37C
:108E5A00E0FDC3EF9DEE9C506090B298E0FCA3E069
:108E6A00FDECC4F854F0C868FEEDC4540F4825E080
:108E7A00FFEE33FE74492FF58274AC3EF583E0FEB3
:108E8A00A3E0FFED540FFDEFA805088005CEC3133C
:108E9A00CE13D8F95401FF90B586E0B40010A3E0D0
:108EAA00B5070B90B296E4F0A37402F0805A90B220
:108EBA0096E4F0A37403F0804F90B298E0FCA3E02C
:108ECA00FDECC4F854F0C868FEEDC4540F4825E020
:108EDA00FFEE33FE74492FF58274AC3EF583E0FE53
:108EEA00A3E0FFED540FFDEFA805088005CEC313DC
:108EFA00CE13D8F930E00A90B296E4F0A304F080D9
:108F0A0007E490B296F0A3F090B299E024A0FF9003
:108F1A00B298E03496FE7B017AB2799690B4A3E4D3
:108F2A00F0A304F012802790B299E004F070069042
:088F3A00B298E004F0028E4140
:018F4200220C
:108F4300E490B298F0A3F090B298E0FEA3E0FFC3E0
:108F5300941EEE9400400302904B90B590E0FCA366
:108F6300E0FDC3EF9DEE9C506090B298E0FCA3E05F
:108F7300FDECC4F854F0C868FEEDC4540F4825E076
:108F8300FFEE33FE744F2FF58274AC3EF583E0FEA3
:108F9300A3E0FFED540FFDEFA805088005CEC31332
:108FA300CE13D8F95401FF90B588E0B40010A3E0C4
:108FB300B5070B90B296E4F0A37402F0805A90B216
:108FC30096E4F0A37403F0804F90B298E0FCA3E022
:108FD300FDECC4F854F0C868FEEDC4540F4825E016
:108FE300FFEE33FE744F2FF58274AC3EF583E0FE43
:108FF300A3E0FFED540FFDEFA805088005CEC313D2
:10900300CE13D8F930E00A90B296E4F0A304F080CE
:1090130007E490B296F0A3F090B299E02400FF9099
:10902300B298E03497FE7B017AB2799690B4A3E4C8
:10903300F0A304F012802790B299E004F070069038
:08904300B298E004F0028F4A2C
:01904B002202
:10AC32007B017AAC795590B4A3E4F0A304F07F00D1
:10AC42007E981280277B017AAC795790B4A3E4F006
:10AC5200A304F0FF7E981280277B017AAC795D9085
:10AC6200B4A3E4F0A304F07F027E981280277B0154
:10AC72007AAC795B90B4A3E4F0A304F07F037E98EE
:10AC82001280277B017AAC795F90B4A3E4F0A3042D
:08AC9200F07F047E9802802788
:10A11E00C390B5B3E0940190B5B2E09400402B7BB0
:10A12E00017AAF79EB90B4A3E4F0A3740BF07F50F7
:10A13E007E981280277B017AB0790190B4A3E4F067
:10A14E00A304F07F5B7E98128027C390B5B3E09492
:10A15E000290B5B2E09400402B7B017AB079039067
:10A16E00B4A3E4F0A3740BF07F607E981280277B7B
:10A17E00017AB0791990B4A3E4F0A304F07F6B7E5A
:04A18E00981280277C
:10A19200C390B5B3E0940290B5B2E094007E005053
:10A1A200047F0180027F0090B296EEF0A3EFF07B75
:10A1B200017AB2799690B4A3E4F0A304F07F807E92
:04A1C2009802802758
:10A8AD00C390B5B5E0940190B5B4E0940040167B2B
:10A8BD00017AAF791790B4A3E4F0A37415F07FA0DB
:10A8CD007E98128027C390B5B5E0940290B5B4E0A0
:10A8DD00940040167B017AAF794190B4A3E4F0A3C4
:0AA8ED007415F07FC07E98128027DA
:10A8F700C390B5B5E0940290B5B4E094007E0050E3
:10A90700047F0180027F0090B296EEF0A3EFF07B08
:10A91700017AB2799690B4A3E4F0A304F07FE07EC5
:04A9270098028027EB
:107B4500E490B296F0A3F090B5AAE0FEA3E0FFC3DF
:0F7B550090B297E09F90B296E09E4003027C862C
:107B6400E0FCA3E0FD2400FFEC3499FEC006C0074E
:107B7400EDC4F8540FC868FFECC454F048FE74D741
:107B84002FF974AE3EFA7B0190B4A3E4F0A304F0A1
:107B9400D007D00612802790B296E0FCA3E0FD2423
:107BA40010FFEC3499FEC006C007EDC4F8540FC8AA
:107BB40068FFECC454F048FE74D92FF974AE3EFA51
:107BC4007B0190B4A3E4F0A304F0D007D0061280A4
:107BD4002790B296E0FCA3E0FDC4F8540FC868FFF8
:107BE400ECC454F048FE74E12FF58274AE3EF58384
:107BF400E0FEA3E07803CEC313CE13D8F95401FFFB
:107C040090B298E4F0A3EFF0ED2420FFEC3499FE59
:107C14007B017AB2799890B4A3E4F0A304F01280C3
:107C24002790B296E0FCA3E0FDC4F8540FC868FFA7
:107C3400ECC454F048FE74E12FF58274AE3EF58333
:107C4400E0FEA3E07802CEC313CE13D8F95401FFAB
:107C540090B29AE4F0A3EFF0ED2430FFEC3499FEF7
:107C64007B017AB2799A90B4A3E4F0A304F0128071
:017C740027E8
:107C750090B297E004F0700690B296E004F0027BB3
:107C85004CE490B296F0A3F090B296E0FEA3E0FF2C
:087C9500C39404EE9400504E6C
:107C9D0090B5AAE0FCA3E0FDC3EF9DEE9C7E0040F5
:107CAD00047F0180027F0090B298EEF0A3EFF09078
:107CBD00B297E02440FF90B296E03499FE7B017AB2
:0E7CCD00B2799890B4A3E4F0A304F0128027DB
:107CDB0090B297E004F070AA90B296E004F080A204
:017CEB002276
:076C2800E490B296F0A3F026
:106C2F0090B296E0FCA3E0FD25E0FFEC33FE748309
:106C3F002FF58274AC3EF583E0FFA3E090B298CFBE
:106C4F00F0A3EFF090B5DCE0FEA3E0FFC3ED9FEC07
:106C5F009E50067E037FE880047E007F0090B299ED
:106C6F00E02FF090B298E03EF090B297E02450FF02
:106C7F0090B296E03499FE7B017AB2799890B4A3E2
:086C8F00E4F0A304F0128027D9
:106C970090B297E004F0700690B296E004F0C390CB
:106CA700B297E0941E90B296E094005003026C2FC6
:0C6CB70090B4D4E07004A3E064017054B9
:106CC30090AC81E0FEA3E0FFC390AC7EE09FFF9019
:106CD300AC7DE09E90B298F0A3EFF07B017AB2799D
:106CE3009890B4A3E4F0A304F07F707E99128027F8
:106CF30090AC81E0FEA3E0FFC390AC80E09FFF90E7
:106D0300AC7FE09E90B298F0A3EFF07B017AB2796A
:016D130098E7
:106D1400026E3190B4D4E07002A3E06003026E40CE
:106D24007B017AB2799890B4A2F0A304F07F207E1C
:106D3400B012798590B29C1237B000000000E49044
:106D4400B2A2F0A3F090B4B2E0FEA3E0FF90B2A22E
:106D5400E0FCA3E0FDC39FEC9E5071EDC4F8540F1A
:106D6400C868FFECC454F048FE746B2FF58274AF0E
:106D74003EF583E0FEA3E0FFE4FCFD90B29CE0F866
:106D8400A3E0F9A3E0FAA3E0FBC312376A502C9006
:106D9400B2A3E0C4F8540FC868FF90B2A2E0C45490
:106DA400F048FE746B2FF58274AF3EF583E0FEA3CA
:106DB400E0FFE4FCFD90B29C1237A490B2A3E0047F
:106DC400F0708290B2A2E004F0026D4990B29CE0AF
:106DD400FCA3E0FDA3E0FEA3E0FF90B298E0F8A3DB
:106DE400E0F9A3E0FAA3E0FBC312376A400590B2CE
:106DF40098800390B29CA3A3E0FEA3E0FF90AC7F35
:106E0400E0FCA3E0FDC3EF9DFFEE9C90B2A0F0A3D5
:106E1400EFF07B017AB279A090B4A3E4F0A304F07C
:106E24007F707E991280277B017AB279A090B4A3F7
:0C6E3400E4F0A304F07F717E9912802727
:106E40007B017AAC795990B4A3E4F0A304F07F728B
:056E50007E990280277D
:0775FE00E490B296F0A3F047
:1076050090B296E0FCA3E0FD25E0FFEC33FE74C5E7
:107615002FF58274AC3EF583E0FFA3E090B298CFDE
:10762500F0A3EFF090B5DEE0FEA3E0FFC3ED9FEC25
:107635009E50067E037FE880047E007F0090B2990D
:10764500E02FF090B298E03EF090B297E024A0FFD2
:1076550090B296E03499FE7B017AB2799890B4A302
:08766500E4F0A304F0128027F9
:10766D0090B297E004F0700690B296E004F0C390EB
:10767D00B297E0941E90B296E09400500302760506
:0C768D0090B4D4E07004A3E064017032FB
:10769900E4FE90B298F0A3CEF07B017AB27998908B
:1076A900B4A3F0A304F07F707E99128027E4FE90C2
:0F76B900B298F0A3CEF07B017AB2799890B4A387
:1076C8000277A490B4D4E07002A3E060030277AF1D
:1076D8007B017AB2799890B4A2F0A304F07F207E5F
:1076E800B0127985E490B29AF0A3F090B29EF0A31C
:1076F800F090B4B2E0FEA3E0FF90B29EE0FCA3E0FD
:10770800FDC39FEC9E503FEDC4F8540FC868FFECD2
:10771800C454F048FE746B2FF58274AF3EF583E0D5
